:100183000D0A0D0A0009412F442073616D706C65DF
:10019300200009566F6C756D6520696E6372656D1D
:1001A300656E74200064420D0A0D0A0009426173F2
:1001B3006520766F6C756D65200009566F6C756DE3
:1001C3006520006442202D204D36323432392077A9
:1001D300726974656E0D0A0D0A000D0A0D0A09C9CC
:1001E300E8B1B8C3FBB3C63A2020D2F4C1BFB5F718
:1001F300BDDAC4A3BFE920205442412D3234373441
:10020300535A312D32360D0A0009CFEEC4BFC3FB5A
:10021300B3C63A2020C9EEDBDAB5D8CCFA31BAC579
:10022300CFDF3236C1D0B3B5B8C4D4EC0D0A000960
:10023300B0E6B1BED0C5CFA23A20205665722031B8
:100243002E312020323031342D30342D30340D0A0C
:100253000009D6C6D4ECC9CC3A20202020C9EEDB55
:10026300DACAD0B1B1BAA3B9ECB5C0BDBBCDA8BC95
:0E027300BCCAF5D3D0CFDEB9ABCBBE0D0A00AE
:1007BE00012A01011A01011900011D0302265A9690
:1007CE000228030002230000011E01011700040885
:1007DE0000000000010C00040D00000000021300D8
:0107EE00000A
:1008A6001207F01209F11209781209DE1208501225
:1008B60009391209AF120026120281E51EB401EFB2
:0708C6007F321209D280E825
:10002600E51864016003020182C3E5249464E523B4
:1000360094005072E4F53EAF3E1208F3E53E25E02B
:100046002408F808EF26F618E436F6053EE53EC322
:10005600940240E3050CE50CC3940A5003020182A6
:10006600E4F53EE50CFD7C00E53E25E02408F8E6D7
:10007600FE08E6FF1204738F3FE53E25E0240DF8E7
:1000860008EF26F618E436F6E53E25E02408F8E4FF
:10009600F608F6053EE53EB402C9E4F50C0512E5A0
:1000A600127002051122AC11AD12AE0FAF10120480
:1000B600738F3F1208CD8F40C3E51D9540FD7F022B
:1000C6001205E8E51720E0030201647BFF7A017957
:1000D600837D0412078D7BFF7A0179887D0C1207D8
:1000E6008DAD3F1204C81207857BFF7A0179837DA7
:1000F6000412078D7BFF7A0179957D1212078DAD6B
:10010600401204C81207857BFF7A0179A87D061282
:10011600078D7BFF7A0179AF7D0D12078D7B017A02
:100126000079B0AD1D1204CE1207857BFF7A0179E6
:10013600A87D0612078D7BFF7A0179BD7D0812071F
:100146008D7B017A0079B0C3E51D9540FD1204CE82
:100156001207857BFF7A0179C67D1612078DE4F5B5
:100166003EE53E25E0240DF8E4F608F6053EE53EBC
:0C017600B402EEE4F511F512F523F524B7
:01018200225A
:1008CD00EFC3952650037F0022EFC395264008EF16
:1008DD0095275003AF2822EFC395274006E528251D
:0608ED0029FF227F00221A
:1009AF00120919E52B6518600AAD1D7F021205E8C3
:0409BF0085182B224A
:10091900A283E433F53E7FC87E00120995A283E4E1
:0F09290033FFB53E0AEF600475180122751802FE
:01093800229C
:0A09DE00752B02AD1D7F020205E833
:10093900A2A5E433F53E7FC87E00120995A2A5E47D
:0F09490033FFB53E0AEF64016003C2A422D2A4BB
:01095800227C
:0C09D200E519C39F4005B282E4F519222C
:100850007BFF7A0179DD7D2E12078D7BFF7A02798D
:100860000C7D2512078D7BFF7A0279327D211207DC
:0C0870008D7BFF7A0279547D2C02078DED
:060821008B468A4789485E
:10082700E4784AF618F67849E6FFC39D5016AB46BA
:10083700AA47A9488F82758300120412784A26F6C0
:08084700180680E2784AE6FF82
:01084F002286
:0205E800AC075E
:1005EA00784B7657E4FBFAEDD3945740027D57C314
:1005FA00784BE69DF6E6FD540375F020A4AEF04272
:10060A0003EE4202ED547CFF1313543F4203EBAE58
:10061A00027802C333CE33CED8F9FBAA06EC1460B3
:10062A000C14600E2402700A43030280054303037C
:10063A008000430206C2AFE4FDEB30E004D2A7809B
:10064A0002C2A700D2A600C2A700C2A60000EAC33F
:10065A0013FAEB13FB0DBD0AE0D2A700D2A600D213
:08066A00A700C2A60000D2AFF8
:010672002265
:0509F100D2A7C2A622FE
:1008F300EFD3940740037F0022530707EF4480F5AB
:10090300C543C5087F027E00120995E5C530E4FBA7
:0609130053C5E7AFC62248
:100978007591FF7592FFC2AD538EEFE4F5C653C56E
:0D0988008F53C5F743C5807FC8FE02099557
:100281007B007A00793E120708EF7003020359E5FB
:100291002A24FE601B14606B240270E4E53EB47EE8
:1002A1000C752A02E4F513F514F51580D3020353F6
:1002B100E53EB47E20D3E5149400E5139400403D5F
:1002C100752A01E5159516F515AF14120747E4F5E2
:1002D10013F51480ABE53EB47F05752A0380A105B3
:1002E10014E514AE1370020513142490F582740002
:1002F1003EF583E53EF02515F515853E16752A0276
:10030100020281752A02E53EB480210514E514AE8E
:100311001370020513142490F58274003EF5837462
:100321007EF02515F51575167E020281E53EB48134
:10033100210514E514AE1370020513142490F582FF
:1003410074003EF583747FF02515F51575167F024F
:080351000281752A01020281FC
:010359002281
:100747007B017A007990EFC394074031900004123F
:100757000412540F24FE7025900005120412B401F0
:100767001C900096E0F525E52554F024E0600B2465
:0D07770010700AE5255401F51722120850F4
:010784002252
:10095900AD07AC068CE3EDF5E453E5F843E5011288
:0F096900001775E64675E6B9001209E8AFE222FD
:0E06C0008E2C8F2D8C2E8D2F8B308A3189320F
:1006CE00E4F533F534C3E534952FE533952E5029F3
:1006DE00052DE52DAE2C7002052C14FF120959AB19
:1006EE0030AA31A932853482853383EF1204510545
:0906FE0034E53470D0053380CCE2
:0107070022CF
:0E035A008E358F368C378D388B398A3A893B39
:10036800E4F53CF53DFFD3E5389400E537940140CA
:100378000122E5355401FEAF36E5382FFFE5373E5B
:10038800FED3EF9480EE940040037F0022E53554BD
:10039800FEFC7D00F5E312000E75E64675E6B90031
:1003A800E4F53CF53DC3E53D9538E53C95375054BB
:1003B800E535F5E3E536F5E4AB39AA3AA93B853DE1
:1003C80082853C83120412FFF5E253E5F843E50207
:1003D80075E64675E6B900E4F5E253E5F843E5014C
:1003E80075E64675E6B900E5E26F60061209E87F32
:1003F80000220536E53670020535053DE53D70A558
:09040800053C80A11209E87F0106
:0104110022C8
:0F09C3008EE312000E75E64675E6B9000209E8EC
:09000E00E4F5E453E5F843E503D1
:0C001700C2AF53E71843E70143E7802223
:0909E80053E77FE4F5E6D2AF22EB
:03000B0002087C6C
:10087C00C0E0C0D0C2A9C28C758A00758CDC051989
:10088C00E51ED394014002151E0524E524700205D3
:0A089C0023D28CD2A9D0D0D0E032D4
:030023000206735F
:10067300C0E0C083C082C0D075D000C006309832BD
:10068300C2980520E520AE1F7002051F142400F553
:100693008274003EF583E599F0C3E5209480E51F5D
:1006A30094004006751F007520000522E5227002A4
:0D06B3000521D006D0D0D082D083D0E03217
:10070800E52245217002FF22051CE51CAE1B700284
:10071800051B142400F58274003EF583E012043FA3
:10072800C3E51C9480E51B94004005E4F51BF51C0B
:0F073800C2ACE522152270021521D2AC7F01223E
:080785007B017A0079B07D03CD
:08078D008B418A4289438D442F
:10079500751EC8C282E4F545E545C395445017ABBF
:1007A50041AA42A943854582758300120412FF12AE
:0807B5000003054580E2D28239
:0107BD002219
:080003008F993099FDC299228A
:0604C8007B017A0079B00F
:0604CE008B418A428943C4
:1004D400ED75F06484FFED75F06484AEF0EFD394B1
:1004E400004011EF2430FD0543E54370020542143A
:1004F400F9ED8010AB410543E543AA427002054281
:1005040014F9742012043FEE75F00A84FDEE75F0C0
:100514000A84AEF0EF7015ED7012AB410543E5436C
:10052400AA427002054214F974208013ED2430FFAE
:10053400AB410543E543AA427002054214F9EF12A8
:10054400043FEE2430FFAB410543E543AA42700269
:08055400054214F9EF02043F17
:10099500E4FDFCC3ED9FEC9E500F7B32AA031BEADE
:0909A50070FA0DBD00010C80EA9E
:0109AE002226
:1007F000C2AF759301E4F594758921758CDCF58A97
:10080000D2A9D28C759850F587758DFD758BFDD268
:100810008ED2ACC282D283D2A4D2A5751A01D2AF35
:0108200022B5
:0300000002055C9A
:0C055C00787FE4F6D8FD75814B0205A302
:10041200BB010CE58229F582E5833AF583E022509F
:1004220006E92582F8E622BBFE06E92582F8E222E9
:0D043200E58229F582E5833AF583E4932203
:10043F00BB010689828A83F0225002F722BBFE019C
:02044F00F32296
:10045100F8BB010DE58229F582E5833AF583E8F0E1
:10046100225006E92582C8F622BBFE05E92582C88D
:02047100F22275
:10047300BC000BBE0029EF8DF084FFADF022E4CC6D
:10048300F875F008EF2FFFEE33FEEC33FCEE9DEC36
:10049300984005FCEE9DFE0FD5F0E9E4CEFD22ED7C
:1004A300F8F5F0EE8420D21CFEADF075F008EF2FC6
:1004B300FFED33FD4007985006D5F0F222C398FDB7
:0504C3000FD5F0EA2254
:100568000208A6E493A3F8E493A34003F68001F2FB
:1005780008DFF48029E493A3F85407240CC8C33394
:10058800C4540F4420C8834004F456800146F6DF63
:10059800E4800B01020408102040809007BEE47E2E
:1005A800019360BCA3FF543F30E509541FFEE49358
:1005B800A360010ECF54C025E060A840B8E493A31F
:1005C800FAE493A3F8E493A3C8C582C8CAC583CA4A
:1005D800F0A3C8C582C8CAC583CADFE9DEE780BE02
:0107EF000009
:00000001FF
