:1001D4000D0A0D0A00094368616E6E656C202D2DB1
:1001E4002D2D200009412F442073616D706C652012
:1001F4000009566F6C756D6520696E6372656D6577
:100204006E74200064420D0A0D0A00094261736590
:1002140020766F6C756D65200009566F6C756D6581
:1002240020006442202D204D36323432392077723A
:100234006974656E0D0A0D0A000D0A0D0A09C9E8F4
:10024400B1B8C3FBB3C63A2020D2F4C1BFB5F7BDE1
:10025400DAC4A3BFE920205442412D323437344755
:100264005A330D0A0009CFEEC4BFC3FBB3C63A200C
:1002740020B9E3D6DDB5D8CCFA33BAC5CFDF4231E5
:10028400D0CDB3B5B8C4D4ECCFEEC4BF0D0A0009C9
:10029400B0E6B1BED0C5CFA23A2020566572203157
:1002A4002E302020323031342D31322D33300D0AAE
:1002B4000009D6C6D4ECC9CC3A20202020C9EEDBF4
:1002C400DACAD0B1B1BAA3B9ECB5C0BDBBCDA8BC34
:0E02D400BCCAF5D3D0CFDEB9ABCBBE0D0A004D
:10082100012A01011A01011900011D0302265A962C
:100831000228030002230000011E01011700040821
:1008410000000000010C00040D0000000002130074
:0108510000A6
:10090900120853120A541209DB120A411208B312CF
:10091900099C120A121200261202E2E51EB401EF26
:070929007F32120A3580E85D
:10002600E518640160030201D3C3E5249464E52363
:1000360094005072E4F53EAF3E120956E53E25E0C7
:100046002408F808EF26F618E436F6053EE53EC322
:10005600940240E3050CE50CC3940A50030201D355
:10006600E4F53EE50CFD7C00E53E25E02408F8E6D7
:10007600FE08E6FF1204D48F3FE53E25E0240DF886
:1000860008EF26F618E436F6E53E25E02408F8E4FF
:10009600F608F6053EE53EB402C9E4F50C0512E5A0
:1000A600127002051122E4F53EE53E25E0240DF826
:1000B600E6FE08E6FFAC11AD121204D48F3F12091A
:1000C600308F40C3E51D9540FDAF3E120649E5174A
:1000D60020E0030201A91207E87BFF7A0179D97DA6
:1000E6000E1207F0AD3E1205297B017A0079B07D2C
:1000F600031207F01207E81207E87BFF7A0179E896
:100106007D0C1207F0AD3F1205297B017A0079B00C
:100116007D031207F01207E87BFF7A0179F57D125D
:100126001207F07B017A0079B0AD4012052F7B01F2
:100136007A0079B07D031207F07BFF7A0279087D99
:10014600061207F07BFF7A02790F7D0D1207F07B0E
:10015600017A0079B0AD1D12052F7B017A0079B0C6
:100166007D031207F07BFF7A0279087D061207F0FD
:100176007BFF7A02791D7D081207F07B017A0079F0
:10018600B0C3E51D9540FD12052F7B017A0079B0BD
:100196007D031207F07BFF7A0279267D161207F09F
:1001A6001207E8053EE53EC3940250030200AFE4A1
:1001B600F53EE53E25E0240DF8E4F608F6053EE5B5
:0D01C6003EB402EEE4F511F512F523F52428
:0101D3002209
:10093000EFC3952650037F0022EFC395264008EFB2
:1009400095275003AF2822EFC395274006E52825B9
:0609500029FF227F0022B6
:100A120012097CE52B6518600AAD1D7F021206499A
:040A220085182B22E6
:10097C00A283E433F53E7FC87E001209F8A283E41B
:0F098C0033FFB53E0AEF6004751801227518029B
:01099B002239
:0A0A4100752B02AD1D7F020206496D
:10099C00A2A5E433F53E7FC87E001209F8A2A5E4B7
:0F09AC0033FFB53E0AEF64016003C2A422D2A458
:0109BB002219
:0C0A3500E519C39F4005B282E4F51922C8
:1008B3007BFF7A02793D7D2B1207F07BFF7A027969
:1008C300697D291207F07BFF7A0279937D21120754
:0C08D300F07BFF7A0279B57D2C0207F063
:060884008B468A478948FB
:10088A00E4784AF618F67849E6FFC39D5016AB4657
:10089A00AA47A9488F82758300120473784A26F6FC
:0808AA00180680E2784AE6FF1F
:0108B2002223
:02064900AC07FC
:10064B00784B7657E4FBFAEDD3945740027D57C3B2
:10065B00784BE69DF6E6FD540375F020A4AEF04210
:10066B0003EE4202ED547CFF1313543F4203EBAEF7
:10067B00027802C333CE33CED8F9FBAA06EC146052
:10068B000C14600E2402700A43030280054303031B
:10069B008000430206C2AFE4FDEB30E004D2A7803A
:1006AB0002C2A700D2A600C2A700C2A60000EAC3DE
:1006BB0013FAEB13FB0DBD0AE0D2A700D2A600D2B2
:0806CB00A700C2A60000D2AF97
:0106D3002204
:050A5400D2A7C2A6229A
:10095600EFD3940740037F0022530707EF4480F547
:10096600C543C5087F027E001209F8E5C530E4FBE1
:0609760053C5E7AFC622E5
:1009DB007591FF7592FFC2AD538EEFE4F5C653C50B
:0D09EB008F53C5F743C5807FC8FE0209F891
:1002E2007B007A00793E1207A9EF70030203BAE598
:1002F2002A24FE601B14606B240270E4E53EB47E87
:100302000C752A02E4F513F514F51580D30203B433
:10031200E53EB47E20D3E5149400E5139400403DFD
:10032200752A01E5159516F515AF14120769E4F55E
:1003320013F51480ABE53EB47F05752A0380A10551
:1003420014E514AE1370020513142490F5827400A0
:100352003EF583E53EF02515F515853E16752A0214
:100362000202E2752A02E53EB480210514E514AECC
:100372001370020513142490F58274003EF5837401
:100382007EF02515F51575167E0202E2E53EB48172
:10039200210514E514AE1370020513142490F5829E
:1003A20074003EF583747FF02515F51575167F02EE
:0803B20002E2752A010202E2D9
:0103BA002220
:100769007B017A007990EFC394074033900004121B
:100779000473540F24FE600280259000051204734F
:10078900B4011C900096E0F525E52554F024E060BD
:0F0799000B2410700AE5255401F517221208B33E
:0107A800222E
:1009BC00AD07AC068CE3EDF5E453E5F843E5011225
:0F09CC00001775E64675E6B900120A4BAFE22236
:0E0721008E2C8F2D8C2E8D2F8B308A318932AD
:10072F00E4F533F534C3E534952FE533952E502991
:10073F00052DE52DAE2C7002052C14FF1209BCAB54
:10074F0030AA31A932853482853383EF1204B20582
:09075F0034E53470D0053380CC80
:01076800226E
:0E03BB008E358F368C378D388B398A3A893BD8
:1003C900E4F53CF53DFFD3E5389400E53794014069
:1003D9000122E5355401FEAF36E5382FFFE5373EFA
:1003E900FED3EF9480EE940040037F0022E535545C
:1003F900FEFC7D00F5E312000E75E64675E6B900D0
:10040900E4F53CF53DC3E53D9538E53C9537505459
:10041900E535F5E3E536F5E4AB39AA3AA93B853D7F
:1004290082853C83120473FFF5E253E5F843E50244
:1004390075E64675E6B900E4F5E253E5F843E501EA
:1004490075E64675E6B900E5E26F6006120A4B7F6C
:1004590000220536E53670020535053DE53D70A5F6
:09046900053C80A1120A4B7F0141
:010472002267
:0F0A26008EE312000E75E64675E6B900020A4B24
:09000E00E4F5E453E5F843E503D1
:0C001700C2AF53E71843E70143E7802223
:090A4B0053E77FE4F5E6D2AF2287
:03000B000208DF09
:1008DF00C0E0C0D0C2A9C28C758A00758CDC051926
:1008EF00E51ED394014002151E0524E52470020570
:0A08FF0023D28CD2A9D0D0D0E03271
:030023000206D4FE
:1006D400C0E0C083C082C0D075D000C0063098325C
:1006E400C2980520E520AE1F7002051F142400F5F2
:1006F4008274003EF583E599F0C3E5209480E51FFC
:1007040094004006751F007520000522E522700242
:0D0714000521D006D0D0D082D083D0E032B5
:1007A900E52245217002FF22051CE51CAE1B7002E3
:1007B900051B142400F58274003EF583E01204A0A1
:1007C900C3E51C9480E51B94004005E4F51BF51C6A
:0F07D900C2ACE522152270021521D2AC7F01229D
:0807E8007BFF7A0179D47D0446
:0807F0008B418A4289438D44CC
:1007F800751EC8C282E4F545E545C395445017AB5C
:1008080041AA42A943854582758300120473FF12E9
:080818000003054580E2D282D5
:0108200022B5
:080003008F993099FDC299228A
:060529007B017A0079B0AD
:06052F008B418A42894362
:10053500ED75F06484FFED75F06484AEF0EFD3944F
:10054500004011EF2430FD0543E5437002054214D8
:10055500F9ED8010AB410543E543AA42700205421F
:1005650014F974201204A0EE75F00A84FDEE75F0FE
:100575000A84AEF0EF7015ED7012AB410543E5430B
:10058500AA427002054214F974208013ED2430FF4D
:10059500AB410543E543AA427002054214F9EF1247
:1005A50004A0EE2430FFAB410543E543AA427002A7
:0805B500054214F9EF0204A055
:1009F800E4FDFCC3ED9FEC9E500F7B32AA031BEA7B
:090A080070FA0DBD00010C80EA3A
:010A110022C2
:10085300C2AF759301E4F594758921758CDCF58A33
:10086300D2A9D28C759850F587758DFD758BFDD205
:100873008ED2ACC282D283D2A4D2A5751A01D2AFD2
:010883002252
:030000000205BD39
:0C05BD00787FE4F6D8FD75814B0206043F
:10047300BB010CE58229F582E5833AF583E022503E
:1004830006E92582F8E622BBFE06E92582F8E22288
:0D049300E58229F582E5833AF583E49322A2
:1004A000BB010689828A83F0225002F722BBFE013B
:0204B000F32235
:1004B200F8BB010DE58229F582E5833AF583E8F080
:1004C200225006E92582C8F622BBFE05E92582C82C
:0204D200F22214
:1004D400BC000BBE0029EF8DF084FFADF022E4CC0C
:1004E400F875F008EF2FFFEE33FEEC33FCEE9DECD5
:1004F400984005FCEE9DFE0FD5F0E9E4CEFD22ED1B
:10050400F8F5F0EE8420D21CFEADF075F008EF2F64
:10051400FFED33FD4007985006D5F0F222C398FD55
:050524000FD5F0EA22F2
:1005C900020909E493A3F8E493A34003F68001F236
:1005D90008DFF48029E493A3F85407240CC8C33333
:1005E900C4540F4420C8834004F456800146F6DF02
:1005F900E4800B0102040810204080900821E47E69
:10060900019360BCA3FF543F30E509541FFEE493F6
:10061900A360010ECF54C025E060A840B8E493A3BD
:10062900FAE493A3F8E493A3C8C582C8CAC583CAE8
:10063900F0A3C8C582C8CAC583CADFE9DEE780BEA0
:0108520000A5
:00000001FF
