:1000260050415F53544154455F43484B203D203077
:100036000D0A00776F726B5F737461747573203D80
:100046002050415F325F4C494E4B5F50415F5355E4
:1000560043434553530D0A0050415F5354415445A1
:100066005F43484B203D20310D0A00776F726B5F6E
:10007600737461747573203D2049444C450D0A0D17
:100086000A0D0A0050435F53544154455F43484BA1
:10009600203D20300D0A00776F726B5F73746174B8
:1000A6007573203D2050435F325F4C494E4B5F5085
:1000B600435F535543434553530D0A0050435F5323
:1000C600544154455F43484B203D20310D0A004CB6
:1000D600494E4B5F50415F53544154455F43484B33
:1000E600203D20300D0A00776F726B5F7374617468
:1000F6007573203D204C494E4B5F50415F325F5037
:10010600415F535543434553530D0A004C494E4BEB
:100116005F50435F53544154455F43484B203D2055
:10012600300D0A00776F726B5F737461747573209C
:100136003D204C494E4B5F50435F325F50435F5307
:100146005543434553530D0A004C494E4B5F5043AC
:100156005F53544154455F43484B203D20310D0ABF
:100166000050415F415544494F5F494E203D204F65
:100176004E0D0A0050415F415544494F5F4F55545B
:10018600203D204F46460D0A004C494E4B5F4155D7
:1001960044494F5F494E203D204F46460D0A004CCC
:1001A600494E4B5F415544494F5F4F5554203D20C2
:1001B6004F4E0D0A004C494E4B5F50415F4354521F
:1001C6004C203D204F4E0D0A0050415F4155444999
:1001D6004F5F494E203D204F46460D0A004C494E82
:1001E6004B5F415544494F5F4F5554203D204F4684
:1001F600460D0A004C494E4B5F50415F4354524CEA
:10020600203D204F46460D0A0050435F4155444964
:100216004F5F494E203D204F4E0D0A0050435F412F
:100226005544494F5F4F5554203D204F46460D0AD1
:100236000050435F415544494F5F494E203D204F92
:1002460046460D0A004C494E4B5F50435F4354529D
:100256004C203D204F46460D0A0050415F41554413
:10026600494F5F4F5554203D204F4E0D0A004C49D3
:100276004E4B5F415544494F5F494E203D204F4EFE
:100286000D0A0050415F4354524C203D204F4E0D05
:100296000A0050415F4354524C203D204F46460DC4
:1002A6000A0050435F415544494F5F4F5554203D26
:1002B600204F4E0D0A0050435F4354524C203D20C0
:1002C6004F4E0D0A0050435F4354524C203D204F81
:1002D60046460D0A000D0A0D0A09C9E8B1B8C3FB66
:1002E600B3C63A2020D6D8C1ACC4A3BFE920205457
:1002F60042412D32343736535A312D32360D0A00EB
:1003060009CFEEC4BFC3FBB3C63A2020C9EEDBDA81
:10031600B5D8CCFA31BAC5CFDF3236C1D0B3B5B80D
:10032600C4D4EC0D0A0009B0E6B1BED0C5CFA23ADE
:10033600202056657220312E312020323031342D66
:1003460030332D32390D0A0009D6C6D4ECC9CC3A61
:1003560020202020C9EEDBDACAD0B1B1BAA3B9ECAD
:10036600B5C0BDBBCDA8BCBCCAF5D3D0CFDEB9AB3A
:05037600CBBE0D0A00E2
:100D3700012001010D010112000114000119000138
:0F0D47001B00010E00011501010C000208000045
:100D76001208DD120CBC7F32120E2F1207961204D7
:0C0D86005412080C12050C12037B80EACA
:10079600E51C7035120DA4EF640170697BFF7A00C9
:1007A60079267D12120D9CC2A3120DC4EF7056124B
:1007B6000DD4EF7050120C23C2A17BFF7A00793959
:1007C6007D24120D9C751C0122E51C640170367F88
:1007D60032120E3B120DA4EF702B7BFF7A00795E6E
:1007E6007D12120D9C7BFF7A0079397D24120D9CB7
:1007F600120B24D2A3D2A17BFF7A0079717D181245
:060806000D9CE4F51C222C
:10045400E51C600A64016006E51C6405704A120D1F
:10046400B4EF6401600302050B7BFF7A00798A7D97
:1004740012120D9CC2A2E51CB40107120B24D2A3D4
:10048400D2A1E51CB40507120B65D2A1D2A3120DAB
:10049400D4EF7073120A5BC2A07BFF7A00799D7D52
:1004A40024120D9C751C0322E51C640370597F32D1
:1004B400120E47120DB4EF702B7BFF7A0079C27DC8
:1004C40012120D9C7BFF7A00799D7D24120D9C12E3
:1004D4000A9ED2A2D2A07BFF7A0079717D18120DF8
:1004E4009CE4F51C120DA4BF0104C2A38008120DE4
:1004F400A4EF7002D2A3120DC4BF0103C2A1221241
:080504000DC4EF7002D2A12228
:10080C00E51C702F120DC4EF640170637BFF7A003E
:10081C0079D57D17120D9CC2A1120DA4EF70501248
:10082C00097DC2A37BFF7A0079ED7D24120D9C75A6
:10083C001C0522E51C640570367F32120E53120D16
:10084C00C4EF702B7BFF7A0079D57D17120D9C7B42
:10085C00FF7A0079ED7D24120D9C120B65D2A3D288
:10086C00A17BFF7A0079717D18120D9CE4F51C2296
:10050C00E51C600A64016006E51C6405704A120D66
:10051C00D4EF640160030205C37BFF7A0179127D7D
:10052C0017120D9CC2A0E51CB40107120B24D2A318
:10053C00D2A1E51CB40507120B65D2A1D2A3120DF2
:10054C00B4EF70731209C8C2A27BFF7A01792A7DBD
:10055C0024120D9C751C0722E51C640770597F3210
:10056C00120E5F120DD4EF702B7BFF7A01794F7D49
:10057C0017120D9C7BFF7A01792A7D24120D9C1297
:10058C000AE1D2A2D2A07BFF7A0079717D18120DFC
:10059C009CE4F51C120DA4BF0104C2A38008120D2B
:1005AC00A4EF7002D2A3120DC4BF0103C2A1221288
:0805BC000DC4EF7002D2A12270
:100C23007BFF7A0179677D12120D9CC2917BFF7A5B
:100C330001797A7D14120D9C120D92D2A67A017954
:100C4300A5120D98C2A57BFF7A0179BB7D13120D06
:0D0C53009CE4FF120E027F327E00020D12A3
:100B24007BFF7A0179CF7D13120D9CD2917BFF7AE2
:100B340001797A7D14120D9C120D92D2A67BFF7A54
:100B44000179E37D16120D9CD2A57BFF7A0179FA17
:100B54007D14120D9C7F01120E027F327E00020D65
:010B6400127E
:100A5B007BFF7A02790F7D12120D9CC2E97BFF7A24
:100A6B000279227D14120D9CD2A7120D94D2A67B73
:100A7B00FF7A0179A57D15120D9CC2A57BFF7A012A
:100A8B0079BB7D13120D9CE4FF120E117F327E0099
:030A9B00020D1237
:100A9E007BFF7A0279377D13120D9CD2E97BFF7AA8
:100AAE000279227D14120D9CD2A7120D94D2A67B30
:100ABE00FF7A0179E37D16120D9CD2A57BFF7A0297
:100ACE00794B7D14120D9C7F01120E117F327E0028
:030ADE00020D12F4
:10097D007BFF7A0179CF7D13120D9CD2917BFF7A8B
:10098D000279607D13120D9CC2907BFF7A027974FF
:10099D007D14120D9CC2A67BFF7A0179E37D1612A0
:1009AD000D9CD2A57BFF7A0279897D0E120D9CE4F8
:0B09BD00FF120DE47F327E00020D12DD
:100B65007BFF7A0179CF7D13120D9CD2917BFF7AA1
:100B750001797A7D14120D9C120D92D2A67BFF7A13
:100B85000179E37D16120D9CD2A57BFF7A02799837
:100B95007D0F120D9C7F01120DE47F327E00020D48
:010BA500123D
:1009C8007BFF7A0279377D13120D9CD2E97BFF7A7F
:1009D8000279A87D13120D9CC2A77BFF7A02797455
:1009E8007D14120D9CC2A67BFF7A0179E37D161255
:1009F8000D9CD2A57BFF7A0279BC7D0E120D9CE47A
:0B0A0800FF120DF37F327E00020D1282
:100AE1007BFF7A0279377D13120D9CD2E97BFF7A65
:100AF1000279227D14120D9CD2A7120D94D2A67BED
:100B0100FF7A0179E37D16120D9CD2A57BFF7A0253
:100B110079CB7D0F120D9C7F01120DF37F327E0088
:030B2100020D12B0
:100DA40020810AE51170037F01227FFF227F002248
:100DB40020800AE51370037F01227FFF227F002237
:100DC40020920AE51870037F01227FFF227F002210
:100DD40020960AE51A70037F01227FFF227F0022FA
:0F0DE400EF7006C29375110122D293E4F511222C
:0F0DF300EF7006C29475130122D294E4F5132217
:0F0E0200EF7006C29575180122D295E4F51822FB
:0F0E1100EF7006C297751A0122D297E4F51A22E4
:0C0E2F00E50EC39F4005B2A4E4F50E22BE
:0C0E3B00E512C39F4005B2A3E4F51222AB
:0C0E4700E514C39F4005B2A2E4F514229C
:0C0E5300E519C39F4005B2A1E4F5192287
:0C0E5F00E51BC39F4005B2A0E4F51B2278
:100CBC007BFF7A0279DB7D2A120C8F7BFF7A03791A
:100CCC00067D25120C8F7BFF7A03792C7D21120C6B
:0C0CDC008F7BFF7A03794E7D2C020C8F79
:060C60008B398A3A893B42
:100C6600E47840F618F6783FE6FFC39D5016AB3998
:100C7600AA3AA93B8F8275830012087C784026F633
:080C8600180680E27840E6FF49
:010C8E002243
:10037B007B007A007933120BA6EF7003020453E56E
:10038B002024FE601B14606B240270E4E533B47E02
:10039B000C752002E4F508F509F50A80D302044D2B
:1003AB00E533B47E20D3E5099400E5089400403D85
:1003BB00752001E50A950BF50AAF09120BE5E4F57B
:1003CB0008F50980ABE533B47F0575200380A105E3
:1003DB0009E509AE0870020508142490F582740033
:1003EB003EF583E533F0250AF50A85330B752002BC
:1003FB0002037B752002E533B480210509E509AEC4
:10040B000870020508142490F58274003EF583747D
:10041B007EF0250AF50A750B7E02037BE533B4816A
:10042B00210509E509AE0870020508142490F58230
:10043B0074003EF583747FF0250AF50A750B7F0275
:08044B00037B75200102037B15
:010453002286
:100BE5007B017A007990EFC394074031900004129D
:100BF500087C540F24FE702590000512087CB40172
:100C05001C900096E0F51FE51F54F024E0600B24CE
:0D0C150010700AE51F5401F50C22120CBCF2
:010C220022AF
:0A0D9200D2907A01798F7BFF7D1566
:080D9C00E50C6003120C8F222C
:100D5700AD07AC068CE3EDF5E453E5F843E5011286
:0F0D6700001775E64675E6B900120E6BAFE22273
:0E0A13008E218F228C238D248B258A26892705
:100A2100E4F528F529C3E5299524E52895235029DE
:100A31000522E522AE217002052114FF120D57ABEC
:100A410025AA26A927852982852883EF1208BB05B7
:090A510029E52970D0052880CCAC
:010A5A002279
:0E05C4008E2A8F2B8C2C8D2D8B2E8A2F89301A
:1005D200E4F531F532FFD3E52D9400E52C9401408A
:1005E2000122E52A5401FEAF2BE52D2FFFE52C3E1B
:1005F200FED3EF9480EE940040037F0022E52A545C
:10060200FEFC7D00F5E312000E75E64675E6B900C4
:10061200E4F531F532C3E532952DE531952C505490
:10062200E52AF5E3E52BF5E4AB2EAA2FA9308532B6
:100632008285318312087CFFF5E253E5F843E50237
:1006420075E64675E6B900E4F5E253E5F843E501DF
:1006520075E64675E6B900E5E26F6006120E6B7F3D
:100662000022052BE52B7002052A0532E53270A522
:09067200053180A1120E6B7F011D
:01067B00225C
:0F0E20008EE312000E75E64675E6B900020E6B02
:09000E00E4F5E453E5F843E503D1
:0C001700C2AF53E71843E70143E7802223
:090E6B0053E77FE4F5E6D2AF2263
:03000B00020CE8FC
:100CE800C0E0C0D0C2A9C28C758A00758CDC050E24
:100CF800051205140519051BE515D39401400215C5
:0A0D080015D28CD2A9D0D0D0E03271
:030023000209309F
:10093000C0E0C083C082C0D075D000C006309832FD
:10094000C2980517E517AE1670020516142400F5B7
:100950008274003EF583E599F0C3E5179480E516AF
:1009600094004006751600751700051EE51E7002FE
:0D097000051DD006D0D0D082D083D0E0325B
:100BA600E51E451D7002FF220510E510AE0F70020E
:100BB600050F142400F58274003EF583E01208A99F
:100BC600C3E5109480E50F94004005E4F50FF51099
:0F0BD600C2ACE51E151E7002151DD2AC7F0122A8
:080C8F008B348A3589368D375C
:100C97007515C8E4F538E538C395375017AB34AA4E
:100CA70035A93685388275830012087CFF12000348
:040CB700053880E29A
:010CBB002216
:080003008F993099FDC299228A
:06067C008B3C8A3D893E23
:10068200ED75F06484FFED75F06484AEF0EFD39401
:10069200004011EF2430FD053EE53E7002053D1499
:1006A200F9ED8010AB3C053EE53EAA3D7002053DEA
:1006B20014F974201208A9EE75F00A84FDEE75F0A3
:1006C2000A84AEF0EF7015ED7012AB3C053EE53ECC
:1006D200AA3D7002053D14F974208013ED2430FF09
:1006E200AB3C053EE53EAA3D7002053D14F9EF1212
:1006F20008A9EE2430FFAB3C053EE53EAA3D700260
:08070200053D14F9EF0208A9FE
:100D120075CBFC75CA6675CDFC75CC66C2AD75C85F
:100D220004EF1FAC0670011E4C600730CFFDC2CF2E
:050D320080EFC2CA229F
:1008DD00C2AF758921758CDCE4F58AD2A9D28C75ED
:1008ED009850F587758DFD758BFDD28ED2ACC2A457
:1008FD00D281D280D292D296D2A3D2A2D2A1D2A0AC
:10090D00D290D291D2A7D2E9D2A5D2A67F01120D53
:10091D00E4120DF3120E02120E11E4F51C750D0109
:03092D00D2AF2224
:0300000002070AEA
:0C070A00787FE4F6D8FD758140020751AD
:10087C00BB010CE58229F582E5833AF583E0225031
:10088C0006E92582F8E622BBFE06E92582F8E2227B
:0D089C00E58229F582E5833AF583E4932295
:1008A900BB010689828A83F0225002F722BBFE012E
:0208B900F32228
:1008BB00F8BB010DE58229F582E5833AF583E8F073
:1008CB00225006E92582C8F622BBFE05E92582C81F
:0208DB00F22207
:10071600020D76E493A3F8E493A34003F68001F276
:1007260008DFF48029E493A3F85407240CC8C333E4
:10073600C4540F4420C8834004F456800146F6DFB3
:10074600E4800B0102040810204080900D37E47EFF
:10075600019360BCA3FF543F30E509541FFEE493A8
:10076600A360010ECF54C025E060A840B8E493A36F
:10077600FAE493A3F8E493A3C8C582C8CAC583CA9A
:10078600F0A3C8C582C8CAC583CADFE9DEE780BE52
:010D5600009C
:00000001FF
