:0E052F007800EFF27801EBF208EAF208E9F248
:10053D007800E2FFEF640160030207D078097401CF
:10054D00F2780AE4F2780BE4F2780CE4F2780DE438
:10055D00F2780EE4F2780FE4F27801E2FB08E2FAA9
:10056D0008E2F9120A4EFFEFD394C040037F022236
:10057D007801E2FB08E2FA08E2F975820A75830058
:10058D00120A67FFEFB40104D2BC8002C2BC78012D
:10059D00E2FB08E2FA08E2F9120A4EFFE598543F31
:1005AD00FEEE4FF5987801E2FB08E2FA08E2F91247
:1005BD000A4EFFEF64C060167801E2FB08E2FA080C
:1005CD00E2F9120A4EFFEF644060030206EB780178
:1005DD00E2FB08E2FA08E2F9758202758300120B5C
:1005ED00F27F007E307D2A7C00120B3C7805120CC8
:1005FD00227F007E007D017C007805E2FB08E2F998
:10060D0008E2FA08E2CBF8C3120BCE40037F0222B8
:10061D007805E2FB08E2F908E2FA08E2CBF8C3E458
:10062D009BFFE49AFE740199FDE498FC7805120C89
:10063D00227801E2FB08E2FA08E2F975820175837E
:10064D0000120A67FFEF6401703EC28E538EFE5397
:10065D0089BF5389CF438E407805E2FC08E2FD083F
:10066D00E2FE08E2FF7808120BDF8F8D7805E2FCC1
:10067D0008E2FD08E2FE08E2FF8F8BC2AB5389BF93
:10068D00538FFDD28E0207507801E2FB08E2FA0883
:10069D00E2F9758201758300120A67FFEF6402703B
:1006AD003A538EEF438E01538EF7438E047805E255
:1006BD00FC08E2FD08E2FE08E2FF7808120BDF8F6E
:1006CD00D67805E2FC08E2FD08E2FE08E2FF8FD7CE
:1006DD0053AFFB538EF7438E1080687F0222780153
:1006ED00E2FB08E2FA08E2F9120A4EFFEF702278F7
:1006FD0001E2FB08E2FA08E2F9758208758300123F
:10070D000A67FFEFB40105438E208037538EDF80DB
:10071D00327801E2FB08E2FA08E2F9120A4EFFEF25
:10072D00B480207801E2FB08E2FA08E2F97582084C
:10073D00758300120A67FFEFB401054387808003BC
:10074D0053877F7801E2FB08E2FA08E2F975820926
:10075D00758300120A67FFEFB40104D2AC8002C2A8
:10076D00AC7801E2FB08E2FA08E2F97582077583BD
:10077D0000120A67FFEFB40104D29C8002C29C787C
:10078D0001E2FB08E2FA08E2F975820B75830012AB
:10079D000A67FFEF54C0FFE5A2543FFEEE4FF5A2EE
:1007AD007801E2FB08E2FA08E2F975820C75830024
:1007BD00120A67FFEFB4010543971080035397EFBB
:1007CD007F00227800E2FFEF640260030209577890
:1007DD00107402F27811E4F27812E4F27813E4F274
:1007ED007814E4F27815E4F27816E4F27801E2FB7D
:1007FD0008E2FA08E2F9120A4EFFEF64C0601678BB
:10080D0001E2FB08E2FA08E2F9120A4EFFEF64403A
:10081D0060030208F37801E2FB08E2FA08E2F975D9
:10082D00820A758300120A67FFEFB4010543B50113
:10083D00800353B5FE7801E2FB08E2FA08E2F912F3
:10084D000A4EFFEFB4C005439A808003539A7F7818
:10085D0001E2FB08E2FA08E2F975820275830012E3
:10086D000BF27F007E307D2A7C00120B3C78051246
:10087D000C227F007E007D017C007805E2FB08E202
:10088D00F908E2FA08E2CBF8C3120BCE40037F025F
:10089D00227805E2FB08E2F908E2FA08E2CBF8C398
:1008AD00E49BFFE49AFE740199FDE498FC7805122F
:1008BD000C22538EEF538EF7438E047805E2FC081D
:1008CD00E2FD08E2FE08E2FF7808120BDF8FD67812
:1008DD0005E2FC08E2FD08E2FE08E2FF8FD753AF08
:1008ED00FB438E1080037F02227801E2FB08E2FABF
:1008FD0008E2F9758209758300120A67FFEFB401EA
:10090D000543AF01800353AFFE7801E2FB08E2FA25
:10091D0008E2F9758207758300120A67FFEFB401CB
:10092D0005439A108003539AEF7801E2FB08E2FA2F
:10093D0008E2F975820B758300120A67FFEF540107
:0A094D00FFE5BA54FEFEEE4FF5BAC6
:01095700227D
:102112007531444154453A323031342D30312D300D
:10212200370D0A56312E300D0A007532444154459E
:102132003A323031342D30312D30370D0A56312EAE
:04214200300D0A0052
:0420A1007817EFF2CB
:1020A5007817E2FF14F2EF602D7818E4F27818E261
:1020B500FFEFC3940F501C7819E4F27819E2FFEF93
:1020C500C3944850077819E204F280EF7818E204C7
:0620D500F280DA0080CA6F
:0120DB0022E2
:10002600C28CD2A9D2B95389FC438E805389FB7501
:080036008C00758A00D28C22B7
:101CFA00781A7440F2781B7401F2781C120C2E00C8
:101D0A0000258078217401F27822E4F278237401A4
:101D1A00F27824E4F27825E4F27826E4F27BFE7A7B
:101D2A0000791A7F0112052F781A7440F2781C1272
:101D3A000C2E0000258078217401F278237401F2B8
:101D4A007824E4F27825E4F27BFE7A00791A7F029D
:031D5A0012052F40
:011D5D002263
:101FC700120026121CFAD2AF7F011220A11222663C
:101FD7007F901220A112001B1222731222ADD28011
:101FE700D2817BFF7A21792C7D17121A357BFF7AF4
:101FF7002179127D17121AAE122259120EAD121044
:0A2007007412004675C13B80EF2201
:0421A6007827EFF2B5
:1021AA0078287403F2087452F2782808E224FFFFB0
:1021BA00F218E234FFFEF2EF4E70EE7827E214FFD7
:0421CA00F2EF70DCE4
:0121CE0022EE
:0B228D0000F200190001AAAAAAAAAAE8
:10176800602C011A000000000000000000000000CA
:101778000000000000000000000000000000000061
:101788000000000000000000000000000000000051
:101798004101AD004101AB004101AC00410119001C
:1017A8004101AA00816800816900816400816A00A2
:1017B800816300816201816C01816601816B018115
:0217C8006501B9
:05003E007864E2FF22DE
:0600030078647401F22292
:05229E007864E4F22267
:0522A300786AE2FF2251
:10201100782AEBF208EAF208E9F27868E2FF7869D7
:10202100E2FEEEB507037F00227869E2FF04F27455
:10203100462FF582E43401F583E0FF782AE2FB08BC
:10204100E2FA08E2F9EF120A947869E2FFEFB4329A
:08205100047869E4F27F01222A
:0300430002192B74
:10192B00C0E0C083C082C0D075D000C000C006C06C
:01193B0007A4
:10193C00E59A30E02C539AFE782DE59BF2782DE257
:10194C00FF7868E2FE04F274462EF582E43401F569
:10195C0083EFF07868E2FFEFC3943240047868E4D8
:10196C00F2E59A30E132539AFD9001AAE0FFEFD3F1
:10197C0094004021900119E0FF74782FF582E43433
:10198C0001F583E0FF8F9B900119E004F09001AA10
:08199C00E014F0800312229E0A
:0F19A400D007D006D000D0D0D082D083D0E03290
:0E11E900782EEBF208EAF208E9F27831EDF226
:1011F7007832E4F27833E4F27834E4F27835E4F2E2
:101207007834E4F27831E2FF7834E2FEEEC39F40AF
:1012170003021330782EE2FB08E2FA08E2F9783489
:10122700E2FF8F82758300120A67FF782EE2FB08C0
:10123700E2FA08E2F97835E2FE8E82758300EF1252
:101247000AA6782EE2FB08E2FA08E2F97834E2FF10
:101257008F82758300120A67FFEF647F60030213B2
:10126700077831E2FFEF14FF7834E2FEEEC39F40C8
:10127700030213077834E2FF7E00EF2401FFEE3408
:1012870000FE782EE2FB08E2FA08E2F98F828E83ED
:10129700120A67FFEFB4801F782EE2FB08E2FA0814
:1012A700E2F97835E2FF8F82758300747E120AA611
:1012B7007834E204F280497834E2FF7E00EF2401BB
:1012C700FFEE3400FE782EE2FB08E2FA08E2F98F1F
:1012D700828E83120A67FFEFB4811F782EE2FB0824
:1012E700E2FA08E2F97835E2FF8F82758300747FAE
:1012F700120AA67834E204F280067835E4F28029EF
:10130700782EE2FB08E2FA08E2F97835E2FF8F82ED
:10131700758300120A67FF7833E22FF27835E2040B
:10132700F27834E204F202120B7833E2FFEFB4559D
:101337000D7835E2FFEF14FF7832EFF28004783250
:06134700E4F27832E2FF3F
:01134D00227D
:0A0CA3007836EBF208EAF208E9F2F5
:100CAD00783DE4F2783EE4F2783FE4F27B007A009E
:100CBD0079007840EBF208EAF208E9F27836E2FBC7
:100CCD0008E2FA08E2F9783DE2FF04F28F827583BB
:100CDD0000747E120AA67839E2FB08E2FA08E2F9FE
:100CED007840EBF208EAF208E9F2783FE4F2783C5A
:100CFD00E2FF783FE2FEEEC39F4003020DE878402D
:100D0D00E2FB08E2FA08E2F9120A4EFFEFB47E3672
:100D1D007836E2FB08E2FA08E2F9783DE2FF04F2E8
:100D2D008F82758300747F120AA67836E2FB08E283
:100D3D00FA08E2F9783DE2FF04F28F8275830074C0
:100D4D0080120AA6806F7840E2FB08E2FA08E2F909
:100D5D00120A4EFFEFB47F367836E2FB08E2FA084E
:100D6D00E2F9783DE2FF04F28F82758300747F1201
:100D7D000AA67836E2FB08E2FA08E2F9783DE2FFCE
:100D8D0004F28F827583007481120AA68027784041
:100D9D00E2FB08E2FA08E2F9120A4EFF7836E2FBAE
:100DAD0008E2FA08E2F9783DE2FE04F28E827583DC
:100DBD0000EF120AA67840E2FB08E2FA08E2F91207
:100DCD000A4EFF783EE22FF27842E22401F218E259
:100DDD003400F2783FE204F2020CFB783EE2FFC3EE
:100DED0074559FFF783EEFF2783EE2FFEFB47E360A
:100DFD007836E2FB08E2FA08E2F9783DE2FF04F208
:100E0D008F82758300747F120AA67836E2FB08E2A2
:100E1D00FA08E2F9783DE2FF04F28F8275830074DF
:100E2D0080120AA6805B783EE2FFEFB47F367836FB
:100E3D00E2FB08E2FA08E2F9783DE2FF04F28F8264
:100E4D00758300747F120AA67836E2FB08E2FA0871
:100E5D00E2F9783DE2FF04F28F827583007481120E
:100E6D000AA6801D783EE2FF7836E2FB08E2FA081A
:100E7D00E2F9783DE2FE04F28E82758300EF120AEC
:100E8D00A67836E2FB08E2FA08E2F9783DE2FF04C3
:0F0E9D00F28F82758300747E120AA6783DE2FF01
:010EAC002223
:0E1A35007843EBF208EAF208E9F27846EDF2A7
:101A430012003EEF70641200037847E4F27846E236
:101A5300FF7847E2FEEEC39F502E7843E2FB08E295
:101A6300FA08E2F97847E2FF8F82758300120A676A
:101A7300FF7847E2FE74782EF582E43401F583EFB4
:101A8300F07847E204F280C57843E2FB08E2FA0803
:101A9300E2F9120A4EFF8F9B9001197401F0784608
:0A1AA300E2FFEF14FF9001AAEFF03C
:011AAD002216
:0E169B007848EBF208EAF208E9F2784BEDF23B
:1016A900786CE2FF7848E2FB08E2FA08E2F9758211
:1016B90012758300EF120AA67862E2FF7848E2FB0E
:1016C90008E2FA08E2F9758213758300EF120AA697
:1016D9007863E2FF7848E2FB08E2FA08E2F97582EA
:1016E90014758300EF120AA67866E2FF7848E2FBD8
:1016F90008E2FA08E2F9758215758300EF120AA665
:10170900786BE2FF7848E2FB08E2FA08E2F97582B1
:1017190016758300EF120AA67B017A0079FBC003D4
:10172900C002C0017848E2FB08E2FA08E2F9783918
:10173900EBF208EAF208E9F2784BE2FF783CEFF2C3
:10174900D001D002D003120CA3784CEFF27B017ABE
:0E1759000079FB784CE2FD121A35784CE2FF65
:01176700225F
:0D000E00784DEFF2784DE2FF7865EFF222B9
:0D21F100784EEFF2784EE2FF786CEFF222AC
:0D21FE00784FEFF2784FE2FF7862EFF222A7
:0D220B007850EFF27850E2FF7863EFF22296
:0D2218007851EFF27851E2FF786BEFF2227F
:0D2225007852EFF27852E2FF7866EFF22275
:101E24007BFF7A22798DC003C002C0017BFE7A0059
:101E34007953A801AC02AD03D001D002D0037E00D7
:101E44007F0B120A28786CE2FF7859EFF27862E28D
:101E5400FF785AEFF27863E2FF785BEFF27866E29C
:101E6400FF785CEFF2786BE2FF785DEFF27BFE7A4D
:081E74000079537D0B12169B4F
:011E7C002243
:101D5E0012003EEF601378A1E2FC08E2FD08E2FEFD
:101D6E0008E2FF785E120C2222785EE2FB08E2F9AE
:101D7E0008E2FA08E2CBF8C000C001C002C0037846
:101D8E00A1E2FC08E2FD08E2FE08E2FFD003D00269
:101D9E00D001D000C3EF9BFFEE9AFEED99FDEC98BB
:101DAE00FC7B0A7A0079007800C3120BCE50031226
:021DBE001E24E1
:011DC0002200
:101E7D007BFE7A00796E122011EF6046786EE2FFDC
:101E8D00EFB47E159001ADE0FFEFC3940340037FE7
:101E9D0001229001ADE4F080D7786EE2FF9001ADA4
:101EAD00E0FE74AE2EF582E43401F583EFF090017F
:101EBD00ADE004FFF0EFC394FF40B59001ADE4F049
:041ECD0080AE7F0064
:011ED10022EE
:100EAD00121E7DEF70030210737B017A0179AE90F3
:100EBD0001ADE0FD1211E97872EFF27B017A017953
:100ECD00AE786FEBF208EAF208E9F27872E2FFEF22
:100EDD00D39400500302106E786FE2FB08E2FA081B
:100EED00E2F9758201758300120A67FFEF540FFF57
:100EFD00EF6409600302106E7874E4F27874E2FF17
:100F0D00EFC3942C50277874E2FF74AE2FF582E472
:100F1D003401F583E0FF7874E2FE741A2EF582E455
:100F2D003401F583EFF07874E204F280CF7B017A1F
:100F3D0001791A7D2C121ED2786FE2FB08E2FA08B5
:100F4D00E2F9758229758300120A67FF7873EFF253
:100F5D007873E2FFEFB4010C7F011222807F011242
:100F6D002232802D7873E2FFEFB4020E7F0212223F
:100F7D00807F02122232C28080177873E2FFEFB4B5
:100F8D00030F9001ACE4F07F001222807F03122248
:100F9D0032786FE2FB08E2FA08E2F975822A75836E
:100FAD0000120A67FF7873EFF27873E2FFEF7007B4
:100FBD007F0312224C801E7873E2FFEFB401077F8E
:100FCD000112224C800F7873E2FFEFB402077F020B
:100FDD0012224CC280786FE2FB08E2FA08E2F97542
:100FED00822B758300120A67FF7873EFF27873E234
:100FFD00FFEF70077F0312223F801E7873E2FFEF31
:10100D00B401077F0112223F800F7873E2FFEFB426
:10101D0002077F0212223FC280786FE2FB08E2FADC
:10102D0008E2F9758229758300120A67FFEFB40390
:10103D0030786FE2FB08E2FA08E2F975822A7583CF
:10104D0000120A67FFEF7019786FE2FB08E2FA08E9
:10105D00E2F975822B758300120A67FFEF7002D2D9
:06106D00809001ADE4F0EB
:01107300225A
:06001B009001ABE4F022AD
:0717CA0082830000817E0113
:072177007875EEF208EFF2AB
:10217E00787508E2FF24FFF218E2FE34FFF2EF4E0C
:10218E0060157877E4F27877E2FFEFC3940A50E0B7
:07219E007877E204F280EF04
:0121A5002217
:1018A2007883E2FE08E2FF7887EEF208EFF27883AF
:1018B200E2FE08E2FF7879EEF208EFF2C28478786D
:1018C200E4F27878E2FFC3EF648094905046C282DB
:1018D2007F0A7E001221777879E2FE08E2FFEE307D
:1018E200E704D2838002C2837F0A7E00122177D26C
:1018F200827F0A7E001221777879E2FE08E2FFEF0A
:1019020025E0FFEE33FE7879EEF208EFF27878E226
:1019120004F280AEC2847F0A7E00122177D2847FD5
:081922000A7E00122177C28445
:01192A00229A
:101C8F00787BEEF208EFF2787DEDF2787DE2FFEFF0
:101C9F00B4011D7883E2FE08E2FF787BE2FC08E2E4
:101CAF00FDEE4CFEEF4DFF7883EEF208EFF2802150
:101CBF007883E2FE08E2FF787BE2FC08E2FDEDF4B8
:101CCF00FDECF4FCEE5CFEEF5DFF7883EEF208EFC7
:101CDF00F27883E2FE08E2FF7887E2FC08E2FDED8E
:0B1CEF006F7002EC6E60031218A2225E
:101F7C007F327E007D007C00789DE2FB08E2F90850
:101F8C00E2FA08E2CBF8C3120BCE402E787EE2FFC9
:101F9C00EFB4010F7D007F017E00121C8F787EE470
:101FAC00F2800E7D017F017E00121C8F787E740101
:0A1FBC00F2789D120C2E00000000C8
:011FC60022F8
:0D2232007889EFF27889E2FF7886EFF222DA
:0D223F00788AEFF2788AE2FF7885EFF222CC
:0D224C00788BEFF2788BE2FF7882EFF222C0
:101B27007882E2FFEFB4030A7D007F107E00121C6B
:101B37008F227882E2FFEF6401704B7F327E007D57
:101B4700007C007891E2FB08E2F908E2FA08E2CBB0
:101B5700F8C3120BCE4040787FE2FFEFB4010F7D50
:101B6700007F107E00121C8F787FE4F2800E7D01CB
:101B77007F107E00121C8F787F7401F27891120C0F
:101B87002E00000000227882E2FFEFB402097D01F7
:071B97007F107E00121C8F7D
:011B9E002224
:101B9F007885E2FFEFB4030A7D007F047E00121CFC
:101BAF008F227885E2FFEF6401704B7F327E007DDC
:101BBF00007C007895E2FB08E2F908E2FA08E2CB34
:101BCF00F8C3120BCE40407880E2FFEFB4010F7DD7
:101BDF00007F047E00121C8F7880E4F2800E7D015E
:101BEF007F047E00121C8F78807401F27895120C9E
:101BFF002E00000000227885E2FFEFB402097D017C
:071C0F007F047E00121C8F10
:011C160022AB
:101C17007886E2FFEFB4030A7D007F407E00121C46
:101C27008F227886E2FFEF6401704B7F327E007D62
:101C3700007C007899E2FB08E2F908E2FA08E2CBB7
:101C4700F8C3120BCE40407881E2FFEFB4010F7D5D
:101C5700007F407E00121C8F7881E4F2800E7D01A8
:101C67007F407E00121C8F78817401F27899120CE4
:101C77002E00000000227886E2FFEFB402097D0102
:071C87007F407E00121C8F5C
:011C8E002233
:0D225900121F7C121C17121B9F121B272244
:0D226600788374FFF20874FFF21218A222B0
:0D22730078867403F27883E4F208E4F22226
:0D228000788CEFF2788CE2FF788FEFF2227D
:0522A800788FE2FF2227
:1015C2001222A3EF600302169A1220DC788EEFF249
:1015D200788EE2FFEF6402601B788EE2FFEF640315
:1015E2006012788EE2FFEF64066009788EE2FFEF08
:1015F20064077061788EE2FFEF120C471642021602
:1016020033031611061622071651090000169A7D99
:10161200017F087E00121C8FC2807F0012222522C9
:101622007D007F087E00121C8FD2807F011222254E
:10163200227D017F047E00121C8F7F001221F12285
:101642007D017F107E00121C8F7F001221FE227FFF
:1016520000122218221222A8788DEFF2788DE2FF72
:10166200EF120C4716730016790116870200001656
:10167200957F0012220B22788EE2FFEFB408197FC9
:101682000112220B22788EE2FFEFB4080B7F0212C6
:08169200220B227F00122280CE
:01169A00222D
:0522AD00788FE4F2222D
:0317D10081900004
:03000B000214A834
:1014A800C0E0C0F0C083C082C0D075D000C000C00A
:0D14B80001C002C003C004C005C006C0078B
:1014C500C2A9C28C758A00758CDC7890E204F2782A
:1014D50090E2FFEFC3940A50030215A378A1E2FC42
:1014E50008E2FD08E2FE08E2FF7B017A0079007858
:1014F50000EF2BFFEE3AFEED39FDEC38FC78A1123A
:101505000C227899E2FC08E2FD08E2FE08E2FF7B86
:10151500017A0079007800EF2BFFEE3AFEED39FDF8
:10152500EC38FC7899120C22789DE2FC08E2FD0863
:10153500E2FE08E2FF7B017A0079007800EF2BFFDD
:10154500EE3AFEED39FDEC38FC789D120C227891CF
:10155500E2FC08E2FD08E2FE08E2FF7B017A007981
:10156500007800EF2BFFEE3AFEED39FDEC38FC7804
:1015750091120C227895E2FC08E2FD08E2FE08E2F1
:10158500FF7B017A0079007800EF2BFFEE3AFEED44
:1015950039FDEC38FC7895120C227890E4F2D28C67
:0215A500D2A9C9
:1015A700D007D006D005D004D003D002D001D00098
:0B15B700D0D0D082D083D0F0D0E03242
:10134E0078A5EFF278A6EBF208EAF208E9F278A5B2
:10135E00E2FFEFD3940240037F012278A5E2FFEF74
:10136E0060030214A5C28C78A6E2FB08E2FA08E23A
:10137E00F9758202758300120A67FFEFB40104D279
:10138E00A98002C2A978A6E2FB08E2FA08E2F97582
:10139E008201758300120A67FFEFB40104D2B9808F
:1013AE0002C2B978A6E2FB08E2FA08E2F9120A4E86
:1013BE00FFEFD3940340037F022278A6E2FB08E2FC
:1013CE00FA08E2F9120A4EFFE58954FCFEEE4FF5DB
:1013DE008978A6E2FB08E2FA08E2F97582037583C2
:1013EE0000120A67FFEFB40103538E7F78A6E2FB6B
:1013FE0008E2FA08E2F9758203758300120A67FFA4
:10140E00EF7003438E8078A6E2FB08E2FA08E2F959
:10141E00758203758300120A67FFEFB402054389D4
:10142E000480035389FB78A6E2FB08E2FA08E2F98E
:10143E00758204758300120A67FFEFB40105438FAE
:10144E00018003538FFE78A6E2FB08E2FA08E2F968
:10145E00758205758300120AC8FFAEF0EEFF7E009E
:10146E008F8C78A6E2FB08E2FA08E2F97582057520
:10147E008300120AC8FFAEF08F8A78A6E2FB08E25C
:10148E00FA08E2F9758207758300120A67FFEFB456
:0A149E000102D28C7F00227F02229F
:0C17D400C100C103C102C101C105C10474
:1020DC0078B5E2FF78B4E2FEEEB507037F00227814
:1020EC00B5E2FF74AA2FF8E2FF78A9EFF278B5E217
:1020FC0004F278B5E2FFEF75F00A84AFF078B5EF33
:05210C00F278A9E2FFDA
:0121110022AB
:10004600D2A120A1679002B9E0FEA3E0FFE4FCFD87
:10005600C004C005C006C00778A1E2FC08E2FD089E
:10006600E2FE08E2FFD003D002D001D000C3EF9B2E
:10007600FFEE9AFEED99FDEC98FC7B0A7A0079007A
:100086007800C3120BCE500A200007D2007F001260
:10009600221830007C78A1E2FC08E2FD08E2FE08A6
:1000A600E2FF9002B9EEF0A3EFF080659002B9E0AE
:1000B600FEA3E0FFE4FCFDC004C005C006C007784F
:1000C600A1E2FC08E2FD08E2FE08E2FFD003D0024E
:1000D600D001D000C3EF9BFFEE9AFEED99FDEC98A0
:1000E600FC7B0A7A0079007800C3120BCE500A30E6
:1000F6000007C2007F0112221820001578A1E2FC39
:1001060008E2FD08E2FE08E2FF9002B9EEF0A3EF76
:10011600F0D2A620A6679002BBE0FEA3E0FFE4FCB7
:10012600FDC004C005C006C00778A1E2FC08E2FDD8
:1001360008E2FE08E2FFD003D002D001D000C3EFF0
:100146009BFFEE9AFEED99FDEC98FC7B0A7A00790E
:10015600007800C3120BCE500A200307D2037F009B
:1001660012220B30037C78A1E2FC08E2FD08E2FED5
:1001760008E2FF9002BBEEF0A3EFF080659002BBB1
:10018600E0FEA3E0FFE4FCFDC004C005C006C00716
:1001960078A1E2FC08E2FD08E2FE08E2FFD003D007
:1001A60002D001D000C3EF9BFFEE9AFEED99FDEC65
:1001B60098FC7B0A7A0079007800C3120BCE500AAD
:1001C600300307C2037F0112220B20031578A1E238
:1001D600FC08E2FD08E2FE08E2FF9002BBEEF0A397
:1001E600EFF0D2A520A5679002BDE0FEA3E0FFE4F4
:1001F600FCFDC004C005C006C00778A1E2FC08E209
:10020600FD08E2FE08E2FFD003D002D001D000C311
:10021600EF9BFFEE9AFEED99FDEC98FC7B0A7A00C7
:1002260079007800C3120BCE500A200507D2057F4D
:100236000012222530057C78A1E2FC08E2FD08E2E6
:10024600FE08E2FF9002BDEEF0A3EFF0806590029B
:10025600BDE0FEA3E0FFE4FCFDC004C005C006C08F
:100266000778A1E2FC08E2FD08E2FE08E2FFD003FF
:10027600D002D001D000C3EF9BFFEE9AFEED99FDB0
:10028600EC98FC7B0A7A0079007800C3120BCE50FA
:100296000A3005077F01122225C20520051578A11F
:1002A600E2FC08E2FD08E2FE08E2FF9002BDEEF085
:1002B600A3EFF0D2A420A4679002C1E0FEA3E0FF62
:1002C600E4FCFDC004C005C006C00778A1E2FC0836
:1002D600E2FD08E2FE08E2FFD003D002D001D00022
:1002E600C3EF9BFFEE9AFEED99FDEC98FC7B0A7A34
:1002F6000079007800C3120BCE500A200207D20202
:100306007F001221FE30027C78A1E2FC08E2FD08A3
:10031600E2FE08E2FF9002C1EEF0A3EFF0806590E6
:1003260002C1E0FEA3E0FFE4FCFDC004C005C00678
:10033600C00778A1E2FC08E2FD08E2FE08E2FFD071
:1003460003D002D001D000C3EF9BFFEE9AFEED99D9
:10035600FDEC98FC7B0A7A0079007800C3120BCE7C
:10036600500A300207C2027F011221FE20021578D0
:10037600A1E2FC08E2FD08E2FE08E2FF9002C1EEFF
:10038600F0A3EFF0D2A720A7679002BFE0FEA3E09C
:10039600FFE4FCFDC004C005C006C00778A1E2FC6E
:1003A60008E2FD08E2FE08E2FFD003D002D001D049
:1003B60000C3EF9BFFEE9AFEED99FDEC98FC7B0ADD
:1003C6007A0079007800C3120BCE500A200107D2BA
:1003D600017F001221F130017C78A1E2FC08E2FDE8
:1003E60008E2FE08E2FF9002BFEEF0A3EFF08065A0
:1003F6009002BFE0FEA3E0FFE4FCFDC004C005C020
:1004060006C00778A1E2FC08E2FD08E2FE08E2FF6A
:10041600D003D002D001D000C3EF9BFFEE9AFEEDD1
:1004260099FDEC98FC7B0A7A0079007800C3120BE0
:10043600CE500A300107C2017F011221F1200115B9
:1004460078A1E2FC08E2FD08E2FE08E2FF9002BFA6
:10045600EEF0A3EFF0D2A020A0679002C3E0FEA3C7
:10046600E0FFE4FCFDC004C005C006C00778A1E2B9
:10047600FC08E2FD08E2FE08E2FFD003D002D0014C
:10048600D000C3EF9BFFEE9AFEED99FDEC98FC7B46
:100496000A7A0079007800C3120BCE500A200407AE
:1004A600D2047F0012000E30047C78A1E2FC08E240
:1004B600FD08E2FE08E2FF9002C3EEF0A3EFF08033
:1004C600659002C3E0FEA3E0FFE4FCFDC004C005A6
:1004D600C006C00778A1E2FC08E2FD08E2FE08E2D9
:1004E600FFD003D002D001D000C3EF9BFFEE9AFEEF
:1004F600ED99FDEC98FC7B0A7A0079007800C3122E
:100506000BCE500A300407C2047F0112000E2004ED
:100516001578A1E2FC08E2FD08E2FE08E2FF90027F
:08052600C3EEF0A3EFF07F002B
:01052E0022AA
:1021CF00001A00190001AAAAAAAAAA00F20019006F
:1021DF0011000000000000000000000000000000DF
:0221EF000000EE
:1017E0004C02450000000000000000000000004125
:1017F00002B8004102B6004102B7004102120041A6
:1018000002B50081DA0081DB0081D80081D3008439
:05181000D400000000FF
:0522B20078D8E2FF22D4
:0622980078D87401F22267
:0522B70078D8E4F222DA
:1020590078B6EBF208EAF208E9F278DAE2FF78DB1F
:10206900E2FEEEB507037F002278DBE2FF04F2749B
:10207900512FF582E43402F583E0FF78B6E2FB08DC
:10208900E2FA08E2F9EF120A9478DBE2FFEFB432E0
:082099000478DBE4F27F012270
:030023000219B30C
:1019B300C0E0C083C082C0D075D000C000C006C0E4
:0119C300071C
:1019C40030982BC29878B9E599F278B9E2FF78DAC1
:1019D400E2FE04F274512EF582E43402F583EFF052
:1019E40078DAE2FFEFC39432400478DAE4F2309913
:1019F40031C2999002B5E0FFEFD3940040219002E8
:101A040012E0FF74832FF582E43402F583E0FF8F44
:101A140099900212E004F09002B5E014F0800312F1
:021A240022B7E7
:0F1A2600D007D006D000D0D0D082D083D0E0320D
:0E1AAE0078BAEBF208EAF208E9F278BDEDF240
:101ABC001222B2EF706412229878BEE4F278BDE282
:101ACC00FF78BEE2FEEEC39F502E78BAE2FB08E22E
:101ADC00FA08E2F978BEE2FF8F82758300120A677A
:101AEC00FF78BEE2FE74832EF582E43402F583EFB8
:101AFC00F078BEE204F280C578BAE2FB08E2FA089C
:101B0C00E2F9120A4EFF8F999002127401F078BD1F
:0A1B1C00E2FFEF14FF9002B5EFF0B6
:011B2600229C
:0E1ED20078BFEBF208EAF208E9F278C2EDF20E
:101EE0007B017A0179E0C003C002C00178BFE2FB48
:101EF00008E2FA08E2F97839EBF208EAF208E9F2C6
:101F000078C2E2FF783CEFF2D001D002D003120C8D
:101F1000A378C3EFF27B017A0179E078C3E2FD1286
:061F20001AAE78C3E2FFD7
:011F26002298
:102146007BFF7A2179CFC003C002C0017BFE7A00F3
:1021560079C4A801AC02AD03D001D002D0037E0041
:102166007F0B120A287BFE7A0079C47D0B121ED2E1
:012176002246
:101DC1001222B2EF601378A1E2FC08E2FD08E2FE04
:101DD10008E2FF78CF120C222278CFE2FB08E2F969
:101DE10008E2FA08E2CBF8C000C001C002C00378E3
:101DF100A1E2FC08E2FD08E2FE08E2FFD003D00206
:101E0100D001D000C3EF9BFFEE9AFEED99FDEC9857
:101E1100FC7B0A7A0079007800C3120BCE500312C2
:021E2100214658
:011E2300229C
:101F27007BFE7A0079DD122059EF604678DDE2FF0B
:101F3700EFB47E159002B8E0FFEFC3940340037F30
:101F470001229002B8E4F080D778DDE2FF9002B872
:101F5700E0FE74132EF582E43402F583EFF090026D
:101F6700B8E004FFF0EFC394FF40B59002B8E4F087
:041F770080AE7F00B9
:011F7B002243
:101074007BFF7A2179DAC003C002C0017BFE7A00CB
:1010840079E1A801AC02AD03D001D002D0037E0007
:101094007F17120A28121F27EF70030211467B01E3
:1010A4007A0279139002B8E0FD1211E978F8EFF2B0
:1010B4007B017A02791378DEEBF208EAF208E9F2AE
:1010C40078F8E2FFEFD39400407378DEE2FB08E2A5
:1010D400FA08E2F9758201758300120A67FFEF547A
:1010E4000FFFEF6409601C78DEE2FB08E2FA08E215
:1010F400F9758201758300120A67FFEF540FFFEF41
:10110400B4023A78FAE4F278FAE2FFEFC3940C50AE
:101114002778FAE2FF74192FF582E43402F583E0AC
:10112400FF78FAE2FE74452EF582E43402F583EF8B
:10113400F078FAE204F280CF78D37401F29002B826
:10114400E4F078D3E2FFEF605078FAE4F278FAE260
:10115400FFEFC3940C502178FAE2FF74452FF58217
:10116400E43402F583E0FF78FAE2FE74E72EF8EF48
:10117400F278FAE204F280D57BFE7A0079E17D17F9
:1011840012169B78D3E4F278A1E2FC08E2FD08E2AF
:10119400FE08E2FF78D4120C2278D4E2FB08E2F9CC
:1011A40008E2FA08E2CBF8C000C001C002C003782C
:1011B400A1E2FC08E2FD08E2FE08E2FFD003D0024F
:1011C400D001D000C3EF9BFFEE9AFEED99FDEC98A1
:1011D400FC7B0F7A0079007800C3120BCE5005789F
:0411E400D37401F2CD
:0111E80022E4
:03000000021816CD
:0C181600787FE4F6D8FD75812002185D93
:10095800E709F608DFFA8046E709F208DFFA803E81
:1009680088828C83E709F0A3DFFA8032E309F6086E
:10097800DFFA8078E309F208DFFA807088828C83D6
:10098800E309F0A3DFFA806489828A83E0A3F6088A
:10099800DFFA805889828A83E0A3F208DFFA804C64
:1009A80080D280FA80C680D4806980F2803380103B
:1009B80080A680EA809A80A880DA80E280CA8033A4
:1009C80089828A83ECFAE493A3C8C582C8CCC5831C
:1009D800CCF0A3C8C582C8CCC583CCDFE9DEE780EC
:1009E8000D89828A83E493A3F608DFF9ECFAA9F06B
:1009F800EDFB2289828A83ECFAE0A3C8C582C8CCC1
:100A0800C583CCF0A3C8C582C8CCC583CCDFEADED9
:100A1800E880DB89828A83E493A3F208DFF980CC3B
:100A280088F0EF60010E4E60C388F0ED2402B40434
:100A38000050B9F582EB2402B4040050AF232345DB
:060A480082239009A8734F
:100A4E00BB010689828A83E0225002E722BBFE02A6
:090A5E00E32289828A83E49322D9
:100A6700BB010CE58229F582E5833AF583E0225044
:100A770006E92582F8E622BBFE06E92582F8E2228E
:0D0A8700E58229F582E5833AF583E49322A8
:100A9400BB010689828A83F0225002F722BBFE0141
:020AA400F3223B
:100AA600F8BB010DE58229F582E5833AF583E8F086
:100AB600225006E92582C8F622BBFE05E92582C832
:020AC600F2221A
:100AC800BB0110E58229F582E5833AF583E0F5F06C
:100AD800A3E0225009E92582F886F008E622BBFE49
:100AE8000AE92582F8E2F5F008E222E5832AF5838F
:080AF800E993F5F0A3E9932254
:100B000075F008758200EF2FFFEE33FECD33CDCCAC
:100B100033CCC58233C5829BED9AEC99E58298402F
:100B20000CF582EE9BFEED9AFDEC99FC0FD5F0D60C
:100B3000E4CEFBE4CDFAE4CCF9A88222B800C1B936
:100B40000059BA002DEC8BF084CFCECDFCE5F0CB74
:100B5000F97818EF2FFFEE33FEED33FDEC33FCEBAD
:100B600033FB10D703994004EB99FB0FD8E5E4F968
:100B7000FA227818EF2FFFEE33FEED33FDEC33FC55
:100B8000C933C910D7059BE99A4007EC9BFCE99A49
:100B9000F90FD8E0E4C9FAE4CCFB2275F010EF2F8E
:100BA000FFEE33FEED33FDCC33CCC833C810D7078E
:100BB0009BEC9AE899400AED9BFDEC9AFCE899F8C9
:0E0BC0000FD5F0DAE4CDFBE4CCFAE4C8F9225C
:100BCE00EB9FF5F0EA9E42F0E99D42F0E89C45F07D
:010BDE0022F4
:100BDF00E8600FECC313FCED13FDEE13FEEF13FFF4
:030BEF00D8F12218
:100BF200BB010DE58229F582E5833AF583020C7A81
:100C02005007E92582F8020C6DBBFE07E92582F840
:100C1200020C86E58229F582E5833AF583020C937C
:0C0C2200ECF208EDF208EEF208EFF2220E
:100C2E00D083D082E493F208740193F20874029395
:090C3E00F208740393F2740473CC
:100C4700D083D082F8E4937012740193700DA3A33C
:100C570093F8740193F5828883E473740293686050
:060C6700EFA3A3A380DF50
:10182200021FC7E493A3F8E493A34003F68001F2F6
:1018320008DFF48029E493A3F85407240CC8C333C7
:10184200C4540F4420C8834004F456800146F6DF96
:10185200E4800B0102040810204080901768E47EA7
:10186200019360BCA3FF543F30E509541FFEE4938B
:10187200A360010ECF54C025E060A840B8E493A352
:10188200FAE493A3F8E493A3C8C582C8CAC583CA7D
:10189200F0A3C8C582C8CAC583CADFE9DEE780BE35
:0118150000D2
:0D0C6D00E6FB08E6F908E6FA08E6CBF822F7
:0C0C7A00E0F8A3E0F9A3E0FAA3E0FB22FD
:0D0C8600E2FB08E2F908E2FA08E2CBF822EE
:100C9300E493F8740193F9740293FA740393FB22B7
:00000001FF
