:020000040000FA
:10000000D00C002069010000930100009501000060
:1000100000000000000000000000000000000000E0
:100020000000000000000000000000009701000038
:100030000000000000000000990100009B0100008A
:100040009D0100001D200000E516000005170000BE
:1000500025170000000000009D01000000000000C6
:10006000291E0000BD1E00009D0100009D01000032
:10007000511F00009D0100009D0100009D01000036
:100080009D0100009D0100009D0100009D010000F8
:100090009D0100009D0100009D0100009D010000E8
:1000A0009D0100009D010000551A00009D01000007
:1000B0009D0100009D0100009D0100009D010000C8
:1000C00000F002F800F040F80CA030C808382418FE
:1000D0002D18A246671EAB4654465D46AC4201D180
:1000E00000F032F87E460F3E0FCCB6460126334272
:1000F00000D0FB1AA246AB463343184770220200D9
:1001000090220200103A02D378C878C1FAD8520778
:1001100001D330C830C101D504680C6070470000BD
:100120000023002400250026103A01D378C1FBD813
:10013000520700D330C100D50B6070471FB5C046D1
:10014000C0461FBD10B510BD00F0FCF81146FFF70A
:10015000F5FF02F0E7F800F014F903B4FFF7F2FF3F
:1001600003BC00F019F900001048114A1148124967
:100170000160124901601249016001693F2901D102
:1001800010490161104A11491160002101601048B5
:100190000047FEE7FEE7FEE7FEE7FEE7FEE70000BA
:1001A0000C480D490D4A0E4B7047000000400050AE
:1001B00000800000000100505900000016000000FF
:1001C000880000002000000024000050A55A000014
:1001D000C1000000D0070020D00C0020D008002073
:1001E000D0080020002203098B422CD3030A8B4243
:1001F00011D300239C464EE003460B433CD400221F
:1002000043088B4231D303098B421CD3030A8B4230
:1002100001D394463FE0C3098B4201D3CB01C01AFE
:10022000524183098B4201D38B01C01A52414309C9
:100230008B4201D34B01C01A524103098B4201D3B7
:100240000B01C01A5241C3088B4201D3CB00C01A24
:10025000524183088B4201D38B00C01A524143089C
:100260008B4201D34B00C01A5241411A00D20146C1
:100270005241104670475DE0CA0F00D0494203105A
:1002800000D34042534000229C4603098B422DD3A9
:10029000030A8B4212D3FC22890112BA030A8B4251
:1002A0000CD3890192118B4208D3890192118B42A0
:1002B00004D389013AD0921100E08909C3098B4225
:1002C00001D3CB01C01A524183098B4201D38B0168
:1002D000C01A524143098B4201D34B01C01A52410B
:1002E00003098B4201D30B01C01A5241C3088B4250
:1002F00001D3CB00C01A524183088B4201D38B003B
:10030000C01A5241D9D243088B4201D34B00C01AC4
:100310005241411A00D20146634652415B101046D9
:1003200001D34042002B00D54942704763465B1021
:1003300000D3404201B50020C046C04602BD704710
:1003400070477047754600F023F8AE4605006946D1
:100350005346C008C000854618B020B5FFF720FFFF
:1003600060BC00274908B6460026C0C5C0C5C0C548
:10037000C0C5C0C5C0C5C0C5C0C5403D49008D464B
:1003800070470446C046C0462046FFF7E6FE000020
:10039000004870476C07002001491820ABBEFEE7FB
:1003A000260002007047F8B507460E46022F01D31B
:1003B000002E02D10020C043F8BD012411E03046D8
:1003C000604301463846FFF70DFF0546012D07D96A
:1003D00001200006854203D2601E00062843EBE799
:1003E000641CFF2CEBD90020C043E5E710B500F0FA
:1003F00099FB134880684000C00F14D110488068F2
:1004000001218907884340180D4988600D48C0685C
:100410000D49884340180B49C8600846C0680A491E
:1004200088430849C86000F02FF8012000F048F820
:100430007D20C00100F052F800F012F810BD00005D
:100440000002005000000050000000400348806897
:1004500040084000014988607047000000000740E4
:1004600003480068402188434030014908607047D4
:10047000000007400348806840084000401C0149D4
:1004800088607047000007400A48806801214903DE
:1004900088434018074988600748C068074988436F
:1004A00040180549C8600846C068044988430249A5
:1004B000C86070470002005000000050002000009B
:1004C0000549496910229143020110231A40114342
:1004D000014A5161704700000002005070B50446A7
:1004E00000F0E0FC7D21C90048430546A8092146EB
:1004F000FFF778FEC0B2044908610846006981012F
:100500002846FFF76FFE70BD0000074010B5024699
:10051000012A01DD084810BD002901DB102901DD99
:100520000548F8E7054894010319186801248C4030
:10053000A04318600020EEE70189FFFF084000504B
:1005400010B50246012A01DD074810BD002901DB74
:10055000102901DD0020F8E7044894010319186808
:10056000C840C007C00FF0E70189FFFF10400050EE
:1005700000B501460B0001F067FD160C1125384C43
:100580005B6A8FB5D2FCFAF9F8F7F6F5F4F3F2F1FD
:10059000F0EF0020ED4A9063D063D4E1EB48806B2C
:1005A000032212069043012212068018E74A906344
:1005B0001046806BE64A9043012292068018E34A77
:1005C0009063C0E1E148C06B032212029043FF3008
:1005D0000130DE4AD0631046C06BDE4A90430122F0
:1005E00092028018D94AD063ADE1D848806B0322CB
:1005F00012059043012212058018D44A90631046D8
:10060000806BD54A9043012292058018CF4A9063AF
:1006100099E1CE48806B0C2290430830CB4A90631E
:100620001046806BC02290438030C84A90638AE1B4
:10063000C648C06B302290431030C44AD063104685
:10064000C06BC02290434030C04AD0637BE1BF48BA
:10065000806B032212029043FF300130BB4A90634B
:100660001046806BBB4A9043012292028018B74A21
:1006700090631046806BB94A9043012212038018A0
:10068000B24A90631046806BB54A904301229203B0
:100690008018AE4A906356E1AC48806B0322120486
:1006A0009043012252048018A84A90631046806B40
:1006B000AC4A90430122D2048018A44A90631046A9
:1006C000806BA94A90430122520580189F4A90638B
:1006D0001046806BA04A90430122D20580189B4AA5
:1006E000906330E19948806B80088000401C974AF5
:1006F00090631046806B0C229043001D934A9063D8
:100700001046806B302290431030904A9063104620
:10071000806BC022904340308C4A906313E18B4839
:10072000C06B80088000C01C884AD0631046C06B34
:10073000302290433030854AD0631046C06BC022CF
:100740009043C030814AD0631046C06B874A9043C3
:1007500080187E4AD063F6E0F3E0F1E0DCE0CAE026
:10076000B6E0ADE0A4E099E08DE06AE055E041E05C
:10077000FFE77648C06B80088000801C734AD06316
:100780001046C06B0C2290430830704AD06310466C
:10079000C06B3022904320306C4AD0631046C06B4F
:1007A000C02290438030694AD0631046C06B6F4AC4
:1007B0009043FF30FF300230644AD0631046C06B74
:1007C000644A90430122D2028018604AD0631046E6
:1007D000C06B624A90430122520380185B4AD06387
:1007E0001046C06B5E4A90430122D2038018574ADC
:1007F000D063A8E05548C06B584A90430122520389
:100800008018524AD0631046C06B554A904301226B
:10081000D20380184D4AD06395E04C48806B032288
:1008200012049043012212048018484A9063104633
:10083000806B4C4A9043012292048018434A906393
:1008400081E04248806B032212049043012212048B
:1008500080183E4A90631046806B424A90430122C2
:1008600092048018394A90631046806B3E4A904348
:100870008018364A90631046806B374A9043801840
:10088000324A90635FE03148806B03221207904345
:100890000122120780182D4A906354E02B48806B88
:1008A00080008008012292078018284A90634AE05D
:1008B0002648806B80088000801C244A906342E0B8
:1008C0002248C06B0C229043001D204AD0633AE0BE
:1008D0001E48806B032212079043012252078018A2
:1008E0001A4A90631046806B80008008D2008018FE
:1008F000164A906327E01548806B03221207904345
:100900008018124A90631046806B80008008D200E5
:1009100080180E4A906316E00C48806B0322120682
:100920009043012252068018084A90631046806B5B
:10093000074A90430122D2068018044A906302E0DD
:1009400001E00B4800BD00BF0020FBE700000050A5
:100950000000000C000C00000000C000003000008F
:1009600000C0000000000C00000030000003000088
:100970000189FFFF30B50346012B01DD354830BD4D
:10098000002901DB102901DD3248F8E7002A0CD1EB
:100990009801314C001900684D000324AC40A0437D
:1009A0009C012D4D6419206052E0012A18D1980154
:1009B000294C001900684D000324AC40A0439C0161
:1009C000254D6419206098012C46001900684D00DF
:1009D0000124AC4020439C011F4D6419206037E086
:1009E000022A18D198011C4C001900684D000324FC
:1009F000AC40A0439C01184D6419206098012C461E
:100A0000001900684D000224AC4020439C01124DA7
:100A1000641920601CE0032A18D198010E4C0019BB
:100A200004684D000320A840844398010A4D4019F2
:100A3000046098012C46001900684D000324AC4066
:100A400020439C01044D6419206001E0014896E7B1
:100A5000002094E70189FFFF004000500246012A70
:100A600001DD10487047002901DB102901DD0D4828
:100A7000F8E7002A07D10C48806801238B4018430F
:100A8000094B98600CE0012A08D107484030806883
:100A900001238B401843054B986001E00148E1E7D2
:100AA0000020DFE70189FFFF004000504040005078
:100AB0000146032901DD0C48704708020B4A8018E3
:100AC000006840084000401C0A02084BD218106021
:100AD00008021A46801800681202904380180A0221
:100AE000D21810600020E7E78190FFFF00800050DF
:100AF00070B504460D46032C01DD084870BD200288
:100B000007494018006A28432102054A89180862EB
:100B10001A2000F0BBFE0020F0E700008190FFFFEC
:100B2000008000505920084908601620086088207D
:100B300008600648406802218843801C03494860D9
:100B40000020014908607047000100500002005079
:100B500070B504460D461646032C01DD064870BDEF
:100B60000C206043054940186910890046501A203E
:100B700000F08CFE0020F2E78190FFFF3C07002090
:100B800030B502460A23032A01DD464830BD464CF3
:100B900024682405240F012595402C4324020F25A9
:100BA0002D022C402046404C2468AC4304433E4D6B
:100BB0002C6010023D4C0019006840084000401CA9
:100BC00014023A4D6419206010022C460019006886
:100BD0000224A043801C14026419206000BF184640
:100BE0005B1E0028FBD11402304D64190868606058
:100BF000140264198868A06010022C46001900686D
:100C00003024A0430C79240130252C4020431402C9
:100C1000264D6419206010022C4600190068C0247B
:100C2000A0430C7BA401C0252C40204314021F4D7F
:100C30006419206010022C46001900680324E404A3
:100C4000A0430C7CE4040325ED042C402043140253
:100C5000164D6419206010022C46001900680C24FF
:100C6000A0434C7CA4000C252C40204314020F4DC3
:100C70006419206010022C46001900680F24240318
:100C8000A0438C7C24030F252D032C402043140209
:100C9000064D64192060140264194869E060002060
:100CA00074E700008290FFFF008F0050008000502A
:100CB00030B50446032C01DD754830BD75484068E9
:100CC0000006000FA04206D172484068F023984306
:100CD000F030704B58606F4840680002000FA0422F
:100CE00007D16C4840680F231B059843C018694B17
:100CF0005860684840680004000FA04207D165486A
:100D000040680F231B039843C018624B586061482A
:100D10004068000FA04208D15E4840680001000909
:100D20000F231B07C0185B4B58605A4840680007E8
:100D3000000FA04206D157484068000900010F305B
:100D4000544B5860534840680003000FA04207D13D
:100D5000504840680F231B049843C0184D4B5860FF
:100D60004C4840680005000FA04207D14948406840
:100D70000F231B029843C018464B586045484068F3
:100D80000001000FA04207D1424840680F231B0614
:100D90009843C0183F4B58600B0001F055F905040B
:100DA000371B49637400002A0AD03A484068F02390
:100DB00098432301F0252B401843364B586008E038
:100DC000344840680009000123071B0F1843314BCA
:100DD00058605AE0002A0CD02E4840680F231B05AB
:100DE000984323050F252D052B401843294B5860A8
:100DF0000BE0284840680F231B04984323040F2569
:100E00002D042B401843234B58603EE0002A0CD0A1
:100E1000204840680F231B03984323030F252D030D
:100E20002B4018431B4B586001E0194845E72CE064
:100E3000002A0AD0174840680001000923071B0F49
:100E40001B071843134B58600BE0124840680F23F0
:100E50001B06984323060F252D062B4018430D4BE8
:100E6000586012E0002A01D0094826E70948406886
:100E70000F231B02984323020F252D022B401843FA
:100E8000044B586001E0024817E700BF002014E758
:100E90008190FFFF008F00500148006870470000FC
:100EA0004C00002070B50025104800694007400F35
:100EB000012801D120250FE00C4800694007400FB0
:100EC000022801D10A2507E0084800694006C00F42
:100ED00001D0074D00E0074D044880690007000F6E
:100EE000441C21462846FFF77DF970BD00020050E2
:100EF0000080000000C0000010B50246130001F0A1
:100F0000A3F808050F4B1C294B41364B2548C069F7
:100F1000800880008B079B0F1843224BD8613DE06F
:100F20002048406903231B0798430B070324240729
:100F3000234018431B4B586130E01A48406907238F
:100F40001B0398430B030724240323401843154B2A
:100F5000586123E01348406907231B0298430B02A2
:100F600007242402234018430E4B586116E00D4815
:100F70004069102398430B01102423401843094B68
:100F800058610BE007484069800880008B079B0F81
:100F90001843044B586101E0034810BD00BF002016
:100FA000FBE70000000200500496FFFF10B5044666
:100FB000002C02D0012C18D10BE00E480068012152
:100FC0004907884340180B490860082000F054FC8A
:100FD0000DE00848006A0121490788434018054987
:100FE0000862092000F048FC01E0034810BD00BF82
:100FF0000020FBE7000001400297FFFF01200249AB
:101000000860024908607047540000205800002022
:10101000F7B582B00F465F480068002801D1012073
:1010200000E000205C490968002901D1012100E0AD
:101030000021084302D0594805B0F0BD0498C60607
:1010400057490E430298002802D0012874D14CE081
:1010500050480068012801D0012000E000205149DB
:101060000968002901D0012100E00021084301D0D6
:101070004A48E1E701204B4908604B48806840211D
:101080008843403048498860002048490860084645
:10109000806840084000401C8860002505E0002171
:1010A00014206843424A11506D1C0A2DF7D30020CA
:1010B0004049086040480760002000F061FB394665
:1010C0000190FFF770F90446601C02D13348C01E3E
:1010D000B2E72002000A35494860200E0643084660
:1010E0000660082000F0C8FB50E02B48006801288B
:1010F00001D0012000E0002030490968002901D01A
:10110000012100E00021084301D0244894E7012098
:101110002A49086024488068802188438030224919
:1011200088600020214908620846806A4008400023
:10113000401C8862002506E025E000211420684359
:101140001F4A11506D1C0A2DF7D300201D4908605D
:101150001D480760012000F013FB39460190FFF79E
:1011600022F90446601C02D10C48C01E64E720022C
:10117000000A0E494862200E06430846066209200E
:1011800000F07AFB02E00548C01E55E700BF0020D2
:1011900052E7000054000020580000200497FFFF91
:1011A000000001605C0000200002005000000140CF
:1011B000AC0500206C0000208400002060000020AE
:1011C000740600207000002088000020FFB50C4647
:1011D0000020009D002D02D0012D5AD12CE00125C8
:1011E0002E4E35602E4D2D686D1C2D4E3560002124
:1011F0001EE014254D432B4E7559002D17D10126A5
:1012000014254D43274F7E5114254D433E46AD19BD
:101210006C6014254D43AD19AC6014254D43AD19D8
:10122000EA6014254D43AD192B61084602E0491CC4
:101230000A29DEDB00BF2DE001251B4E35601B4D6A
:101240002D686D1C194E356000211EE014254D439C
:10125000174E7559002D17D1012614254D43144FF3
:101260007E5114254D433E46AD196C6014254D4307
:10127000AD19AC6014254D43AD19EA6014254D43FA
:10128000AD192B61084602E0491C0A29DEDB00BFCC
:1012900000E000BF00BF04B0F0BD0000640000200B
:1012A00074000020AC0500206800002078000020B9
:1012B00074060020F7B582B00746144638460399F5
:1012C000FEF790FF0007000F03280FD220680121CE
:1012D00049078843206020684910884320603846C9
:1012E0000399FEF77FFF0009861E3BE0206801217D
:1012F00049078843401820602068491088434018F7
:10130000206038460399FEF76DFF861E1948864215
:1013100028DD2068012109078843206008251EE098
:1013200038460399FEF75EFF691C0190FEF75AFFED
:10133000032913D220680F210906884329060F22AA
:10134000120611400843206038460399FEF74AFF11
:10135000691C0190FEF746FF861E02E06D1C102DF1
:10136000DEDB00BF2068000C0004B1B2084320603F
:1013700005B0F0BDFFFF000030B50346002B01D0E3
:10138000374830BD002B5ED13648406840084000E9
:10139000CC07E40F2043334C6060204640680224B1
:1013A000A0430C406408640002252C4020432D4CCF
:1013B0006060204640680424A0430C40A408A400B8
:1013C00004252C402043274C6060204640680824B8
:1013D000A0430C40E408E40008252C402043214CA5
:1013E000606020464068204CA04310240C40240933
:1013F000E4022D022C4020431A4C606020464068D5
:101400001024A0430C402409240110252C40204323
:10141000144C6060204640682024A0430C406409BE
:10142000640120252C4020430E4C6060204640681B
:101430000E4CA04380240C40E4092402ED002C4013
:101440002043084C6060002B08D1094802600C2042
:1014500001248440074D2C6000BF00BF002090E7AE
:101460000798FFFF00000540000800000001000091
:101470005000002000E100E070B500BFFFF712FD52
:101480007D21C90048430546054880690005000FD5
:10149000411C2846FEF7A6FE0446204670BD00000B
:1014A0000002005070B505460C46002D01D066487C
:1014B00070BDA07900280ED0A07903280BD0A079A8
:1014C000012808D0A079052805D0A079072802D0E6
:1014D0005D48401CECE7207900280BD020790128DA
:1014E00008D02079022805D02079032802D0564858
:1014F000801CDDE76079002808D06079012805D0DC
:101500006079012802D05048C01CD1E7E07900285A
:1015100014D0E079012811D0E07902280ED0E079CA
:1015200003280BD0E079042808D0E079052805D0FD
:10153000E079062802D04448001DB9E7002D15D1F6
:1015400005200007C06801210904884340183F496D
:10155000C8600846C0683E4988433C49C8603D4869
:1015600080683B49884340183A498860002D0DD176
:101570003948806804218843001D3749886008463F
:10158000806802218843801C33498860002D58D12F
:1015900031488068F0218843E1790901F022114047
:1015A00008432D4988600846C06820218843A179F6
:1015B000042211408908490120221140084326498C
:1015C000C8600846C06810218843A17902221140F2
:1015D000490809011022114008431F49C860084604
:1015E000C06808218843A179C90008221140084336
:1015F0001949C8600846C0688008800021798907B9
:10160000890F08431449C8600846C068042188430C
:10161000617989000422114008430F49C8600846D7
:10162000006AC009C001217A4906490E08430A49E7
:101630000862FFF721FF0646074A24322168FFF7B8
:1016400039FE002034E700000298FFFF0000005040
:1016500000000100000200500000054030B50346C4
:101660000C46002B16D1002112E0002506E06D1C6F
:1016700001208007854201D3074830BD07488069B3
:101680004004C00F0128F2D0044800786054491C7F
:101690009142EAD30020F0E70198FFFF00000540E7
:1016A00070B503460C46002B16D1002112E0605C99
:1016B0000A4E3070002506E06D1C0120800785422F
:1016C00001D3074870BD054880694002C00F01285A
:1016D000F2D1491C9142EAD30020F3E70000054013
:1016E0000198FFFF10B50120044908620448006812
:1016F000002802D002480068804710BD40400050DA
:101700004400002010B50220044908620448006823
:10171000002802D002480068804710BD40400050B9
:101720004800002070B50948046A0948056A07485E
:1017300004620748056207480068002804D029466B
:101740002046044A1268904770BD000000400050D7
:10175000404000504000002010B50122062100202A
:10176000FFF708F906210020FEF7D0FE0122022132
:101770000020FFF7FFF802210020FEF7C7FE10BD92
:1017800070B505460024002D2BD12F484069400537
:10179000400F01D12D4C54E02B4840694005400FCB
:1017A000012806D1FFF778FB7D21C9004843044694
:1017B00047E0254840694005400F022806D1FFF761
:1017C00071FB7D21C900484304463AE01E48406948
:1017D0004005400F032802D11D48046831E01D4C2C
:1017E0002FE0012D2BD1184840694004400F01D152
:1017F000164C26E0144840694004400F012806D1E9
:10180000FFF74AFB7D21C9004843044619E00E4812
:1018100040694004400F022806D1FFF743FB7D21B9
:10182000C900484304460CE0074840694004400FA3
:10183000032802D10648046803E0064C01E006488C
:1018400070BD2046FCE70000000200501027000099
:101850007C000020006CDC020297FFFF10B50446FC
:10186000012C04D105210020FFF7F8F803E0052141
:101870000020FEF74BFE10BDC206D20E01219140A2
:10188000014A11607047000000E100E0C206D20E7C
:1018900001219140014A11607047000000E100E021
:1018A00010B547480068401C454908600846006874
:1018B000C007C00F42D043484349086000243AE0C3
:1018C000424801680068401C404A10604048405C43
:1018D000000200B261003B4A603A5052600011467B
:1018E000085E3A490A680968491C384B196038494A
:1018F000895C08436100334A603A505218460068D8
:101900003449884215D30020194608602C490860E4
:1019100031480068400840002F49086008460068C8
:101920002E4988432C490860FEF790FD01202C4980
:101930000870601CC4B2302CC2DB3FE02148603824
:1019400021490860002437E0204801680068401CF5
:101950001E4A10601E48405C000201B26200194835
:1019600081526100405E19490A680968491C174B99
:1019700019601749895C0843620012498852184669
:1019800000681449884215D30020194608600C49A4
:10199000086011480068400840000F490860084688
:1019A00000680E4988430C490860FEF74FFD01208E
:1019B0000B490870601CC4B2302CC5DB10BD0000A0
:1019C00018000020EC030020140000201C00002060
:1019D000CA290000A2F90100008100500000800027
:1019E0003200002000B587B0164800680190164804
:1019F000039002216846417501750321017202219D
:101A000001A80173052168468175104800688000AF
:101A1000069001A90120FFF7B3F8012211461046F4
:101A2000FFF746F904210120FFF762F8084A042174
:101A30000120FFF78DF8FEF71DFD0120FFF738F8B4
:101A400007B000BD140000200C000740100000206B
:101A5000A118000070B5002400BF80E04248C068B3
:101A60000121A140084279D0200240494018406A33
:101A7000C007C00F16D021023C4A891808462430FE
:101A8000496A49084900491C01600C2060433849F3
:101A90000858002862D00C2060430A4611580120E3
:101AA00088475BE0200231494018406A8007C00F38
:101AB00018D021022D4A891808462430496A02228A
:101AC0009143891C01600C206043294940184068FB
:101AD000002843D00C2060430A4680184168022049
:101AE00088473BE0200221494018406A0005000F6A
:101AF00034D020024018406A0005050F200240182B
:101B0000406A0005000F042108420DD02102174A47
:101B1000891808462430496A0F2212029143012293
:101B20009202891801600BE02102104A89180846C8
:101B30002430496A0F2212029143FF3101310160C2
:101B40000C2060430A4940188068002806D00C2009
:101B500060430A468018816828468847641C042C24
:101B600000DA7BE770BD0000008F0050008000505D
:101B70003C07002010B5002211461046FEF7FAFE81
:101B800000210846FEF76AFF002201211046FEF7F9
:101B9000F1FE01210020FEF761FF01220721002054
:101BA000FEF7E8FE07210020FEF758FF012203217F
:101BB0000020FEF7DFFE03210020FEF74FFF012289
:101BC00004210020FEF7D6FE04210020FEF746FF88
:101BD000012205210020FEF7CDFE05210020FEF7A1
:101BE0003DFF012206210020FEF7C4FE0621002051
:101BF000FEF78CFC002204210120FEF7BBFE04212D
:101C00000120FEF72BFF002205210120FEF7B2FE86
:101C100005210120FEF722FF002206210120FEF708
:101C2000A9FE06210120FEF719FF0022072101204D
:101C3000FEF7A0FE07210120FEF710FF0122002180
:101C40001046FEF797FE00210120FEF707FF012254
:101C500011461046FEF78EFE01210846FEF7FEFEF5
:101C6000012202211046FEF785FE02210120FEF727
:101C7000F5FE012203211046FEF77CFE0321012020
:101C8000FEF7ECFE002000F05FFB002000F08FFE6E
:101C90000120FFF7E3FD10BD10B507480088FF21C4
:101CA000F531884202DB642000F0A6FA00F01AFD4C
:101CB00000F066FB10BD00002C00002059201B49DD
:101CC0000860162008608820086019480068042110
:101CD0008843001D164908600846006808218843AB
:101CE0000830134908600846006802218843801CB8
:101CF0000F490860084600693821884318300C49AC
:101D0000086108460069C008C0000861084680698B
:101D100000090001886108460069402188430449A0
:101D20000861002001490860704700000001005070
:101D30000002005025480088401C2449088024489F
:101D40000088401C2249088022480088401C214904
:101D5000088021480078002804DD1F480078401ED4
:101D60001D4908701D480088FF21F531884204DABA
:101D70001A480088401C19490880194800881949E8
:101D8000884204DA16480088401C15490880164825
:101D900000881449884204DA13480088401C12491C
:101DA000088012480078002804DD10480078401EA2
:101DB0000E4908700E480088401C0D4908800D48E7
:101DC0000088401C0B49088070470000200000205C
:101DD00022000020240000200C0000202C00002005
:101DE0002E00002050460000300000202600002079
:101DF000340000200000002010B5FFF7FFF802219A
:101E00000420FFF779F80122C8210020FFF700F92C
:101E10000023044A02211846FFF7D8F90020FFF7F3
:101E2000C5F810BD351D000010B520480068401CE5
:101E30001E4908601E48806840084000401C1C493C
:101E400088601C48006800282FD000242BE0142054
:101E5000604319490858002824D0142060434018D2
:101E60008068401E14216143134A89188860142039
:101E70006043114640188068002813D11422624341
:101E80000B46D218106914226243D218D1688847D1
:101E90001420604308494018416814206043064AF2
:101EA00080188160641C0A2CD1DB10BD6C000020FE
:101EB0000000014064000020AC05002010B520485F
:101EC0000068401C1E4908601E48806A40084000A7
:101ED000401C1C4988621C48006800282FD0002440
:101EE0002BE01420604319490858002824D01420FE
:101EF000604340188068401E14216143134A8918CA
:101F0000886014206043114640188068002813D16F
:101F1000142262430B46D218106914226243D2186D
:101F2000D16888471420604308494018416814204C
:101F30006043064A80188160641C0A2CD1DB10BD06
:101F4000700000200000014068000020740600209E
:101F500010B50548C46905480068002803D020462C
:101F600002490968884710BD000005405000002064
:101F70000EB50948009003216846017100214171A6
:101F80008171C17169460020FFF78CFA034A012173
:101F90000020FFF7F1F90EBD80250000A11F000011
:101FA00038B50446E007C00F2CD025E00122694671
:101FB0000020FFF753FB69460A7813490888411C43
:101FC000114B198011490A5418460088032109024F
:101FD000884202DB00201946088059200C4908601D
:101FE00016200860882008600A480088401C0949BB
:101FF00008800020064908600748C069C007C00F74
:102000000128D3D038BD0000060000208C0000203D
:10201000000100500A0000200000054010B50848EB
:1020200000680821884308300549086005480068B1
:10203000002803D0002003490968884710BD00002C
:10204000004000408000002030B47446641E2578B3
:10205000641CAB4204D3635D5B00E31830BC1847DB
:102060001D46F8E710B50446012C03D10021FEF708
:102070004DFA03E000210120FEF7F0FC10BD000046
:1020800010B504460F480088A04204DA0021012060
:10209000FEF7E4FC15E00B480088A04209DB600075
:1020A00008490988884204DD00210120FEF72EFA44
:1020B00007E0600003490988884202DC00200149EA
:1020C000088010BD2000002010B5FFF7F7FD0C20A0
:1020D000FEF74EFAFFF74CFFFFF78EFEFFF73CFBD3
:1020E00010BD10B50446012C03D10321FEF70EFAF2
:1020F00003E003210120FEF7B1FC10BD10B504463A
:102100000F480088A04204DA03210120FEF7A6FC54
:1021100015E00B480088A04209DB600008490988E7
:10212000884204DD03210120FEF7F0F907E060009A
:1021300003490988884202DC00200149088010BD5B
:102140002200002070B500210846FEF7F9F9C6B25A
:10215000002501E0681C85B27D2000018542F9DB85
:1021600000210846FEF7ECF9C4B2A64201D00020D7
:1021700070BD07480078012805D1002C03D1044820
:1021800004700120F4E7024804700020F0E700002A
:102190003600002070B501210020FEF7D1F9C6B24B
:1021A000002501E0681C85B27D2000018542F9DB35
:1021B00001210020FEF7C4F9C4B2A64201D0FF20DD
:1021C00070BD002C01D10120FAE7012C01D10020C3
:1021D000F6E7FF20F4E710B502460B460024002185
:1021E00004E0505C0019C4B2481C81B29942F8DB8B
:1021F0005520001BC0B210BD10B504460F48008822
:10220000A04204DA06210020FEF780F915E00B4811
:102210000088A04209DB600008490988884204DD83
:1022200006210020FEF71AFC07E060000349098838
:10223000884202DC00200149088010BD24000020F3
:10224000F8B500240727002507E0002601E0701CF0
:1022500086B2FF2EFBDB681C85B212488542F4DB98
:1022600004210120FEF76CF94007400F04430521CB
:102270000120FEF765F98007400F04430621012085
:10228000FEF75EF9C007400F0443062C01D1012779
:1022900006E0052C01D1022702E0032C00D1032720
:1022A0003846F8BDFFFF00000146134800880028AB
:1022B00000D17047114A1088421C104B1A80104AF6
:1022C000125C0A701846008803221202904202DB58
:1022D00000201A46108059200A4A1060162010600B
:1022E0008820106004480088401E034A10800020A7
:1022F000044A10600120DCE70A00002008000020EA
:102300008C0000200001005010B50446012C04D1BF
:1023100001210846FEF7FAF803E001210846FEF71E
:102320009DFB10BDFFF7D0FEFEF760F800F038F916
:10233000FFF720FCFFF784FF0249087001E0FFF778
:10234000ABFCFCE73C00002010B50446012C04D196
:1023500003210020FEF7DAF803E003210020FEF756
:102360007DFB10BD10B50446012C04D107210020CF
:10237000FEF774FB03E007210020FEF7C7F810BD4D
:1023800010B57F480078002806D001282DD00228FB
:102390006AD0032828D1B8E00020FFF7D5FF00203D
:1023A00000F005FB0120FFF759FA0120FFF7DAFFE3
:1023B0000020FFF757FE0020FFF793FE0020FFF7F5
:1023C000A3FF002000F0E6FAFFF7BCFE002808D0CB
:1023D0000020FFF7C7FF0120694908700020694904
:1023E0000880002068490870C7E03220FFF748FEE7
:1023F0003220FFF783FE6548007801280DD10020C8
:10240000FFF72CFA00F0E0F80020614908706149FC
:10241000088002205A4908701AE05C4800780228B7
:102420000FD10120FFF71EFE0120FFF75AFE012009
:1024300000F0B0FA00205849088003205049087085
:1024400006E052480078032802D100204C49087069
:102450004C4800885149884202DB002048490870F6
:1024600001204949087088E03220FFF709FE322038
:10247000FFF744FE4648007801280CD14548008803
:102480007D21C900884206DB00204149087041498E
:10249000088000F099F83D480078022811D1012009
:1024A000FFF7E0FD0120FFF71CFE012000F072FAAB
:1024B00000F09AF80020384908800320304908705D
:1024C00015E032480078032805D100F08DF800208F
:1024D0002B4908700BE02D480078002807D100F048
:1024E00083F80120FFF7BAF9012025490870254833
:1024F00000882A49884204DB00F076F80020204951
:10250000087001202049087037E00120FFF71CFF08
:10251000FFF740FE01280ED1FFF7F6FE002000F085
:1025200039FA0020FFF79AF9012000F040FA002064
:10253000194908800EE0FFF72DFE00280AD1FFF7A9
:10254000E3FE012000F026FA0120FFF787F90020C2
:1025500000F02DFA0D480078032802D10020084928
:1025600008700D4800880D49884202DB00200449AC
:10257000087002200449087000BF00BF10BD0000B1
:10258000290000202E000020280000202A00002022
:1025900032000020340000203000002050460000AF
:1025A00010B5012207210020FEF7E4F907210020E1
:1025B000FEF754FA002211460120FEF7DBF9002154
:1025C0000120FEF74BFA10BD10B53020034908601A
:1025D000034804490860FFF705FA10BD1000002009
:1025E0008C0300201400002010B50A480068400841
:1025F00040000849086008460068074988430549C3
:102600000860FDF723FF00200449086004490860C2
:1026100010BD000000810050000080001800002064
:102620001C00002070B50546284C072D01DA00205B
:1026300070BD20790007000F06D0012805D00228C0
:1026400004D004283ED13CE03CE03BE02078002868
:1026500001D00020ECE760780007000F052801D0CA
:102660000020E5E76078000919490978884201D01F
:102670000020DDE7A078002801D00020D8E7E0782E
:102680000007000F032801D00020D1E7607901285E
:1026900001D00020CCE7E07800090E490870002046
:1026A0000D490880094880790C49087002200C49BE
:1026B000087000BF0A4800780028FBD100F016F926
:1026C00000E000BF00BFFF20B2E700004C04002084
:1026D0003C0000203D0000202C0000202A000020AB
:1026E0002600002008B58CE049480078012804D075
:1026F000022813D0032810D14FE0684600787E28C6
:1027000008D102204249087000204249088042490D
:10271000087002E001203E49087071E068460078C8
:102720007E2819D13B480088002811DD0120384956
:1027300008703948007839490978401A36490870D4
:1027400034480088FFF76EFF00203249088023E0FC
:1027500002202F4908701FE0684600787F2803D1C7
:1027600003202B49087017E0684601782948028841
:102770000088401C274B188029488154264801783E
:10278000684600780818244908706846007823498C
:10279000087002201E49087032E002201C490870AF
:1027A00068460078802811D17E211A480288008866
:1027B000401C184B18801A488154174800787E3006
:1027C000154908707E201549087018E068460078A1
:1027D000812811D17F220F4801880088401C0D4BB1
:1027E00018800F4842540C4800787F300A4908701E
:1027F0007F200A49087002E001200549087000BFE7
:1028000000BF6846FFF750FD002800D06CE708BD08
:1028100027000020380000203A0000203B00002064
:102820004C04002070B504460D4602210020FEF73E
:1028300015F906210020FDF769FE2A4621460020F1
:10284000FEF72EFF02200749087000BF05480078F8
:102850000028FBD10221FDF759FE06210020FEF7DA
:10286000FDF870BD0C000020F8B506460F460024A8
:102870007E222146641C1C484254002527E0705DDE
:102880007E280CD17F222046611CCCB216490A5406
:1028900080222046611CCCB213490A5415E0705DB9
:1028A0007F280CD17F222046611CCCB20E490A54ED
:1028B00081222046611CCCB20B490A5405E0725DAE
:1028C0002046611CCCB208490A54681CC5B2BD42FE
:1028D000D5DB7E222046611CCCB203490A54214636
:1028E0000148FFF79FFFF8BD5A05002010B5254CA1
:1028F00000202070607800090001C01C60706078C2
:10290000F0218843204909780901F0221140084349
:1029100060700020A070E07800090001401DE070A8
:10292000E078F021884319490978090111400843EA
:10293000E0702079802188432071207940218843EC
:10294000207120792021884320712079102188432B
:102950001030207120790009000120710120607180
:102960000B480078214688716079811D2046FFF769
:1029700032FC2146C8716079C01DC1B22046FFF704
:1029800073FF10BD9A0500203D0000203C00002090
:102990002800002010B50446012C03D10221FDF7C8
:1029A000B5FD03E002210120FEF758F810BD10B577
:1029B0000446012C04D104210020FDF7A7FD03E00B
:1029C00004210020FEF74AF810BD000000000000BE
:1029D00000000000000000000000000000000000F7
:1029E00000000000000000000000000000000000E7
:1029F00000000000000000000000000000000000D7
:102A000000000000000000000000000000000000C6
:102A100000000000000000000000000000000000B6
:102A200000000000000000000000000000000000A6
:102A30000000000000000000000000000000000096
:102A40000000000000000000000000000000000086
:102A50000000000000000000000000000000000076
:102A60000000000000000000000000000000000066
:102A70000000000000000000000000000000000056
:102A80000000000000000000000000000000000046
:102A90000000000000000000000000000000000036
:102AA0000000000000000000000000000000000026
:102AB0000000000000000000000000000000000016
:102AC0000000000000000000000000000000000006
:102AD00000000000000000000000000000000000F6
:102AE0000000000000000000FFFFFFFFFFFFFFFFEE
:102AF000FFFFFFFFFFFFFFFFFFFFFFFFFFFFFFFFE6
:102B000000000000000000010001000100010001C0
:102B100000010001000100010001000100010001AD
:102B200000010001000000000000000000010001A1
:102B3000000100020002000100010001000100018B
:102B4000000200020002000300040004000500056A
:102B50000005000400040005000400040004000453
:102B6000000300010000FFFFFFFFFFFEFFFEFFFD6F
:102B7000FFFDFFFDFFFCFFFCFFFDFFFDFFFEFFFF74
:102B80000000000200030004000500050005000528
:102B9000000500060006000600050005000400020E
:102BA0000000FFFEFFFDFFFCFFFBFFFBFFFAFFFA4B
:102BB000FFFAFFFAFFF9FFF8FFF8FFF8FFF9FFFB54
:102BC000FFFE0000000200040006000700080009E4
:102BD000000A000B000B000C000C000C000C000A9B
:102BE0000008000600040001FFFFFFFDFFFDFFFBE2
:102BF000FFFAFFFAFFFAFFFAFFFAFFFAFFFBFFFC0A
:102C0000FFFEFFFF000100020004000500060007B0
:102C100000080009000A000B000B000B000A000965
:102C20000009000A00090008000600050003000171
:102C3000FFFFFFFEFFFEFFFF000000020003000495
:102C40000006000700060005000400030002000261
:102C500000020001000000000000FFFFFFFEFFFE79
:102C6000FFFCFFFCFFFCFFFCFFFCFFFCFFFCFFFC8C
:102C7000FFFAFFF9FFF8FFF8FFF9FFFBFFFDFFFF89
:102C8000000000010001000200020001FFFFFFFD43
:102C9000FFFCFFFAFFF7FFF5FFF4FFF3FFF3FFF38D
:102CA000FFF4FFF4FFF5FFF4FFF4FFF5FFF6FFF785
:102CB000FFF8FFFAFFFDFFFF00000002000400071D
:102CC000000A000C000C000C000D000F000F000F9C
:102CD000000E000E000D000C000C000B000A000A94
:102CE000000B000D000D000C000B000B000900068E
:102CF00000030002000200010000FFFEFFFBFFF9DD
:102D0000FFF7FFF5FFF2FFF0FFEDFFEAFFE6FFE45C
:102D1000FFE3FFE1FFE0FFE1FFE3FFE5FFE9FFED98
:102D2000FFF1FFF5FFF900000007000C0010001490
:102D30000017001B001D002000220025002700288E
:102D400000250022001F001D00190014000F0009BB
:102D50000003FFFEFFFAFFF6FFF1FFEEFFECFFECD2
:102D6000FFEAFFEAFFE9FFE9FFE8FFE8FFE9FFEA22
:102D7000FFEBFFEBFFEBFFEAFFECFFEFFFF1FFF3F1
:102D8000FFF6FFF9FFFAFFFAFFF9FFF8FFF9FFFB83
:102D9000FFFDFFFE000100030007000A000D000F09
:102DA000001100140018001A001B001A0019001965
:102DB000001A001A0018001500130011000E000B75
:102DC0000009000700040002FFFFFFFBFFF7FFF40C
:102DD000FFF2FFF0FFF0FFF0FFF1FFF3FFF6FFF966
:102DE000FFFCFFFDFFFF000000010002FFFFFFFBF3
:102DF000FFF7FFF5FFF3FFF4FFF6FFF6FFF6FFF531
:102E0000FFF5FFF3FFF1FFF0FFEFFFEFFFF0FFF142
:102E1000FFF0FFEFFFF0FFF2FFF0FFEFFFF0FFF238
:102E2000FFF4FFF8FFFCFFFEFFFEFFFEFFFDFFFBD0
:102E3000FFF7FFF4FFF0FFECFFECFFEEFFF0FFF217
:102E4000FFF4FFF7FFF9FFF9FFFAFFFCFFFF0003B4
:102E500000060009000B000C000D000D000E000D17
:102E6000000C000B000A000700040001FFFDFFF941
:102E7000FFF6FFF3FFEEFFEAFFE9FFE8FFE4FFE103
:102E8000FFE2FFE3FFE4FFE9FFF0FFF6FFFB0001D5
:102E90000007000A000E001300160017001B002098
:102EA000002200220021001F001A0012000C000462
:102EB000FFFEFFFCFFFCFFFAFFF7FFF4FFF2FFEF5E
:102EC000FFEDFFEAFFE6FFE6FFE8FFECFFEFFFF3B1
:102ED000FFF6FFF9FFFBFFFDFFFCFFFCFFFF000417
:102EE00000060007000700040001FFFEFFFBFFF5DE
:102EF000FFEFFFECFFEBFFE8FFE5FFE4FFE2FFDFA2
:102F0000FFDEFFDFFFE0FFE3FFE8FFECFFEEFFF295
:102F1000FFF7FFF9FFFAFFFF0005000A000E00109F
:102F20000010000F00100010000D000B000B000C33
:102F3000000E0013001600160018001C001D001AD9
:102F40000017001800190019001A001800140011C9
:102F50000010000D00060002000200010000000247
:102F60000001FFFBFFF4FFEFFFE8FFE2FFE1FFE4FA
:102F7000FFE6FFE7FFE7FFE5FFE2FFE0FFE2FFE438
:102F8000FFE8FFECFFF0FFF3FFF7FFFBFFFE0001A0
:102F9000000300050008000E0014001600170017BB
:102FA000001500120010000E0006FFFFFFFCFFF8E6
:102FB000FFF2FFF0FFF5FFF8FFF9FFFBFFFCFFFC5E
:102FC00000000009000D000C000D000F000B0003B5
:102FD000000200030001FFFDFFFF000200020000ED
:102FE0000000FFFEFFFBFFF9FFF8FFFAFFFF000301
:102FF0000000FFF9FFF4FFF1FFEAFFE1FFDCFFDB78
:10300000FFDDFFE1FFE7FFECFFEFFFF2FFF7FFFF60
:103010000007000C0010001800220023001F001EF3
:10302000001D0017000E0009000600030000FFFD50
:10303000FFFAFFF8FFF5FFEEFFE7FFE6FFE7FFE52A
:10304000FFE3FFE8FFEFFFF0FFF0FFF6FFF9FFF20D
:10305000FFEDFFF40003000F00140013001400162E
:1030600000110005FFFD000000070008000B00151F
:10307000001C0018000F00090005FFFFFFFCFFFC0B
:10308000FFFEFFFDFFF5FFE8FFE0FFE1FFDFFFD5FB
:10309000FFD3FFDDFFE7FFE7FFE9FFF8000E001EAB
:1030A000002400250028002D0030003000300035BD
:1030B00000390036002E0026001E001A001B0020DA
:1030C00000240023001D0015000D0001FFF2FFEA9F
:1030D000FFECFFEFFFE7FFDBFFD3FFC9FFB6FFA366
:1030E000FF98FF91FF8BFF86FF81FF7FFF87FF9B8C
:1030F000FFB1FFC1FFD0FFDDFFDBFFD2FFD6FFE84E
:10310000FFF6000200150028002C00210015000A1F
:10311000FFFEFFF3FFEEFFEFFFFA000D0018001AAD
:10312000002100320039002900120005FFFAFFE6F5
:10313000FFD0FFC8FFCFFFD8FFDBFFDAFFD6FFD3FA
:10314000FFD4FFDDFFE5FFE7FFEBFFF5FFF8FFE84A
:10315000FFCCFFB0FF9AFF8FFF8DFF8EFF93FFA480
:10316000FFB8FFB8FFA9FFAAFFBFFFCEFFD3FFE163
:10317000FFF80000FFFB0000000A00090000000645
:10318000001D0033003B0035002D0033004100429C
:1031900000340034004A00560048003A0045005B05
:1031A0000063005F005B00570051004D004F00516D
:1031B000004B00430039002A00150001FFF3FFE82F
:1031C000FFDDFFD5FFD0FFC6FFB6FFA4FF91FF8351
:1031D000FF79FF6EFF5CFF4EFF53FF61FF63FF60EF
:1031E000FF70FF89FF8EFF7FFF6FFF68FF66FF6F35
:1031F000FF8EFFB7FFD6FFEBFFF90004000C0015B0
:1032000000220040007900C100FA01180131015389
:103210000172018901A201C801F3021C023C024CA7
:1032200002460234021E020201D5019A015E012209
:1032300000D600760010FFB7FF69FF1AFEC4FE77C4
:10324000FE3BFE0AFDD2FD93FD5EFD3FFD26FD0126
:10325000FCD6FCBCFCBAFCC3FCD6FCFCFD2FFD5F1D
:10326000FD85FDA9FDCBFDE8FE0AFE43FE9FFF1391
:10327000FF8AFFF1004A00A50106016201B60212B1
:10328000028202F8035F03B70408045B04AC04F78E
:103290000536056505860594058E0575054A050BF9
:1032A00004B1043E03B403100250017A00A5FFE20A
:1032B000FF38FE9BFDF8FD46FC8BFBDAFB46FAD09F
:1032C000FA6DFA17F9DCF9C4F9BEF9AFF995F98C82
:1032D000F9A4F9D4FA09FA3FFA82FAD9FB3DFBA91D
:1032E000FC21FCA8FD37FDC7FE61FF07FFA9003BDD
:1032F00000D30190026F034D041404C9057706162C
:10330000069C07160793080E086E08B308EF0926F7
:10331000093B091908D5088C083A07C20714063D6D
:103320000547043002FC01BE0083FF4AFE0EFCDEAE
:10333000FBC4FAB5F9A2F89DF7CEF741F6D7F679B6
:10334000F638F629F63FF65EF685F6C5F726F799C4
:10335000F811F896F930F9D3FA70FB0EFBBDFC7743
:10336000FD28FDC5FE59FEEAFF78000A00B301788A
:103370000248031303E104BF05A30679073C07FFD6
:1033800008C6097D0A110A850AEA0B3B0B670B6D1B
:103390000B560B240ACE0A4B099C08CA07D406B860
:1033A000057B042A02C30142FFABFE11FC7EFAF248
:1033B000F96FF80AF6DDF5F0F53CF4B7F464F4487B
:1033C000F460F497F4DBF530F5A4F63CF6E8F798F2
:1033D000F847F8FCF9B3FA60FB03FBADFC68FD228B
:1033E000FDC3FE4CFED2FF5BFFD7004000B6015983
:1033F000022602FE03D504BC05C106DA07EF08F574
:1034000009E60AB90B650BEE0C580C9F0CC40CDCDA
:103410000CFD0D1B0D120CC90C400B7A0A6F092014
:10342000079E05F9042E023E0042FE52FC67FA7424
:10343000F88FF6E1F56FF41CF2E5F1FCF186F16A24
:10344000F181F1CBF262F330F3FAF4ACF568F646B1
:10345000F728F7EEF8AAF97CFA56FB0BFB9CFC3533
:10346000FCE8FD97FE2BFEB1FF39FFB00004005BC6
:1034700000F201D902F4042C058006E1082B095062
:103480000A690B8A0C9D0D840E420EEA0F740FC35D
:103490000FD20FBB0F8C0F370EAC0DEF0CFA0BB623
:1034A0000A190841065104480211FFB3FD49FADF29
:1034B000F86EF606F3D6F1FBF069EF18EE28EDC0D2
:1034C000EDD2EE2AEEB2EF7CF081F18BF26AF32DB1
:1034D000F3FFF4EDF5DCF6C4F7B8F8C2F9D0FAC89A
:1034E000FBA7FC74FD36FDECFE99FF3BFFCA004FC5
:1034F00000EE01C902DC0417057E072408FA0AC79A
:103500000C5C0DBC0EFF1020110A11C512721316AF
:103510001382138D134612DB12531182104B0ECD02
:103520000D320B73095606BF03DF00FBFE21FB2D96
:10353000F822F542F2C4F090EE78EC96EB49EAB846
:10354000EAA4EAC1EB1CEBE0ECEDEDEBEEC8EFCA50
:10355000F118F272F38DF486F5A5F6E1F7ECF8B9FF
:10356000F99AFABDFBDEFCB5FD67FE3EFF2DFFE7D5
:1035700000700136027C040E05A80768098A0BE773
:103580000E0E0FCC114F12B813DA14901508158CCB
:1035900016191671167B16571616158C148C1319DE
:1035A000114E0F2D0CA409B306820342001AFD161A
:1035B000FA23F722F41AF133EE91EC2BEA03E852E6
:1035C000E75EE71EE743E7A3E85DE98FEB03EC6EF8
:1035D000EDCBEF43F0D4F24CF3A8F51EF6C0F84B58
:1035E000F98AFAA5FBDEFD17FDF9FE7FFF0AFFDF72
:1035F00000C3015D01B802450361051D07600A169D
:103600000D1D103112F51515166B171F179A183C62
:10361000190519A919F019DD1972187F16E914F1A5
:1036200012F711040EC90C1A0923061302CDFF2B41
:10363000FB57F7B2F462F13FEE29EB41E8BFE6BC7D
:10364000E544E472E451E4B9E56CE654E77FE8F65A
:10365000EAA4EC70EE47F012F1BFF35EF50CF6CA87
:10366000F874F9F5FB69FCE5FE46FF510000008A9D
:10367000012701E402BF03C5050B069E08890ACA9B
:103680000D3D0FAC120A146D16BC1891199B1A0F40
:103690001A641AB81AC41A6E1A0A19D3197018546F
:1036A0001676144311EA0F240BCD0848050001D506
:1036B000FE58FA74F67AF292EE9FEAB3E74DE4CA46
:1036C000E304E1B1E0E9E101E1E6E323E47CE62A99
:1036D000E85AEABFECE8EEC8F09FF284F44BF5E05C
:1036E000F76AF90AFAABFC31FD9CFEF2001F0121DA
:1036F0000218031C040E04D805A906D108660A4165
:103700000C5A0ECC1187141E162C17A718BC197C46
:1037100019EB1A421ACC1B841C0C1C171BA91AD6B5
:10372000198917B21580132510960DA10A3E067946
:103730000238FD65F853F3A4EFA3EC0EE8B0E5D42E
:10374000E3C2E228E084DF0EDE8FDF41E075E19C1A
:10375000E323E5ADE8E0EBA7EDA0EF74F1A2F3B64B
:10376000F51FF63EF7EAFA30FC4CFDD1FF2000874A
:1037700001AC0232027102FF03E204CE05F207C976
:103780000A310C660E2E104E136016C819641AFC0E
:103790001C411D821E3F1E1F1DA51D721D661CFAA9
:1037A0001C221B381A1A1824151511640D8B096B6D
:1037B00004C8FFEBFB63F756F383EFD6EC7FE98099
:1037C000E698E3B8E135DF60DE3EDDC4DE0BDF12F4
:1037D000E088E235E43EE6C1E957EB7AED50EF7858
:1037E000F20BF461F61AF7BCF9EAFC5FFE59FFB977
:1037F000010E029003C80474050205CB066E067D17
:103800000676074709170B450D9C10A4147C182356
:103810001A881BD21CF51E391F031EFC1EAB1EA4EA
:103820001EAE1E2F1D001B5C195116B61390100AF8
:103830000C0A0759023CFD5FF90BF4D8F06CEC1D43
:10384000E874E568E29BE02FDEC1DE84DEDDDF1890
:10385000DF27DF66E000E0E1E226E416E6BBE9C42C
:10386000ECDCEFDFF2ABF511F712F8F6FB03FD32FB
:10387000FF410108028103AD0493053E05B105E750
:103880000601065F075308DC0AD30D4C10731412AF
:1038900017861A451C3C1D8A1E341E561E521E6D6C
:1038A0001E751E1F1D8F1D001C161A19170A13BF27
:1038B00010B20D4908EA04300028FCAAF883F36628
:1038C000EE93EB1EE873E56AE22ADFDBDEBFDDDCA8
:1038D000DCB2DC26DD18DF0EE10AE31EE5FEE96B53
:1038E000EC26EDACEEF0F0F0F363F578F736F94442
:1038F000FBADFDB9FF13003B01AA0325043604E12B
:10390000056C05DB0611064E071508AD0B130E35C9
:1039100011E6159D18B01AE21C541D1A1D301CED3D
:103920001CE91D3C1D551CE01C4B1BEA1B1918FB18
:1039300015D812D710510D5B095204E70111FD9102
:10394000F97AF4C2F04DEC76E8A5E48EE0F1DE7E83
:10395000DCCADB2BDA06DA51DC03DE0FDFFAE26EBB
:10396000E5DDE97BEC4EEE92F133F43EF6CAF86207
:10397000F9A7FB3DFCE1FE00FEABFF68006B0173A5
:1039800002500303037B03AB03D7047505BF07C1D4
:103990000AA60E7A129F161718891A6E1C041CCBE1
:1039A0001C8D1C2D1CA01D851DC71D621D601DEFDB
:1039B0001DBA1BDD1947172E14F110E00AE404CBE1
:1039C000FFD7FB58F65DF171EDA1EAA8E75CE3993A
:1039D000E05EDE27DC66DAEEDA9BDBF0DE17E0097C
:1039E000E201E4C8E81EEAF8ED25EF7FF252F4B9EF
:1039F000F5FBF698F75AF82AF8B5F984FB6DFE3214
:103A000000BB02960435059E060A055904DD05D95A
:103A100007FC0A440CC3104C1491180519DA1AEE6D
:103A20001C3A1D6B1DDA1DF61EA41FAF200B1F8B49
:103A30001F071EAE1D731AA2171113D0109D0C8EF6
:103A400007BF032BFF10FAABF5B1F0E0ECC9E90DAD
:103A5000E55BE243E041DEA9DC9FDAA8DA13DB0B89
:103A6000DC73DDCEDFFDE391E78BEAAFED30EFF6FF
:103A7000F2D8F4DAF600F767F97CFB4FFC44FD2F2F
:103A8000FEE900C8018B014000F100CA0009FED226
:103A9000FEB900CC044207E10BC810AF160B1A4662
:103AA0001CD71EC620EA22B92371237623A724013E
:103AB00023D222FC220120F41F3B1C8E196215FE2A
:103AC00011D90C6E063B0044FAEEF5F5F13AECFE26
:103AD000E94BE5D5E286DF9DDD23DAD6D8E1D820B3
:103AE000D912DB0BDD07DF00E1BCE560E906EBF294
:103AF000EE76F133F3F9F60FF739F7E7F87DF8FAD8
:103B0000F965F9F9FAC3FB74FBDCFC36FCC5FD73FF
:103B1000FE26FF34011A03F2077C0B9A105615712A
:103B20001A4D1E602179238B24A2250E2551259B39
:103B300025AE256524F9246C232420A51D671A5879
:103B40001792144710030B420683017AFBBCF5BAA7
:103B5000F058EBD1E7BDE3FDE0D4DE1EDB53D8998E
:103B6000D702D739D89BDA45DC60DF7DE316E5E97B
:103B7000E7BDE9B1EC70EF2FF108F269F42CF5EE36
:103B8000F69BF653F672F799F8DDF973FA02FB66C5
:103B9000FD16FE0AFEC100F405420A730F67147A8F
:103BA0001A271F52224A232123AB251B26C2279AFC
:103BB00027E82883293328D726EF2431216F1EC216
:103BC0001BEB18D7156011030B6304ECFE75F86B43
:103BD000F2BBED71E8F2E577E2A1DFD8DCDDD9FBDD
:103BE000D7BED6A1D6BED7C9D964DB8BDE76E209B3
:103BF000E5AEE8ECEBD1EE8DF0DDF259F324F3D82D
:103C0000F4B9F577F5E6F675F793F8E9F9BDF9E457
:103C1000F9F6FAA6FC43FEE7029A072C0C4A11CCEF
:103C2000179E1D3921B324AE26DA29062B042C0653
:103C30002BF62BB92BE72BF92B0F2900262D22BEB3
:103C40001EA71A3515D011470C0306240097FBC098
:103C5000F6B8F094E9F8E47CE0ACDD8BDA42D761A9
:103C6000D5E8D5C9D62AD6CBD847DAE8DE1DE14D4E
:103C7000E492E819EB5DEDACEF25F08FF227F35AF3
:103C8000F3D4F42DF51BF66BF764F7E9F891F99F7F
:103C9000FAA3FB65FC9EFF2E02FA072B0B8510B6DC
:103CA000171E1DC7233626EC29982BCA2D2E2D4E04
:103CB0002C9A2C122C102BFD2B4229E127FF254892
:103CC00021631CAD17E613260DC5078E0159FBF6BF
:103CD000F6E5F108EA5AE43CDFA8DBFDD821D45B25
:103CE000D218D20CD359D4EDD6C6D966DC8ADF46B9
:103CF000E14AE33BE5A2E82FEA57EC39EE42F05403
:103D0000F1DFF2CBF3B2F4FEF649F70BF781F87F5F
:103D1000FA7AFD36007A048809A60F6514DE197E4A
:103D20001D6120CE23C9264C28AB2B4C2E153064A8
:103D300031AE31E631382F9C2D0A29D62684232A2C
:103D40001F5F1ACF15A6102C0A4D03EBFD6EF790DE
:103D5000F288EDD7E911E474E05DDC91D8A6D4FFD8
:103D6000D2BAD277D39BD523D6C1D8BBDAFADCDC62
:103D7000DE18DF33E0DCE314E558E764E95DEB5679
:103D8000ED19EE86EFD4F14EF2FAF4B9F6B2F95C21
:103D9000FD1E01FC07A40DAE13CD19BC1F0F23306F
:103DA00025BA2709282029D92C2A2E6A303231A792
:103DB00032CB330A31CD2F3C2C04286F243B1F56C5
:103DC0001A3215130F9D09790330FDB8F92CF4B29E
:103DD000EFC1EAF5E710E3B0DFB0DACDD62ED32C91
:103DE000D1F4D1CCD247D39ED5F0D8A8DAEADC5EA4
:103DF000DD59DE4BDF60E0A3E24CE49BE767EA0EAF
:103E0000EC12EDA8EF6AF182F391F58CF85CFD01FC
:103E1000034409DF100316181C9222AF272C29F047
:103E20002C362EE03170331333ED34AE353B34ADE8
:103E300032B230162DA02B05277E22FA1E35199D91
:103E400014C70F1A08AE0236FC40F6CAF173EC0D27
:103E5000E6E0E267DEBFDB8BD872D5B6D3F7D36F6F
:103E6000D3B3D451D552D6E2D8BCDA61DBBFDD275B
:103E7000DEAEDFFFE103E22FE3DEE5B6E727E8523F
:103E8000E9F9EC89EFB3F322F71EFC1F021808785A
:103E90000ED9153B1B9F21B327052B552EA0310FA3
:103EA00032EF348835D6368F3692361C355B33FC8C
:103EB000316F2DA3291E244C1F13194D13510DB81A
:103EC00008990382FE24F8B1F362EE0AE872E2E890
:103ED000DE0CDA24D6F9D47ED31AD319D414D55BE8
:103EE000D6ADD837D9DDDB0ADB65DB68DBEDDD4439
:103EF000DF12E0F8E304E554E796E942EA54EB996F
:103F0000EE28F294F894FF6306590D22137F190EE0
:103F10001D7E20FA2416274A2A8B2D762FC3316165
:103F2000325932C132C7328831DD30752E2F2B27FE
:103F3000276522BD1D39176711F90D23088503C0B8
:103F4000FED1F9D9F4DDEFD9EAECE648E215DE85D9
:103F5000DBD6DA1FD930D8D4D928DA53DC13DDCA3E
:103F6000DF1EE03EE15BE23BE287E26BE277E2EC00
:103F7000E37CE3DAE43BE51FE6C4E914EC05EFCBB0
:103F8000F492FA20FFEE05840ABA0F95142C188FCC
:103F90001CD6210E251C28C62BDC2E5D304F318B04
:103FA00031DE315430482EFB2D4A2ADE279A23BABF
:103FB0001F801AFC1634114E0C7607AD02CBFDB9EA
:103FC000F892F38FEEEBEACDE74EE4A0E2FEE27763
:103FD000E2A0E2CDE2ABE278E282E28DE210E0F92B
:103FE000DFDCDF30DEC6DE25DD3FDC75DC14DC190E
:103FF000DC73DD3BDE99E0C6E421E8EBEEC7F4CEEE
:10400000FA5BFF840495096A0DC211FA16F41D10BB
:1040100023AB29C82EEE3318362637DD385A38132D
:10402000375135FD33EE31332DD4299F247B1EBC0F
:1040300018F713690DDF08240261FCF9F829F3F081
:10404000F03AECFDEA37E7D9E5C6E3E2E21FE081AA
:10405000DF20DE12DD53DCB3DBF9DB13DA27D969AD
:10406000D8DFD858D7B6D72DD71ED7C1D904DAE5AF
:10407000DDB5E1CEE714ECE3F290F7DEFCE701B446
:1040800006250A500EAA13B519821FB125EC2C1271
:1040900031E936DE3A593C553D333D083B6F3843F4
:1040A000343930512CC8290A24B8203C1C1117DCA3
:1040B00012B60C480539FE75F866F30AEE70EACFC1
:1040C000E82AE61AE3FDE16ADE77DBA8D977D7ECC8
:1040D000D6C1D5EED5B3D606D643D5D6D504D4971A
:1040E000D4E1D586D65CD7F4DADDDEDBE34AE7FD42
:1040F000ED29F28EF75CFB30FE9B0274070B0C532C
:10410000127619B321AC29592FD034C238453A7CE4
:104110003BA93C343C5B3BEA3A7C37EA345D3005F2
:104120002B0725A720431B1215FE10D10B6605B8DF
:10413000FFEEFA65F58BF182EE01EAA9E760E43C57
:10414000E129DDEFDA96D793D564D40ED321D24C92
:10415000D1B2D1A9D233D2F1D396D441D543D6BD71
:10416000D8A2DB19DE82E308E857EDEAF36AF8A289
:10417000FD3D0102044F080C0CE812CA19331FD888
:1041800026AD2D64335337F03B353D6E3EBE3EF9D0
:104190003DEB3B99383C341A2F5F2A2D24B71F453D
:1041A0001A0414DD0FA20A5905400078FBD8F73E27
:1041B000F2D6EEDDEB43E7B8E416E07DDD0ED9BFC5
:1041C000D69FD3F9D21DD121D0F5D178D250D2F2D9
:1041D000D300D2AED282D2D4D3D5D5ECD9A4DEFFCF
:1041E000E534EB51F0F4F62FFB02FF58036E07D4D1
:1041F0000CE2127718461E31242529DD2EFF33618B
:10420000370339D43BAB3C6C3C163AB23856353C9C
:1042100031A02D8628C423561D8D17D5125E0D158D
:1042200007E002BFFDCBF918F49EF040EBECE7C5C8
:10423000E418E10BDE62DBADD8B5D5ADD2FDD0F42C
:10424000CFAACF1ACF37CFE5D0E6D1E1D29DD33C6C
:10425000D42CD5E3D8ACDC9CE1A5E77EED9BF367DD
:10426000F89DFD4B019A05BC0A160F1E14F71B4A58
:1042700021A527D42DA732AB366238CC3A4D3B214D
:104280003B203A33389F36A133FF30562BB1267E80
:1042900020FB1B1214C70E8308C1039FFEE9FA77A7
:1042A000F647F256EE87EAB5E6CDE2E4DF39DC0BFD
:1042B000D954D6CAD449D210D06ECF51CE62CD9B3C
:1042C000CD5DCDEACF0FD07DD252D4F9D8AFDD5E2F
:1042D000E2DBE8F4EF50F56BFAEDFFC904240827A0
:1042E0000C1C106F15741B1D211226ED2C5A311554
:1042F00034FC381A3A6B3BB93BC93ABD38F6369CA8
:10430000336C2F312A3825141FFF1AC515440FB5F9
:104310000A6D056E0077FB75F69AF208ED8EE8F1EE
:10432000E457E037DCCAD9BFD69FD362D07DCE47F1
:10433000CCA7CB59CA73CA48CAF8CC43CDF0D01B1E
:10434000D30CD6DEDB7BE0C1E693ECB2F2CAF89A7E
:10435000FE14034D087D0DED13C319CF1FA524FBDB
:1043600029C62DFC316C33FF35E8376E388B38F4B5
:104370003876371E34F231DD2DE6295724811F7B34
:104380001A46151310210B6606910173FC3DF74088
:10439000F292EE15E9B9E5ADE230DF4FDCCADA3A68
:1043A000D766D47BD1E3CFDDCE5DCD4DCCD4CD313E
:1043B000CE63D02ED26CD539D8B2DCC6E14EE6350C
:1043C000EB63F0A1F5C4FAE80058062A0C25120F99
:1043D00017ED1DD3238B289C2CB62FF0329934CDAA
:1043E00036613723371A365834BD320E2E612A35DE
:1043F00025F421911CDD181A13E6105C0CB007FEA1
:10440000024EFC74F70BF1E6ECB8E7D0E3D0E0D74E
:10441000DE45DB7FD88BD5D9D3A0D1C5D047CF7BA4
:10442000CFAFD0B5D207D367D52AD7D0DB68DF921C
:10443000E407E8D1EDEDF2F4F76BFB65FF7C042BAC
:10444000095D0EC1143819BF1F1023A7273A29E8A8
:104450002C022DCA2F6730E63213328331E6303812
:104460002D992A0E25A120AC1BB51703127C0DF443
:10447000096E04FB0080FBD3F709F27CEE7CEB169F
:10448000E821E567E2BCE000DD35DA84D818D6091A
:10449000D46ED37DD363D3FBD4DDD5D3D726D95403
:1044A000DC7CE053E49FE97FEF01F4AEF9D5FE45F3
:1044B000027306DB0B7C101614A2192C1D79211532
:1044C00023D6260327D6293329EC2A212A1129AD00
:1044D000289D26A523D7206A1C9218851479107C64
:1044E0000C7F088B04D2016EFE36FAF5F7A4F45760
:1044F000F110EDC7EAA6E7ECE59FE393E1B9E03CF4
:10450000DF3BDE94DE16DDC7DDD2DE3BDEE7DFDF3C
:10451000E162E391E64CE959ECAEF05FF45EF86CD1
:10452000FC5D0037041A08100C070FF013C3176462
:104530001AA01D551F9421842328245524E224CD3C
:10454000242622EC211A1EBE1BF018BC1528115976
:104550000D8209BE0602024EFEBFFB63F81CF4CBBF
:10456000F187EE8BEBEFE9A8E7C5E670E5B3E54E22
:10457000E4F8E4A7E476E463E44CE433E450E4E4F0
:10458000E600E795E9A3EC3BEF57F2BBF60EF9180E
:10459000FBDBFE8E016E04A108320C141020140EF9
:1045A000178C1A751CD91EDE209121DD22B4231828
:1045B000230A227421281F0A1C36190015B112542F
:1045C0000EC60AFB0718034AFF9CFC03F884F52F6C
:1045D000F203EEF4EC13E98CE77AE5CDE467E33D12
:1045E000E253E1A6E13FE133E18EE243E33DE483C0
:1045F000E62FE856EAF4EDF8F146F4BFF854FC046F
:10460000FFB40323062708F10BD80EEE11E814813E
:1046100016C618DD1ABB1C431D901EE32041215B0A
:1046200021E021B420D71F3F1CED1A0716C1133A11
:104630000F820BBA0805046700C9FD20F975F5D78C
:10464000F249EEC4EB54E81FE564E34EE1CFE0B776
:10465000DFEFDF85DF7DDFA2DFC6E00EE0D0E238EE
:10466000E42CE698E993ED2CF141F594F9F2FE2360
:1046700001E5052608250B2F0E4C1160147D17C58A
:104680001B0D1DDF1FF9218922CE23BE242523FE09
:104690002366225820B41E751BB3188114F11134FF
:1046A0000D7F09CE05F101DAFDB7F9B2F5C5F1F0DC
:1046B000EE5CEB23E82DE561E2EAE103DF9CDE6FCF
:1046C000DD5EDC96DC3DDC3EDC7EDD18DE38DFE2E4
:1046D000E1FFE498E7D4EBB5EFFAF448F870FC7723
:1046E00000700457081A0BC10F8813AD182A1C96C6
:1046F0002071237C25BF2756285128C628D828A6F4
:10470000282F275625E923AB207B1C7617F5134A63
:104710000E8C09B804E4003EFBD2F778F307EE9064
:10472000EA4FE670E2F4DFD7DD2DDB17D995D878B4
:10473000D7A0D723D73CD7FBD944DAFDDD36E0013B
:10474000E346E6D9EAA4EEA1F2BAF6D8FB01FF3CB3
:10475000036207360AC70E6C1250163B19EE1D791C
:104760002105245B270328C729E12A952AE02A9BF3
:1047700029C4287A26CD24B222161EE11B06169FD4
:1047800011E60CF807D20288FD5BF86EF391EE9FFC
:10479000E9D5E58AE1AADDD8DA1DD702D4E1D37ADA
:1047A000D26FD1CED1E6D2B7D40CD5E4D871DBAE7E
:1047B000DF54E348E7A9EC6CF132F5B3FA11FE7E61
:1047C00002E9073A0B9B103E14EE19411D2420D339
:1047D000244D2737295E2B0A2C8C2DC42E522E09EE
:1047E0002CFC2B3228A1256721C41DE019BA155EC7
:1047F00010F00C7907D402F1FDFCF92FF49AF03493
:10480000EC05E80FE435E05DDCA6D950D677D4128C
:10481000D23CD13AD12DD1DED30AD4ADD6EDD9C018
:10482000DCF3E07EE490E935EE18F2D8F774FC2A68
:10483000010405BA0A2E0EB313A118C61D8D21A5B9
:10484000253E288D2B5A2D4C2E6D2F212F8E2F6714
:104850002E532C5529AA267722B81E7F1A06158AB0
:1048600011190CA2080A0348FE6CF98FF4B8EFD6B0
:10487000EAF6E65EE25ADEF2DBF0D939D6F7D55B2E
:10488000D457D3B8D36FD3A1D47BD616D87BDB9DB6
:10489000DF50E360E7B0EC30F0BCF50FF904FCBC8E
:1048A0000081048708DB0D74124817441C3820DE91
:1048B00024F828672B202D1B2E472EAE2E7B2DC6CD
:1048C0002C742A5C2793246020D91CCD182D134505
:1048D0000E6B098D0473FF48FA75F602F17CECB497
:1048E000E81DE42DE0B2DD46DA23D7F2D6D4D62691
:1048F000D579D52BD5C2D719D8B4DAA0DD6EE1426F
:10490000E587E9B4EDD7F220F64AF9E9FD2800B3CE
:1049100004E3096B0DE81266170D1B951F6822381A
:10492000243E25D6271927EE284E284027B926935E
:1049300024BA22351F1D1B9317CA13F0100C0C024A
:1049400007C3036DFF28FAF4F6BBF28AEE97EB0972
:10495000E7D0E4C7E1F0DF79DD89DC27DB4DDB0759
:10496000DB6ADC7CDE24E039E2A0E557E864EBB1E9
:10497000EF0BF24BF582F8D8FC4DFFB702FD06466F
:1049800009BC0D4F10CA141A17421A271C8A1E5E42
:104990001FDC2130222C22832235217C205E1E8BBD
:1049A0001BD91891152C11D20E5A0AB8072203B937
:1049B000004EFCA0F8BAF4EBF170EE41EB4AE89C33
:1049C000E657E47BE2F1E1B1E0CEE053E03CE09574
:1049D000E17CE303E50BE768EA05ECE2EFE6F2E9E8
:1049E000F5DCF8D6FBECFF160249059508FF0C60D4
:1049F0000F7D124A14DC1734192D1ABE1C0E1D36F9
:104A00001E091E491DF61D401C2A1A7D182A157EF6
:104A100012D110270D4B0A2D06F703C1006AFCD8EE
:104A2000F92DF5B3F295EFD3ED67EB50E97CE7D3C1
:104A3000E64DE503E410E380E366E3DFE4FAE692A3
:104A4000E871EA7DECC1EF43F1E9F49DF769FA60A2
:104A5000FD74007A03600634090D0BDF0E971132E6
:104A600013B015F517D1192A1A0D1A8C1AA01A4964
:104A700019A318DA17F416C8152F133410F80E8678
:104A80000BD208DD05CD02C6FFCCFCC7F9ADF69A06
:104A9000F3B6F113EEACEC7DEA90E8F5E7A5E6910C
:104AA000E5B3E527E516E597E6A6E82DEA15EC441B
:104AB000EE95F0E6F32CF574F7D0FA51FD02FFE81D
:104AC00002F7061009100BDE0E7310C712D3149AEA
:104AD0001629178A18AD197619D519CE196A18AB87
:104AE00017911624146E1282106D0E320BC6092215
:104AF0000655037A00A5FDCBFAE2F7F1F519F26B42
:104B0000EFE3ED7BEB46E960E7D4E6A3E5CFE564B0
:104B1000E56DE5EBE6D6E825E9CCEBB9EDD6F01985
:104B2000F285F511F7AEFA57FD18FFF002C7057EC2
:104B300008120A8F0CF80F3A1140130B14A7160B2A
:104B4000171E17CF18291844182317B9170015FD79
:104B500014B1131111190ED70C6609DA074604C0F7
:104B6000025B000CFDAEFB2BF891F5F5F359F0B9A3
:104B7000EE3AEC17EA74E94AE87DE7FBE7CCE7F5A3
:104B8000E864E904E9DCEB06EC83EE41F034F25F23
:104B9000F4B9F72EF9B2FC4FFF0B01D4048A0719C0
:104BA00009890BE00E020FD6116612CF14141514EA
:104BB00015B316001619160415A114DC13D512B17D
:104BC00011620FBD0DBD0B8F0956071204BF027491
:104BD000004AFE3CFC2EFA0FF7E4F5B4F380F155E1
:104BE000EF56EDABEC65EB7CEAECEAC7EB0DEB972F
:104BF000EC3CED01EDFFEF37F08EF1F9F38DF55D53
:104C0000F764F98BFBC5FE0C0057029304B206B49F
:104C100008920A3E0BBC0D1C0E650F89107C113DDD
:104C200011CD1224123511EE115410810F830E4E46
:104C30000CE20B5A09C6081E065D048E02B200C6BD
:104C4000FED8FCFEFB3BF984F7D9F651F501F3E6FB
:104C5000F2EAF20BF15DF0EDF0AEF08EF095F0DAE5
:104C6000F166F22EF322F43CF57AF6D5F83DF9AD73
:104C7000FB21FC98FE12FF91011A02A204120564A6
:104C800006AC07F409210A130AD70B830C0A0C524D
:104C90000C610C530C330BF80B9F0B260A8B09CBC2
:104CA00008E207CC0690053A03D0025900E4FF86DB
:104CB000FE3BFD00FBDAFAD2F9E5F90EF84AF79669
:104CC000F6FAF67EF620F5DFF5BDF5B1F5B4F5D4CC
:104CD000F622F697F722F7D3F8C2F9E0FB00FC14AE
:104CE000FD25FE3AFF480042012101F202CB03AF4D
:104CF0000484053905D6067006FF0767079C07B1CF
:104D000007BA07B7079D076F073806FE06B7064FB5
:104D100005B904FD042F03570276018F00B0FFE9A7
:104D2000FF3AFE96FDF4FD5DFCD7FC5BFBDEFB6B02
:104D3000FB0DFABDFA78FA44FA1EFA07FA0DFA2EBC
:104D4000FA57FA85FAD0FB3AFBABFC19FC92FD1836
:104D5000FD9DFE1BFE9AFF1DFFA4003200BE014117
:104D600001B90229029002F3035303A703F204419D
:104D7000049704E0050C051D0521051F050E04DA46
:104D80000483042003C0034E02BB022401AC01498A
:104D900000D80053FFD1FF57FECEFE2CFD87FCFE4E
:104DA000FC9FFC65FC45FC3DFC52FC7FFCACFCCC54
:104DB000FCF1FD29FD68FD9DFDD5FE1BFE63FE9FF8
:104DC000FED3FF09FF40FF72FF9FFFD0000C004B96
:104DD000007C00A300CE00F200FE00FE0108011ED0
:104DE000013D016B01A801E902260255026702603C
:104DF00002580256024B02390233023E024B025263
:104E00000250023C021501DC018F012900B400426E
:104E1000FFE1FF93FF56FF2CFF14FEFFFEDDFEAD0A
:104E2000FE83FE68FE53FE3EFE2DFE1EFE0AFDE9D9
:104E3000FDC4FDA2FD88FD7EFD92FDC9FE16FE6645
:104E4000FEB9FF0FFF5AFF8AFFA3FFB2FFBEFFD2DA
:104E5000FFEE0016005800C1013901A101FE0265F4
:104E600002CD0322036903AB03D803DA03AB035378
:104E700002E3026C01FF01A70177016E0175017069
:104E800001500108008FFFF3FF4BFEA6FE14FDA9A1
:104E9000FD6FFD5CFD6BFD95FDC7FDE5FDEAFDDAEF
:104EA000FDBEFDA7FDABFDD4FE1CFE7DFEF2FF6442
:104EB000FFBBFFECFFFBFFF3FFE3FFDDFFE80004B8
:104EC0000027004C0071008F00A100B300D2010147
:104ED000013B017F01C8020D0244025F025A0240F9
:104EE0000222021002140235026A02A202D102E971
:104EF00002D202810201016200ADFFF8FF53FEBC45
:104F0000FE30FDB6FD51FCF8FCADFC7DFC64FC57A9
:104F1000FC53FC58FC5DFC64FC76FC94FCB9FCEB97
:104F2000FD32FD90FE09FE9EFF48FFFB00B70174B5
:104F30000218028B02C602CD02B30288025A023264
:104F4000021B0216021101FD01E001C601B101A020
:104F500001940193019401870160012000CD007349
:104F60000023FFF0FFE3FFFB002A005D0082008FBB
:104F7000007E0042FFD6FF49FEB1FE1EFDA0FD46A9
:104F8000FD10FCFAFCFEFD14FD2AFD3BFD4BFD5718
:104F9000FD5FFD6FFD91FDC5FE0AFE62FEC5FF319E
:104FA000FFAB003700D10173021302A3031B037F81
:104FB00003C803E603D10398034902F10299024AA8
:104FC000020801D401A80175013200E10083001636
:104FD000FF9DFF25FEB6FE56FE09FDCCFDA0FD8817
:104FE000FD8CFDB3FDF6FE46FE8EFEC4FEE0FEDC4B
:104FF000FEBBFE8AFE59FE34FE2AFE45FE84FEE01C
:10500000FF4FFFBD001600560084009C009E0094D8
:10501000008D009100A700D2010E015A01B7021EB7
:10502000028102DC0332037903A1039E036F03199B
:1050300002A4021D018D01050098004D001BFFFB1D
:10504000FFE4FFC2FF83FF23FEA7FE18FD85FD09D5
:10505000FCB6FC96FCA7FCE3FD41FDB3FE20FE760A
:10506000FEB1FED8FEFAFF1EFF45FF70FFA5FFE56B
:1050700000250060009A00DA011F016B01BC0207E5
:10508000023B0250023B020001B6017D0169018131
:1050900001C9023402A8030B0345033A02E6026188
:1050A00001CB013900C90093008E00A700CF00EEAC
:1050B00000E600A70035FF9BFEF0FE55FDE0FD91E8
:1050C000FD61FD48FD35FD21FD19FD25FD48FD87EC
:1050D000FDE2FE47FE9DFED4FEE7FEDEFED6FEF0BC
:1050E000FF3AFFB9006E0142020C02AD0315033F07
:1050F0000331030502D602AF0292027F027B0281D6
:105100000289028B027C0250020601A5013600C111
:10511000004EFFECFFA0FF71FF61FF66FF6BFF60B9
:10512000FF3CFF03FEC3FE8DFE67FE54FE53FE638D
:10513000FE73FE73FE5DFE34FE01FDDCFDDAFDFC58
:10514000FE38FE83FECCFF00FF1BFF30FF4CFF7ECE
:10515000FFD4004800BB010D0132012900FE00D040
:1051600000C400E9014101C3025302CD031C03370F
:10517000032002E802AB0273023B01FF01B7015EAC
:1051800000FD00A600580010FFD4FFADFF8DFF64A6
:10519000FF2FFEEFFEA4FE55FE0CFDC6FD7FFD3683
:1051A000FCF0FCB7FC9EFCB2FCEEFD4AFDBAFE2F03
:1051B000FE92FED1FEEBFEE5FEC8FEA8FEA1FEC5F6
:1051C000FF13FF7CFFF0006800E2015401AE01EB29
:1051D0000212022402200213021102220241026D75
:1051E00002A302C902C5028D0223018E00EA0061FA
:1051F000000BFFF1000D004B007E0087005AFFF707
:10520000FF6DFEDFFE6AFE14FDDEFDC5FDBDFDB3D4
:10521000FDA7FDA2FDA3FDA9FDBAFDD5FDE7FDE4B7
:10522000FDC7FD96FD6CFD67FD98FDFDFE92FF3EFE
:10523000FFD70047009600C900DF00E90104013BE9
:10524000018401D4021E02500264025F024F023B3D
:10525000022A021801FA01D301AA017E0149010DB7
:1052600000D500A000620016FFC0FF62FF00FEA98B
:10527000FE70FE5AFE61FE7DFEA7FED0FEE9FEE84E
:10528000FECDFE9BFE59FE14FDD9FDB6FDB2FDCD4F
:10529000FE06FE5CFEC6FF38FFAA0010005700772E
:1052A000007A006A004A002400060002002200681A
:1052B00000CC013E01B1020A022D021201D4018983
:1052C000013500EB00C500CC00F00123015701744B
:1052D0000167012F00DE0086002FFFD5FF78FF2A2F
:1052E000FEF6FEDAFED4FEEAFF1BFF4EFF71FF77EB
:1052F000FF54FF00FE8AFE0EFDAEFD8EFDBAFE20BD
:10530000FEA5FF33FFACFFF30004FFEDFFBDFF84FC
:10531000FF5EFF57FF67FF85FFB90006006800DDED
:10532000016201E40244026C025B021A01BB0152F9
:1053300000FD00CC00BA00B300AF00A90098007BCC
:105340000060005F008000B300D000B80061FFD8AB
:10535000FF31FE95FE39FE31FE5FFEA0FEDFFF133A
:10536000FF34FF4AFF79FFE6009A0174022C0272B3
:1053700001FE00B7FECEFCC3FB2CFA73FAC5FC1687
:10538000FE13002E01D30299025D0151FFEBFEB71F
:10539000FE1BFE47FF25006901B002AC0331033953
:1053A00002DE025401D0017201450136011E00E007
:1053B00000840022FFCAFF7FFF49FF2DFF1EFF0967
:1053C000FEF1FEE2FED8FEC7FEBBFECDFEFCFF2EC8
:1053D000FF55FF78FF9BFFBEFFE2000C003C00671B
:1053E000007B0071005F005D00650066006400677F
:1053F000005F0038FFF6FFA7FF51FEFFFEBBFE90E7
:10540000FE81FE84FE87FE8AFE9EFECBFF11FF75A5
:10541000FFFD0090010C015F01830171012F00D796
:10542000007C002AFFF1FFDDFFE4FFF7000E0027FC
:10543000003F00540062006C0071006C0051001EBF
:10544000FFE7FFB9FF90FF6CFF5AFF68FF8FFFBEB9
:10545000FFE9001300400065007B008D00A200A65C
:10546000008700580029FFECFF91FF2AFEDAFEAB0F
:10547000FE9DFEACFED2FF06FF38FF5BFF72FF8D84
:10548000FFAEFFC8FFDDFFFF0031005A0067005D7F
:10549000004E004D006F00BB0120017A01A3017C8A
:1054A00000F8001DFF08FDEFFD19FCBFFCFAFDC070
:1054B000FEE20018012001CE020D01DA014D009933
:1054C000FFF5FF82FF46FF44FF7FFFEC006B00E922
:1054D000016B01E40230023E022001EB019E013C1F
:1054E00000D20072002AFFF4FFBFFF88FF5FFF4277
:1054F000FF25FF16FF2AFF52FF68FF66FF62FF606D
:10550000FF5AFF5BFF7AFFBA000D005A008B00952F
:105510000076002BFFC2FF5DFF19FEFAFEFEFF2A98
:10552000FF7AFFDD003D009200DB0119014A0162B4
:10553000015A013300F600AC00640028FFFDFFEBC8
:10554000FFF700190047008100C50106013B016714
:10555000018C01A201A50192016D013D010600CA65
:105560000089004C0014FFD9FFA4FF82FF6BFF4E9F
:10557000FF30FF22FF1DFF04FED0FE8EFE53FE27EC
:10558000FE08FDEFFDDFFDDCFDE2FDECFE04FE3874
:10559000FE88FEF1FF77001700B301290168017052
:1055A000014F011F0105011B015D01B00207025CF3
:1055B00002A302C802C602AC029B02AD02E3031BB7
:1055C000032F030F02C2025901E8017F012700E9FE
:1055D00000C500A30052FFBDFEEFFDF4FCDDFBD2D1
:1055E000FB05FA86FA42FA2AFA43FA89FAF5FB75BC
:1055F000FBFBFC76FCD8FD16FD30FD35FD32FD30A1
:10560000FD55FDE2FEF7006201DD034B04A905DD57
:1056100006C4076407EB086F08E50940098509B669
:1056200009BC097F0905086307A006A7056403DC18
:105630000210FFF3FD95FB36F912F72FF592F46691
:10564000F3D7F3D6F431F4C7F594F686F76EF81273
:10565000F850F82CF7B9F70AF646F5B4F59BF61BA7
:10566000F740F90FFB7AFE5A018E04FF08870BF40E
:105670000F2311FD145D161B17231773171C163DFE
:1056800014F5134F11470EEB0C55098906780318D2
:10569000FF7EFBD8F84DF4F2F1E4EF63EDB4ECE1FA
:1056A000ECBBED1FEDFBEF1BF02AF0F1F172F1BB4B
:1056B000F1CAF1ADF18DF18FF1C0F22BF2F1F439B5
:1056C000F61AF8A5FBF9003A05510ACD102715087E
:1056D00019371C601E311EA61E0B1CA21A8217C988
:1056E00014C511CB0F080C820A2A07F605CD0387D3
:1056F00000FEFE2FFB2AF7F6F4A7F16CEE86EC1401
:10570000EA27E8E1E862E899E955EA7CEC0FEDF474
:10571000EFDFF186F2C6F3A4F41EF42DF3F7F3F4F1
:10572000F4BBF6AAF9D0FE1E0374098F10031654B9
:105730001C0520A623E325882573238C1FEE1AF071
:1057400015140EF40933046100D1FE93FD88FD7534
:10575000FE00FEB9FF28FEE1FD9CFB45F7FAF404CC
:10576000EFBDEB78E797E4AEE356E3C1E595E85C7F
:10577000EBD8EFCFF3BDF6F6F919FA13F9E8F8B65E
:10578000F6F1F556F48CF4F6F6E8FAC1009E08102E
:105790001049188D204726C12B332D172C4A28C6B7
:1057A00022AE1AA611E309960276FCF7F99BF8BC23
:1057B000FA17FCCFFFDF0281041D04340274FEE2FD
:1057C000F9D3F3BFED3CE706E1ECDE94DD5FDE6389
:1057D000E172E618EBB0F180F6CCFAF0FD7DFE3B0D
:1057E000FD2CFAA6F76BF479F2AEF2BAF53BFA9219
:1057F00002820C3016A7210F2A5D3124342F333654
:105800002EB8274A1D6F12300741FE37F7CBF4122E
:10581000F30BF495F80DFC6800BA0449064005DA6C
:1058200002E3FDC2F6F6EF03E6E4E004DB83D9BB56
:10583000DA92DDEEE38EEA8FF1A3F7D7FCD1003EDA
:105840000182003DFCE8F8A1F4A6F20EF1C2F45F7B
:10585000FA2002C70D8D193824702E063501386FD5
:105860003791325729951E891258062CFB7AF3A7D7
:10587000EF4DEE2EEFBAF36CF890FE1202B6057AF9
:1058800005BC033EFE39F751EF4BE6F3DF72DA3821
:10589000D830D947DCECE2C1EA64F2DAFA9E005E65
:1058A000036C03A2012BFCB4F772F2B7EFA6EF5C16
:1058B000F2DAFA3A046510011C4E28AD339F3B150D
:1058C0003DC13BB335822B8E1E7B0FF10226F6CCF9
:1058D000EEBCEA62E9DDECB7F1EFF86CFF2104DA27
:1058E000084208740567FF95F778EDB7E3B3DB4C22
:1058F000D5FBD44ED61EDAFBE244EB11F41DFBF9C6
:105900000195047304700191FC53F5F1F039ECE258
:10591000ED03F10AF91A04D912F421562E2A385F40
:105920003F0C41093D8834E2288D1A500B95FD98B3
:10593000F1DBE9FCE6EAE86EED89F4FEFD9506117F
:105940000D0210CA10360B3902DEF879ED20E1EDB8
:10595000D85BD21CD053D2F5D8FEE147EAF4F51259
:10596000FE3504B8077506510219FBD8F47CED3EEC
:10597000E80AE6E5EACBF34FFF5A0DF01E052DD1FC
:105980003AE9434045EC42DD3A4C2CE61C570B22E9
:10599000FBA4EF59E713E38BE532EB7EF4C4FEFB87
:1059A00008770FE013E413550DD70459F89BEC3238
:1059B000E038D5EECEFDCCD2CFD3D742E1C7EDEC67
:1059C000FA21048A0B530D730AFE04BEFBEFF24367
:1059D000E9A5E3C1E1F0E537EDF7FB920C761E8E09
:1059E0002FBC3DFC474749D9451739F52A50183C8B
:1059F00005E9F5A3E950E209E02BE38DEB74F679B4
:105A000002B40E2116FC1BC41B4915350A74FCD1C7
:105A1000EE1FDFFBD41ECC50C9D6CCFFD516E0B1AB
:105A2000EE0AFB3006230D170ED40B2402EFF7E924
:105A3000EC09E160DA27D881DDA0E92EF9AE0D4945
:105A400021FC353A44234C964DD248043BAA29E028
:105A500015050053EEA7E1B9DA7DD9A0DF35EA0DCF
:105A6000F7DA062412ED1C852161207819B40DFDAA
:105A7000FF04EEF0DFF1D3DFCC2FC9F4CDA4D6AA1A
:105A8000E348F123FE15086E0EAC0F850A9C010059
:105A9000F4BBE81FDD72D6E4D639DC4DE8D4FA6EEB
:105AA0000EFB23F036C245464DE14F7749783C5412
:105AB00029C81477FF1FEC4CDE4DD6E4D6B8DD1EA6
:105AC000E876F6BC05CE13731D85225620FB1958C7
:105AD0000C2FFB40E923D8B3CC72C633C6DFCE33DC
