:020000040800F2
:10000000C89C0020850200083D2F00083F2F0008F3
:10001000432F0008472F00084B2F00080000000066
:100020000000000000000000000000004F2F00084A
:10003000512F000800000000532F0008552F000822
:100040009F0200089F0200089F0200089F0200080C
:100050009F0200089F0200089F0200089F020008FC
:100060009F0200089F0200089F0200089F020008EC
:100070009F0200089F0200089F0200089F020008DC
:100080009F0200089F0200089F0200089F020008CC
:100090009F0200089F0200089F0200089F020008BC
:1000A0009F0200089F0200089F0200089F020008AC
:1000B0009F0200089F0200089F0200089F0200089C
:1000C0009F0200089F0200089F0200089F0200088C
:1000D0009F0200085D2F0008892F0008B52F000837
:1000E000E92F00089F020008053000089F02000861
:1000F0009F0200089F0200089F0200089F0200085C
:100100009F020008E12F00089F0200089F020008DC
:100110009F0200089F0200089F0200089F0200083B
:100120009F0200089F0200089F0200089F0200082B
:100130009F0200089F0200089F0200089F0200081B
:100140009F0200089F0200089F0200082D3000084F
:100150009F0200089F0200089F0200089F020008FB
:100160009F0200089F0200089F0200089F020008EB
:100170009F0200089F0200089F0200089F020008DB
:100180009F02000800F002F800F05CF80AA090E876
:10019000000C82448344AAF10107DA4501D100F042
:1001A00051F8AFF2090EBAE80F0013F0010F18BFB3
:1001B000FB1A43F001031847E8FB000008FC0000AD
:1001C0000A444FF0000C10F8013B13F0070408BF7D
:1001D00010F8014B1D1108BF10F8015B641E05D01B
:1001E00010F8016B641E01F8016BF9D113F0080FD0
:1001F0001EBF10F8014BAD1C0C1B09D16D1E58BF62
:1002000001F801CBFAD505E014F8016B01F8016B98
:100210006D1EF9D59142D6D370470000002300240B
:1002200000250026103A28BF78C1FBD8520728BF06
:1002300030C148BF0B6070471FB50FF00EFD1FBDEA
:1002400010B510BD0FF0CFFC1146FFF7F5FF01F020
:10025000EBF90FF0EDFC03B4FFF7F2FF03BC0FF076
:10026000F5FC0000EFF30980704780F309887047C0
:10027000EFF30880704780F30888704740BA7047F2
:10028000C0BA70470948804709480047FEE7FEE7C3
:10029000FEE7FEE7FEE7FEE7FEE7FEE7FEE7FEE736
:1002A00004480549054A064B70470000F73000082E
:1002B00085010008C8960020C89C0020C89800202E
:1002C000C898002030B503460C464FF000010D469B
:1002D0000BB9002030BD4FF0000105E0585C284408
:1002E000C5B201F1010081B2A142F7DBC5F15500B1
:1002F00010704FF00100EDE77CB505460C46F7A104
:1003000003C9CDE90001012D3BD14FF00000F549B3
:100310000860F54908606079F2490860A0790968C9
:1003200040EA0120EF490860E079096840EA0120CD
:10033000EC490860207A096840EA0120E949086030
:1003400000F0D6FEE94800F05DFFE848E8490860A3
:100350009DF8010000F101010DF106020DF101000F
:10036000FFF7B0FF0821684604F05AFB4FF0000089
:10037000E0490880E04908804FF00100DF4908703B
:100380008EE0022D48D12078A0F10400D6490968FA
:100390000844D54908602078A0F1040086B24FEAED
:1003A000E67006EB90704FEAA00204F10501D04818
:1003B00000F044FFE078D04908802079098840EABD
:1003C0000120CD49088008460088A0F10100C949F4
:1003D0000988884203D04FF00000C8490870C64819
:1003E0000088C44908804FF002008DF80300E078CF
:1003F0008DF8040020798DF805009DF8010000F1CA
:1004000001010DF106020DF10100FFF75BFF08216C
:10041000684604F005FB43E0032D41D1012001F0C3
:1004200051F9B148006880421ED1B4480078D8B173
:1004300028468DF803004FF05A008DF804008DF81F
:1004400005009DF8010000F101010DF106020DF11A
:100450000100FFF737FF0821684604F0E1FA04F0D5
:10046000CFFB00F091FF17E04FF003008DF8030081
:100470004FF055008DF804008DF805009DF801003F
:1004800000F101010DF106020DF10100FFF71AFF65
:100490000821684604F0C4FA4FF00100984908703A
:1004A0007CBD10B59AB04FF0640101A80FF006FBB7
:1004B0004FF000044FF07E008DF804004FF0020072
:1004C0008DF806004FF00F0422468EA10DF10700B3
:1004D0000FF05BFA04F101008DF805009DF80500AE
:1004E00000F1020001AB00EB030204F102010DF187
:1004F0000500FFF7E7FE4FF07E019DF8050000F1D3
:10050000030001AA11549DF8050000F1040101A89F
:1005100004F086FA4FF02E0422467EA10DF107006A
:100520000FF033FA04F101008DF805009DF8050085
:1005300000F1020001AB00EB030204F102010DF136
:100540000500FFF7BFFE4FF07E019DF8050000F1AA
:10055000030001AA11549DF8050000F1040101A84F
:1005600004F05EFA1AB010BD10B586B0044675A14D
:1005700003C9CDE9040120788DF8080060788DF872
:100580000900A0788DF80A00E0788DF80B0020793A
:100590008DF80C0060798DF80D00684601F0C1FB04
:1005A000DDE9020101F0ABFB68B94FF055008DF8B1
:1005B00013004FF0F8008DF814004FF0060104A866
:1005C00004F02EFA0EE0012001F07CF801F0B3FBFC
:1005D00001F077FC9DE80F0002F0F2F8062104A874
:1005E00004F01EFA06B010BD00B585B057A207CAC8
:1005F0008DE8070003A801F094FB9DF80C008DF82E
:1006000003009DF80D008DF804009DF80E008DF894
:1006100005009DF80F008DF806009DF810008DF87C
:1006200007009DF811008DF808000DF1090208215E
:100630000DF10100FFF746FE0B21684604F0F0F9CA
:1006400005B000BD0EB544A207CA8DE8070003F04F
:10065000BCFD18B14FF05A008DF8040003F0B2FD54
:1006600018B14FF05A008DF8050003F005F918B1E4
:100670004FF05A008DF806000DF107020621501FB9
:10068000FFF720FE0921684604F0CAF90EBD10B537
:1006900034484079042819D006DC01280BD0022800
:1006A0000CD0032868D10DE0122813D013285BD09A
:1006B000142861D15CE0FFF7C5FF5EE0012003F084
:1006C00087FD5AE0012003F086FD56E0012003F08B
:1006D000D6F852E0002003F07BFD4EE07E040101DD
:1006E0005A5A9B7E000000200400002000000408ED
:1006F000140000200C0000200A0000200E00002042
:10070000080000205368656E7A68656E204265694E
:1007100048616900415443205368656E5A68656EAC
:1007200020506861736520312072656275696C6460
:100730002020323031332D30342D323420205631C8
:100740002E3300007E02065AF37E00007E0707006B
:100750000000000000007E007E050801000000008F
:100760007E000000AC070020002003F034FD04E010
:10077000002003F084F800E000BF00BF10BD00B50A
:100780008DB0FEA106A808F037FEE8B916E0FCA17E
:100790000DF109000FF0E4F928B1FAA10DF10900FB
:1007A0000FF0DEF900B909E09DF8090008B90DB0B5
:1007B00000BD0DF1090001F08FFD00BF694606A8DC
:1007C00008F056FE0028E2D000BFF0E700B587B081
:1007D000EDA30FCBCDE90523CDE903014FF00000D8
:1007E0000290019001A902A801F09DFD18B94FF0F7
:1007F00000000290019002984FEA10608DF81000FE
:1008000002984FEA10408DF8110002984FEA10202C
:100810008DF812000298C0B28DF8130001984FEACB
:1008200010608DF8140001984FEA10408DF8150003
:1008300001984FEA10208DF816000198C0B28DF88B
:10084000170006AA4FF00B010DF10D00FFF73AFD5E
:100850000E2103A804F0E4F807B000BD70B5A6B0FF
:1008600005460C464FF000064FF07E008DF8000064
:100870004FF009008DF802004FF004008DF80300DE
:100880004FEA14608DF804004FEA14408DF805001B
:100890004FEA14208DF80600E0B28DF807004FF003
:1008A000320119A808F015FC19A80FF039F803282F
:1008B00003D0B9A119A80FF05CF8294619A80FF0C8
:1008C00058F819A80FF02CF8C6B2324619A902A898
:1008D0000FF01BF906F10600C0B28DF801009DF87B
:1008E000010000F102006B4600EB03029DF80100DD
:1008F00000F101010DF10100FFF7E4FC4FF07E0172
:100900009DF8010000F103000DF800109DF80100B2
:1009100000F10401684604F083F826B070BD70B59C
:10092000B4B005464FF0000634464FF07E008DF817
:1009300004004FF009008DF8060029462DA808F0A4
:100940005BFD08B134B070BD77E09DF8A50000B93B
:1009500079E08BA10DF1A5000FF002F928B189A172
:100960000DF1A5000FF0FCF800B966E09DF8A400B9
:1009700010285CD14FF003008DF807000DF1A500A1
:1009800001F006FD04464FEA14608DF808004FEAB6
:1009900014408DF809004FEA14208DF80A00E0B2E7
:1009A0008DF80B004FF032011AA808F092FB7AA1E3
:1009B0001AA80EF0DEFF0DF1A5011AA80EF0D9FF5E
:1009C0001AA80EF0ADFFC6B232461AA903A80FF05E
:1009D0009CF806F10600C0B28DF805009DF80500F0
:1009E00000F1020001AB00EB03029DF8050000F1ED
:1009F00001010DF10500FFF765FC4FF07E019DF848
:100A0000050000F1030001AA11549DF8050000F152
:100A1000040101A804F004F80DF1A50008F025FB7D
:100A200057A0FFF77CFF57A008F01FFB04E00DF173
:100A3000A5002799FFF712FF00BF27A92DA808F0EE
:100A400017FD002881D000BF00BF7BE71CB553A174
:100A500003C9CDE9000101F025FA18B14FF05A00A1
:100A60008DF8050001F024FA50B10DF106020521C0
:100A7000501FFFF727FC0821684603F0D1FF1CBD7B
:100A80004FF05A008DF804000DF106024FF00501F9
:100A90000DF10100FFF716FC0821684603F0C0FFC6
:100AA000FFF794FE35A0FFF73AFF4FF07E008DF878
:100AB00000004FF009008DF802004FF002008DF8A1
:100AC00001004FF005008DF803004FF045008DF850
:100AD00004004FF07E008DF805004FF006016846D7
:100AE00003F09EFF00BFCAE72DE9F0439BB0044628
:100AF0004FF000094D462E462F46A8464FF03401D0
:100B000003A80EF0DBFF27A103C9CDE9010114B949
:100B10001BB0BDE8F0834FF4007101200EF03BFEE6
:100B20001A900122214611A807F067FF8146B9F10A
:100B3000000F07D01A980EF0FAFC062101A803F066
:100B40006FFFE5E74FF07E00184908704FF00A008C
:100B500088704FF00100C8704FF000011348017118
:100B600041714FF0320103A808F0B3FA214603A8FF
:100B70000EF0FFFE03A80EF0D3FE19E0303A00009D
:100B80002E0000002E2E00007E0A09020000000048
:100B900000000000007E00002F0000007E0409011C
:100BA0000000007E7E020A04457E0000AE0900209F
:100BB00000F0FF08424603A9F9480EF0E6FE08F1EE
:100BC0000400F749A1F10601487008464078A0F1F9
:100BD000010001F1030300EB03020846407800F135
:100BE0000101A3F10200FFF76DFB4FF07E01EC481D
:100BF000A0F10600427800F103008154A0F1030047
:100C0000407800F10401E648A0F1060003F008FF77
:100C10004FF07E00E249A1F1060108704FF00A0092
:100C200088704FF00200C87050E01498A0EB0506E1
:100C300007F1010087B2F52E0ED310ABF522D8498B
:100C400011A807F098FF05F1F5054FF0F900D44918
:100C5000A1F1060148700CE010AB3246D04911A852
:100C600007F089FF149D06F10400CD49A1F10601AA
:100C700048704FEA2721CA48A0F106000171477168
:100C80004078A0F10100C64BA3F1030300EB03027F
:100C9000A3F10300407800F10101A3F10200FFF786
:100CA00011FB4FF07E01BE48A0F10600427800F132
:100CB00003008154A0F10300407800F10401B8481A
:100CC000A0F1060003F0ACFE05F0F5F91498A84277
:100CD000ABD811A808F0B4F91A980EF028FC4FF020
:100CE0007E00AF49A1F1060108704FF00A0088703C
:100CF0004FF00300C8704FF00001A948A0F10600B2
:100D000001714171424603A9A5480EF03EFE08F16B
:100D10000400A349A1F10601487008464078A0F1FB
:100D2000010001F1030300EB03020846407800F1E3
:100D30000101A3F10200FFF7C5FA4FF07E019848C8
:100D4000A0F10600427800F103008154A0F10300F5
:100D5000407800F104019248A0F1060003F060FE23
:100D600000BFD5E610B58EB00446214607A808F0AE
:100D700043FB08B10EB010BD29E09DF80D0000B98D
:100D80002BE0AFF204210DF10D000EF0E9FE30B1C1
:100D9000AFF210210DF10D000EF0E2FE00B916E0E9
:100DA0009DF80C0010280DD10DF10D0008F05DF933
:100DB00060B90DF10D00FFF7D5FFAFF2382008F054
:100DC00054F903E00DF10D00FFF78EFE00BF01A9FD
:100DD00007A808F04DFB0028CFD000BF00BFC9E72F
:100DE00010B5AFF26820FFF7BDFF10BD10B5044687
:100DF000204601F071FA10BD1CB56A4903C9CDE95E
:100E000000010521684603F00BFE00BFFEE710B5A8
:100E10008AB004464FF0280168460EF04FFE0F2CB2
:100E200057D2DFE804F056080E11121314191C1FD4
:100E300022353B4154005C494879C91CFFF75CFAF4
:100E400048E0FFF72EFB45E000BF00BF42E05648F8
:100E5000401DFFF789FB3DE0FFF7C6FB3AE0FFF7D7
:100E600016FC37E0FFF7F2FD34E001F027F870B12F
:100E7000282168460EF022FE4B48C078421E4A499F
:100E8000491D68460EF081FD6846FFF72DFE21E002
:100E900001F014F808B1FFF7A3FF1BE001F00EF812
:100EA00008B1FFF76CFC15E001F008F870B12821DB
:100EB00068460EF003FE3C48C078421E3A49491D80
:100EC00068460EF062FD6846FFF790FF02E0FFF70C
:100ED00093FF00BF00BF0AB010BD38B54FF000044B
:100EE0002546204600904FF001054FF0010431E007
:100EF0002D48801C015D4155005D7F2824D12A4882
:100F0000801C611C405C802809D14FF07E0126487E
:100F100000F10200415504F1010084B214E02248BE
:100F2000801C611C405C812809D14FF07F011E4864
:100F300000F10200415504F1010084B204E04FF0D9
:100F400000001949088038BD05F1010085B204F19F
:100F5000010084B214480088401EA042C8DC124838
:100F600005800088801E81B26A460F48C01CFFF7CA
:100F7000A9F90D480088401E0B49891C085C9DF8A2
:100F80000010884206D14FF00000074908804FF05A
:100F90000100D8E74FF000000349088000BFD2E706
:100FA000B409002068FC0008AC07002008B54FF029
:100FB000000000905AE049480078E8B19DF8000030
:100FC0007E2810D19DF80000454988704FF0000040
:100FD000424908704FF001004149088000F08AFB47
:100FE0004049086042E04FF000003D4908804FF062
:100FF00001003A49087039E09DF80010384802882D
:10100000008800F10100364B188003F10200815482
:1010100018460088B0F5007F0ADB4FF00000194643
:1010200008804FF001002D4908704FF0000008BD06
:101030009DF800007E2819D14FF47A71294800F0FC
:10104000DCFA60B19DF80000254988704FF000007F
:10105000224908704FF001002149088006E04FF056
:1010600001001E490870FFF738FFE0E7684603F00B
:10107000A5FC00289FD100BFD9E708B54FF00000BC
:101080000090FFF793FF012827D115490879FFF752
:10109000BEFE00F02FFB00901148007901281CD102
:1010A00003F017FC4FF000000F4908700AE0FFF74B
:1010B0007DFF012803D10A490879FFF7A8FE0A201D
:1010C00000F000FB0848007828B90849684600F09D
:1010D00094FA0028EBD003F01CFC08BD0F000020A0
:1010E000AC0700201000002008000020E09304005E
:1010F00010B504F057FCF32004F070FE10BD01465B
:101100004FF00000A94A914203D2B1F1006F00D321
:101110005BE0A74A914205D2A44A914202D34FF024
:10112000080052E0A34A914205D2A14A914202D35B
:101130004FF0100049E0A04A914205D29D4A9142E9
:1011400002D34FF0180040E09C4A914205D29A4ADF
:10115000914202D34FF0200037E0994A914205D2E4
:10116000964A914202D34FF028002EE0954A9142D0
:1011700005D2934A914202D34FF0300025E0924AC3
:10118000914205D28F4A914202D34FF038001CE0C1
:101190008E4A914205D28C4A914202D34FF04000D0
:1011A00013E08B4A914205D2884A914202D34FF014
:1011B00048000AE0874A914205D2854A914202D30B
:1011C0004FF0500001E04FF05800704770B50646F0
:1011D0004FF008054FF000043046FFF790FF05463A
:1011E0002C4609E00221204604F024FC082801D006
:1011F000012070BD04F1080405F108008442F1D318
:101200000020F6E770B506464FF008054FF00004E1
:101210003046FFF774FF05462C4609E002212046C0
:1012200004F008FC082801D0012070BD04F1080476
:1012300005F108008442F1D30020F6E72DE9F041E2
:1012400004460E4617464FF0000500BF18E056F85A
:101250002510206804F096FC08280DD1206800684D
:1012600056F82510884202D00220BDE8F08120689F
:1012700000F10400206001E00120F6E705F101051E
:10128000BD4203D2206854498842E0D90020ECE7EF
:1012900010B54FF008044B48FFF731FF044604F047
:1012A0006CFDE1080841E20840F6FF7111418842F7
:1012B00001D1012010BD0020FCE770B54FF00804FB
:1012C0004FF002053F48FFF71AFF04464FEAD401EA
:1012D0004FF0010000FA01F0A0F1010040F6FF71AB
:1012E000A1EB000504F0BEFC0021284604F0CDFC73
:1012F00004F030FD082801D0022070BD0120FCE779
:10130000F8B54FF00005354E2E4800904FF0000420
:1013100004E0305D2844C5B204F10104522CF8D336
:10132000C5F1550030552748FFF750FF14222B49CF
:101330006846FFF783FFF8BD70B5284D284E4FF083
:10134000000403E0305D285504F10104522CF9D368
:10135000FFF7D6FF70BD70B54FF000051F4EFFF7C9
:10136000C7FE5322174930460EF00FFB2C4604E00F
:10137000305D2844C5B204F10104532CF8D3552D37
:1013800001D0FFF7D9FF70BD10B50C484068154972
:101390000860084600681449086008490868FEF7B4
:1013A0006AFF11480068804710BD00000040000837
:1013B0000080000800C000080000010800000208CA
:1013C00000000408000006080000080800000A08E1
:1013D00000000C0800000E08FBFF0F08B10A0020F7
:1013E00018000020700000206C00002008B54FF4A9
:1013F000A06003F085FF4FF025008DF800004FF04E
:1014000000008DF801008DF802004FF001008DF80A
:101410000300684603F07AFF4FF026008DF80000C5
:101420004FF000008DF801004FF001008DF8020030
:101430008DF80300684603F069FF4FF027008DF830
:1014400000004FF000008DF801004FF002008DF811
:1014500002004FF001008DF80300684603F056FFCC
:101460004FF031008DF800004FF001008DF80100C1
:101470004FF000008DF802004FF001008DF80300DE
:10148000684603F043FF08BD10B50121080704F0CA
:10149000E6FF012006F023FA012004F0AFFE00BFB2
:1014A000612004F048FE0028FAD04FF4007004F0E8
:1014B00085FF4FF0FF00914908604FF07F00904991
:1014C00008604FF0010004F094FF05F0C1FC10BD6E
:1014D00010B50121082004F095FF4FF440508949D0
:1014E00008604FF00000087188714FF003004871E8
:1014F0004FF00000C871844804F0EAFC10BD08B544
:1015000000200DF012FCFFF7E3FF00F043F9FFF7B6
:1015100022FF02F073FE7D487D4B7E4A0121009040
:101520007D4808F0C2FB45F2555004F0BBFD052094
:1015300004F0BBFD40F6AA2004F0BAFD04F0C0FDA3
:1015400004F0B9FD08BD7FB502200DF099FB012024
:101550000DF096FB00200DF093FB00224FF4165186
:10156000022002F0E0FE00224FF41651012002F0AA
:10157000DAFE00224FF41651104602F0D4FEFFF7B7
:1015800035FF042003F01DFF684604F0A8FE4FF06D
:1015900064020198B0FBF2F1B1F1807F00D327E043
:1015A00021F07F40A0F101004FF0E02250614FF0A8
:1015B000FF304FF00F0200280ADA4FEA02734FEAB9
:1015C0001365564B00F00F04A4F104041D5505E00B
:1015D0004FEA02734FEA1364514B1C5400BF4FF0A3
:1015E00000004FF0E02290614FF00700106100BF53
:1015F0000DF072FF0EF0EAF87FBD024691B1494B43
:1016000010681B68984202D94FF000001060454BEB
:1016100010681B68181A884204D34248006810609A
:10162000012070470020FCE74FF00004FFF78BFF1C
:10163000FFF765FF00F07FFB00F091FD01F0ABF8D4
:101640004FF40051304804F0BCFC374908704FF4A7
:1016500080512D4804F0B5FC3349097840EA410037
:10166000314908700846007800F00300087028E04F
:101670004FF47A712D48FFF7C0FF60B100F05BFBBB
:101680003C2C05DD00F01DFC00F095FD4FF0000442
:1016900004F10100C4B2C8212548FFF7AEFF10B124
:1016A00000200DF076FBFFF7E8FC04F004FD02F0EB
:1016B00058FC02F06FF902F003FA03F04AF904F063
:1016C000FAFCD5E710B504461648006820441949CD
:1016D000086001E004F0EFFC164800681149096851
:1016E0008842F7D810BD0F48006800F10A000D4984
:1016F000086070470B4800687047000078000020C1
:101700009400002080000020000C024030060020E1
:10171000A4060020F4050020040B002018ED00E0D2
:1017200000E400E0740000207C0000208C00002019
:1017300088000020900000201CB50121202004F02A
:1017400061FE4FF0010000908DF804004FF00000A2
:101750008DF806004FF001008DF807004FF00200F1
:101760008DF805006946FD4804F0B2FB1CBD1CB5B0
:101770000121202004F046FE4FF000008DF8040007
:101780008DF807004FF0010000906946F34804F01F
:101790009FFB1CBD1CB50121202004F033FE4FF03F
:1017A000030000904FF001008DF804004FF000009E
:1017B0008DF806004FF001008DF807004FF0020091
:1017C0008DF805006946E54804F082FB1CBD70B544
:1017D00005464FF0000634E00221E04804F013FC17
:1017E0004FF0000402E004F1010084B2A62CFADB01
:1017F00015F0800F04D00121D84804F002FC03E06A
:101800000121D64804F0FFFB4FEA45604FEA10651E
:101810004FF0000402E004F1010084B2B4F5FA7F55
:10182000F9DB0221CD4804F0ECFB4FF0000402E0AC
:1018300004F1010084B2B4F5FA7FF9DB06F101008E
:10184000C6B2082EC8DB0221C44804F0DCFB4FF00E
:10185000000402E004F1010084B2A62CFADB70BDA2
:101860002DE9F04106464FF00101BC4804F0C9FBE8
:101870004FF0000731E00221B84804F0C4FB4FF0FC
:10188000000402E004F1010084B2B4F5FA7FF9DB50
:101890000221B24804F0B5FB4FF0000402E004F16D
:1018A000010084B2FA2CFADB4FEA45604FEA10657A
:1018B0004FF00101A94804F084FB10B105F10100CB
:1018C000C5B24FF0000402E004F1010084B2B4F5A7
:1018D000FA7FF9DB07F10100C7B2082FCBDB022149
:1018E0009E4804F090FB35702846BDE8F08110B5A5
:1018F00002219A4804F085FB0121984804F081FBFD
:101900004FF0000402E004F1010084B2B4F5FA7F64
:10191000F9DB0121914804F076FB4FF0000402E06E
:1019200004F1010084B2B4F5FA7FF9DB02218B489F
:1019300004F069FB4FF0000402E004F1010084B2FE
:10194000A62CFADB10BD10B50121844804F05BFB26
:101950000221824804F055FB4FF0000402E004F13C
:10196000010084B2B4F5FA7FF9DB01217B4804F071
:1019700048FB4FF0000402E004F1010084B2B4F52A
:10198000FA7FF9DB10BD10B5FFF7D6FE02217348D0
:1019900004F039FB4FF0000402E004F1010084B2CE
:1019A000B4F5FA7FF9DB01216C4804F02CFB4FF011
:1019B000000402E004F1010084B2B4F5FA7FF9DB1F
:1019C0000221664804F01DFB4FF0000402E004F120
:1019D000010084B2B4F5FA7FF9DB02215F4804F01C
:1019E00012FB4FF0000402E004F1010084B2B4F5F0
:1019F000FA7FF9DBFFF7BBFE10BD10B5FFF79CFEC9
:101A00000221564804F0FFFA4FF0000402E004F10E
:101A1000010084B2B4F5FA7FF9DB01214F4804F0EC
:101A2000F0FA4FF0000402E004F1010084B2B4F5D2
:101A3000FA7FF9DB0221494804F0E3FA4FF0000491
:101A400002E004F1010084B2B4F5FA7FF9DB02216F
:101A5000424804F0D8FA4FF0000402E004F101001B
:101A600084B2B4F5FA7FF9DBFFF781FE10BD10B543
:101A700002213A4804F0C7FA4FF0000402E004F1F2
:101A8000010084B2B4F5FA7FF9DB0121334804F098
:101A9000B8FA4FF0000402E004F1010084B2B4F59A
:101AA000FA7FF9DBFFF763FE02212C4804F0A9FA64
:101AB0004FF0000402E004F1010084B2B4F5FA7FB3
:101AC000F9DB0121254804F07CFA28B102212348E2
:101AD00004F099FA002010BD0221204804F093FA86
:101AE000FFF72AFE0120F6E713B5FFF700FFD0202D
:101AF000FFF76DFEFFF7BBFF0020FFF768FEFFF763
:101B0000B6FF9DF80000FFF762FEFFF7B0FF9DF8FB
:101B10000100FFF75CFEFFF7AAFF9DF80200FFF748
:101B200056FEFFF7A4FF0120FFF751FEFFF79FFFCE
:101B30009DF80300FFF74BFEFFF799FF9DF80400A7
:101B4000FFF745FEFFF793FF9DF80500FFF73FFE07
:101B5000FFF78DFFFFF7F7FE1CBD000000140240E9
:101B600010B50446FFF7C3FED020FFF730FEFFF7A5
:101B70007EFF0020FFF72BFEFFF779FFFFF7B7FE90
:101B8000D120FFF724FEFFF772FFFFF7F0FD20469C
:101B9000FFF766FEFFF7F7FE601CFFF761FEFFF739
:101BA000F2FEA01CFFF75CFEFFF7EDFEE01CFFF766
:101BB00057FEFFF7E8FEE01CFFF752FEFFF7E3FEDB
:101BC000201DFFF74DFEFFF7DEFE601DFFF748FE0C
:101BD000FFF713FFFFF7B0FDFFF7B5FE10BD03B52C
:101BE00083B05AA207CA8DE807009DF80C003B2875
:101BF00018DC9DF80D003B2814DC9DF80E0017281A
:101C000010DC9DF810000C280CDC9DF81000401E24
:101C10001DF800009DF80F10884203DB9DF81100AD
:101C2000322802DD002005B000BD9DF8100002281A
:101C30002BD19DF8111001F5FA614FF4C87291FB98
:101C4000F2F302FB1311B1B19DF8111001F5FA6026
:101C50004FEAE07100EB91714FEAA101B0EB810115
:101C60000BD19DF8111001F5FA61642291FBF2F39A
:101C700002FB131109B1012100E0002129B99DF8EF
:101C80000F101C2901DD0020CDE70120CBE7F0B5C6
:101C900002460B464FF00000044605461946012A4D
:101CA00018D100BF13E00E5C4FF00A0796FBF7F661
:101CB00006F00F040E5C96FBF7FC07FB1C6606F0B3
:101CC0000F0505EB04160E5400F10106F0B20628CC
:101CD000E9DB13E092B94FF000000DE00E5C06F076
:101CE0000F060F5C4FEA271707EB870706EB47063F
:101CF0000E5400F10106F0B20628EFDBF0BD13B57B
:101D0000DDE90001FFF76BFF48B169460120FFF7ED
:101D1000BEFFDDE90001FFF7E7FE01201CBD00204A
:101D2000FCE710B504462046FFF71AFF21460020C5
:101D3000FFF7ADFF10BD10B50748FFF7F2FF10BD6C
:101D400005490A6802608988818070471F1D1F1E2F
:101D50001F1E1F1F1E1F1E1F9800002030B50346A8
:101D600014464FF00002104600BF1EE09D5C4FEA93
:101D700025100A2803DA00F130050D7002E000F1A9
:101D800057050D7001F101019D5C05F00F000A2857
:101D900003DA00F130050D7002E000F157050D7017
:101DA00001F1010102F10105AAB2A242DEDB30BD60
:101DB00030B5034614464FF00000024600BF51E024
:101DC0001D5C302D08DB1D5C392D05DC1D5C4FEAE8
:101DD00005754FEA15621AE01D5C612D0ADB1D5C7A
:101DE0007A2D07DC1D5CA5F107054FEA05754FEA62
:101DF00015620CE01D5C412D09DB1D5C5A2D06DCD3
:101E00001D5CA5F107054FEA05754FEA156200F163
:101E10000105A8B21D5C302D08DB1D5C392D05DCE9
:101E20001D5CA5F1300515440D7016E01D5C612D9B
:101E300008DB1D5C7A2D05DC1D5CA5F157051544FA
:101E40000D700AE01D5C412D07DB1D5C5A2D04DC82
:101E50001D5CA5F1370515440D7001F1010100F17C
:101E60000105A8B2A042ABDB30BD10B54FF00100B8
:101E7000F74908604FF00000087188714FF00300C7
:101E800048714FF00000C871F24804F021F84FF09B
:101E90000200EF4908604FF00100C871ED4804F0FE
:101EA00017F810BD10B50221EA4804F08AF810BDF9
:101EB00010B50121E74804F084F810BDE648007829
:101EC000704730B58BB04FF0000000900190044691
:101ED0000546FFF7F3FF08B90BB030BD02A8FFF7C6
:101EE0002FFF9DF80D004FF00A0190FBF1F000F17B
:101EF0003000C0B28DF800009DF80D0090FBF1F2AB
:101F000001FB120000F13000C0B28DF801009DF815
:101F10000C0090FBF1F000F13000C0B28DF802002F
:101F20009DF80C0090FBF1F201FB120000F1300073
:101F3000C0B28DF803009DF80B0090FBF1F000F1AA
:101F40003000C0B28DF804009DF80B0090FBF1F258
:101F500001FB120000F13000C0B28DF80500BF484F
:101F6000C0789DF80B10884259D0694604A807F044
:101F700043FA0546052D2BD1684607F019FC0028C9
:101F80004DD1B74800990160BDF804108180B34875
:101F900002990160BDF80C1081804FF0000414E03C
:101FA000C4EB0411AF4A02EB41000622AC490DF02C
:101FB000ACFDC4EB0411AC4A02EB41000622A84977
:101FC0000DF0A3FD04F10100C4B2032CE8DB26E010
:101FD0002DBBA34800990160BDF8041081809F4883
:101FE00002990160BDF80C1081804FF0000414E0EC
:101FF000C4EB04119B4A02EB4100062298490DF004
:1020000084FDC4EB0411984A02EB41000622944976
:102010000DF07BFD04F10100C4B2032CE8DB00BF2E
:102020005AE730B58BB04FF00000009001900446A5
:10203000054602A8FFF784FE9DF80D004FF00A0147
:1020400090FBF1F000F13000C0B28DF800009DF877
:102050000D0090FBF1F201FB120000F13000C0B264
:102060008DF801009DF80C0090FBF1F000F13000BC
:10207000C0B28DF802009DF80C0090FBF1F201FB5C
:10208000120000F13000C0B28DF803009DF80B0083
:1020900090FBF1F000F13000C0B28DF804009DF823
:1020A0000B0090FBF1F201FB120000F13000C0B216
:1020B0008DF80500694802990160BDF80C10818017
:1020C000694604A807F098F90546052D24D168460D
:1020D00007F06EFB002840D1614800990160BDF80F
:1020E0000410818000BF14E0C4EB04115D4A02EBD0
:1020F000410006225A490DF008FDC4EB04115A4A6A
:1021000002EB4100062256490DF0FFFC04F10100EC
:10211000C4B2032CE8DB20E0FDB95148009901600E
:10212000BDF8041081804FF0000414E0C4EB0411EA
:102130004C4A02EB4100062249490DF0E6FCC4EB93
:102140000411494A02EB4100062245490DF0DDFC2D
:1021500004F10100C4B2032CE8DB0BB030BD10B5B4
:102160004FF00004FFF781FE0120FFF7ABFA3FA11B
:102170003B480DF0B1FB204637490870FFF798FE49
:1021800000B110BD4FF4806101200DF004FB39490E
:102190004863002006F01CFC044624B13549486B16
:1021A0000DF0C5F9EDE7FFF73CFF4FF001002A49BC
:1021B000087000BFE5E710B54FF00004FFF778FEA8
:1021C00070B12548007828B30021084606F000FCCD
:1021D0002849486B0DF0ABF920461F49087019E0FB
:1021E0001D480078B0B94FF4806101200DF0D3FA9A
:1021F00020494863002006F0EBFB044624B11D494A
:10220000486B0DF094F910BDFFF70BFF4FF0010084
:102210001149087000BFF6E710B58EB0044621469C
:1022200007A807F0E9F8002854D14DE09DF80D000B
:1022300008B90EB010BD10A10DF10D000DF090FC0D
:1022400028B10EA10DF10D000DF08AFCC0B93BE0E4
:1022500058010020000C02405401002060010020C1
:1022600066010020A0000020FA0000203133303148
:10227000303100003C3300202E0000002E2E0000E4
:102280009DF80C0010281AD1AFF214010DF10D00C9
:102290000DF066FC30B1AFF21C010DF10D000DF038
:1022A0005FFC00B910E00DF10D0006F0DEFEAFF2AC
:1022B0003800FFF7B1FFAFF23C0006F0D6FE0DF19B
:1022C0000D0007F00CFA00BF01A907A807F0D0F82D
:1022D0000028ABD000BFACE730B587B004464FF064
:1022E000000501A9204607F0F1F8054615B10020C8
:1022F00007B030BD9DF80C0010280FD1204606F025
:10230000B4FE70B9AFF29000FFF786FFAFF2940011
:1023100006F0ABFE204607F0E2F902E0204607F0A7
:10232000DEF90020E4E770B590B004460D464FF0AA
:1023300000000F900646CDF838D04FF480714FF072
:1023400001000DF028FA0D900EAA0FA9F8A007F0D1
:10235000DCF806462EB10D980DF0E9F8002010B01B
:1023600070BD0E9880780F9948434FEA500028605E
:102370000E98C069A0F102000E99897800FB01F067
:102380004FEA500020600D980DF0D1F80120E6E7EB
:1023900030B58DB005464FF00004294606A807F079
:1023A0002BF810B100200DB030BD27E09DF80900DA
:1023B00000B929E0AFF240110DF109000DF0D0FB9A
:1023C00030B1AFF248110DF109000DF0C9FB00B9B1
:1023D00014E09DF8080010280DD10DF1090006F059
:1023E00044FEAFF26C10FFF7D3FF0444AFF2741059
:1023F00006F03BFE01E00098044400BF694606A8D1
:1024000007F036F80028D1D000BF2046CBE770B5E2
:10241000ADF5167D04460D464FF00000819080908A
:102420004FF4007168460DF049FB4FF0000615B9F6
:102430000DF5167D70BD4FF4806101200DF0ABF9F4
:1024400095904FF4806101200DF0A5F98B90012249
:1024500021468CA806F0D1FA064636B18B980DF0CD
:1024600066F895980DF063F8E2E70A22B1A182A818
:1024700006F0C3FA06464EB18CA806F0E1FD8B9833
:102480000DF055F895980DF052F8D1E729468CA833
:1024900006F0D0FE06464FF0000182A806F0CAFE04
:1024A00006464FF40070819010E081AB4FF400724B
:1024B00069468CA806F05FFB00B10BE080AB694673
:1024C00082A8819A06F04BFC00B103E08198B0F538
:1024D000007FEAD000BF82A806F0B2FD8CA806F00B
:1024E000AFFD8B980DF023F895980DF020F820465D
:1024F000FFF7F2FE21468FA007F0AEFA00BF97E784
:1025000070B594B004464FF000052E468CA10DF135
:102510000D000DF0E1F986A10DA806F06DFF08B1E0
:1025200014B070BD26E09DF8250000B928E0AFF298
:10253000B8210DF125000DF013FB30B1AFF2C4212D
:102540000DF125000DF00CFB00B913E09DF82400FF
:1025500010280ED10DF125010DF10D000DF000FB3D
:10256000002806DD182207A901A80DF053FA4FF044
:10257000010600BF07A90DA806F07AFF0028D2D0F7
:1025800000BF06B9CCE70DF10D00FFF701FF0546CE
:10259000B5F1487F04D20DF10D00FFF79DFE4CE030
:1025A0000DF10D0006F061FDAFF234310DA806F01B
:1025B00023FF4FF00000019020E09DF8250000B9B6
:1025C00022E0AFF24C310DF125000DF0C9FA30B127
:1025D000AFF258310DF125000DF0C2FA00B90DE04F
:1025E0009DF82400102808D007990198884204D249
:1025F000182207A901A80DF00DFA00BF07A90DA820
:1026000006F036FF0028D8D000BF4FF00101019836
:1026100001EB5005B4EB952F06D20198C4EB902046
:1026200000F101004FEA802529460DF10D00FFF76A
:10263000EEFEAFF2B83006F018FD00BF70E730B51F
:1026400089B004464FF0000528460290019003A986
:10265000204606F03BFF08B109B030BD01A902A831
:10266000FFF761FE00B9F7E70398B0F1487F12D990
:102670000398A0F148750198B0F5484F07D2019929
:102680000398C1EB902000F101004FEA8025294614
:102690002046FFF7BCFE00BFDEE71CB54FF0000090
:1026A000019000900446694601A8FFF73CFE00B97E
:1026B0001CBD09E00098FFF723FF694601A8FFF75A
:1026C00032FE04F10100C4B20098B0F5484F01D2C7
:1026D000142CEFDB00BFEBE72DE9F0418CB007468F
:1026E000884614464FF0000614B11748007810B918
:1026F0000CB0BDE8F0813846FFF7A1FFFFF7CDFF32
:102700004FF4806101200DF046F80B9012223946FB
:1027100002A806F072F905462DB10622394602A834
:1027200006F06BF905468DB10B980CF000FFDFE762
:10273000303A00006261636B75702E74787400002B
:1027400039393939393900005401002002A8059976
:1027500006F070FD15E0A01BB0F5007F0ADB01ABB1
:102760004FF40072414602A806F0F9FA06F500702F
:1027700086B206E0A21B01AB414602A806F0EFFAC2
:102780002646A642E7DB02A806F05AFC0B980CF09E
:10279000CEFE00BFACE71FB5FAA103C9CDE9020127
:1027A0006846FFF7CDFA0098CDF80A00BDF804009E
:1027B000ADF80E00082202A9F4A0FFF78DFF1FBD9F
:1027C0000FB585B0F4A30FCBCDE90323CDE901010B
:1027D0000598CDF80600BDF81800ADF80A00079876
:1027E000CDF80E00BDF82000ADF81200102201A9AE
:1027F000E6A0FFF771FF09B000BD2DE9F0410446E6
:102800000F4615464FF0000615B1E748007808B9A5
:10281000BDE8F08104EB4420E44931F8100028447D
:1028200086B2B6F5806F3EDB04EB442031F8100031
:10283000C0F5806086B204EB4421DC4A02EB410122
:1028400001F1020104EB4422D84B33F8122001EBD2
:102850000200324639460DF098F804EB4422D34B7F
:1028600003EB4202911CC4EB0412D14B03EB420078
:102870004FF48062FFF730FFA5EB060004EB442124
:10288000CA4A22F8110004EB442394463CF8132072
:1028900007EB060104EB44230CEB430303F10200B6
:1028A0000DF073F81AE004EB4421C04A02EB410139
:1028B000891C04EB4422BD4B33F8122088182A46A9
:1028C00039460DF062F804EB4420B84931F81000A5
:1028D000284404EB4421B54A22F8110000BF97E7D1
:1028E0002DE9FF4104460D46DDE90A76AE48007841
:1028F00008B9BDE8FF81012D41D14FF0680004EB1C
:10290000840101EBC411AB4A02F811009DF80800E4
:1029100004EB840101EBC41102EB410148709DF806
:10292000091004EB840000EBC41002EB400081703E
:102930009DF80A1004EB840000EBC41002EB400089
:10294000C1704FF0680004EB840101EBC41102EB8D
:102950004101087204EB840101EBC41102EB410157
:1029600001F10A00324639460DF00FF804EB8401FC
:1029700001EBC4118F4A02EB41014E7242E0022D7D
:1029800040D19DF8080004EB840101EBC411894A91
:1029900002EB410108719DF8091004EB840000EB83
:1029A000C41002EB400041719DF80A1004EB840052
:1029B00000EBC41002EB4000817104EB840101EBD9
:1029C000C41102EB4101CE7104EB840000EBC41092
:1029D00002EB40014FF00A022046FFF70EFF04EB26
:1029E000840000EBC410734B03EB4000427A04EB0D
:1029F000840000EBC41003EB400000F10A01204604
:102A0000FFF7FBFE00BF74E72DE9F04104460F46D7
:102A100015464FF0000615B16348007808B9BDE8C7
:102A2000F08104EB4420644931F810002844B0F5EB
:102A3000806F3EDB04EB442031F81000C0F580606D
:102A400086B204EB44215C4A02EB410101F1020130
:102A500004EB4422584B33F8122001EB02003246BB
:102A600039460CF092FF04EB4422534B03EB420235
:102A7000911CC4EB0412514B03EB42004FF48062F3
:102A8000FFF72AFEA5EB060004EB44214A4A22F890
:102A9000110004EB442394463CF8132007EB060195
:102AA00004EB44230CEB430303F102000CF06DFF35
:102AB0001AE004EB4421404A02EB4101891C04EB7B
:102AC00044223D4B33F8122088182A4639460CF030
:102AD0005CFF04EB4420384931F81000284404EB33
:102AE0004421354A22F8110000BF98E72DE9FF5F25
:102AF00004468946DDE90E7A4FF00005AB462E46C6
:102B0000A8462948007808B9BDE8FF9FB9F1000F31
:102B10007ED14FF0680004EB840101EBC411284A18
:102B200002F811009DF8080004EB840101EBC411C8
:102B300002EB410148709DF8091004EB840000EBA2
:102B4000C41002EB400081709DF80A1004EB840071
:102B500000EBC41002EB4000C1704FF0680004EBC2
:102B6000840101EBC41102EB410108724FF0000037
:102B700004EB840101EBC41102EB4101487255469C
:102B800066E000006801000000000000303A54696F
:102B90006D652E747874000068020000000000006B
:102BA000680300000000000054010020F410002021
:102BB000A0000020FA1C002018200020FA000020AD
:102BC0001E2C00209DF8080004EB840101EBC411C9
:102BD000D44A02EB410108719DF8091004EB84000E
:102BE00000EBC41002EB400041719DF80A1004EBA9
:102BF000840000EBC41002EB400081714FF0010033
:102C000004EB840101EBC41102EB4101C87100E047
:102C100036E04FF0FF0004EB840101EBC41102EB3E
:102C20004101487204EB840000EBC41002EB400148
:102C30004FF00A022046FFF7E7FEB919FF222046AF
:102C4000FFF7E2FEA5F1FF0085B206F1FF0086B2B4
:102C5000FF2DB7DAB91904EB840202EBC412B14BB1
:102C600003EB420202F10A002A460CF08EFE04EB4E
:102C7000840101EBC411AB4A02EB41014D7211E139
:102C8000B9F1010F7ED1554604EB840000EBC4106E
:102C9000A44901EB400090F8098004EB840000EBAC
:102CA000C41001EB4000407A2844FF286BDB04EBA2
:102CB000840000EBC41001EB4000407A00EB0A05F1
:102CC0009DF8080004EB840101EBC411954A02EB66
:102CD000410108719DF8091004EB840000EBC41059
:102CE00002EB400041719DF80A1004EB840000EBF8
:102CF000C41002EB400081714FF0010004EB84012D
:102D000001EBC41102EB4101C8714FF0FF0004EB6D
:102D1000840101EBC41102EB4101487208F10A027F
:102D200004EB840000EBC4107E4B03EB4001204613
:102D3000FFF76AFEC8F1FF0B5A4639462046FFF7F7
:102D400063FEA5F1FF0085B25E469DF8080004EB26
:102D5000840101EBC411734A02EB410148709DF8F4
:102D6000091004EB840000EBC41002EB40008170FA
:102D70009DF80A1004EB840000EBC41002EB400045
:102D8000C17001E03EE024E04FF000081FE04FF08A
:102D9000FF0004EB840101EBC411624A02EB410124
:102DA000487204EB840000EBC41002EB40014FF0CA
:102DB0000A022046FFF728FEB919FF222046FFF736
:102DC00023FEA5F1FF0085B206F1FF0086B2FF2DBC
:102DD000DDDAB91904EB840202EBC412514B03EBA8
:102DE00042020A3202EB08002A460CF0CEFD08EB44
:102DF000050004EB840101EBC4114A4A02EB4101D6
:102E000048724FE0B9F1020F4CD14FF0010004EBD2
:102E1000840101EBC411434A02EB4101C8719DF8E2
:102E2000080004EB840101EBC41102EB41010871BD
:102E30009DF8091004EB840000EBC41002EB400085
:102E400041719DF80A1004EB840000EBC41002EB02
:102E50004000817104EB840000EBC41002EB4001E0
:102E60004FF00A022046FFF7CFFD04EB840000EB91
:102E7000C4102C4B03EB4000427A04EB840000EBBF
:102E8000C41003EB400000F10A012046FFF7BCFD2F
:102E90004FF0000004EB840101EBC411214A02EB66
:102EA0004101487200BF2FE670B504460D461E482A
:102EB000007800B970BDC5B904EB44231B4E36F849
:102EC000132004EB442306EB4303991CC4EB0413C7
:102ED000174E06EB4300FFF7FFFB4FF0000004EB3B
:102EE0004421124A22F8110019E0012D17D104EBF8
:102EF0004423104E36F8132004EB442306EB43031F
:102F0000991CC4EB04130C4E06EB4300FFF7E4FBE3
:102F10004FF0000004EB4421064A22F8110000BFE4
:102F2000C8E700001E2C002054010020F4100020EF
:102F3000A000002018200020FA000020704700BFE9
:102F4000FEE700BFFEE700BFFEE700BFFEE77047F9
:102F50007047704710B5FEF7C6FB10BD10B52021B5
:102F6000354802F05DF9012806D1334802F091F8A6
:102F70000446E0B201F0F3F980212F4802F050F945
:102F800008B101F028FA10BD10B520212B4802F03D
:102F900047F9012806D1294802F07BF80446E0B23F
:102FA00001F0F1F98021254802F03AF908B101F069
:102FB00035FA10BD10B52021214802F031F9012861
:102FC00006D11F4802F065F80446E0B201F0EFF9BF
:102FD00080211B4802F024F908B101F042FA10BD2B
:102FE00010B50BF006FD10BD10B54FF4004002F017
:102FF00079FC30B1134808F0ADFF4FF4004002F007
:1030000084FC10BD10B50F48807A50B10E4800689E
:1030100020F006000C49086000F06DF8094808F03F
:10302000D4FF4FF4802002F070FC10BD10B50548AD
:1030300007F086FF10BD0000001001400044004072
:1030400000480040040B002010ED00E04FF00001AC
:103050000846674A126842F48032654B1A6000BF26
:10306000634A126802F4003001F1010110B9B1F5B0
:10307000A06FF5D15E4A126812F4003F02D04FF003
:10308000010001E04FF00000012833D1594A1268D5
:10309000584B1A601A46126842F400421A601A46E7
:1030A000126842F4A0521A60534AA3F104031A6052
:1030B0004F4A126842F080724D4B1A6000BF4C4A72
:1030C000126812F0007FFAD040F203724B4B1A6084
:1030D000484A126822F00302464B1A601A461268E8
:1030E00042F002021A6000BF424A126802F00C026B
:1030F000082AF9D1704710B53D48006840F001003A
:103100003B4908604FF000003A49086038480068C1
:103110003B4900EA0100364908603A4801F10401E0
:1031200008603348006820F48020314908604FF07F
:10313000000035490860FFF789FF4FF00060334910
:10314000086010BD70B54FF0000002464FF002035A
:1031500004464FF00201274D2D6805F00C0020B108
:10316000042806D0082831D107E0294D294E3560C2
:1031700030E0294D274E35602CE0284D2D68C5F3F1
:103180008054264D2D6805F03F014CB1224DB5FB12
:10319000F1F5224E3668C6F3881605FB06F208E004
:1031A0001B4DB5FBF1F51D4E3668C6F3881605FBC1
:1031B00006F21A4D2D68C5F3014505F101054FEAE8
:1031C0004503B2FBF3F5134E356003E0104D114E8D
:1031D000356000BF00BF074D2D68C5F30315104EC5
:1031E000705D0C4D2D6825FA00F50A4E356070BDF6
:1031F0000038024008380240193C4005003C0240BB
:10320000FFFFF6FE103000240C38024008ED00E00D
:103210000024F4006C01002040787D010438024055
:103220007001002038B50446FEA00068009004F14B
:103230000200C0B28DF80100FB48009901602246EF
:10324000FA4900F104000CF0A0FBF749201D0A1810
:10325000E01C81B2F448FDF735F84FF07E01F24AE8
:1032600004F10500115404F1060081B2104601F08A
:10327000D7FB38BDF0B504460D464FF001010846B6
:103280002678167000BF31E0665C7E2E10D14FF0BC
:103290007F0C064600F10107B8B202F806C04FF0F5
:1032A000800C064600F10107B8B202F806C01AE029
:1032B000665C7F2E0FD1B446064600F10107B8B216
:1032C00002F806C04FF0810C064600F10107B8B2C3
:1032D00002F806C007E014F801C0064600F1010735
:1032E000B8B202F806C001F10106B1B26E1E8E42FC
:1032F000CADC4FF07E0C064600F10107B8B202F8B6
:1033000006C01880F0BD2DE9F041ADF5027D0546FF
:103310000E4617469846889C4FF4007102A80CF0A0
:10332000CDFB4FF0000001904FF07E00C0490870C7
:103330000846457086704FF00000C8704FF0AC0032
:1033400008710846407967F30300487108464079E0
:1033500020F0100048710846407920F0E0004871E4
:103360008C7108468079FA2802DB4FF0FA008871E8
:1033700022464146AE48C01D0CF007FBAC48C01DBC
:103380000219A01D81B2AA48401CFCF79BFF4FF018
:103390007E02A74800F1070004F10101425404F144
:1033A000090081B201AB02AAA148FFF763FFBDF893
:1033B000042002A9012001F065FA0DF5027DBDE8A7
:1033C000F08110B541F288319A48FEF716F908B13C
:1033D000012010BD0020FCE71FB5044602A8FEF73F
:1033E000AFFC012C50D19448807801280CD14FF0CB
:1033F000000091498870009001904FF0020108464A
:10340000DDE90223FFF772FB8848801E0288811CD9
:103410008A480CF035FA60B34FF4807283498748CC
:103420000CF0B3FA8448407880B14FF00000824934
:1034300048700846C0784FF00001CDE900104FF009
:1034400002010846DDE90223FFF74AFA7748801EA9
:1034500000887649CDE9001001210220DDE9022330
:10346000FFF73EFA4FF000007349C8704FF00100BB
:1034700048707148C07880422BD06F48C07800F106
:1034800001006D49C87024E0022C22D16A4880787E
:1034900098B94FF00100684988706448A0F10200B3
:1034A00000886249CDE900104FF000014FF00200A2
:1034B000DDE90223FFF71AFB0BE05C48801E008861
:1034C0005A49CDE9001001210220DDE90223FFF76E
:1034D0000DFB1FBD38B54FF0000425462046009077
:1034E0005548407920B15149891E0888FFF79AFE56
:1034F0004E48801E8078524988704FF001052C4656
:1035000035E04A48015D4E48801C41554748005D02
:103510007E2826D14548611C405C802809D14FF0A7
:103520007E01474800F10200415504F1010084B2D8
:1035300017E03E48611C405C812809D14FF07F01B3
:103540003F4800F10200415504F1010084B208E057
:103550004FF000003549A1F1020108803849088088
:1035600038BD05F1010085B204F1010084B22F4895
:10357000801E0088401EA042C3DC314805800088C0
:10358000801E81B26A462E48C01CFCF79BFE2C4868
:103590000088401E2A49891C085C9DF8001088425A
:1035A00001D10120DCE74FF00000254908801F49C8
:1035B000A1F10201088000BFD2E738B54FF0000446
:1035C000204600907EE004F1010084B24FF001003B
:1035D00019490871FEF78EF81749C8609DF8000078
:1035E0007E2854D11148801E0088072843DD9DF8AD
:1035F00000100E48801E0288801C8154801E0088A6
:1036000000F101000949A1F1020108804FF000001A
:103610000C490870FFF75EFF012820D10A480068B6
:10362000807813E07E370904274500207638002093
:10363000784000208C01002080440020743300205A
:10364000763C00209801002084010020AC2801D1A4
:10365000012038BD4FF000008C49088032E04FF067
:1036600001008A4908804FF07E0088704FF0010009
:103670008749087026E04FF00100844908804FF028
:103680007E0088704FF001008149087019E0804881
:103690000078012815D19DF800107C480288801C14
:1036A0008154801E008800F1010078490880084696
:1036B0000088B0F5806F04DB4FF00000088074498B
:1036C000087000BF01226946104600F0FDFF012886
:1036D00003D1B4F5007FFFF676AF0020B9E708B557
:1036E0006C48407B10F0180F03D04FF005006A497A
:1036F000087069480078B0B167480078A0F101000F
:103700006549087063480088644A0090126811791E
:10371000624A1268D0785F4B03F102034FF0000257
:10372000FFF7F1FD0CE000205C4A0090126811796F
:103730005A4A1268D078574B9B1C0822FFF7E3FDCA
:1037400008BD1FB502A8FEF7FBFA5548007810B374
:1037500041F288315348FDF750FFE0B152484078BC
:1037600088B14FF0000050494870009001904FF030
:1037700002010846DDE90223FFF7B2F84FF4807139
:103780004A480CF09BF900210220FFF78DFB4FF017
:1037900000004349087044480079F0B141F2883193
:1037A00041480C30FDF729FFB8B13F48807860B13F
:1037B0004FF000003C498870009001904FF00201EA
:1037C0000846DDE90223FFF791F901210220FFF706
:1037D0006BFB4FF00000344908714FF49671344888
:1037E000FDF70BFF10B1012000F000FDFFF7E5FE33
:1037F00001283FD12A490870FDF77CFF294908605C
:10380000264800688078AC2830D100F0DEFC30B962
:103810004FF000001D490880264908801FBD1F4841
:1038200000684079C0F3030020B1022812D00828B4
:1038300017D117E019480068827918480168C91D36
:103840001D480CF0A2F81548006880791A49891EB5
:10385000088007E0FFF743FFFDF74CFF14490860BD
:1038600000E000BF00BF0120FFF7B6FD4FF00000F1
:103870000649088000BFD1E70948007870470A4927
:103880004871704704490870704700007438002080
:10389000980100202C4A002099010020840100207A
:1038A000880100208C010020804400207433002017
:1038B00094010020763C0020304B002070B5024679
:1038C0000C464FF0000013460DE0C0F307214FEA0D
:1038D00000201D7885EA0105FE4E56F8255085EA40
:1038E000000003F101032500A4F10104EDD170BD36
:1038F00038B50446F8A00068009004F10200C0B298
:103900008DF80100F548009901602246F44900F164
:1039100004000CF03AF8F149201D0A18E01C81B2AD
:10392000EE48401CFCF7CEFC4FF07E01EB4A04F160
:103930000500115404F1060081B2104601F070F840
:1039400038BD38B50446E7A00068009004F10200D5
:10395000C0B28DF80100E148009901602246E249B9
:1039600000F104000CF011F8DC49201D0A18E01CDD
:1039700081B2DA48401CFCF7A5FC4FF07E01D74A23
:1039800004F10500115404F1060081B2104601F063
:1039900047F838BD10B5FFF7D4FE10BD10B5C821EB
:1039A000D248FDF72AFEB8B1D148007878B1D148A5
:1039B000007888B1D0480288811C002000F062FFA6
:1039C000CC480078A0F10100CA49087004E0352213
:1039D000CA49002000F056FF10BD7FB505460C46D1
:1039E00002A8FEF7ADF9012D4BD1C548807801281A
:1039F0000DD14FF00000C2498870009001904FF047
:103A000002014FF00100DDE90223FFF76FF85722B2
:103A1000B5490931BB480BF033FF38B35722B249DF
:103A20000931B8480BF0B1FFB548407870B1B448DF
:103A3000C0780021CDE9001002210120DDE9022338
:103A4000FEF74EFF4FF00000AD494870A648CDE9A3
:103A5000000401210846DDE90223FEF741FF4FF093
:103A60000000A749C8704FF001004870A448C07812
:103A7000FF2824D0A248C07800F10100A049C870F6
:103A80001DE0022D1BD19E48807878B94FF00100CF
:103A90009B4988709448CDE900044FF000014FF035
:103AA0000100DDE90223FFF721F808E08E48CDE9A7
:103AB000000401210846DDE90223FFF717F87FBD66
:103AC0002DE9FF474FF000063746B046B146354670
:103AD00002A8FEF735F9FFF761FF8948007900B3C6
:103AE00041F2883186480C30FDF787FDC8B1844823
:103AF000807801280DD14FF0000081498870009036
:103B000001904FF002014FF00100DDE90223FEF7C2
:103B1000EDFF01210846FFF7C7F94FF00000784993
:103B200008717748007828B341F28831744808302A
:103B3000FDF763FDF0B17248407898B17048C078E5
:103B40000021CDE9001002210120DDE90223FEF76A
:103B5000C7FE4FF000006A4948704FF057016948AE
:103B60000BF08AFF00210120FFF79EF94FF00000C3
:103B700063490870002000F0F1FC8146B9F1000FA4
:103B800022DD0EE05848801E008800F101005649F1
:103B9000A1F10201088008460088B0F5807F00DDB1
:103BA0000AE05148801E0288801C11180122002062
:103BB00000F08AFD0028E5D100BFFDF79BFD5049CC
:103BC000C8604FF001000871D6E008F1010000F074
:103BD000FF084548A0F1020002884FF0FF0142486B
:103BE0000BF0BDFE044664B93F48801E01880220E8
:103BF000FFF7F3FE4FF000003B49A1F102010880FE
:103C0000C0E03948A4EB000085B23748A0F10200BB
:103C10000088A0EB05003449A1F1020108801DB124
:103C200029460220FFF7D9FE2F48801E0288801CFB
:103C300041190BF0AAFE2C48801E0088622800DA89
:103C4000A0E02948801E0079572814D001210220C5
:103C5000FFF7C3FE2448801E0088A0F1010022491E
:103C6000A1F1020108800846028800F103011E4804
:103C70000BF08BFE80E01C48801E477A807A40EA79
:103C800007271948A0F1020090F8626090F86300DD
:103C900040EA06264FF007011348FFF70FFE80B2F7
:103CA000B84254D1572110480930FFF707FE80B2BF
:103CB000B0424CD11248407910B16220FFF741FE6A
:103CC0004FF001000E490870FDF714FD0C498860A3
:103CD0001AE000009C0100207E37080227450020E2
:103CE0002A4600207E3708032C480020D4050020F7
:103CF000304C00209C0500202C4A00209D0500200F
:103D0000404C0020C54400204FF06200F749088075
:103D10000246F749F54800F102000BF036FE622139
:103D20000120FFF75AFEF248801E0088A0F16200D1
:103D3000EF49A1F1020108800846028800F1640100
:103D4000EB480BF022FE012004B0BDE8F087032110
:103D50000220FFF742FEE648801E0088A0F1030023
:103D6000E349A1F1020108800846028800F105013B
:103D7000DF480BF00AFE00BFDD48801E0088622885
:103D8000BFF623AF00BF0020DEE77FB505460C4637
:103D90004FF0000602A8FDF7D3FF012D56D1D548FC
:103DA000807801280BD14FF00000D2498870009034
:103DB00001904FF00201DDE90223FEF797FECE48A5
:103DC000C67C4FF00001C1744FF02A0200F10B01D4
:103DD000CA480BF055FD60B32A22C7490B31C748CA
:103DE0000BF0D3FD4FF00300C5490870C14840787F
:103DF00070B1C048C0780021CDE900100221002038
:103E0000DDE90223FEF76CFD4FF00000B949487070
:103E1000B948801CCDE9000401210020DDE902231E
:103E2000FEF75EFD4FF00100B24948704FF0000010
:103E3000C870B148C674AF48C078FF2826D0AD48D6
:103E4000C07800F10100AB49C8701FE0022D1DD100
:103E5000A848807880B94FF00100A6498870A6482C
:103E600000F10200CDE900044FF000010846DDE951
:103E70000223FEF73BFE09E09F48801CCDE90004C9
:103E800001210020DDE90223FEF730FE7FBD10B5E1
:103E90004FF000044FF00500FFF7F4FC954840791F
:103EA00010B13520FFF724FD9248007830B99248D0
:103EB000807B40F020019048817305E08E48807B34
:103EC00020F020018C4881738E48007830B98A48F0
:103ED000807B40F040018848817305E08648807B04
:103EE00020F040018448817387480078012806D17A
:103EF0008148807B20F080017F48817309E08248FF
:103F00000078022805D17C48807B40F080017A4807
:103F100081734FF000017848C1744FF02A0100F11D
:103F20000B00FFF7CBFC84B24FEA1421724880F8F3
:103F3000351080F836404FF0350200F10201734829
:103F40000BF023FD4FF035007049A1F1020108800C
:103F50006648028800F102014FF0020000F092FC76
:103F600010BD2DE9FF414FF000063746B0463546FB
:103F700002A8FDF7E5FE5F480079F0B141F2883113
:103F80005C480C30FDF739FBB8B15A4880780128FD
:103F90000BD14FF0000057498870009001904FF00E
:103FA0000201DDE90223FEF7A1FD01210020FEF759
:103FB0007BFF4FF000004F4908714E48007828B34E
:103FC00041F288314B480830FDF717FBF0B1494802
:103FD000407898B14748C0780021CDE9001002210F
:103FE0000020DDE90223FEF77BFC4FF00000414991
:103FF00048704FF02A0141480BF060FD002108464F
:10400000FEF752FF4FF000003A490870022000F01E
:10401000A5FA8046B8F1000F1EDD0BE03648008897
:1040200000F101003449088008460088B0F5807F1F
:1040300000DD09E030480288801C111801220220AE
:1040400000F042FB0028E9D100BFFDF753FB2949EE
:10405000C8604FF0010008712748008835287DDBD3
:10406000A6E025480288FF21801C0BF078FC04465E
:104070004CB9214801880220FFF787FE4FF000006D
:104080001D49088099E01C48801CA4EB000085B203
:1040900019480088A0EB0500174908804DB1294652
:1040A0000220FFF772FE14480288801C41190BF0B1
:1040B0006CFC11480088352800DA7EE00E48007953
:1040C0002A2825D001210220FFF75FFE0A48008838
:1040D000A0F10100084908800846028800F10301A8
:1040E00000F102000BF051FC62E000002E4B0020BA
:1040F0002C480020304C002028460020904400200E
:104100009C050020880100207C0000202E4A002011
:104110003248467A807A40EA0626304890F8357070
:1041200090F8360040EA07274FF007012B4800F1CE
:104130000200FFF7C3FB80B2B04226D12A212748F4
:104140000B30FFF7BBFB80B2B8421ED14FF003002B
:1041500023490870FDF7CEFA224900E02EE088607E
:10416000FFF795FE4FF001001E4908701B480088BC
:10417000A0F13500194908800846028800F137018E
:1041800000F102000BF001FC11E003210220FFF717
:10419000FCFD12480088A0F1030010490880084681
:1041A000028800F1050100F102000BF0EEFB00BFF8
:1041B0000A4800883528BFF654AF00BF002004B07D
:1041C000BDE8F081084800787047064800787047DD
:1041D00004494871704704494871704728460020D7
:1041E0009C050020304C0020404C0020FE4931F856
:1041F0001010FE4A52F82020518370471CB501214F
:10420000182002F0FFF84FF001008DF804004FF085
:1042100000008DF806004FF001008DF807004FF008
:1042200002008DF805004FF0010000906946F0484B
:1042300001F04EFE4FF4906000906946ED4801F0A9
:1042400047FE0220FFF7D2FF0120FFF7CFFF1CBD82
:10425000E54931F81010E54A52F8202011837047E3
:104260007FB505460C4600954FF00000ADF8040000
:10427000ADF80600ADF80840ADF80C004FF00C00AA
:10428000ADF80A006946DC4800F02EFE0121DA484C
:1042900000F0CDFE012240F22551D74800F094FFF6
:1042A0007FBD7FB505460C4600954FF00000ADF888
:1042B0000400ADF80600ADF80840ADF80C004FF072
:1042C0000C00ADF80A006946CC4800F00DFE012153
:1042D000CA4800F0ACFE012240F22551C74800F068
:1042E00073FF7FBD7FB505460C4600954FF000007B
:1042F000ADF80400ADF80600ADF80840ADF80C00CC
:104300004FF00C00ADF80A006946BD4800F0ECFD26
:104310000121BB4800F08BFE012240F22551B84834
:1043200000F052FF7FBD70B506460C46154626B11B
:10433000012E07D0022E0FD109E029462046FFF7B3
:104340008FFF0AE029462046FFF7ABFF05E029462C
:104350002046FFF7C7FF00E000BF00BF70BDA949BE
:104360004A88498801F10101A64B598003F10601F1
:10437000885419464988B1F5007F03DB4FF00001EE
:104380001A4651807047A0494A88498801F10101C5
:104390009D4B598003F10601885419464988B1F5AF
:1043A000007F03DB4FF000011A46518070479749A8
:1043B0004A88498801F10101944B598003F10601B3
:1043C000885419464988B1F5007F03DB4FF000019E
:1043D0001A465180704710B58D4880888C494988AD
:1043E00088420BDA8A4882888088401C884B9880F3
:1043F000981D815C804800F048FE0EE04FF0000000
:104400008349888048804FF0010008704FF0000217
:1044100040F22771784800F0D7FE10BD10B57D48F6
:1044200080887C49498888420BDA7A48828880886B
:10443000401C784B9880981D815C704800F025FEE8
:104440000EE04FF000007349888048804FF0010073
:1044500008704FF0000240F22771684800F0B4FE87
:1044600010BD10B56C4880886B49498888420BDACA
:10447000694882888088401C674B9880981D815CC1
:104480005F4800F002FE0EE04FF0000062498880B5
:1044900048804FF0010008704FF0000240F2277191
:1044A000574800F091FE10BD30B505460C4625B1C9
:1044B000012D06D0022D0CD107E02046FFF74FFF5B
:1044C00008E02046FFF75FFF04E02046FFF76FFF9C
:1044D00000E000BF00BF30BD4A4880884949498894
:1044E000884206DC4748408846498988401A80B29D
:1044F00070474448408800F5007042498988401A56
:1045000080B2F5E7404880883F494988884206DC08
:104510003D4840883C498988401A80B270473A48F3
:10452000408800F5007038498988401A80B2F5E764
:104530003648808835494988884206DC33484088B7
:1045400032498988401A80B270473048408800F567
:1045500000702E498988401A80B2F5E700B50246FE
:104560004FF0000322B1012A06D0022A0CD107E045
:10457000FFF7B2FF034608E0FFF7C4FF034604E07D
:10458000FFF7D6FF034600E000BF00BF184600BD9E
:1045900030B502460B464FF000010AB9002030BD8D
:1045A00017E018488488808800F10100154DA88024
:1045B00005F10600055D084601F10104A1B215549C
:1045C00010488088B0F5007F03DB4FF000000D4CF1
:1045D000A0800C4880880B4C6488A04201D099428E
:1045E000DFDB0846DBE70000E4050020D8050020FB
:1045F00000100240000C0240001001400044004046
:1046000000480040504C0020564E00205C500020D6
:1046100062520020685400206E56002030B50246D9
:104620000B464FF000010AB9002030BD17E0DB480F
:104630008488808800F10100D84DA88005F106002B
:10464000055D084601F10104A1B21554D3488088E4
:10465000B0F5007F03DB4FF00000D04CA080CF48C6
:104660008088CE4C6488A04201D09942DFDB0846A6
:10467000DBE730B502460B464FF000010AB90020D7
:1046800030BD17E0C6488488808800F10100C44D21
:10469000A88005F10600055D084601F10104A1B2FC
:1046A0001554BF488088B0F5007F03DB4FF0000051
:1046B000BB4CA080BA488088B94C6488A04201D025
:1046C0009942DFDB0846DBE7F0B504460D461646A7
:1046D0004FF0000724B1012C08D0022C12D10BE0BE
:1046E00031462846FFF754FF07460CE0314628467E
:1046F000FFF794FF074606E031462846FFF7B9FF6B
:10470000074600E000BF00BF3846F0BD10B50446C4
:104710002146A44800F0B9FC00BF8021A14800F068
:104720007FFD0028F9D010BD10B5044621469E48F3
:1047300000F0ABFC00BF80219B4800F071FD002819
:10474000F9D010BD10B504462146984800F09DFCF4
:1047500000BF8021954800F063FD0028F9D010BD0E
:1047600070B505460C464FF0000605B10CB90020A7
:1047700070BDB4F5007F01DD4FF400744FF0000010
:104780008B49488008700EE0304606F101018EB278
:10479000295C87484288408800F10100844B58809A
:1047A00003F106008154A642EEDB012240F227719C
:1047B0007C4800F009FD3046DAE770B505460C4646
:1047C0004FF0000605B10CB9002070BD0120FFF7C5
:1047D0003FFD0120FCF776FFB4F5007F01DD4FF4CB
:1047E00000744FF00000734948800EE0304606F137
:1047F00001018EB2295C6F484288408800F10100B7
:104800006C4B588003F106008154A642EEDB012276
:1048100040F22771644800F0D7FC3046D5E770B508
:1048200005460C464FF0000605B10CB9002070BDDE
:104830000220FFF70DFD0120FCF744FFB4F5007FD7
:1048400001DD4FF400744FF000005B4948800870B0
:104850000EE0304606F101018EB2295C56484288CE
:10486000408800F10100544B588003F10600815448
:10487000A642EEDB012240F227714C4800F0A4FC76
:104880003046D4E72DE9F04105460C4616464FF078
:10489000000714B90020BDE8F08125B1012D08D032
:1048A000022D12D10BE031462046FFF759FF074693
:1048B0000CE031462046FFF780FF074606E0314610
:1048C0002046FFF7ACFF074600E000BF00BF3846B8
:1048D000E1E710B50021334800F0A9FB0021324880
:1048E00000F0A5FB0021314800F0A1FB002240F2BE
:1048F00025512C4800F068FC002240F225512A483E
:1049000000F062FC002240F22551284800F05CFCD7
:1049100010BD10B50121234800F089FB0121224878
:1049200000F085FB0121214800F081FB012240F2CB
:1049300025511C4800F048FC012240F225511A483C
:1049400000F042FC012240F22551184800F03CFCE6
:1049500010BD10B516480078012803D0164800781D
:10496000012802D10A20FCF7ADFE12480078012888
:1049700007D14FF000000F4908704FF00100FFF71A
:1049800035FC0D480078012807D14FF000000A4996
:1049900008704FF00200FFF729FC10BD564E0020B2
:1049A0005C500020001001400044004000480040DE
:1049B00062520020685400206E56002001463B4899
:1049C00000883B4A1288904201D100207047394844
:1049D000364A1288805C08703448008800F1010073
:1049E000324A108010460088B0F5007F02D14FF0A7
:1049F000000010800120E9E73EB504464FF00000BA
:104A00000090019002904FF008008DF800008DF8A2
:104A100002404FF00A026946274807F0C4FE3EBD37
:104A2000FEB506460D464FF0000419E04FF00000B9
:104A30000090019002904FF008008DF8000006EB06
:104A400004000168CDF802104068CDF806004FF070
:104A50000A026946184807F0A6FE04F1080084B26D
:104A6000281B0828E2DC281B002815DD4FF0000079
:104A70000090019002904FF008008DF80000A5EB27
:104A8000040206EB04010DF102000AF07EFF0A2287
:104A90006946094807F087FEFEBD70B504460D461D
:104AA00029462046FFF7BCFF70BD0000EC05002042
:104AB000EA05002074580020040B002010B586B0D1
:104AC00004464FF00101084601F09CFC4FF4D85019
:104AD00004904FF003008DF815004FF002008DF8A0
:104AE00014004FF000008DF816008DF8170004A98F
:104AF0005A4801F0EDF90A220821584801F091FACC
:104B00000A220921554801F08CFA0A220B21534848
:104B100001F087FA0A220C21504801F082FA4FF482
:104B2000806004904FF001008DF816008DF817009A
:104B30004FF003008DF8150004A9484801F0C8F9AA
:104B40000A221146454801F06CFA0121880301F060
:104B500095FC0121802001F064FC0121080701F08F
:104B6000FEFC012102200AF022F94FF4802000F01F
:104B7000CCFE4FF4802002904FF000008DF80C0026
:104B80004FF008008DF80D004FF001008DF80E0079
:104B900002A800F036FE4FF4802000F0B6FE4FF081
:104BA0002A008DF804004FF000008DF805008DF804
:104BB00006004FF001008DF8070001A800F0A6FBE9
:104BC0004FF4802000F0A1FE4FF4004000F09DFE65
:104BD00006B010BD38B504464FF043008DF8000014
:104BE0004FF003008DF801004FF000008DF8020037
:104BF0004FF001008DF80300684600F087FB38BDD8
:104C000008B54FF043008DF800004FF003008DF819
:104C100001004FF000008DF802008DF80300684697
:104C200000F074FB08BD10B54FF00002C0EB00139C
:104C30004FEAC3034FF00704B3FBF4F100BF531C6A
:104C40001A468B4200D910BDF9E710B504464FF45F
:104C50007A7104FB01F0FFF7E6FF10BD000002408F
:104C600002464FF0120008802A48704702464FF073
:104C7000040008802848704770B505460C462DB9D9
:104C80002246264926A005F05BFD04E02246234982
:104C900028A005F055FD214870BD70B505460C46AD
:104CA00022461E4928A005F04BFD1C4870BD70B57A
:104CB00005460C462DB92246184928A005F040FDAE
:104CC00004E02246154929A005F03AFD134870BDBD
:104CD00070B505460C462DB92246104927A005F0AF
:104CE0002FFD04E022460D4924A005F029FD0B48C4
:104CF00070BD70B505460C462DB92246074922A065
:104D000005F01EFD04E0224604491FA005F018FD31
:104D1000024870BD100600202C060020745C0020A4
:104D20004A6F79737469636B20696E204853206DF4
:104D30006F6465004A6F79737469636B20696E20D4
:104D40004653204D6F64650053544D6963726F651F
:104D50006C656374726F6E6963730000303030305D
:104D600030303030303131420000000030303030EF
:104D700030303030303131430000000048494420A9
:104D8000436F6E666967000048494420496E746548
:104D9000726661636500000070B5002009F0C5FF10
:104DA000012009F0C2FF022009F0BFFF032009F033
:104DB000BCFF234800684FF03002B0FBF2F1B1F1C4
:104DC000807F02D34FF0010028E021F07F40A0F166
:104DD00001004FF0E02250614FF0FF304FF00F0222
:104DE00000280ADA4FEA02734FEA1365154B00F008
:104DF0000F04A4F104041D5505E04FEA02734FEAC5
:104E00001364114B1C5400BF4FF000004FF0E02220
:104E100090614FF0070010614FF0000008B100BF33
:104E2000FEE770BD10B1012802D100E001E000E012
:104E300000BF00BF704770477047704770477047AA
:104E40006C01002018ED00E000E400E010B504461D
:104E5000FA48844208D10121102001F08FFB002183
:104E6000102001F08BFB3EE0F548844209D101217E
:104E7000480401F074FB00214FF4003001F06FFB97
:104E800031E0F048844209D10121880401F067FB38
:104E900000214FF4802001F062FB24E0EA488442C4
:104EA00009D10121C80401F05AFB00214FF4002070
:104EB00001F055FB17E0E548844209D101210805BE
:104EC00001F04DFB00214FF4801001F048FB0AE097
:104ED000DF48844207D10121202001F04FFB00214F
:104EE000202001F04BFB10BD2DE9FF4705460E4683
:104EF0004FF00004A14600BFA046B08900B100BF3A
:104F00002C8A24F44054F08840EA04042C82AC89B2
:104F100041F20C6024EA0004B088318940EA0100C3
:104F2000718940EA010040EA0404AC81AC8A24F4AF
:104F30004074B08940EA0404AC82684601F0CFF9BD
:104F4000BE48854202D0C248854202D1DDF80C90AD
:104F500001E0DDF80890A88910F4004F09D009EBB2
:104F6000C90000EB091031684FEA4101B0FBF1F7CD
:104F700008E009EBC90000EB091031684FEA810134
:104F8000B0FBF1F74FF06400B7FBF0F04FEA00140C
:104F90004FEA14104FF0640101FB1078A88910F457
:104FA000004F0AD04FF0320000EBC800B0FBF1F028
:104FB00000F0070040EA04040BE04FF0320000EB81
:104FC00008104FF06401B0FBF1F000F00F0040EA70
:104FD00004042C81BDE8FF874FF4165101604FF0A7
:104FE00000018180C18001814FF00C0141814FF0AF
:104FF00000018181704710B502464FF00000108A11
:1050000020F470600B884C8843EA04038C8843EAE0
:105010000403CC8843EA040343EA0000108210BD75
:105020004FF00001018041808180C180704721B133
:10503000828942F40052828105E082894DF6FF7335
:1050400002EA030282817047028B02F47F420283EC
:10505000028B42EA01020283704721B1828942F445
:105060000042828103E08289C2F30E02828170478E
:1050700021B1828A42F40062828205E0828A4FF284
:10508000FF7302EA030282827047C1F30802828042
:10509000704701468888C0F308007047028A4FF6BF
:1050A000F07302EA03020282028A42EA01020282E9
:1050B000704721B1828942F00202828105E0828933
:1050C0004FF6FD7302EA03028281704782894FF234
:1050D000FF7302EA03028281828942EA010282812D
:1050E0007047028A4FF6DF7302EA03020282028AE5
:1050F00042EA01020282704721B1028A42F48042F0
:10510000028205E0028A4BF6FF7302EA0302028282
:105110007047818941F001018181704721B1828A04
:1051200042F00802828205E0828A4FF6F77302EAB3
:10513000030282827047028BD2B20283028B42EA60
:1051400001220283704721B1828A42F020028282CA
:1051500005E0828A4FF6DF7302EA0302828270471B
:1051600021B1828A42F01002828205E0828A4FF6E3
:10517000EF7302EA030282827047828A4FF6FB7362
:1051800002EA03028282828A42EA01028282704734
:1051900021B1828A42F00202828205E0828A4FF6C1
:1051A000FD7302EA03028282704710B522B1838A3E
:1051B00043EA0103838206E0838A6FEA0104A4B212
:1051C00003EA0403838210BDF0B503464FF00004E8
:1051D000264625462046A1F510676A3F00D100BF4C
:1051E0001846C1F3421401F01F064FF0010707FAF9
:1051F00006F5012C02D100F10C0006E0022C02D1D0
:1052000000F1100001E000F1140022B1076847EA44
:105210000507076003E0076827EA05070760F0BD98
:1052200002464FF00000B1F5007F00D100BF1388A7
:105230000B420FD04FF001000EE0000000100140C3
:105240000044004000480040004C00400050004036
:10525000001401404FF00000704701F40072B2F5F5
:10526000007F00D100BF6FEA01020280704770B575
:1052700002464FF0000423461D461846A1F510666D
:105280006A3E00D100BFC1F3421501F01F034FF089
:10529000010606FA03F3012D03D1968906EA0303FA
:1052A00008E0022D03D1168A06EA030302E0968A7B
:1052B00006EA03034FEA21244FF0010606FA04F43C
:1052C000168806EA04041BB114B14FF0010001E096
:1052D0004FF0000070BD10B54FF000021346A1F56D
:1052E00010646A3C00D100BF4FEA21224FF0010454
:1052F00004FA02F4A3B26FEA0304048010BD0000B4
:105300003A4940EA01013A4A1160704770B54FF0DE
:1053100000010B464FF00F02C4786CB3344C246884
:1053200004F4E064C4F5E064C4F30721C1F10404AB
:10533000E3B242FA01F2447804FA03F4E1B2847869
:1053400004EA020444EA01014FEA01744FEA1461DD
:10535000284C05786155047804F01F054FF00104CE
:1053600004FA05F405784FEA65154FF0E02606EBE0
:105370008505C5F800410CE0047804F01F054FF0E6
:10538000010404FA05F41C4D06784FEA661645F848
:10539000264070BD194A01EA020242EA0002184B97
:1053A0001A60704731B1174A126842EA0002154B81
:1053B0001A6005E0134A126822EA0002114B1A60D3
:1053C0007047042808D14FF0E021096941F0040139
:1053D0004FF0E022116107E04FF0E021096921F070
:1053E00004014FF0E0221161704700000000FA054F
:1053F0000CED00E000E400E080E100E080FFFF1F32
:1054000008ED00E010ED00E0016821F0010101600D
:105410004FF00001016041608160C16001614FF0A7
:1054200021014161E249884204D14FF03D01E14A46
:1054300091607EE0DE491831884204D14FF47461F6
:10544000DC4A916075E0DA493031884204D14FF48A
:105450007411D84A91606CE0D5494831884204D132
:105460004FF07461D34A916063E0D1496031884262
:1054700003D1D149CF4AD1605BE0CD497831884230
:1054800003D1CE49CB4AD16053E0C949903188421B
:1054900003D1CB49C74AD1604BE0C549A831884206
:1054A00004D14FF03D51C34AD16042E0C549884222
:1054B00004D14FF03D01C44A11603AE0C1491831AE
:1054C000884204D14FF47461BF4A116031E0BD4994
:1054D0003031884204D14FF47411BB4A116028E086
:1054E000B8494831884204D14FF07461B64A11601E
:1054F0001FE0B4496031884203D1AF49B34A11601B
:1055000017E0B0497831884203D1AC49AF4A116005
:105510000FE0AC499031884203D1A949AB4A1160F0
:1055200007E0A849A831884203D14FF03D51A74A6E
:105530001160704710B54FF000020268A44B02EAF8
:105540000302CC680B6843EA04034C6943EA040392
:105550008C6943EA0403CC6943EA04030C6A43EA16
:1055600004034C6A43EA04038C6A43EA04034C6B69
:1055700043EA04038C6B43EA040343EA0202026039
:10558000426922F00702D1E90B3443EA040343EAFB
:10559000020242610B6943604B6883608B68C360A1
:1055A00010BD4FF00001016041608160C160016188
:1055B00041618161C161016241628162C1620163D5
:1055C00041638163704721B1026842F001020260C9
:1055D00003E0026822F001020260704721B1026814
:1055E00042F40042026003E0026822F400420260DA
:1055F000704721B1026842F02002026003E00268B5
:1056000022F02002026070474160704701464868FE
:1056100080B2704722B1036843F40023036003E0C3
:10562000036823F4002303600161704721B102681D
:1056300042F48022026003E0026822F480220260C9
:1056400070470AB1016100E0C160704701464FF048
:1056500000000A6812F4002F02D04FF0010001E0B0
:105660004FF00000704701464FF000000A6812F04A
:10567000010F02D04FF0010001E04FF00000704731
:1056800001464FF000004A6902F03800704730B51B
:1056900003460A464FF0000004464A4DAB4201D291
:1056A000444900E04B4912F0005F01D04C6800E033
:1056B0000C68494D04EA0504144202D04FF0010081
:1056C00001E04FF0000030BD02463E4B9A4201D24D
:1056D000384800E03F4811F0005F04D03E4B01EA3B
:1056E0000303C36003E03C4B01EA0303836070479C
:1056F00010B511F0800F09D022B1436943F0800347
:10570000436103E0436923F08003436180290DD0A6
:1057100032B1036801F01E0443EA0403036005E0AC
:10572000036801F01E0423EA0403036010BD70B592
:1057300002464FF0000004460546224EB24201D216
:105740001C4B00E0234B254E314207D04FF01E0684
:1057500006EAD124166806EA040502E0566906F056
:10576000800511F0005F01D05C6800E01C681A4EF3
:1057700004EA06040C4203D015B14FF0010001E029
:105780004FF0000070BD02460E4B9A4201D209480C
:1057900000E0104811F0005F04D00F4B01EA030352
:1057A000C36003E00C4B01EA030383607047000011
:1057B00010600240006002403D000020400F0020C9
:1057C00000003D2010640240086402400C64024066
:1057D0003F801CF0006402407D0F7D0F3C0F3C0FAA
:1057E0004FF000004A49086001F10401086001F12E
:1057F0000401086001F10401086046484649086058
:1058000070474FF0000142498279002A40D00A4691
:105810001268036822EA03020B461A6001F10402CF
:105820001268036822EA030201F104031A60027994
:1058300011440A68036842EA03020A60374A1268A0
:10584000036822EA0302354B1A6003F1040212686E
:10585000036822EA0302324B1A604279102A0ED101
:105860002E4A1268036842EA03022C4B1A602C4A43
:105870001268036842EA0302294B1A600FE02449C8
:10588000427911440A68036842EA03020A6006E0AA
:10589000027911440A68036822EA03020A60704729
:1058A0004FF00001016001714FF00C0141714FF0A8
:1058B0000001817170471B49096841EA0001194ADA
:1058C0001160704701464FF00000134A12680A4207
:1058D00002D04FF0010001E04FF0000070470E4988
:1058E0000860704701464FF000000246084B1B68F5
:1058F00003EA0102084B1B680B4203D012B14FF0C0
:10590000010001E04FF00000704703490860704754
:10591000003C0140FFFF7F00143C0140083C014077
:105920000C3C0140103C0140F84A1070704730B107
:10593000F649096841F48071F44A116005E0F349C1
:10594000096821F48071F14A1160704730B1EF4964
:10595000096841F40071ED4A116005E0EB490968FE
:1059600021F40071E94A1160704730B1E7490968D4
:1059700041F48061E54A116005E0E449096821F4D9
:105980008061E24A11607047E048006840F40060BE
:10599000DE4908607047DD48006840F48050DB490C
:1059A00008607047D9481030006810F0004F04D0EC
:1059B000D748D8490860D84808607047D748006879
:1059C00040F00040D549086070474FF00800D449C6
:1059D000096801F48031B1F5803F02D14FF0010038
:1059E00019E0CF49096811F0100F02D04FF00500FF
:1059F00011E0CB49096811F0EF0F02D04FF006001B
:105A000009E0C749096811F0020F02D04FF0070002
:105A100001E04FF00800704700B54FF00802FFF7B3
:105A2000D4FF024602E0FFF7D0FF0246012AFAD077
:105A3000104600BD70B504460B464FF000064FF00F
:105A4000080503B90BE0012B02D14FF4807606E084
:105A5000022B02D14FF4007601E04FF44076FFF7BD
:105A6000DBFF0546082D2AD1AC48006820F44070C1
:105A7000AA4908600846006840EA0600086008462F
:105A8000006820F0F80008600846006844F0020151
:105A900040EA0100A14908600846006840F48030EF
:105AA0000860FFF7B9FF05469C48006820F0020037
:105AB0009A4908600846006820F0F8000860284607
:105AC00070BD30B503464FF000054FF00804FFF7F6
:105AD000A3FF044603B90BE0012B02D14FF48075FC
