:020000040800F2
:10000000A88C0020850200081D2F00081F2F000863
:10001000232F0008272F00082B2F000800000000C6
:100020000000000000000000000000002F2F00086A
:10003000312F000800000000332F0008352F000882
:100040009F0200089F0200089F0200089F0200080C
:100050009F0200089F0200089F0200089F020008FC
:100060009F0200089F0200089F0200089F020008EC
:100070009F0200089F0200089F0200089F020008DC
:100080009F0200089F0200089F0200089F020008CC
:100090009F0200089F0200089F0200089F020008BC
:1000A0009F0200089F0200089F0200089F020008AC
:1000B0009F0200089F0200089F0200089F0200089C
:1000C0009F0200089F0200089F0200089F0200088C
:1000D0009F0200083D2F00085B2F0008792F0008C1
:1000E0009F2F00089F020008BB2F00089F020008F6
:1000F0009F0200089F0200089F0200089F0200085C
:100100009F020008972F00089F0200089F02000826
:100110009F0200089F0200089F0200089F0200083B
:100120009F0200089F0200089F0200089F0200082B
:100130009F0200089F0200089F0200089F0200081B
:100140009F0200089F0200089F020008E32F00089A
:100150009F0200089F0200089F0200089F020008FB
:100160009F0200089F0200089F0200089F020008EB
:100170009F0200089F0200089F0200089F020008DB
:100180009F02000800F002F800F05CF80AA090E876
:10019000000C82448344AAF10107DA4501D100F042
:1001A00051F8AFF2090EBAE80F0013F0010F18BFB3
:1001B000FB1A43F0010318476CFC00008CFC0000A4
:1001C0000A444FF0000C10F8013B13F0070408BF7D
:1001D00010F8014B1D1108BF10F8015B641E05D01B
:1001E00010F8016B641E01F8016BF9D113F0080FD0
:1001F0001EBF10F8014BAD1C0C1B09D16D1E58BF62
:1002000001F801CBFAD505E014F8016B01F8016B98
:100210006D1EF9D59142D6D370470000002300240B
:1002200000250026103A28BF78C1FBD8520728BF06
:1002300030C148BF0B6070471FB50FF050FD1FBDA8
:1002400010B510BD0FF011FD1146FFF7F5FF01F0DD
:10025000EBF90FF02FFD03B4FFF7F2FF03BC0FF033
:1002600037FD0000EFF30980704780F3098870477D
:10027000EFF30880704780F30888704740BA7047F2
:10028000C0BA70470948804709480047FEE7FEE7C3
:10029000FEE7FEE7FEE7FEE7FEE7FEE7FEE7FEE736
:1002A00004480549054A064B70470000AB3000087A
:1002B00085010008A8860020A88C0020A8880020BE
:1002C000A888002030B503460C464FF000010D46CB
:1002D0000BB9002030BD4FF0000105E0585C284408
:1002E000C5B201F1010081B2A142F7DBC5F15500B1
:1002F00010704FF00100EDE77CB505460C46F7A104
:1003000003C9CDE90001012D3BD14FF00000F549B3
:100310000860F54908606079F2490860A0790968C9
:1003200040EA0120EF490860E079096840EA0120CD
:10033000EC490860207A096840EA0120E949086030
:1003400000F0D6FEE94800F05DFFE848E8490860A3
:100350009DF8010000F101010DF106020DF101000F
:10036000FFF7B0FF0821684604F09CFB4FF0000047
:10037000E0490880E04908804FF00100DF4908703B
:100380008EE0022D48D12078A0F10400D6490968FA
:100390000844D54908602078A0F1040086B24FEAED
:1003A000E67006EB90704FEAA00204F10501D04818
:1003B00000F044FFE078D04908802079098840EABD
:1003C0000120CD49088008460088A0F10100C949F4
:1003D0000988884203D04FF00000C8490870C64819
:1003E0000088C44908804FF002008DF80300E078CF
:1003F0008DF8040020798DF805009DF8010000F1CA
:1004000001010DF106020DF10100FFF75BFF08216C
:10041000684604F047FB43E0032D41D1012001F081
:100420004FF9B148006880421ED1B4480078D8B175
:1004300028468DF803004FF05A008DF804008DF81F
:1004400005009DF8010000F101010DF106020DF11A
:100450000100FFF737FF0821684604F023FB04F092
:1004600011FC00F091FF17E04FF003008DF803003E
:100470004FF055008DF804008DF805009DF801003F
:1004800000F101010DF106020DF10100FFF71AFF65
:100490000821684604F006FB4FF0010098490870F7
:1004A0007CBD10B59AB04FF0640101A80FF048FB75
:1004B0004FF000044FF07E008DF804004FF0020072
:1004C0008DF806004FF00F0422468EA10DF10700B3
:1004D0000FF09DFA04F101008DF805009DF805006C
:1004E00000F1020001AB00EB030204F102010DF187
:1004F0000500FFF7E7FE4FF07E019DF8050000F1D3
:10050000030001AA11549DF8050000F1040101A89F
:1005100004F0C8FA4FF02E0422467EA10DF1070028
:100520000FF075FA04F101008DF805009DF8050043
:1005300000F1020001AB00EB030204F102010DF136
:100540000500FFF7BFFE4FF07E019DF8050000F1AA
:10055000030001AA11549DF8050000F1040101A84F
:1005600004F0A0FA1AB010BD10B586B0044675A10B
:1005700003C9CDE9040120788DF8080060788DF872
:100580000900A0788DF80A00E0788DF80B0020793A
:100590008DF80C0060798DF80D00684601F0BFFB06
:1005A000DDE9020101F0A9FB68B94FF055008DF8B3
:1005B00013004FF0F8008DF814004FF0060104A866
:1005C00004F070FA0EE0012001F07AF801F0B1FBBE
:1005D00001F075FC9DE80F0002F0ECF8062104A87C
:1005E00004F060FA06B010BD00B585B057A207CA86
:1005F0008DE8070003A801F092FB9DF80C008DF830
:1006000003009DF80D008DF804009DF80E008DF894
:1006100005009DF80F008DF806009DF810008DF87C
:1006200007009DF811008DF808000DF1090208215E
:100630000DF10100FFF746FE0B21684604F032FA87
:1006400005B000BD0EB544A207CA8DE8070003F04F
:100650004AFE18B14FF05A008DF8040003F040FE36
:1006600018B14FF05A008DF8050003F0F8F818B1F2
:100670004FF05A008DF806000DF107020621501FB9
:10068000FFF720FE0921684604F00CFA0EBD10B5F4
:1006900034484079042819D006DC01280BD0022800
:1006A0000CD0032868D10DE0122813D013285BD09A
:1006B000142861D15CE0FFF7C5FF5EE0012003F084
:1006C00015FE5AE0012003F014FE56E0012003F06D
:1006D000C9F852E0002003F009FE4EE07E0401015B
:1006E0005A5A9B7E000000200400002000000408ED
:1006F000140000200C0000200A0000200E00002042
:10070000080000205368656E7A68656E204265694E
:1007100048616900415443205368656E5A68656EAC
:1007200020506861736520312072656275696C6460
:100730002020323031332D30342D323320205631C9
:100740002E3300007E02065AF37E00007E0707006B
:100750000000000000007E007E050801000000008F
:100760007E000000A8070020002003F0C2FD04E086
:10077000002003F077F800E000BF00BF10BD00B517
:100780008DB0FEA106A808F079FEE8B916E0FCA13C
:100790000DF109000FF026FA28B1FAA10DF10900B8
:1007A0000FF020FA00B909E09DF8090008B90DB072
:1007B00000BD0DF1090001F088FD00BF694606A8E3
:1007C00008F098FE0028E2D000BFF0E700B587B03F
:1007D000EDA30FCBCDE90523CDE903014FF00000D8
:1007E0000290019001A902A801F096FD18B94FF0FE
:1007F00000000290019002984FEA10608DF81000FE
:1008000002984FEA10408DF8110002984FEA10202C
:100810008DF812000298C0B28DF8130001984FEACB
:1008200010608DF8140001984FEA10408DF8150003
:1008300001984FEA10208DF816000198C0B28DF88B
:10084000170006AA4FF00B010DF10D00FFF73AFD5E
:100850000E2103A804F026F907B000BD70B5A6B0BC
:1008600005460C464FF000064FF07E008DF8000064
:100870004FF009008DF802004FF004008DF80300DE
:100880004FEA14608DF804004FEA14408DF805001B
:100890004FEA14208DF80600E0B28DF807004FF003
:1008A000320119A808F057FC19A80FF07BF80328AB
:1008B00003D0B9A119A80FF09EF8294619A80FF086
:1008C0009AF819A80FF06EF8C6B2324619A902A814
:1008D0000FF05DF906F10600C0B28DF801009DF839
:1008E000010000F102006B4600EB03029DF80100DD
:1008F00000F101010DF10100FFF7E4FC4FF07E0172
:100900009DF8010000F103000DF800109DF80100B2
:1009100000F10401684604F0C5F826B070BD70B55A
:10092000B4B005464FF0000634464FF07E008DF817
:1009300004004FF009008DF8060029462DA808F0A4
:100940009DFD08B134B070BD77E09DF8A50000B9F9
:1009500079E08BA10DF1A5000FF044F928B189A130
:100960000DF1A5000FF03EF900B966E09DF8A40076
:1009700010285CD14FF003008DF807000DF1A500A1
:1009800001F0FFFC04464FEA14608DF808004FEABE
:1009900014408DF809004FEA14208DF80A00E0B2E7
:1009A0008DF80B004FF032011AA808F0D4FB7AA1A1
:1009B0001AA80FF020F80DF1A5011AA80FF01BF8E6
:1009C0001AA80EF0EFFFC6B232461AA903A80FF01C
:1009D000DEF806F10600C0B28DF805009DF80500AE
:1009E00000F1020001AB00EB03029DF8050000F1ED
:1009F00001010DF10500FFF765FC4FF07E019DF848
:100A0000050000F1030001AA11549DF8050000F152
:100A1000040101A804F046F80DF1A50008F067FBF9
:100A200057A0FFF77CFF57A008F061FB04E00DF131
:100A3000A5002799FFF712FF00BF27A92DA808F0EE
:100A400059FD002881D000BF00BF7BE71CB553A132
:100A500003C9CDE9000101F023FA18B14FF05A00A3
:100A60008DF8050001F022FA50B10DF106020521C2
:100A7000501FFFF727FC0821684604F013F81CBD3F
:100A80004FF05A008DF804000DF106024FF00501F9
:100A90000DF10100FFF716FC0821684604F002F88A
:100AA000FFF794FE35A0FFF73AFF4FF07E008DF878
:100AB00000004FF009008DF802004FF002008DF8A1
:100AC00001004FF005008DF803004FF045008DF850
:100AD00004004FF07E008DF805004FF006016846D7
:100AE00003F0E0FF00BFCAE72DE9F0439BB00446E6
:100AF0004FF000094D462E462F46A8464FF03401D0
:100B000003A80FF01DF827A103C9CDE9010114B90D
:100B10001BB0BDE8F0834FF4007101200EF07DFEA4
:100B20001A900122214611A807F0A9FF8146B9F1C8
:100B3000000F07D01A980EF03CFD062101A803F023
:100B4000B1FFE5E74FF07E00184908704FF00A004A
:100B500088704FF00100C8704FF000011348017118
:100B600041714FF0320103A808F0F5FA214603A8BD
:100B70000EF041FF03A80EF015FF19E0303A000017
:100B80002E0000002E2E00007E0A09020000000048
:100B900000000000007E00002F0000007E0409011C
:100BA0000000007E7E020A04457E0000AA090020A3
:100BB00000F0FF08424603A9F9480EF028FF08F1AB
:100BC0000400F749A1F10601487008464078A0F1F9
:100BD000010001F1030300EB03020846407800F135
:100BE0000101A3F10200FFF76DFB4FF07E01EC481D
:100BF000A0F10600427800F103008154A0F1030047
:100C0000407800F10401E648A0F1060003F04AFF35
:100C10004FF07E00E249A1F1060108704FF00A0092
:100C200088704FF00200C87050E01498A0EB0506E1
:100C300007F1010087B2F52E0ED310ABF522D8498B
:100C400011A807F0DAFF05F1F5054FF0F900D449D6
:100C5000A1F1060148700CE010AB3246D04911A852
:100C600007F0CBFF149D06F10400CD49A1F1060168
:100C700048704FEA2721CA48A0F106000171477168
:100C80004078A0F10100C64BA3F1030300EB03027F
:100C9000A3F10300407800F10101A3F10200FFF786
:100CA00011FB4FF07E01BE48A0F10600427800F132
:100CB00003008154A0F10300407800F10401B8481A
:100CC000A0F1060003F0EEFE05F037FA1498A842F2
:100CD000ABD811A808F0F6F91A980EF06AFC4FF09C
:100CE0007E00AF49A1F1060108704FF00A0088703C
:100CF0004FF00300C8704FF00001A948A0F10600B2
:100D000001714171424603A9A5480EF080FE08F129
:100D10000400A349A1F10601487008464078A0F1FB
:100D2000010001F1030300EB03020846407800F1E3
:100D30000101A3F10200FFF7C5FA4FF07E019848C8
:100D4000A0F10600427800F103008154A0F10300F5
:100D5000407800F104019248A0F1060003F0A2FEE1
:100D600000BFD5E610B58EB00446214607A808F0AE
:100D700085FB08B10EB010BD29E09DF80D0000B94B
:100D80002BE0AFF204210DF10D000EF02BFF30B17E
:100D9000AFF210210DF10D000EF024FF00B916E0A6
:100DA0009DF80C0010280DD10DF10D0008F09FF9F1
:100DB00060B90DF10D00FFF7D5FFAFF2382008F054
:100DC00096F903E00DF10D00FFF78EFE00BF01A9BB
:100DD00007A808F08FFB0028CFD000BF00BFC9E7ED
:100DE00010B5AFF26820FFF7BDFF10BD10B5044687
:100DF000204601F06AFA10BD1CB56A4903C9CDE965
:100E000000010521684603F04DFE00BFFEE710B566
:100E10008AB004464FF0280168460EF091FE0F2C70
:100E200057D2DFE804F056080E11121314191C1FD4
:100E300022353B4154005C494879C91CFFF75CFAF4
:100E400048E0FFF72EFB45E000BF00BF42E05648F8
:100E5000401DFFF789FB3DE0FFF7C6FB3AE0FFF7D7
:100E600016FC37E0FFF7F2FD34E001F025F870B131
:100E7000282168460EF064FE4B48C078421E4A495D
:100E8000491D68460EF0C3FD6846FFF72DFE21E0C0
:100E900001F012F808B1FFF7A3FF1BE001F00CF816
:100EA00008B1FFF76CFC15E001F006F870B12821DD
:100EB00068460EF045FE3C48C078421E3A49491D3E
:100EC00068460EF0A4FD6846FFF790FF02E0FFF7CA
:100ED00093FF00BF00BF0AB010BD38B54FF000044B
:100EE0002546204600904FF001054FF0010431E007
:100EF0002D48801C015D4155005D7F2824D12A4882
:100F0000801C611C405C802809D14FF07E0126487E
:100F100000F10200415504F1010084B214E02248BE
:100F2000801C611C405C812809D14FF07F011E4864
:100F300000F10200415504F1010084B204E04FF0D9
:100F400000001949088038BD05F1010085B204F19F
:100F5000010084B214480088401EA042C8DC124838
:100F600005800088801E81B26A460F48C01CFFF7CA
:100F7000A9F90D480088401E0B49891C085C9DF8A2
:100F80000010884206D14FF00000074908804FF05A
:100F90000100D8E74FF000000349088000BFD2E706
:100FA000B0090020ECFC0008A807002008B54FF0AD
:100FB000000000905AE049480078E8B19DF8000030
:100FC0007E2810D19DF80000454988704FF0000040
:100FD000424908704FF001004149088000F088FB49
:100FE0004049086042E04FF000003D4908804FF062
:100FF00001003A49087039E09DF80010384802882D
:10100000008800F10100364B188003F10200815482
:1010100018460088B0F5007F0ADB4FF00000194643
:1010200008804FF001002D4908704FF0000008BD06
:101030009DF800007E2819D14FF47A71294800F0FC
:10104000DCFA60B19DF80000254988704FF000007F
:10105000224908704FF001002149088006E04FF056
:1010600001001E490870FFF738FFE0E7684603F00B
:10107000E7FC00289FD100BFD9E708B54FF000007A
:101080000090FFF793FF012827D115490879FFF752
:10109000BEFE00F02DFB00901148007901281CD104
:1010A00003F083FC4FF000000F4908700AE0FFF7DF
:1010B0007DFF012803D10A490879FFF7A8FE0A201D
:1010C00000F0FEFA0848007828B90849684600F0A0
:1010D00094FA0028EBD003F088FC08BD0F00002034
:1010E000A80700201000002008000020E093040062
:1010F00010B504F099FCF32004F0B2FE10BD0146D7
:101100004FF00000A94A914203D2B1F1006F00D321
:101110005BE0A74A914205D2A44A914202D34FF024
:10112000080052E0A34A914205D2A14A914202D35B
:101130004FF0100049E0A04A914205D29D4A9142E9
:1011400002D34FF0180040E09C4A914205D29A4ADF
:10115000914202D34FF0200037E0994A914205D2E4
:10116000964A914202D34FF028002EE0954A9142D0
:1011700005D2934A914202D34FF0300025E0924AC3
:10118000914205D28F4A914202D34FF038001CE0C1
:101190008E4A914205D28C4A914202D34FF04000D0
:1011A00013E08B4A914205D2884A914202D34FF014
:1011B00048000AE0874A914205D2854A914202D30B
:1011C0004FF0500001E04FF05800704770B50646F0
:1011D0004FF008054FF000043046FFF790FF05463A
:1011E0002C4609E00221204604F066FC082801D0C4
:1011F000012070BD04F1080405F108008442F1D318
:101200000020F6E770B506464FF008054FF00004E1
:101210003046FFF774FF05462C4609E002212046C0
:1012200004F04AFC082801D0012070BD04F1080434
:1012300005F108008442F1D30020F6E72DE9F041E2
:1012400004460E4617464FF0000500BF18E056F85A
:101250002510206804F0D8FC08280DD1206800680B
:1012600056F82510884202D00220BDE8F08120689F
:1012700000F10400206001E00120F6E705F101051E
:10128000BD4203D2206854498842E0D90020ECE7EF
:1012900010B54FF008044B48FFF731FF044604F047
:1012A000AEFDE1080841E20840F6FF7111418842B5
:1012B00001D1012010BD0020FCE770B54FF00804FB
:1012C0004FF002053F48FFF71AFF04464FEAD401EA
:1012D0004FF0010000FA01F0A0F1010040F6FF71AB
:1012E000A1EB000504F000FD0021284604F00FFDED
:1012F00004F072FD082801D0022070BD0120FCE737
:10130000F8B54FF00005354E2E4800904FF0000420
:1013100004E0305D2844C5B204F10104522CF8D336
:10132000C5F1550030552748FFF750FF14222B49CF
:101330006846FFF783FFF8BD70B5284D284E4FF083
:10134000000403E0305D285504F10104522CF9D368
:10135000FFF7D6FF70BD70B54FF000051F4EFFF7C9
:10136000C7FE5322174930460EF051FB2C4604E0CD
:10137000305D2844C5B204F10104532CF8D3552D37
:1013800001D0FFF7D9FF70BD10B50C484068154972
:101390000860084600681449086008490868FEF7B4
:1013A0006AFF11480068804710BD00000040000837
:1013B0000080000800C000080000010800000208CA
:1013C00000000408000006080000080800000A08E1
:1013D00000000C0800000E08FBFF0F08AD0A0020FB
:1013E00018000020700000206C00002008B54FF4A9
:1013F000A06003F0C7FF4FF025008DF800004FF00C
:1014000000008DF801008DF802004FF001008DF80A
:101410000300684603F0BCFF4FF026008DF8000083
:101420004FF000008DF801004FF001008DF8020030
:101430008DF80300684603F0ABFF4FF027008DF8EE
:1014400000004FF000008DF801004FF002008DF811
:1014500002004FF001008DF80300684603F098FF8A
:101460004FF031008DF800004FF001008DF80100C1
:101470004FF000008DF802004FF001008DF80300DE
:10148000684603F085FF08BD10B50121080705F087
:1014900028F8012006F065FA012004F0F1FE00BFF3
:1014A000612004F08AFE0028FAD04FF4007004F0A6
:1014B000C7FF4FF0FF00904908604FF07F008F4951
:1014C00008604FF0010004F0D6FF05F003FD10BDE9
:1014D00010B50121082004F0D7FF4FF4405088498F
:1014E00008604FF00000087188714FF003004871E8
:1014F0004FF00000C871834804F02CFD10BD08B502
:1015000000200DF054FCFFF7E3FF00F041F9FFF776
:1015100022FF02F0BBFE7C487C4B7D4A01210090FB
:101520007C4808F004FC45F2555004F0FDFD052010
:1015300004F0FDFD40F6AA2004F0FCFD04F002FEDC
:1015400004F0FBFD08BD7FB502200DF0DBFB0120A0
:101550000DF0D8FB00200DF0D5FB00224FF4165102
:10156000022002F038FF00224FF41651012002F051
:1015700032FF00224FF41651104602F02CFFFFF705
:1015800035FF042003F05FFF684604F0EAFE4FF0E9
:1015900064020198B0FBF2F1B1F1807F00D327E043
:1015A00021F07F40A0F101004FF0E02250614FF0A8
:1015B000FF304FF00F0200280ADA4FEA02734FEAB9
:1015C0001365554B00F00F04A4F104041D5505E00C
:1015D0004FEA02734FEA1364504B1C5400BF4FF0A4
:1015E00000004FF0E02290614FF00700106100BF53
:1015F0000DF0B4FF0EF02CF97FBD024691B1484BBF
:1016000010681B68984202D94FF000001060444BEC
:1016100010681B68181A884204D34148006810609B
:10162000012070470020FCE74FF00004FFF78BFF1C
:10163000FFF765FF00F07DFB00F08FFD01F0A5F8DE
:101640004FF400512F4804F0FEFC364908704FF467
:1016500080512C4804F0F7FC3249097840EA4100F7
:10166000304908700846007800F00300087026E052
:101670004FF47A712C48FFF7C0FF60B100F059FBBE
:101680003C2C05DD00F01BFC00F090FD4FF0000449
:1016900004F10100C4B2C8212448FFF7AEFF10B125
:1016A00000200DF0B8FBFFF7E8FC04F046FD02F067
:1016B00091FC02F061F902F0F5F904F03EFDD7E784
:1016C00010B504461648006820441949086001E036
:1016D00004F033FD16480068114909688842F7D8BC
:1016E00010BD0F48006800F10A000D4908607047FE
:1016F0000B4800687047000078000020940000202C
:1017000080000020000C02402C060020A0060020D3
:10171000F0050020000B002018ED00E000E400E0E0
:10172000740000207C0000208C0000208800002035
:10173000900000201CB50121202004F0A5FE4FF0F0
:10174000010000908DF804004FF000008DF80600B5
:101750004FF001008DF807004FF002008DF80500F2
:101760006946FD4804F0F6FB1CBD1CB50121202094
:1017700004F08AFE4FF000008DF804008DF8070099
:101780004FF0010000906946F34804F0E3FB1CBDF4
:101790001CB50121202004F077FE4FF003000090DB
:1017A0004FF001008DF804004FF000008DF80600A6
:1017B0004FF001008DF807004FF002008DF8050092
:1017C0006946E54804F0C6FB1CBD70B505464FF000
:1017D000000634E00221E04804F057FC4FF000041A
:1017E00002E004F1010084B2A62CFADB15F0800FB0
:1017F00004D00121D84804F046FC03E00121D6487A
:1018000004F043FC4FEA45604FEA10654FF00004D6
:1018100002E004F1010084B2B4F5FA7FF9DB0221A1
:10182000CD4804F030FC4FF0000402E004F1010068
:1018300084B2B4F5FA7FF9DB06F10100C6B2082ED6
:10184000C8DB0221C44804F020FC4FF0000402E091
:1018500004F1010084B2A62CFADB70BD2DE9F04141
:1018600006464FF00101BC4804F00DFC4FF00007A4
:1018700031E00221B84804F008FC4FF0000402E017
:1018800004F1010084B2B4F5FA7FF9DB0221B24819
:1018900004F0F9FB4FF0000402E004F1010084B20F
:1018A000FA2CFADB4FEA45604FEA10654FF0010170
:1018B000A94804F0C8FB10B105F10100C5B24FF012
:1018C000000402E004F1010084B2B4F5FA7FF9DB10
:1018D00007F10100C7B2082FCBDB02219E4804F0BC
:1018E000D4FB35702846BDE8F08110B502219A4836
:1018F00004F0C9FB0121984804F0C5FB4FF0000437
:1019000002E004F1010084B2B4F5FA7FF9DB0121B1
:10191000914804F0BAFB4FF0000402E004F101002A
:1019200084B2B4F5FA7FF9DB02218B4804F0ADFBF9
:101930004FF0000402E004F1010084B2A62CFADBAF
:1019400010BD10B50121844804F09FFB022182489C
:1019500004F099FB4FF0000402E004F1010084B2AE
:10196000B4F5FA7FF9DB01217B4804F08CFB4FF0E2
:10197000000402E004F1010084B2B4F5FA7FF9DB5F
:1019800010BD10B5FFF7D6FE0221734804F07DFBB1
:101990004FF0000402E004F1010084B2B4F5FA7FD4
:1019A000F9DB01216C4804F070FB4FF0000402E009
:1019B00004F1010084B2B4F5FA7FF9DB0221664834
:1019C00004F061FB4FF0000402E004F1010084B276
:1019D000B4F5FA7FF9DB02215F4804F056FB4FF0C3
:1019E000000402E004F1010084B2B4F5FA7FF9DBEF
:1019F000FFF7BBFE10BD10B5FFF79CFE0221564855
:101A000004F043FB4FF0000402E004F1010084B253
:101A1000B4F5FA7FF9DB01214F4804F034FB4FF0B5
:101A2000000402E004F1010084B2B4F5FA7FF9DBAE
:101A30000221494804F027FB4FF0000402E004F1C2
:101A4000010084B2B4F5FA7FF9DB0221424804F0C8
:101A50001CFB4FF0000402E004F1010084B2B4F575
:101A6000FA7FF9DBFFF781FE10BD10B502213A487D
:101A700004F00BFB4FF0000402E004F1010084B21B
:101A8000B4F5FA7FF9DB0121334804F0FCFA4FF09A
:101A9000000402E004F1010084B2B4F5FA7FF9DB3E
:101AA000FFF763FE02212C4804F0EDFA4FF000042A
:101AB00002E004F1010084B2B4F5FA7FF9DB012100
:101AC000254804F0C0FA28B10221234804F0DDFAC9
:101AD000002010BD0221204804F0D7FAFFF72AFEAB
:101AE0000120F6E713B5FFF700FFD020FFF76DFEEA
:101AF000FFF7BBFF0020FFF768FEFFF7B6FF9DF87A
:101B00000000FFF762FEFFF7B0FF9DF80100FFF74E
:101B10005CFEFFF7AAFF9DF80200FFF756FEFFF7F5
:101B2000A4FF0120FFF751FEFFF79FFF9DF8030080
:101B3000FFF74BFEFFF799FF9DF80400FFF745FE06
:101B4000FFF793FF9DF80500FFF73FFEFFF78DFFBE
:101B5000FFF7F7FE1CBD00000014024010B504465C
:101B6000FFF7C3FED020FFF730FEFFF77EFF002017
:101B7000FFF72BFEFFF779FFFFF7B7FED120FFF746
:101B800024FEFFF772FFFFF7F0FD2046FFF766FE29
:101B9000FFF7F7FE601CFFF761FEFFF7F2FEA01CE7
:101BA000FFF75CFEFFF7EDFEE01CFFF757FEFFF7C7
:101BB000E8FEE01CFFF752FEFFF7E3FE201DFFF7F3
:101BC0004DFEFFF7DEFE601DFFF748FEFFF713FF37
:101BD000FFF7B0FDFFF7B5FE10BD03B583B05AA205
:101BE00007CA8DE807009DF80C003B2818DC9DF81B
:101BF0000D003B2814DC9DF80E00172810DC9DF822
:101C000010000C280CDC9DF81000401E1DF8000090
:101C10009DF80F10884203DB9DF81100322802DD89
:101C2000002005B000BD9DF8100002282BD19DF8C2
:101C3000111001F5FA614FF4C87291FBF2F302FB47
:101C40001311B1B19DF8111001F5FA604FEAE0717E
:101C500000EB91714FEAA101B0EB81010BD19DF82E
:101C6000111001F5FA61642291FBF2F302FB1311EA
:101C700009B1012100E0002129B99DF80F101C29AC
:101C800001DD0020CDE70120CBE7F0B502460B4691
:101C90004FF00000044605461946012A18D100BF3E
:101CA00013E00E5C4FF00A0796FBF7F606F00F0400
:101CB0000E5C96FBF7FC07FB1C6606F00F0505EBB8
:101CC00004160E5400F10106F0B20628E9DB13E019
:101CD00092B94FF000000DE00E5C06F00F060F5CAD
:101CE0004FEA271707EB870706EB47060E5400F16C
:101CF0000106F0B20628EFDBF0BD13B5DDE9000107
:101D0000FFF76BFF48B169460120FFF7BEFFDDE931
:101D10000001FFF7E7FE01201CBD0020FCE710B525
:101D200004462046FFF71AFF21460020FFF7ADFFCB
:101D300010BD10B50748FFF7F2FF10BD05490A684E
:101D400002608988818070471F1D1F1E1F1E1F1F74
:101D50001E1F1E1F9800002030B5034614464FF08A
:101D60000002104600BF1EE09D5C4FEA25100A28C5
:101D700003DA00F130050D7002E000F157050D7037
:101D800001F101019D5C05F00F000A2803DA00F162
:101D900030050D7002E000F157050D7001F10101F1
:101DA00002F10105AAB2A242DEDB30BD30B5034626
:101DB00014464FF00000024600BF51E01D5C302D7C
:101DC00008DB1D5C392D05DC1D5C4FEA05754FEA0B
:101DD00015621AE01D5C612D0ADB1D5C7A2D07DCA3
:101DE0001D5CA5F107054FEA05754FEA15620CE089
:101DF0001D5C412D09DB1D5C5A2D06DC1D5CA5F127
:101E000007054FEA05754FEA156200F10105A8B212
:101E10001D5C302D08DB1D5C392D05DC1D5CA5F13A
:101E2000300515440D7016E01D5C612D08DB1D5C4E
:101E30007A2D05DC1D5CA5F1570515440D700AE0EF
:101E40001D5C412D07DB1D5C5A2D04DC1D5CA5F1DA
:101E5000370515440D7001F1010100F10105A8B22B
:101E6000A042ABDB30BD10B54FF00100FE49086069
:101E70004FF00000087188714FF0030048714FF077
:101E80000000C871F94804F065F84FF00200F64907
:101E900008604FF00100C871F44804F05BF810BD11
:101EA00010B50221F14804F0CEF810BD10B50121A3
:101EB000EE4804F0C8F810BDED480078704730B522
:101EC0008BB04FF000000090019004460546FFF7EC
:101ED000F3FF08B90BB030BD02A8FFF72FFF9DF844
:101EE0000D004FF00A0190FBF1F000F13000C0B29C
:101EF0008DF800009DF80D0090FBF1F201FB12003F
:101F000000F13000C0B28DF801009DF80C0090FB8C
:101F1000F1F000F13000C0B28DF802009DF80C0025
:101F200090FBF1F201FB120000F13000C0B28DF81D
:101F300003009DF80B0090FBF1F000F13000C0B2FF
:101F40008DF804009DF80B0090FBF1F201FB1200EC
:101F500000F13000C0B28DF80500C648C0789DF889
:101F60000B10884259D0694604A807F087FA054645
:101F7000052D2BD1684607F05DFC00284DD1BE48E9
:101F800000990160BDF804108180BA48029901608F
:101F9000BDF80C1081804FF0000414E0C4EB041174
:101FA000B64A02EB41000622B3490DF0F0FDC4EB46
:101FB0000411B34A02EB41000622AF490DF0E7FDE0
:101FC00004F10100C4B2032CE8DB26E02DBBAA48D3
:101FD00000990160BDF804108180A6480299016053
:101FE000BDF80C1081804FF0000414E0C4EB041124
:101FF000A24A02EB410006229F490DF0C8FDC4EB46
:1020000004119F4A02EB410006229B490DF0BFFDDF
:1020100004F10100C4B2032CE8DB00BF5AE730B57D
:102020008BB04FF00000009001900446054602A8D6
:10203000FFF784FE9DF80D004FF00A0190FBF1F0D0
:1020400000F13000C0B28DF800009DF80D0090FB4B
:10205000F1F201FB120000F13000C0B28DF8010076
:102060009DF80C0090FBF1F000F13000C0B28DF84B
:1020700002009DF80C0090FBF1F201FB120000F150
:102080003000C0B28DF803009DF80B0090FBF1F01A
:1020900000F13000C0B28DF804009DF80B0090FBF9
:1020A000F1F201FB120000F13000C0B28DF8050022
:1020B000704802990160BDF80C108180694604A83F
:1020C00007F0DCF90546052D24D1684607F0B2FB80
:1020D000002840D1684800990160BDF80410818053
:1020E00000BF14E0C4EB0411644A02EB4100062275
:1020F00061490DF04CFDC4EB0411614A02EB410053
:1021000006225D490DF043FD04F10100C4B2032C29
:10211000E8DB20E0FDB9584800990160BDF80410E3
:1021200081804FF0000414E0C4EB0411534A02EB29
:102130004100062250490DF02AFDC4EB0411504A1B
:1021400002EB410006224C490DF021FD04F1010093
:10215000C4B2032CE8DB0BB030BD10B54FF0000467
:10216000FFF781FE0120FFF7ABFA46A142480DF0D0
:10217000F5FBFFF79BFE00B110BD4FF4806101201D
:102180000DF04BFB41494863002006F063FC044618
:1021900024B13E49486B0DF00CFAEDE7FFF73FFF25
:1021A0004FF001003249087000BFE5E710B54FF06D
:1021B0000004FFF77BFE70B12D48007828B30021A2
:1021C000084606F047FC3149486B0DF0F2F920460D
:1021D0002749087019E026480078B0B94FF48061AB
:1021E00001200DF01AFB29494863002006F032FC5B
:1021F000044624B12549486B0DF0DBF910BDFFF70B
:102200000EFF4FF001001A49087000BFF6E710B545
:102210008EB00446214607A807F030F9002852D1B5
:102220004BE09DF80D0008B90EB010BD18A10DF1DE
:102230000D000DF0D7FC28B116A10DF10D000DF029
:10224000D1FC00B939E09DF80C00102830D110A164
:102250000DF10D000DF0C6FC28B10EA10DF10D0021
:102260000DF0C0FCC0B928E058010020000C02406D
:10227000540100206001002066010020A000002021
:10228000FA00002031333031303100003833002083
:102290002E0000002E2E00000DF10D0006F027FF8D
:1022A000AFF21400FFF7B3FFAFF2180006F01FFF04
:1022B0000DF10D0007F055FA00BF01A907A807F0BE
:1022C00019F90028ADD000BFAEE730B587B004469D
:1022D0004FF0000501A9204607F03AF9054615B16F
:1022E000002007B030BD9DF80C0010280FD120460B
:1022F00006F0FDFE70B9AFF26800FFF788FFAFF29D
:102300006C0006F0F4FE204607F02BFA02E02046AF
:1023100007F027FA0020E4E770B590B004460D46B8
:102320004FF000000F900646CDF838D04FF4807182
:102330004FF001000DF071FA0D900EAA0FA9F9A04F
:1023400007F025F906462EB10D980DF032F9002060
:1023500010B070BD0E9880780F9948434FEA500036
:1023600028600E98C069A0F102000E99897800FBE0
:1023700001F04FEA500020600D980DF01AF901208D
:10238000E6E730B58DB005464FF00004294606A8B3
:1023900007F074F810B100200DB030BD27E09DF8B3
:1023A000090000B929E0AFF218110DF109000DF094
:1023B00019FC30B1AFF224110DF109000DF012FC3F
:1023C00000B914E09DF8080010280DD10DF10900A6
:1023D00006F08DFEAFF24810FFF7D3FF0444AFF2D2
:1023E0004C1006F084FE01E00098044400BF6946EA
:1023F00006A807F07FF80028D1D000BF2046CBE721
:1024000070B5ADF5167D04460D464FF00000819085
:1024100080904FF4007168460DF092FB4FF000067B
:1024200015B90DF5167D70BD4FF4806101200DF0DA
:10243000F4F995904FF4806101200DF0EEF98B9046
:10244000012221468CA806F01AFB064636B18B986D
:102450000DF0AFF895980DF0ACF8E2E70A22B2A1C2
:1024600082A806F00CFB06464EB18CA806F02AFEA8
:102470008B980DF09EF895980DF09BF8D1E72946C2
:102480008CA806F019FF06464FF0000182A806F05E
:1024900013FF06464FF40070819010E081AB4FF4BB
:1024A000007269468CA806F0A8FB00B10BE080AB77
:1024B000694682A8819A06F094FC00B103E08198F5
:1024C000B0F5007FEAD000BF82A806F0FBFD8CA823
:1024D00006F0F8FD8B980DF06CF895980DF069F802
:1024E0002046FFF7F2FE21468FA007F0F7FA00BF63
:1024F00097E770B594B004464FF000052E468DA1C5
:102500000DF10D000DF02AFA86A10DA806F0B6FF18
:1025100008B114B070BD26E09DF8250000B928E090
:10252000AFF294210DF125000DF05CFB30B1AFF25C
:102530009C210DF125000DF055FB00B913E09DF82D
:10254000240010280ED10DF125010DF10D000DF024
:1025500049FB002806DD182207A901A80DF09CFA06
:102560004FF0010600BF07A90DA806F0C3FF002821
:10257000D2D000BF06B9CCE70DF10D00FFF701FF87
:102580000546B5F1487F04D20DF10D00FFF79DFE21
:102590004CE00DF10D0006F0AAFDAFF20C310DA8D4
:1025A00006F06CFF4FF00000019020E09DF8250040
:1025B00000B922E0AFF228310DF125000DF012FB39
:1025C00030B1AFF230310DF125000DF00BFB00B949
:1025D0000DE09DF82400102808D007990198884242
:1025E00004D2182207A901A80DF056FA00BF07A9C6
:1025F0000DA806F07FFF0028D8D000BF4FF00101E2
:10260000019801EB5005B4EB952F06D20198C4EB6D
:10261000902000F101004FEA802529460DF10D00C0
:10262000FFF7EEFEAFF2943006F061FD00BF70E7F9
:1026300030B589B004464FF000052846029001905D
:1026400003A9204606F084FF08B109B030BD01A9F6
:1026500002A8FFF761FE00B9F7E70398B0F1487FE1
:1026600012D90398A0F148750198B0F5484F07D2E8
:1026700001990398C1EB902000F101004FEA8025F9
:1026800029462046FFF7BCFE00BFDEE71CB54FF031
:102690000000019000900446694601A8FFF73CFE47
:1026A00000B91CBD09E00098FFF723FF694601A8A7
:1026B000FFF732FE04F10100C4B20098B0F5484FB4
:1026C00001D2142CEFDB00BFEBE72DE9F0418CB019
:1026D0000746884614464FF0000614B117480078A4
:1026E00010B90CB0BDE8F0813846FFF7A1FFFFF745
:1026F000CDFF4FF4806101200DF08FF80B90122276
:10270000394602A806F0BBF905462DB10622394626
:1027100002A806F0B4F9054695B10B980CF049FFF4
:10272000DFE70000303A00006261636B75702E7461
:1027300078740000393939393939000054010020E2
:1027400002A8059906F0B8FD15E0A01BB0F5007FC2
:102750000ADB01AB4FF40072414602A806F041FBD0
:1027600006F5007086B206E0A21B01AB414602A846
:1027700006F037FB2646A642E7DB02A806F0A2FCDD
:102780000B980CF016FF00BFABE71FB5FEA103C905
:10279000CDE902016846FFF7D1FA0098CDF80A00AA
:1027A000BDF80400ADF80E00082202A9F8A0FFF75A
:1027B0008CFF1FBD0FB585B0F8A30FCBCDE9032368
:1027C000CDE901010598CDF80600BDF81800ADF877
:1027D0000A000798CDF80E00BDF82000ADF81200F1
:1027E000102201A9EAA0FFF770FF09B000BD2DE992
:1027F000F04104460F4615464FF0000604EB442016
:10280000EA4931F81000284486B2B6F5806F3EDB05
:1028100004EB442031F81000C0F5806086B204EB70
:102820004421E24A02EB410101F1020104EB44229E
:10283000DE4B33F8122001EB0200324639460DF030
:10284000E6F804EB4422D94B03EB4202911CC4EBA3
:102850000412D74B03EB42004FF48062FFF735FFC1
:10286000A5EB060004EB4421D04A22F8110004EB4A
:10287000442394463CF8132007EB060104EB442361
:102880000CEB430303F102000DF0C1F81AE004EB76
:102890004421C64A02EB4101891C04EB4422C34B8C
:1028A00033F8122088182A4639460DF0B0F804EBA8
:1028B0004420BE4931F81000284404EB4421BB4AAF
:1028C00022F81100BDE8F0812DE9FF4104460D46D4
:1028D000DDE90A76B748007808B9BDE8FF81012D27
:1028E00041D14FF0680004EB840101EBC411B24AFE
:1028F00002F811009DF8080004EB840101EBC411FB
:1029000002EB410148709DF8091004EB840000EBD4
:10291000C41002EB400081709DF80A1004EB8400A3
:1029200000EBC41002EB4000C1704FF0680004EBF4
:10293000840101EBC41102EB4101087204EB840134
:1029400001EBC41102EB410101F10A0032463946A4
:102950000DF05DF804EB840101EBC411964A02EB23
:1029600041014E7242E0022D40D19DF8080004EB77
:10297000840101EBC411904A02EB410108719DF8FA
:10298000091004EB840000EBC41002EB400041711D
:102990009DF80A1004EB840000EBC41002EB400029
:1029A000817104EB840101EBC41102EB4101CE7192
:1029B00004EB840000EBC41002EB40014FF00A026C
:1029C0002046FFF714FF04EB840000EBC4107A4BA1
:1029D00003EB4000427A04EB840000EBC41003EBED
:1029E000400000F10A012046FFF701FF00BF74E735
:1029F0002DE9F04104460F4615464FF000060DB98B
:102A0000BDE8F08104EB44206C4931F81000284403
:102A1000B0F5806F3EDB04EB442031F81000C0F5C8
:102A2000806086B204EB4421644A02EB410101F16B
:102A3000020104EB4422614B33F8122001EB020047
:102A4000324639460CF0E3FF04EB44225B4B03EBC8
:102A50004202911CC4EB0412594B03EB42004FF4A9
:102A60008062FFF732FEA5EB060004EB4421534AD7
:102A700022F8110004EB442394463CF8132007EBA2
:102A8000060104EB44230CEB430303F102000CF0BA
:102A9000BEFF1AE004EB4421484A02EB4101891CC5
:102AA00004EB4422454B33F8122088182A46394655
:102AB0000CF0ADFF04EB4420404931F810002844ED
:102AC00004EB44213D4A22F8110000BF98E72DE9AC
:102AD000FF5F04468946DDE90E7A4FF00005AB46FC
:102AE0002E46A8463348007808B9BDE8FF9FB9F1E3
:102AF000000F48D14FF0680004EB840101EBC411D2
:102B0000304A02F811009DF8080004EB840101EB43
:102B1000C41102EB410148709DF8091004EB8400D8
:102B200000EBC41002EB400081709DF80A1004EB2A
:102B3000840000EBC41002EB4000C1704FF068004D
:102B400004EB840101EBC41102EB410108724FF068
:102B5000000004EB840101EBC41102EB4101487257
:102B6000554665E09DF8080004EB840101EBC411B3
:102B7000144A02EB410108719DF8091004EB84002E
:102B800000EBC41020E06BE06801000000000000D2
:102B9000303A54696D652E74787400006802000044
:102BA000000000006803000000000000F01000209A
:102BB000A000002054010020F61C0020142000205A
:102BC000FA0000201A2C002002EB400041719DF811
:102BD0000A1004EB840000EBC41002EB400081718A
:102BE0004FF0010004EB840101EBC41102EB410141
:102BF000C8714FF0FF0004EB840101EBC41102EB3C
:102C00004101487204EB840000EBC41002EB400168
:102C10004FF00A022046FFF7EBFEB919FF222046CB
:102C2000FFF7E6FEA5F1FF0085B206F1FF0086B2D0
:102C3000FF2D97DAB91904EB840202EBC412B14BF1
:102C400003EB420202F10A002A460CF0E0FE04EB1C
:102C5000840101EBC411AB4A02EB41014D7211E159
:102C6000B9F1010F7ED1554604EB840000EBC4108E
:102C7000A44901EB400090F8098004EB840000EBCC
:102C8000C41001EB4000407A2844FF286BDB04EBC2
:102C9000840000EBC41001EB4000407A00EB0A0511
:102CA0009DF8080004EB840101EBC411954A02EB86
:102CB000410108719DF8091004EB840000EBC41079
:102CC00002EB400041719DF80A1004EB840000EB18
:102CD000C41002EB400081714FF0010004EB84014D
:102CE00001EBC41102EB4101C8714FF0FF0004EB8E
:102CF000840101EBC41102EB4101487208F10A02A0
:102D000004EB840000EBC4107E4B03EB4001204633
:102D1000FFF76EFEC8F1FF0B5A4639462046FFF713
:102D200067FEA5F1FF0085B25E469DF8080004EB42
:102D3000840101EBC411734A02EB410148709DF814
:102D4000091004EB840000EBC41002EB400081701A
:102D50009DF80A1004EB840000EBC41002EB400065
:102D6000C17001E03EE024E04FF000081FE04FF0AA
:102D7000FF0004EB840101EBC411624A02EB410144
:102D8000487204EB840000EBC41002EB40014FF0EA
:102D90000A022046FFF72CFEB919FF222046FFF752
:102DA00027FEA5F1FF0085B206F1FF0086B2FF2DD8
:102DB000DDDAB91904EB840202EBC412514B03EBC8
:102DC00042020A3202EB08002A460CF020FE08EB11
:102DD000050004EB840101EBC4114A4A02EB4101F6
:102DE00048724FE0B9F1020F4CD14FF0010004EBF3
:102DF000840101EBC411434A02EB4101C8719DF803
:102E0000080004EB840101EBC41102EB41010871DD
:102E10009DF8091004EB840000EBC41002EB4000A5
:102E200041719DF80A1004EB840000EBC41002EB22
:102E30004000817104EB840000EBC41002EB400100
:102E40004FF00A022046FFF7D3FD04EB840000EBAD
:102E5000C4102C4B03EB4000427A04EB840000EBDF
:102E6000C41003EB400000F10A012046FFF7C0FD4B
:102E70004FF0000004EB840101EBC411214A02EB86
:102E80004101487200BF30E670B504460D461E4849
:102E9000007800B970BDC5B904EB44231B4E36F869
:102EA000132004EB442306EB4303991CC4EB0413E7
:102EB000174E06EB4300FFF708FC4FF0000004EB51
:102EC0004421124A22F8110019E0012D17D104EB18
:102ED0004423104E36F8132004EB442306EB43033F
:102EE000991CC4EB04130C4E06EB4300FFF7EDFBFB
:102EF0004FF0000004EB4421064A22F8110000BF05
:102F0000C8E700001A2C002054010020F010002017
:102F1000A000002014200020FA000020704700BF0D
:102F2000FEE700BFFEE700BFFEE700BFFEE7704719
:102F30007047704710B5FEF7D4FB10BD10B52021C7
:102F40002A4802F0AFF9012806D1284802F0E3F838
:102F50000446E0B201F05BFA10BD10B52021244810
:102F600002F0A0F9012806D1214802F0D4F8044665
:102F7000E0B201F060FA10BD10B520211D4802F04A
:102F800091F9012806D11B4802F0C5F80446E0B2C9
:102F900001F065FA10BD10B50BF06DFD10BD10B558
:102FA0004FF4004002F0E0FC30B1134809F014F88F
:102FB0004FF4004002F0EBFC10BD10B50E48807AD3
:102FC00050B10E48006820F006000C49086000F07F
:102FD0006CF8094809F03BF84FF4802002F0D7FC68
:102FE00010BD10B5044807F0EDFF10BD0010014002
:102FF0000044004000480040000B002010ED00E0BD
:103000004FF000010846674A126842F48032654B6F
:103010001A6000BF634A126802F4003001F1010136
:1030200010B9B1F5A06FF5D15E4A126812F4003FF5
:1030300002D04FF0010001E04FF00000012833D131
:10304000594A1268584B1A601A46126842F40042F4
:103050001A601A46126842F4A0521A60534AA3F149
:1030600004031A604F4A126842F080724D4B1A6096
:1030700000BF4C4A126812F0007FFAD040F203728F
:103080004B4B1A60484A126822F00302464B1A6002
:103090001A46126842F002021A6000BF424A1268E1
:1030A00002F00C02082AF9D1704710B53D480068BB
:1030B00040F001003B4908604FF000003A490860C9
:1030C000384800683B4900EA0100364908603A4840
:1030D00001F1040108603348006820F48020314980
:1030E00008604FF0000035490860FFF789FF4FF096
:1030F00000603349086010BD70B54FF00000024613
:103100004FF0020304464FF00201274D2D6805F0F1
:103110000C0020B1042806D0082831D107E0294D41
:10312000294E356030E0294D274E35602CE0284D82
:103130002D68C5F38054264D2D6805F03F014CB134
:10314000224DB5FBF1F5224E3668C6F3881605FB15
:1031500006F208E01B4DB5FBF1F51D4E3668C6F3CF
:10316000881605FB06F21A4D2D68C5F3014505F1D9
:1031700001054FEA4503B2FBF3F5134E356003E05A
:10318000104D114E356000BF00BF074D2D68C5F3CF
:103190000315104E705D0C4D2D6825FA00F50A4E92
:1031A000356070BD0038024008380240193C4005C7
:1031B000003C0240FFFFF6FE103000240C380240B5
:1031C00008ED00E00024F4006C01002040787D014F
:1031D000043802407001002038B50446F8A00068A9
:1031E000009004F10200C0B28DF80100F54800998A
:1031F00001602246F44900F104000CF008FCF1499A
:10320000201D0A18E01C81B2EE48FDF75BF84FF074
:103210007E01EC4A04F10500115404F1060081B26C
:10322000104601F03FFC38BD10B541F28831E74847
:10323000FEF7E3F908B1012010BD0020FCE71FB53F
:10324000044602A8FEF77AFD012C50D1E0488078B0
:1032500001280CD14FF00000DD49887000900190EA
:103260004FF002010846DDE90223FFF730FCD648A3
:10327000801E0288811CD7480CF044FB60B34FF4D9
:103280008072D149D3480CF0C2FBD148407880B15C
:103290004FF00000CE4948700846C0784FF000015A
:1032A000CDE900104FF002010846DDE90223FFF7E7
:1032B0000BFBC548801E0088C349CDE900100121E1
:1032C0000220DDE90223FFF7FFFA4FF00000C049BA
:1032D000C8704FF001004870BD48C07880422BD0C4
:1032E000BB48C07800F10100B949C87024E0022C45
:1032F00022D1B748807898B94FF00100B44988705E
:10330000B148A0F102000088AF49CDE900104FF0AC
:1033100000014FF00200DDE90223FFF7D8FB0BE0CC
:10332000A948801E0088A849CDE90010012102208B
:10333000DDE90223FFF7CBFB1FBD38B54FF00004DA
:10334000254620460090A248407920B19E49891E1A
:103350000888FFF741FF9C48801E80789E4988704E
:103360004FF001052C4635E09748015D9A48801CD6
:1033700041559548005D7E2826D19348611C405CEC
:10338000802809D14FF07E01934800F10200415599
:1033900004F1010084B217E08B48611C405C812875
:1033A00009D14FF07F018C4800F10200415504F132
:1033B000010084B208E04FF000008349A1F102014E
:1033C00008808549088038BD05F1010085B204F107
:1033D000010084B27C48801E0088401EA042C3DCED
:1033E0007D4805800088801E81B26A467A48C01CEC
:1033F000FCF768FF78480088401E7749891C085C04
:103400009DF80010884201D10120DCE74FF0000058
:10341000714908806C49A1F10201088000BFD2E720
:1034200038B54FF000042046009061E004F101003F
:1034300084B24FF0010066490871FEF759F96449FA
:10344000C8609DF800007E282ED15F48801E00884D
:1034500007281BD35C48801E0088B0F5007F15DA72
:103460009DF800105848801E0288801C8154801EE0
:10347000008800F101005449A1F1020108804FF0D9
:10348000000056490870FFF758FF38BD4FF00100A3
:103490004D49A1F1020108804FF07E0088704FF085
:1034A00001004E49087023E04C48007848B94FF0BD
:1034B00001004549A1F1020108809DF800008870D3
:1034C00016E09DF800104048801E0288801C815440
:1034D000801E008800F101003B49A1F10201088033
:1034E00008460088B0F5007F02DB4FF0000008803E
:1034F00001226946104601F0B3F9012802D1B4F562
:10350000007F93DB0020C0E72DE9FF4FADF5037D81
:1035100080468946924601AE4FF000078DF805803F
:103520008DF8069038468DF807004FF0AC008DF806
:1035300008009DF809006AF303008DF809009DF862
:10354000090020F010008DF809009DF8090020F016
:10355000E0008DF8090090988DF80A009DF80A00A7
:10356000FF2803DB4FF0FF008DF80A009DF80A20CA
:103570000DF10B0086990CF04AFA194D194C9DF883
:103580000A0000F1070B4FF0000020804FF07E0191
:10359000228802F101002080A95441E030787E2881
:1035A00022D14FF07F01228802F101002080A9542E
:1035B0004FF08001228802F101002080A9542AE006
:1035C0007E3709041B3B0020723600208C0100204E
:1035D000743A0020703300207238002098010020D7
:1035E000703400208001002030787F280DD1014602
:1035F000228802F101002080A9544FF08101228825
:1036000002F101002080A95405E03178228802F1FE
:1036100001002080A95430783844C7B206F1010671
:103620005FEA0B00ABF101011FFA81FBB6D1C7F1D4
:103630005500C7B27E2F0ED14FF07F01228802F1D4
:1036400001002080A9544FF08001228802F101007E
:103650002080A95414E07F2F0DD13946228802F131
:1036600001002080A9544FF08101228802F101005D
:103670002080A95404E0218801F1010020806F54CA
:103680004FF07E01228802F101002080A9544FF002
:1036900001000DF5077DBDE8F08F08B5012000F0B1
:1036A0001FFC1420FEF70CF87048407B10F0180F38
:1036B00003D04FF003006E4908706D480078D8B110
:1036C0006B480078A0F101006949087067480088DC
:1036D000C0B20090674800680179644B03F10203AF
:1036E0004FF000021046FFF70FFF6348028863495E
:1036F000012001F033F910E0002000905D480068DF
:1037000001795A4B9B1C08220020FFF7FDFE5A4806
:1037100002885A49012001F021F96420FDF7D0FF09
:10372000012000F0D5FB08BD1FB502A8FEF706FB7F
:103730005348007810B341F288315248FDF75DFFDD
:10374000E0B15148407888B14FF000004E494870D0
:10375000009001904FF002010846DDE90223FFF7D7
:10376000B3F84FF4807149480CF0EAF900210220C7
:10377000FFF78AFB4FF0000041490870424800798A
:10378000F0B141F2883140480C30FDF736FFB8B156
:103790003D48807860B14FF000003B498870009050
:1037A00001904FF002010846DDE90223FFF78FF98F
:1037B00001210220FFF768FB4FF000003249087139
:1037C0004FF496713248FDF718FF10B1012000F058
:1037D0007FFBFFF725FE01283FD129490870FDF73F
:1037E00087FF28490860234800688078AC2830D1DA
:1037F0000120FFF724FD00F076FD30B94FF0000006
:1038000024490880244908801FBD1A48006840796F
:10381000C0F3030020B1022812D0082817D117E006
:1038200014480068827913480168C91D1B480CF0D0
:10383000EEF81048006880791849891E088007E072
:10384000FFF72BFFFDF754FF1149086000E000BFB0
:1038500000BF4FF000000F49088000BFD4E70848C0
:1038600000787047084948717047000020400020E8
:10387000AE0500208401002080010020703400206B
:10388000880100208C010020743A00207033002051
:10389000940100207036002072380020244100205E
:1038A00070B502460C464FF0000013460DE0C0F321
:1038B00007214FEA00201D7885EA0105FE4E56F8E3
:1038C000255085EA000003F101032500A4F101045D
:1038D000EDD170BD38B50446F8A00068009004F141
:1038E0000200C0B28DF80100F5480099016022463F
:1038F000F44900F104000CF08AF8F149201D0A187F
:10390000E01C81B2EE48401CFCF7DCFC4FF07E016D
:10391000EB4A04F10500115404F1060081B210468F
:1039200001F0C0F838BD38B50446E7A00068009043
:1039300004F10200C0B28DF80100E1480099016075
:103940002246E24900F104000CF061F8DC49201D38
:103950000A18E01C81B2DA48401CFCF7B3FC4FF0B7
:103960007E01D74A04F10500115404F1060081B22A
:10397000104601F097F838BD10B5FFF7D5FE10BD21
:1039800010B5C821D248FDF738FEB8B1D14800784B
:1039900078B1D148007888B1D0480288811C0020D5
:1039A00000F0DCFFCC480078A0F10100CA490870A3
:1039B00004E03522CA49002000F0D0FF10BD7FB5D9
:1039C00005460C4602A8FEF7B9F9012D4BD1C548B2
:1039D000807801280DD14FF00000C2498870009016
:1039E00001904FF002014FF00100DDE90223FFF7E3
:1039F0006EF85722B5490931BB480BF083FF38B345
:103A00005722B2490931B8480CF001F8B54840785E
:103A100070B1B448C0780021CDE900100221012026
:103A2000DDE90223FEF750FF4FF00000AD4948707A
:103A3000A648CDE9000401210846DDE90223FEF78E
:103A400043FF4FF00000A749C8704FF001004870D5
:103A5000A448C078FF2824D0A248C07800F1010013
:103A6000A049C8701DE0022D1BD19E48807878B90E
:103A70004FF001009B4988709448CDE900044FF055
:103A800000014FF00100DDE90223FFF720F808E014
:103A90008E48CDE9000401210846DDE90223FFF745
:103AA00016F87FBD2DE9FF5F4FF00007B846B94615
:103AB000BA463C46A346264602A8FEF73FF9FFF762
:103AC0005FFF8848007900B341F2883185480C30A7
:103AD000FDF793FDC8B18348807801280DD14FF0E0
:103AE000000080498870009001904FF002014FF073
:103AF0000100DDE90223FEF7EAFF01210846FFF796
:103B0000C3F94FF00000774908717648007828B370
:103B100041F2883173480830FDF76FFDF0B171480C
:103B2000407898B16F48C0780021CDE9001002219B
:103B30000120DDE90223FEF7C7FE4FF000006949CE
:103B400048704FF0570168480BF0D8FF0021012062
:103B5000FFF79AF94FF0000062490870002000F06A
:103B6000ECFC0446002C04DC5848801E0088002829
:103B700073DD00BF2EE05548801E00882044B0F55C
:103B8000807F05DB5148801E0088C0F5807084B2BC
:103B90004E48801E0288801C11182246002000F02A
:103BA0005FFE83464948A0F1020000885844474917
:103BB000A1F1020108804FF00100FDF781FD002016
:103BC00000F0BBFC0446FDF793FD4649C8604FF08A
:103BD0000100087124B13D48801E0088FF28CADD1D
:103BE000DEE009F1010000F0FF093848A0F1020011
:103BF00002884FF0FF0135480BF0F3FE054665B92A
:103C00003248801E01880220FFF7D9FE4FF00000E5
:103C10002E49A1F102010880C8E02C48A5EB000064
:103C200086B22A48A0F102000088A0EB06002749CE
:103C3000A1F1020108801EB131460220FFF7BFFE4C
:103C40002248801E0288801C81190BF0E0FE1F486C
:103C5000801E0088622801DAA8E0B5E01B48801EBB
:103C60000079572814D001210220FFF7A8FE174839
:103C7000801E0088A0F101001449A1F10201088012
:103C80000846028800F1030110480BF0C0FE87E0EF
:103C90000E48801E90F80980807A40EA08280B4878
:103CA000A0F1020090F8627090F8630040EA0727E4
:103CB0004FF00701054819E09C0100207E370802FB
:103CC0001B3B00201E3C00207E370803203E0020C6
:103CD000E405002024420020AE0500202040002002
:103CE000AF05002034420020B93A0020FFF7D8FD8C
:103CF00080B240453ED15721FE48FFF7D1FD80B24A
:103D0000B84237D1FC48407910B16220FFF70BFE72
:103D10004FF00100F8490870FDF7EAFCF6498860A9
:103D20004FF06200F54908800246F249A1F109010D
:103D3000F24800F102000BF06AFE4FF0010A4FF06A
:103D400062014FF00100FFF73AFEEA480B380088A5
:103D5000A0F16200E749A1F10B0108800846028842
:103D600000F1640100F102000BF051FE012004B0EB
:103D7000BDE8F09F03210220FFF721FEDD480B384C
:103D80000088A0F10300DB49A1F10B01088008467F
:103D9000028800F1050100F102000BF038FE00BFBF
:103DA000D4480B3800886228BFF61BAF00BF002044
:103DB00000F0C3FB0446002C06DDB9F1030F03DA63
:103DC000BAF1000F3FF4D6AE0020D0E77FB505462C
:103DD0000C464FF0000602A8FDF7B0FF012D56D1AA
:103DE000C748807801280BD14FF00000C449887083
:103DF000009001904FF00201DDE90223FEF767FE1B
:103E0000C048C67C4FF00001C1744FF02A0200F197
:103E10000B01BD480BF076FD60B32A22B9490B3186
:103E2000B9480BF0F4FD4FF00300B8490870B448EE
:103E3000407870B1B248C0780021CDE9001002216D
:103E40000020DDE90223FEF73FFD4FF00000AC4902
:103E50004870AC48801CCDE9000401210020DDE958
:103E60000223FEF731FD4FF00100A54948704FF0E5
:103E70000000C870A348C674A148C078FF2826D0A7
:103E80009F48C07800F101009D49C8701FE0022DD5
:103E90001DD19B48807880B94FF001009849887007
:103EA000984800F10200CDE900044FF000010846F7
:103EB000DDE90223FEF70BFE09E09248801CCDE904
:103EC000000401210020DDE90223FEF700FE7FBD92
:103ED0008F4931F810108F4A52F8202051837047D3
:103EE0008B4931F810108B4A52F82020118370470B
:103EF00010B54FF000048248407910B13520FFF72B
:103F0000E9FC35210120FFF761FF7D48007830B9D9
:103F10007C48807B40F020017A48817305E0794835
:103F2000807B20F02001774881737B48007830B98E
:103F30007448807B40F040017248817305E071480D
:103F4000807B20F040016F4881737448007801281D
:103F500006D16C48807B20F080016A48817309E0BB
:103F60006E480078022805D16648807B40F08001C9
:103F7000644881734FF000016248C1744FF02A0118
:103F800000F10B00FFF78CFC84B24FEA14215D486E
:103F900080F8351080F836404FF0350200F102010C
:103FA0005F480BF034FD4FF035005D49A1F102018F
:103FB00008804FF00200FFF793FF50480288811CF1
:103FC000022000F0CBFC3220FDF77AFB0220FFF745
:103FD0007FFF10BD2DE9FF5F4FF00007B846B946DF
:103FE000BA463C46A346264602A8FDF7A7FE44482B
:103FF0000079F0B141F2883141480C30FDF7FDFA0B
:10400000B8B13F48807801280BD14FF000003C49FF
:104010008870009001904FF00201DDE90223FEF765
:1040200056FD01210020FEF72FFF4FF0000034491C
:1040300008713348007828B341F28831304808309D
:10404000FDF7DBFAF0B12E48407898B12C48C078E3
:104050000021CDE9001002210020DDE90223FEF756
:1040600033FC4FF00000264948704FF02A012648E3
:104070000BF066FD00210846FEF706FF4FF000003A
:104080001F490870022000F058FA0446002C03DC97
:104090001C48008800287BDD00BF27E01948008805
:1040A0002044B0F5807F04DB16480088C0F580709E
:1040B00084B214480288801C11182246022000F0A5
:1040C000CFFB83460F48008858440E4908804FF0C4
:1040D0000100FDF7F5FA022000F02FFA0446FDF783
:1040E00007FB0749C8604FF001000871E4B10548BB
:1040F000008817E0293E00203442002022410020A1
:10410000244200201C3C0020843A0020AE05002000
:10411000A80500209C050020880100207C000020CC
:1041200022400020FF28B9DD99E009F1010000F0EC
:10413000FF09714802884FF0FF0100F102000BF007
:1041400050FC05464DB96C4801880220FFF73EFE41
:104150004FF000006849088086E06748801CA5EBA6
:10416000000086B264480088A0EB0600624908801F
:104170004EB131460220FFF729FE5F480288801CBD
:1041800081190BF044FC5C480088352801DA6BE0AB
:1041900078E0594800792A2812D001210220FFF73F
:1041A00015FE55480088A0F10100534908800846D3
:1041B000028800F1030100F102000BF028FC4EE040
:1041C0004D48477A807A40EA07274B4890F8358077
:1041D00090F8360040EA08284FF00701464800F101
:1041E0000200FFF75DFB80B2B84225D12A21424888
:1041F0000B30FFF755FB80B240451DD14FF0030057
:104200003E490870FDF774FA3D498860FFF770FE7B
:104210004FF0010A50463A49087037480088A0F12B
:104220003500354908800846028800F1370100F161
:1042300002000BF0ECFB11E003210220FFF7C6FDAA
:104240002D480088A0F103002B4908800846028809
:1042500000F1050100F102000BF0D9FB00BF264878
:1042600000883528BFF661AF00BF022000F065F975
:104270000446002C06DDB9F1030F03DABAF1000F92
:104280003FF40BAF002004B0BDE8F09F1CB5012146
:10429000182002F0F9F84FF001008DF804004FF0FB
:1042A00000008DF806004FF001008DF807004FF078
:1042B00002008DF805004FF001000090694611489A
:1042C00001F048FE4FF49060009069460E4801F0FE
:1042D00041FE0220FFF7FCFD0120FFF7F9FD1CBDA8
:1042E0000A480078704706480078704704494871CA
:1042F00070470649487170471C3C0020AE050020FD
:104300002442002000100240000C024034420020F1
:104310007FB505460C4600954FF00000ADF804004F
:10432000ADF80600ADF80840ADF80C004FF00C00F9
:10433000ADF80A006946F84800F018FE0121F64879
:1043400000F0B7FE012240F22551F34800F07EFF55
:104350007FBD7FB505460C4600954FF00000ADF8D7
:104360000400ADF80600ADF80840ADF80C004FF0C1
:104370000C00ADF80A006946E84800F0F7FD01219D
:10438000E64800F096FE012240F22551E34800F095
:104390005DFF7FBD7FB505460C4600954FF00000E0
:1043A000ADF80400ADF80600ADF80840ADF80C001B
:1043B0004FF00C00ADF80A006946D94800F0D6FD70
:1043C0000121D74800F075FE012240F22551D44862
:1043D00000F03CFF7FBD70B506460C46154626B181
:1043E000012E07D0022E0FD109E029462046FFF703
:1043F0008FFF0AE029462046FFF7ABFF05E029467C
:104400002046FFF7C7FF00E000BF00BF70BDC549F1
:104410000A88098801F10101C24B198003F10401E6
:10442000885419460988B1F5007F03DB4FF000017D
:104430001A4611807047BC490A88098801F10101B8
:10444000B94B198003F10401885419460988B1F564
:10445000007F03DB4FF000011A4611807047B3491B
:104460000A88098801F10101B04B198003F10401A8
:10447000885419460988B1F5007F03DB4FF000012D
:104480001A461180704730B505460C4625B1012DFE
:1044900006D0022D0CD107E02046FFF7B8FF08E058
:1044A0002046FFF7C8FF04E02046FFF7D8FF00E0F2
:1044B00000BF00BF30BD9B4840889A4909888842A8
:1044C00006DC9848008897494988401A80B27047AE
:1044D0009448008800F5007092494988401A80B2DB
:1044E000F5E79148408890490988884206DC8E4863
:1044F00000888D494988401A80B270478A480088F0
:1045000000F5007088494988401A80B2F5E787486D
:10451000408886490988884206DC844800888349A7
:104520004988401A80B270478048008800F50070C2
:104530007E494988401A80B2F5E700B502464FF03F
:10454000000322B1012A06D0022A0CD107E0FFF7AE
:10455000B2FF034608E0FFF7C4FF034604E0FFF79D
:10456000D6FF034600E000BF00BF184600BD70B58F
:1045700006460D464FF000040EB9002070BD694894
:10458000408868490988884201D10020F6E76548DB
:1045900040886449098888421CDA62480088614979
:1045A0004988A0EB010084B2A54201DA284600E068
:1045B000204604465B48428800F1040002EB0001FB
:1045C000224630460BF023FA56484088204455498D
:1045D00048803DE053484088C0F5007084B2A54251
:1045E0000EDC50484288001D11182A4630460BF058
:1045F0000EFA4C48408828444A4948802846BDE77E
:1046000048484288001D1118224630460BF0FFF939
:10461000444800882044A8420BDB2A1B301941493A
:10462000091D0BF0F4F9A5EB04003E49488028462B
:10463000A4E73C490A883019091D0BF0E8F939480C
:1046400000883849488008460088204480B295E7B1
:10465000204693E770B506460D464FF000040EB9AC
:10466000002070BD304840882F490988884201D118
:104670000020F6E72C4840882B49098888421CDA3C
:104680002948008828494988A0EB010084B2A54246
:1046900001DA284600E0204604462348428800F11B
:1046A000040002EB0001224630460BF0B0F91E4830
:1046B000408820441C49488049E01B484088C0F598
:1046C000007084B2A5420EDC17484288001D111804
:1046D0002A4630460BF09BF913484088284412497B
:1046E00048802846BDE710484288001D1118224620
:1046F00030460BF08CF90C4800882044A84217DBA8
:104700002A1B30190849091D0BF081F9A5EB04009B
:10471000054948802846A4E70010014000440040B5
:104720000048004044420020484400204C460020FD
:10473000BE490A883019091D0BF069F9BB48008889
:10474000BA49488008460088204480B289E720465C
:1047500087E770B506460D464FF000040EB90020FD
:1047600070BDB3484088B2490988884201D1002011
:10477000F6E7AF484088AE490988884226DAAC4857
:104780000088AB494988A0EB010084B2A54201DA58
:10479000284600E020460446A548428800F104006F
:1047A00002EB0001224630460BF031F9A048408868
:1047B00020449F49488008464088B0F5007F4DDB83
:1047C00008464088A0F50070488047E09848408837
:1047D000C0F5007084B2A54218DC95484288001DDF
:1047E00011182A4630460BF012F9914840882844A7
:1047F0008F49488008464088B0F5007F04DB0846B2
:104800004088A0F5007048802846A9E7884842887B
:10481000001D1118224630460BF0F9F88448008834
:104820002044A8420BDB2A1B30198149091D0BF0DB
:10483000EEF8A5EB04007E494880284690E77C49C5
:104840000A883019091D0BF0E2F879480088784988
:10485000488008460088204480B281E720467FE7F0
:104860002DE9F04104460D4616464FF0000724B1ED
:10487000012C08D0022C12D10BE031462846FFF75C
:1048800076FE07460CE031462846FFF7E3FE074672
:1048900006E031462846FFF75CFF074600E000BF10
:1048A00000BF3846BDE8F08110B504462146614896
:1048B00000F02DFC00BF80215E4800F0F3FC0028D2
:1048C000F9D010BD10B5044621465B4800F01FFC2E
:1048D00000BF8021584800F0E5FC0028F9D010BD49
:1048E00010B504462146554800F011FC00BF802158
:1048F000524800F0D7FC0028F9D010BD70B505462D
:104900000E464FF0000405E02146621C94B2685C3C
:10491000FFF7CAFFB442F7DB204670BD70B505460D
:104920000E464FF0000405E02146621C94B2685C1C
:10493000FFF7C8FFB442F7DB204670BD70B50546EF
:104940000E464FF0000405E02146621C94B2685CFC
:10495000FFF7C6FFB442F7DB204670BD2DE9F041FA
:1049600005460C4616464FF0000714B90020BDE876
:10497000F08125B1012D08D0022D12D10BE0314676
:104980002046FFF7BBFF07460CE031462046FFF705
:10499000C5FF074606E031462046FFF7CFFF074632
:1049A00000E000BF00BF3846E1E710B50021214814
:1049B00000F07FFB0021204800F07BFB00211F4816
:1049C00000F077FB002240F225511A4800F03EFC2F
:1049D000002240F22551184800F038FC002240F235
:1049E0002551164800F032FC10BD10B501211148C8
:1049F00000F05FFB0121104800F05BFB01210F4834
:104A000000F057FB012240F225510A4800F01EFC3D
:104A1000012240F22551084800F018FC012240F222
:104A20002551064800F012FC10BD0000484400204B
:104A30004C46002000100140004400400048004067
:104A400001463B4800883B4A1288904201D1002031
:104A500070473948364A1288805C087034480088AC
:104A600000F10100324A108010460088B0F5007F46
:104A700002D14FF0000010800120E9E73EB5044666
:104A80004FF000000090019002904FF008008DF868
:104A900000008DF802404FF00A026946274807F0EF
:104AA000C4FE3EBDFEB506460D464FF0000419E0BB
:104AB0004FF000000090019002904FF008008DF838
:104AC000000006EB04000168CDF802104068CDF844
:104AD00006004FF00A026946184807F0A6FE04F1E6
:104AE000080084B2281B0828E2DC281B002815DDFA
:104AF0004FF000000090019002904FF008008DF8F8
:104B00000000A5EB040206EB04010DF102000AF01F
:104B10007EFF0A226946094807F087FEFEBD70B590
:104B200004460D4629462046FFF7BCFF70BD000035
:104B3000EA050020E805002050480020000B002076
:104B400010B586B004464FF00101084601F09CFC08
:104B50004FF4D85004904FF003008DF815004FF03B
:104B600002008DF814004FF000008DF816008DF84B
:104B7000170004A95A4801F0EDF90A220821584803
:104B800001F091FA0A220921554801F08CFA0A2213
:104B90000B21534801F087FA0A220C21504801F0FA
:104BA00082FA4FF4806004904FF001008DF81600F7
:104BB0008DF817004FF003008DF8150004A9484840
:104BC00001F0C8F90A221146454801F06CFA0121AA
:104BD000880301F095FC0121802001F064FC012193
:104BE000080701F0FEFC012102200AF022F94FF42F
:104BF000802000F0CCFE4FF4802002904FF00000A7
:104C00008DF80C004FF008008DF80D004FF00100FA
:104C10008DF80E0002A800F036FE4FF4802000F060
:104C2000B6FE4FF02A008DF804004FF000008DF81A
:104C300005008DF806004FF001008DF8070001A86F
:104C400000F0A6FB4FF4802000F0A1FE4FF40040DE
:104C500000F09DFE06B010BD38B504464FF043008D
:104C60008DF800004FF003008DF801004FF00000B8
:104C70008DF802004FF001008DF80300684600F047
:104C800087FB38BD08B54FF043008DF800004FF0AA
:104C900003008DF801004FF000008DF802008DF840
:104CA0000300684600F074FB08BD10B54FF0000229
:104CB000C0EB00134FEAC3034FF00704B3FBF4F15A
:104CC00000BF531C1A468B4200D910BDF9E710B53E
:104CD00004464FF47A7104FB01F0FFF7E6FF10BDC4
:104CE0000000024002464FF0120008802A48704738
:104CF00002464FF0040008802848704770B505460A
:104D00000C462DB92246264926A005F05BFD04E09D
:104D10002246234928A005F055FD214870BD70B5F5
:104D200005460C4622461E4928A005F04BFD1C48AE
:104D300070BD70B505460C462DB92246184928A00D
:104D400005F040FD04E02246154929A005F03AFD92
:104D5000134870BD70B505460C462DB92246104962
:104D600027A005F02FFD04E022460D4924A005F000
:104D700029FD0B4870BD70B505460C462DB922467D
:104D8000074922A005F01EFD04E0224604491FA0A9
:104D900005F018FD024870BD0C0600202806002012
:104DA000504C00204A6F79737469636B20696E20E0
:104DB0004853206D6F6465004A6F79737469636B43
:104DC00020696E204653204D6F64650053544D6931
:104DD00063726F656C656374726F6E6963730000F4
:104DE000303030303030303030313142000000006F
:104DF000303030303030303030313143000000005E
:104E000048494420436F6E66696700004849442062
:104E1000496E7465726661636500000070B50020BC
:104E200009F0C5FF012009F0C2FF022009F0BFFF11
:104E3000032009F0BCFF234800684FF03002B0FBAC
:104E4000F2F1B1F1807F02D34FF0010028E021F0B0
:104E50007F40A0F101004FF0E02250614FF0FF30A1
:104E60004FF00F0200280ADA4FEA02734FEA136587
:104E7000154B00F00F04A4F104041D5505E04FEAA2
:104E800002734FEA1364114B1C5400BF4FF0000033
:104E90004FF0E02290614FF0070010614FF00000EA
:104EA00008B100BFFEE770BD10B1012802D100E0DB
:104EB00001E000E000BF00BF7047704770477047D7
:104EC000704770476C01002018ED00E000E400E03E
:104ED00010B50446FA48844208D10121102001F09F
:104EE0008FFB0021102001F08BFB3EE0F54884424F
:104EF00009D10121480401F074FB00214FF4003076
:104F000001F06FFB31E0F048844209D101218804AF
:104F100001F067FB00214FF4802001F062FB24E0E8
:104F2000EA48844209D10121C80401F05AFB00215A
:104F30004FF4002001F055FB17E0E548844209D109
:104F40000121080501F04DFB00214FF4801001F014
:104F500048FB0AE0DF48844207D10121202001F00C
:104F60004FFB0021202001F04BFB10BD2DE9FF4736
:104F700005460E464FF00004A14600BFA046B0898A
:104F800000B100BF2C8A24F44054F08840EA0404A5
:104F90002C82AC8941F20C6024EA0004B08831898B
:104FA00040EA0100718940EA010040EA0404AC8152
:104FB000AC8A24F44074B08940EA0404AC826846A8
:104FC00001F0CFF9BE48854202D0C248854202D1E5
:104FD000DDF80C9001E0DDF80890A88910F4004F8E
:104FE00009D009EBC90000EB091031684FEA410113
:104FF000B0FBF1F708E009EBC90000EB09103168DC
:105000004FEA8101B0FBF1F74FF06400B7FBF0F01D
:105010004FEA00144FEA14104FF0640101FB1078BE
:10502000A88910F4004F0AD04FF0320000EBC800FE
:10503000B0FBF1F000F0070040EA04040BE04FF091
:10504000320000EB08104FF06401B0FBF1F000F00B
:105050000F0040EA04042C81BDE8FF874FF416518D
:1050600001604FF000018180C18001814FF00C018F
:1050700041814FF000018181704710B502464FF029
:105080000000108A20F470600B884C8843EA040307
:105090008C8843EA0403CC8843EA040343EA000013
:1050A000108210BD4FF00001018041808180C180DD
:1050B000704721B1828942F40052828105E08289E1
:1050C0004DF6FF7302EA030282817047028B02F4FD
:1050D0007F420283028B42EA01020283704721B1C0
:1050E000828942F40042828103E08289C2F30E0287
:1050F0008281704721B1828A42F40062828205E097
:10510000828A4FF2FF7302EA030282827047C1F380
:1051100008028280704701468888C0F30800704703
:10512000028A4FF6F07302EA03020282028A42EA1E
:1051300001020282704721B1828942F0020282811B
:1051400005E082894FF6FD7302EA0302828170470F
:1051500082894FF2FF7302EA03028281828942EA66
:10516000010282817047028A4FF6DF7302EA03026E
:105170000282028A42EA01020282704721B1028A57
:1051800042F48042028205E0028A4BF6FF7302EA93
:10519000030202827047818941F0010181817047D9
:1051A00021B1828A42F00802828205E0828A4FF6AB
:1051B000F77302EA030282827047028BD2B2028343
:1051C000028B42EA01220283704721B1828A42F0B7
:1051D0002002828205E0828A4FF6DF7302EA030230
:1051E0008282704721B1828A42F01002828205E0F9
:1051F000828A4FF6EF7302EA030282827047828A44
:105200004FF6FB7302EA03028282828A42EA0102BB
:105210008282704721B1828A42F00202828205E0D6
:10522000828A4FF6FD7302EA03028282704710B54C
:1052300022B1838A43EA0103838206E0838A6FEA0C
:105240000104A4B203EA0403838210BDF0B503464F
:105250004FF00004264625462046A1F510676A3F18
:1052600000D100BF1846C1F3421401F01F064FF0F1
:10527000010707FA06F5012C02D100F10C0006E047
:10528000022C02D100F1100001E000F1140022B163
:10529000076847EA0507076003E0076827EA05078C
:1052A0000760F0BD02464FF00000B1F5007F00D16D
:1052B00000BF13880B420FD04FF001000EE000003A
:1052C000001001400044004000480040004C0040F5
:1052D00000500040001401404FF00000704701F4FE
:1052E0000072B2F5007F00D100BF6FEA01020280B8
:1052F000704770B502464FF0000423461D4618461D
:10530000A1F510666A3E00D100BFC1F3421501F05D
:105310001F034FF0010606FA03F3012D03D196890E
:1053200006EA030308E0022D03D1168A06EA030306
:1053300002E0968A06EA03034FEA21244FF00106B1
:1053400006FA04F4168806EA04041BB114B14FF0FF
:10535000010001E04FF0000070BD10B54FF00002F9
:105360001346A1F510646A3C00D100BF4FEA212228
:105370004FF0010404FA02F4A3B26FEA03040480BC
:1053800010BD00003A4940EA01013A4A11607047F5
:1053900070B54FF000010B464FF00F02C4786CB3AC
:1053A000344C246804F4E064C4F5E064C4F30721D9
:1053B000C1F10404E3B242FA01F2447804FA03F4BE
:1053C000E1B2847804EA020444EA01014FEA01747C
:1053D0004FEA1461284C05786155047804F01F05E4
:1053E0004FF0010404FA05F405784FEA65154FF013
:1053F000E02606EB8505C5F800410CE0047804F0D2
:105400001F054FF0010404FA05F41C4D06784FEA1D
:10541000661645F8264070BD194A01EA020242EAC2
:105420000002184B1A60704731B1174A126842EAFD
:105430000002154B1A6005E0134A126822EA0002C6
:10544000114B1A607047042808D14FF0E021096918
:1054500041F004014FF0E022116107E04FF0E0213C
:10546000096921F004014FF0E0221161704700004A
:105470000000FA050CED00E000E400E080E100E04F
:1054800080FFFF1F08ED00E010ED00E0016821F053
:10549000010101604FF00001016041608160C16065
:1054A00001614FF021014161E249884204D14FF08E
:1054B0003D01E14A91607EE0DE491831884204D125
:1054C0004FF47461DC4A916075E0DA49303188420A
:1054D00004D14FF47411D84A91606CE0D549483139
:1054E000884204D14FF07461D34A916063E0D1499E
:1054F0006031884203D1D149CF4AD1605BE0CD49C8
:105500007831884203D1CE49CB4AD16053E0C949B2
:105510009031884203D1CB49C74AD1604BE0C5499D
:10552000A831884204D14FF03D51C34AD16042E0D6
:10553000C549884204D14FF03D01C44A11603AE0A8
:10554000C1491831884204D14FF47461BF4A1160D7
:1055500031E0BD493031884204D14FF47411BB4A67
:10556000116028E0B8494831884204D14FF0746195
:10557000B64A11601FE0B4496031884203D1AF4997
:10558000B34A116017E0B0497831884203D1AC4981
:10559000AF4A11600FE0AC499031884203D1A9496C
:1055A000AB4A116007E0A849A831884203D14FF007
:1055B0003D51A74A1160704710B54FF000020268D4
:1055C000A44B02EA0302CC680B6843EA04034C696B
:1055D00043EA04038C6943EA0403CC6943EA040305
:1055E0000C6A43EA04034C6A43EA04038C6A43EA04
:1055F00004034C6B43EA04038C6B43EA040343EA61
:1056000002020260426922F00702D1E90B3443EA48
:10561000040343EA020242610B6943604B68836002
:105620008B68C36010BD4FF0000101604160816074
:10563000C160016141618161C16101624162816258
:10564000C162016341638163704721B1026842F026
:105650000102026003E0026822F00102026070476A
:1056600021B1026842F40042026003E0026822F4C1
:1056700000420260704721B1026842F020020260DD
:1056800003E0026822F02002026070474160704728
:105690000146486880B2704722B1036843F4002392
:1056A000036003E0036823F4002303600161704793
:1056B00021B1026842F48022026003E0026822F411
:1056C0008022026070470AB1016100E0C16070474A
:1056D00001464FF000000A6812F4002F02D04FF08C
:1056E000010001E04FF00000704701464FF000005C
:1056F0000A6812F0010F02D04FF0010001E04FF0F4
:105700000000704701464FF000004A6902F038007F
:10571000704730B503460A464FF0000004464A4D34
:10572000AB4201D2444900E04B4912F0005F01D086
:105730004C6800E00C68494D04EA0504144202D0AC
:105740004FF0010001E04FF0000030BD02463E4B3B
:105750009A4201D2384800E03F4811F0005F04D07F
:105760003E4B01EA0303C36003E03C4B01EA030341
:105770008360704710B511F0800F09D022B14369E2
:1057800043F08003436103E0436923F080034361F6
:1057900080290DD032B1036801F01E0443EA0403EE
:1057A000036005E0036801F01E0423EA04030360BC
:1057B00010BD70B502464FF0000004460546224E6B
:1057C000B24201D21C4B00E0234B254E314207D0A0
:1057D0004FF01E0606EAD124166806EA040502E028
:1057E000566906F0800511F0005F01D05C6800E0AA
:1057F0001C681A4E04EA06040C4203D015B14FF09F
:10580000010001E04FF0000070BD02460E4B9A42CD
:1058100001D2094800E0104811F0005F04D00F4B9E
:1058200001EA0303C36003E00C4B01EA0303836056
:105830007047000010600240006002403D00002000
:10584000400F002000003D20106402400864024028
:105850000C6402403F801CF0006402407D0F7D0F0D
:105860003C0F3C0F4FF000004A49086001F1040171
:10587000086001F10401086001F104010860464874
:105880004649086070474FF0000142498279002A7A
:1058900040D00A461268036822EA03020B461A60E7
:1058A00001F104021268036822EA030201F1040311
:1058B0001A60027911440A68036842EA03020A6026
:1058C000374A1268036822EA0302354B1A6003F173
:1058D00004021268036822EA0302324B1A6042791A
:1058E000102A0ED12E4A1268036842EA03022C4B9A
:1058F0001A602C4A1268036842EA0302294B1A60B4
:105900000FE02449427911440A68036842EA03021D
:105910000A6006E0027911440A68036822EA030279
:105920000A6070474FF00001016001714FF00C01F7
:1059300041714FF00001817170471B49096841EACC
:105940000001194A1160704701464FF00000134AE8
:1059500012680A4202D04FF0010001E04FF000004F
:1059600070470E490860704701464FF0000002463C
:10597000084B1B6803EA0102084B1B680B4203D06B
:1059800012B14FF0010001E04FF0000070470349F1
:1059900008607047003C0140FFFF7F00143C01405D
:1059A000083C01400C3C0140103C0140F84A10709A
:1059B000704730B1F649096841F48071F44A1160CA
:1059C00005E0F349096821F48071F14A11607047DC
:1059D00030B1EF49096841F40071ED4A116005E00A
:1059E000EB49096821F40071E94A1160704730B150
:1059F000E749096841F48061E54A116005E0E4493E
:105A0000096821F48061E24A11607047E04800684B
:105A100040F40060DE4908607047DD48006840F4EB
:105A20008050DB4908607047D9481030006810F09A
:105A3000004F04D0D748D8490860D848086070475C
:105A4000D748006840F00040D549086070474FF0E3
:105A50000800D449096801F48031B1F5803F02D1D2
:105A60004FF0010019E0CF49096811F0100F02D082
:105A70004FF0050011E0CB49096811F0EF0F02D09B
:105A80004FF0060009E0C749096811F0020F02D083
:105A90004FF0070001E04FF00800704700B54FF0ED
:105AA0000802FFF7D4FF024602E0FFF7D0FF0246EC
:105AB000012AFAD0104600BD70B504460B464FF0DF
:105AC00000064FF0080503B90BE0012B02D14FF49B
:105AD000807606E0022B02D14FF4007601E04FF40D
