:020000040800F2
:10000000E09D00208D020008952F0008972F000822
:100010009B2F00089F2F0008A32F0008000000005E
:10002000000000000000000000000000A72F0008F2
:10003000A92F000800000000AB2F0008AD2F00081A
:10004000A7020008A7020008A7020008A7020008EC
:10005000A7020008A7020008A7020008A7020008DC
:10006000A7020008A7020008A7020008A7020008CC
:10007000A7020008A7020008A7020008A7020008BC
:10008000A7020008A7020008A7020008A7020008AC
:10009000A7020008A7020008A7020008A70200089C
:1000A000A7020008A7020008A7020008A70200088C
:1000B000A7020008A7020008A7020008A70200087C
:1000C000A7020008A7020008A7020008A70200086C
:1000D000A7020008B92F0008E52F0008113000081A
:1000E00045300008A702000861300008A702000898
:1000F000A7020008A7020008A7020008A70200083C
:10010000A70200083D300008A7020008A702000867
:10011000A7020008A7020008A7020008A70200081B
:10012000A7020008A7020008A7020008A70200080B
:10013000A7020008A7020008A7020008A7020008FB
:10014000A7020008A7020008A702000889300008DB
:10015000A7020008A7020008A7020008A7020008DB
:10016000A7020008A7020008A7020008A7020008CB
:10017000A7020008A7020008A7020008A7020008BB
:10018000A702000800F002F800F061F80AA090E869
:10019000000C82448344AAF10107DA4501D100F042
:1001A00056F8AFF2090EBAE80F0013F0010F18BFAE
:1001B000FB1A43F0010318471C0001003C0001003A
:1001C0000A444FF0000C10F8013B13F0070408BF7D
:1001D00010F8014B1D1108BF10F8015B641E05D01B
:1001E00010F8016B641E01F8016BF9D113F0080FD0
:1001F0001EBF10F8014BAD1C0C1B09D16D1E58BF62
:1002000001F801CBFAD505E014F8016B01F8016B98
:100210006D1EF9D59142D6D370470000002300240B
:1002200000250026103A28BF78C1FBD8520728BF06
:1002300030C148BF0B60704764290FF07D840020F7
:1002400070471FB50FF023FF1FBD10B510BD0FF095
:10025000E4FE1146FFF7F5FF01F012FA0FF002FF7E
:1002600003B4FFF7F2FF03BC0FF00AFFEFF30980BE
:10027000704780F309887047EFF30880704780F378
:100280000888704740BA7047C0BA7047094880472D
:1002900009480047FEE7FEE7FEE7FEE7FEE7FEE768
:1002A000FEE7FEE7FEE7FEE704480549054A064B80
:1002B000704700005331000885010008E0970020D6
:1002C000E09D0020E0990020E099002030B5034631
:1002D0000C464FF000010D460BB9002030BD4FF029
:1002E000000105E0585C2844C5B201F1010081B26B
:1002F000A142F7DBC5F1550010704FF00100EDE7AA
:100300007CB505460C46FEA103C9CDE90001012DCF
:100310003BD14FF00000FC490860FC49086060795F
:10032000F9490860A079096840EA0120F6490860A7
:10033000E079096840EA0120F3490860207A0968F9
:1003400040EA0120F049086000F0FEFEF04800F0AD
:1003500085FFEF48EF4908609DF8010000F10101B9
:100360000DF106020DF10100FFF7B0FF082168460C
:1003700004F062FC4FF00000E7490880E74908807C
:100380004FF00100E64908708EE0022D48D1207838
:10039000A0F10400DD4909680844DC4908602078C0
:1003A000A0F1040086B24FEAE67006EB90704FEAC7
:1003B000A00204F10501D74800F06CFFE078D749AE
:1003C00008802079098840EA0120D449088008463D
:1003D0000088A0F10100D0490988884203D04FF07D
:1003E0000000CF490870CD480088CB4908804FF005
:1003F00002008DF80300E0788DF8040020798DF874
:1004000005009DF8010000F101010DF106020DF15A
:100410000100FFF75BFF0821684604F00DFC43E094
:10042000032D41D1012001F077F9B84800688042DE
:100430001ED1BB480078D8B128468DF803004FF094
:100440005A008DF804008DF805009DF8010000F1B8
:1004500001010DF106020DF10100FFF737FF082140
:10046000684604F0E9FB04F0D7FC00F0B9FF17E0A0
:100470004FF003008DF803004FF055008DF8040095
:100480008DF805009DF8010000F101010DF1060253
:100490000DF10100FFF71AFF0821684604F0CCFBBC
:1004A0004FF001009F4908707CBD30B5A1B04FF0FE
:1004B000640108A80FF09AFC4FF000044FF07E0092
:1004C0008DF820004FF002008DF822004FF00F044D
:1004D000224695A10DF123000FF0EFFB04F101007E
:1004E0008DF821009DF8210000F1020008AB00EB1F
:1004F000030204F102010DF12100FFF7E7FE4FF0C6
:100500007E019DF8210000F1030008AA11549DF816
:10051000210000F1040108A804F08EFB4FF02E0426
:10052000224685A10DF123000FF0C7FB04F1010065
:100530008DF821009DF8210000F1020008AB00EBCE
:10054000030204F102010DF12100FFF7BFFE4FF09D
:100550007E019DF8210000F1030008AA11549DF8C6
:10056000210000F1040108A804F066FB01F0EFF897
:1005700005462B467CA21E2168460FF08DFA684680
:100580000FF066FBC4B2224669460DF123000FF05E
:1005900094FB04F10100C0B28DF821009DF8210008
:1005A00000F1020008AB00EB030204F102010DF1BF
:1005B0002100FFF78BFE4FF07E019DF8210000F136
:1005C000030008AA11549DF8210000F1040108A8B5
:1005D00004F032FB21B030BD10B586B0044669A1ED
:1005E00003C9CDE9040120788DF8080060788DF802
:1005F0000900A0788DF80A00E0788DF80B002079CA
:100600008DF80C0060798DF80D00684601F0B5FB9F
:10061000DDE9020101F09FFB68B94FF055008DF84C
:1006200013004FF0F8008DF814004FF0060104A8F5
:1006300004F002FB0EE0012001F06EF801F0A7FBD0
:1006400001F06BFC9DE80F0002F0E6F8062104A81B
:1006500004F0F2FA06B010BD00B585B04BA207CA8F
:100660008DE8070003A801F088FB9DF80C008DF8C9
:1006700003009DF80D008DF804009DF80E008DF824
:1006800005009DF80F008DF806009DF810008DF80C
:1006900007009DF811008DF808000DF109020821EE
:1006A0000DF10100FFF712FE0B21684604F0C4FAB9
:1006B00005B000BD0EB538A207CA8DE8070003F0EB
:1006C0000EFE18B14FF05A008DF8040003F004FE3E
:1006D00018B14FF05A008DF8050003F03EF918B13B
:1006E0004FF05A008DF806000DF107020621501F49
:1006F000FFF7ECFD0921684604F09EFA0EBD0000EC
:100700007E0401015A5A9B7E000000200400002054
:1007100000000408140000200C0000200A00002043
:100720000E000020080000205368656E7A68656E30
:100730002042656948616900415443205368656EF1
:100740005A68656E20506861736520312072656259
:1007500075696C642020323031332D30352D3037BF
:10076000202056312E30000061646472657373205E
:100770006F6620646576696365203D202564200DE1
:100780000A0000007E02065AF37E00007E07070082
:100790000000000000007E007E050801000000004F
:1007A0007E00000010B5FE484079042819D006DC10
:1007B00001280BD002280CD0032822D10DE01228EA
:1007C00013D0132815D014281BD116E0FFF772FFA1
:1007D00018E0012003F086FD14E0012003F085FD00
:1007E00010E0012003F0BFF80CE0002003F07AFDD8
:1007F00008E0002003F079FD04E0002003F0B3F8E6
:1008000000E000BF00BF10BD00B58DB0E5A106A897
:1008100008F0FEFEE8B916E0E3A10DF109000FF0C3
:1008200037FB28B1E1A10DF109000FF031FB00B950
:1008300009E09DF8090008B90DB000BD0DF10900EF
:1008400001F076FD00BF694606A808F01DFF0028EC
:10085000E2D000BFF0E700B587B0D5A30FCBCDE95C
:100860000523CDE903014FF000000290019001A99A
:1008700002A801F084FD18B94FF000000290019029
:1008800002984FEA10608DF8100002984FEA10406D
:100890008DF8110002984FEA10208DF8120002988E
:1008A000C0B28DF8130001984FEA10608DF8140063
:1008B00001984FEA10408DF8150001984FEA10207A
:1008C0008DF816000198C0B28DF8170006AA4FF0F7
:1008D0000B010DF10D00FFF7F9FC0E2103A804F048
:1008E000ABF907B000BD70B5A6B005460C464FF099
:1008F00000064FF07E008DF800004FF009008DF8E3
:1009000002004FF004008DF803004FEA14608DF8E8
:1009100004004FEA14408DF805004FEA14208DF8CA
:100920000600E0B28DF807004FF0320119A808F078
:10093000DCFC19A80FF08CF9032803D0A0A119A89A
:100940000FF0AFF9294619A80FF0ABF919A80FF06D
:100950007FF9C6B2324619A902A80FF06EFA06F165
:100960000600C0B28DF801009DF8010000F1020000
:100970006B4600EB03029DF8010000F101010DF14F
:100980000100FFF7A3FC4FF07E019DF8010000F18C
:1009900003000DF800109DF8010000F10401684605
:1009A00004F04AF926B070BD70B5B4B005464FF0FA
:1009B000000634464FF07E008DF804004FF0090029
:1009C0008DF8060029462DA808F022FE08B134B0A3
:1009D00070BD77E09DF8A50000B979E072A10DF136
:1009E000A5000FF055FA28B170A10DF1A5000FF088
:1009F0004FFA00B966E09DF8A40010285CD14FF0D2
:100A000003008DF807000DF1A50001F0EDFC044690
:100A10004FEA14608DF808004FEA14408DF8090081
:100A20004FEA14208DF80A00E0B28DF80B004FF069
:100A300032011AA808F059FC61A11AA80FF031F987
:100A40000DF1A5011AA80FF02CF91AA80FF000F962
:100A5000C6B232461AA903A80FF0EFF906F1060054
:100A6000C0B28DF805009DF8050000F1020001AB51
:100A700000EB03029DF8050000F101010DF10500F6
:100A8000FFF724FC4FF07E019DF8050000F1030004
:100A900001AA11549DF8050000F1040101A804F019
:100AA000CBF80DF1A50008F0ECFB3FA0FFF77CFFB1
:100AB0003EA008F0E6FB04E00DF1A5002799FFF742
:100AC00012FF00BF27A92DA808F0DEFD002881D065
:100AD00000BF00BF7BE71CB53AA103C9CDE9000107
:100AE00001F00CFA18B14FF05A008DF8050001F032
:100AF0000BFA50B10DF106020521501FFFF7E6FB7E
:100B00000821684604F098F81CBD4FF05A008DF893
:100B100004000DF106024FF005010DF10100FFF791
:100B2000D5FB0821684604F087F8FFF794FE1DA066
:100B3000FFF73AFF4FF07E008DF800004FF00900FC
:100B40008DF802004FF002008DF801004FF0050013
:100B50008DF803004FF045008DF804004FF07E0043
:100B60008DF805004FF00601684604F065F800BFF7
:100B7000CAE72DE9F0439BB004464FF000094D460B
:100B80002E462F46A8464FF0340103A80FF02EF949
:100B90000EA103C9CDE90101E4B91BB0BDE8F083A2
:100BA000B0070020303A00002E0000002E2E00007A
:100BB0007E0A09020000000000000000007E000024
:100BC0002F0000007E0409010000007E7E020A045E
:100BD000457E00004FF4007101200EF0E8FE1A90EF
:100BE0000122214611A808F014F88146B9F1000F3E
:100BF00009D01A980EF0A7FD062101A804F01CF8F0
:100C00001BB0BDE8F0834FF07E00F84908704FF04C
:100C10000A0088704FF00100C8704FF00001F348DF
:100C2000017141714FF0320103A808F05EFB2146CB
:100C300003A80FF036F803A80FF00AF800F0FF0839
:100C4000424603A9E94800F106000FF036F808F122
:100C50000400E649487008464078A0F1010001F11F
:100C6000030300EB03020846407800F10101A3F101
:100C70000200FFF72BFB4FF07E01DC48427800F1C9
:100C800003008154D948407800F10401D74803F0AB
:100C9000D3FF4FF07E00D54908704FF00A008870EE
:100CA0004FF00200C87046E01498A0EB050607F16B
:100CB000010087B2F52E0DD310ABF522CB49891D6B
:100CC00011A808F064F805F1F5054FF0F900C749DF
:100CD00048700BE010AB3246C449891D11A808F0DA
:100CE00056F8149D06F10400C04948704FEA2721C8
:100CF000BE48017147714078A0F10100BB4B03F180
:100D0000030300EB0302B948407800F10101A3F1AD
:100D10000200FFF7DBFA4FF07E01B448427800F1A1
:100D200003008154B148407800F10401AF4803F05A
:100D300083FF05F0CCFA1498A842B5D811A808F0A2
:100D40008BFA1A980EF0FFFC4FF07E00A74908704E
:100D50004FF00A0088704FF00300C8704FF0000198
:100D6000A24801714171424603A900F106000EF04C
:100D7000A4FF08F104009D49487008464078A0F19E
:100D8000010001F1030300EB03020846407800F183
:100D90000101A3F10200FFF799FA4FF07E01934899
:100DA000427800F1030081549048407800F104013A
:100DB0008E4803F041FF00BF22E710B58EB0044615
:100DC000214607A808F024FC08B10EB010BD29E0A8
:100DD0009DF80D0000B92BE0AFF234210DF10D00AC
:100DE0000FF056F830B1AFF23C210DF10D000FF0CD
:100DF0004FF800B916E09DF80C0010280DD10DF148
:100E00000D0008F03EFA60B90DF10D00FFF7D5FFB7
:100E1000AFF2682008F035FA03E00DF10D00FFF79E
:100E2000A8FE00BF01A907A808F02EFC0028CFD01B
:100E300000BF00BFC9E710B5AFF29820FFF7BDFFB4
:100E400010BD10B50446204601F072FA10BD1CB565
:100E5000674903C9CDE900010521684603F0ECFEAE
:100E600000BFFEE710B58AB004464FF0280168467F
:100E70000EF0BCFF0F2C57D2DFE804F056080E111D
:100E8000121314191C1F22353B415400594948794B
:100E9000C91CFFF735FA48E0FFF707FB45E000BF44
:100EA00000BF42E05348401DFFF796FB3DE0FFF7CF
:100EB000D3FB3AE0FFF776FC37E0FFF70CFE34E0B7
:100EC00001F028F870B1282168460EF08FFF4948DC
:100ED000C078421E4749491D68460EF0EEFE68463E
:100EE000FFF747FE21E001F015F808B1FFF7A3FF77
:100EF0001BE001F00FF808B1FFF786FC15E001F0E8
:100F000009F870B1282168460EF070FF3948C078A2
:100F1000421E3849491D68460EF0CFFE6846FFF76D
:100F200090FF02E0FFF793FF00BF00BF0AB010BDC3
:100F300038B54FF000042546204600904FF00105DB
:100F40004FF0010431E02B48801C015D4155005DEC
:100F50007F2824D12748801C611C405C802809D14F
:100F60004FF07E01234800F10200415504F10100D9
:100F700084B214E01F48801C611C405C812809D1A8
:100F80004FF07F011B4800F10200415504F10100C0
:100F900084B204E04FF000001649088038BD05F126
:100FA000010085B204F1010084B212480088401E9D
:100FB000A042C8DC0F4805800088801E81B26A46C6
:100FC0000C48C01CFFF782F90A480088401E0949F6
:100FD000891C085C9DF8001088420DD14FF000007C
:100FE000044908804FF00100D8E70000B209002052
:100FF0009C000108B00700204FF000004D49088018
:1010000000BFCBE708B54FF0000000905AE04A4817
:101010000078E8B19DF800007E2810D19DF800000E
:10102000444988704FF00000434908704FF00100B8
:101030004049088000F088FB4049086042E04FF0DA
:1010400000003C4908804FF001003B49087039E03E
:101050009DF8001037480288008800F10100354BE8
:10106000188003F10200815418460088B0F5007F13
:101070000ADB4FF00000194608804FF001002E49AE
:1010800008704FF0000008BD9DF800007E2819D1BF
:101090004FF47A71294800F0DCFA60B19DF8000045
:1010A000244988704FF00000234908704FF0010078
:1010B0002049088006E04FF001001F490870FFF743
:1010C00037FFE0E7684603F085FD00289FD100BFA9
:1010D000D9E708B54FF000000090FFF793FF012813
:1010E00027D114490879FFF7BDFE00F02DFB0090D1
:1010F0001048007901281CD103F0D7FC4FF0000004
:101100000F4908700AE0FFF77DFF012803D1094964
:101110000879FFF7A7FE0A2000F0FEFA08480078D9
:1011200028B90849684600F094FA0028EBD003F08B
:10113000DCFC08BDB00700200F00002010000020DC
:1011400008000020E093040010B504F037FDF32000
:1011500004F050FF10BD01464FF00000A94A914233
:1011600003D2B1F1006F00D35BE0A74A914205D2F0
:10117000A44A914202D34FF0080052E0A34A9142A0
:1011800005D2A14A914202D34FF0100049E0A04A93
:10119000914205D29D4A914202D34FF0180040E09F
:1011A0009C4A914205D29A4A914202D34FF02000C4
:1011B00037E0994A914205D2964A914202D34FF0C4
:1011C00028002EE0954A914205D2934A914202D3DB
:1011D0004FF0300025E0924A914205D28F4A914269
:1011E00002D34FF038001CE08E4A914205D28C4A5F
:1011F000914202D34FF0400013E08B4A914205D256
:10120000884A914202D34FF048000AE0874A91424F
:1012100005D2854A914202D34FF0500001E04FF0D1
:101220005800704770B506464FF008054FF00004AF
:101230003046FFF790FF05462C4609E00221204684
:1012400004F004FD082801D0012070BD04F1080459
:1012500005F108008442F1D30020F6E770B5064698
:101260004FF008054FF000043046FFF774FF0546C5
:101270002C4609E00221204604F0E8FC082801D0B1
:10128000012070BD04F1080405F108008442F1D387
:101290000020F6E72DE9F04104460E4617464FF0D0
:1012A000000500BF18E056F82510206804F076FD10
:1012B00008280DD12068006856F82510884202D011
:1012C0000220BDE8F081206800F10400206001E008
:1012D0000120F6E705F10105BD4203D2206854491B
:1012E0008842E0D90020ECE710B54FF008044B48E5
:1012F000FFF731FF044604F04CFEE1080841E20824
:1013000040F6FF711141884201D1012010BD00203B
:10131000FCE770B54FF008044FF002053F48FFF7B7
:101320001AFF04464FEAD4014FF0010000FA01F021
:10133000A0F1010040F6FF71A1EB000504F09EFD55
:101340000021284604F0ADFD04F010FE082801D06D
:10135000022070BD0120FCE7F8B54FF00005354EC6
:101360002E4800904FF0000404E0305D2844C5B2E0
:1013700004F10104522CF8D3C5F15500305527482B
:10138000FFF750FF14222B496846FFF783FFF8BD93
:1013900070B5284D284E4FF0000403E0305D28550D
:1013A00004F10104522CF9D3FFF7D6FF70BD70B5DC
:1013B0004FF000051F4EFFF7C7FE53221749304676
:1013C0000EF07BFC2C4604E0305D2844C5B204F1ED
:1013D0000104532CF8D3552D01D0FFF7D9FF70BD70
:1013E00010B50C4840681549086008460068144963
:1013F000086008490868FEF742FF11480068804706
:1014000010BD0000004000080080000800C0000877
:10141000000001080000020800000408000006089F
:101420000000080800000A0800000C0800000E0870
:10143000FBFF0F08B50A00201800002070000020F4
:101440006C00002008B54FF4A06004F065F84FF080
:1014500025008DF800004FF000008DF801008DF898
:1014600002004FF001008DF80300684604F05AF8BE
:101470004FF026008DF800004FF000008DF80100BD
:101480004FF001008DF802008DF80300684604F06B
:1014900049F84FF027008DF800004FF000008DF85C
:1014A00001004FF002008DF802004FF001008DF8AE
:1014B0000300684604F036F84FF031008DF8000064
:1014C0004FF001008DF801004FF000008DF8020090
:1014D0004FF001008DF80300684604F023F808BDC2
:1014E00010B50121080705F0C6F8012006F003FB3E
:1014F000012004F08FFF00BF612004F028FF0028C6
:10150000FAD04FF4007005F065F84FF0FF009149F4
:1015100008604FF07F00904908604FF0010005F02F
:1015200074F805F0A1FD10BD10B50121082005F0EB
:1015300075F84FF44050894908604FF00000087179
:1015400088714FF0030048714FF00000C871844863
:1015500004F0CAFD10BD08B500200DF0F2FCFFF745
:10156000E3FF00F043F9FFF722FF02F0EEFE7D48B3
:101570007D4B7E4A012100907D4808F0A2FC45F297
:10158000555004F09BFE052004F09BFE40F6AA2077
:1015900004F09AFE04F0A0FE04F099FE08BD7FB5A9
:1015A00002200DF079FC01200DF076FC00200DF0FA
:1015B00073FC00224FF41651022002F05BFF002260
:1015C0004FF41651012002F055FF00224FF416513E
:1015D000104602F04FFFFFF735FF042003F0FDFF38
:1015E000684604F088FF4FF064020198B0FBF2F106
:1015F000B1F1807F00D327E021F07F40A0F101000E
:101600004FF0E02250614FF0FF304FF00F02002802
:101610000ADA4FEA02734FEA1365564B00F00F04E3
:10162000A4F104041D5505E04FEA02734FEA136468
:10163000514B1C5400BF4FF000004FF0E02290616E
:101640004FF00700106100BF0EF052F80EF0CAF91B
:101650007FBD024691B1494B10681B68984202D980
:101660004FF000001060454B10681B68181A884244
:1016700004D3424800681060012070470020FCE756
:101680004FF00004FFF78BFFFFF765FF00F07FFBD3
:1016900000F091FD01F0ABF84FF40051304804F038
:1016A0009CFD374908704FF480512D4804F095FD9A
:1016B0003349097840EA410031490870084600780A
:1016C00000F00300087026E04FF47A712D48FFF710
:1016D000C0FF60B100F05BFB3C2C05DD00F01DFCA1
:1016E00000F095FD4FF0000404F10100C4B2C821E0
:1016F0002548FFF7AEFF10B100200DF056FCFFF7B4
:10170000E8FC04F0E4FD02F0B8FC02F0C5F902F0D8
:1017100059FA04F0DCFDD7E710B504461748006815
:1017200020441A49086001E004F0D1FD1748006820
:10173000124909688842F7D810BD1048006800F1C6
:101740000A000E49086070470C48006870470C4852
:10175000007870477800002094000020800000206E
:10176000000C024034060020A8060020F8050020E6
:10177000080B002018ED00E000E400E074000020F9
:101780007C0000208C0000208800002090000020B9
:101790001CB50121202004F041FF4FF00100009012
:1017A0008DF804004FF000008DF806004FF00100A6
:1017B0008DF807004FF002008DF805006946FD48DE
:1017C00004F092FC1CBD1CB50121202004F026FF72
:1017D0004FF000008DF804008DF807004FF0010075
:1017E00000906946F34804F07FFC1CBD1CB5012144
:1017F000202004F013FF4FF0030000904FF0010091
:101800008DF804004FF000008DF806004FF0010045
:101810008DF807004FF002008DF805006946E54895
:1018200004F062FC1CBD70B505464FF0000634E0C4
:101830000221E04804F0F3FC4FF0000402E004F160
:10184000010084B2A62CFADB15F0800F04D0012130
:10185000D84804F0E2FC03E00121D64804F0DFFCA4
:101860004FEA45604FEA10654FF0000402E004F1D2
:10187000010084B2B4F5FA7FF9DB0221CD4804F00F
:10188000CCFC4FF0000402E004F1010084B2B4F596
:10189000FA7FF9DB06F10100C6B2082EC8DB02218F
:1018A000C44804F0BCFC4FF0000402E004F1010065
:1018B00084B2A62CFADB70BD2DE9F04106464FF04C
:1018C0000101BC4804F0A9FC4FF0000731E00221FF
:1018D000B84804F0A4FC4FF0000402E004F1010059
:1018E00084B2B4F5FA7FF9DB0221B24804F095FC2A
:1018F0004FF0000402E004F1010084B2FA2CFADB9C
:101900004FEA45604FEA10654FF00101A94804F025
:1019100064FC10B105F10100C5B24FF0000402E013
:1019200004F1010084B2B4F5FA7FF9DB07F101009C
:10193000C7B2082FCBDB02219E4804F070FC357043
:101940002846BDE8F08110B502219A4804F065FCF4
:101950000121984804F061FC4FF0000402E004F11A
:10196000010084B2B4F5FA7FF9DB0121914804F05B
:1019700056FC4FF0000402E004F1010084B2B4F51B
:10198000FA7FF9DB02218B4804F049FC4FF0000498
:1019900002E004F1010084B2A62CFADB10BD10B500
:1019A0000121844804F03BFC0221824804F035FC0C
:1019B0004FF0000402E004F1010084B2B4F5FA7FB4
:1019C000F9DB01217B4804F028FC4FF0000402E021
:1019D00004F1010084B2B4F5FA7FF9DB10BD10B553
:1019E000FFF7D6FE0221734804F019FC4FF0000403
:1019F00002E004F1010084B2B4F5FA7FF9DB0121C1
:101A00006C4804F00CFC4FF0000402E004F101000B
:101A100084B2B4F5FA7FF9DB0221664804F0FDFBDD
:101A20004FF0000402E004F1010084B2B4F5FA7F43
:101A3000F9DB02215F4804F0F2FB4FF0000402E002
:101A400004F1010084B2B4F5FA7FF9DBFFF7BBFEC5
:101A500010BD10B5FFF79CFE0221564804F0DFFBD5
:101A60004FF0000402E004F1010084B2B4F5FA7F03
:101A7000F9DB01214F4804F0D0FB4FF0000402E0F5
:101A800004F1010084B2B4F5FA7FF9DB0221494880
:101A900004F0C3FB4FF0000402E004F1010084B243
:101AA000B4F5FA7FF9DB0221424804F0B8FB4FF0AD
:101AB000000402E004F1010084B2B4F5FA7FF9DB1E
:101AC000FFF781FE10BD10B502213A4804F0A7FBD4
:101AD0004FF0000402E004F1010084B2B4F5FA7F93
:101AE000F9DB0121334804F098FB4FF0000402E0D9
:101AF00004F1010084B2B4F5FA7FF9DBFFF763FE6D
:101B000002212C4804F089FB4FF0000402E004F1AC
:101B1000010084B2B4F5FA7FF9DB0121254804F015
:101B20005CFB28B10221234804F079FB002010BDA2
:101B30000221204804F073FBFFF72AFE0120F6E79C
:101B400013B5FFF700FFD020FFF76DFEFFF7BBFFD7
:101B50000020FFF768FEFFF7B6FF9DF80000FFF7D3
:101B600062FEFFF7B0FF9DF80100FFF75CFEFFF794
:101B7000AAFF9DF80200FFF756FEFFF7A4FF012021
:101B8000FFF751FEFFF79FFF9DF80300FFF74BFEA5
:101B9000FFF799FF9DF80400FFF745FEFFF793FF5D
:101BA0009DF80500FFF73FFEFFF78DFFFFF7F7FEFB
:101BB0001CBD00000014024010B50446FFF7C3FE30
:101BC000D020FFF730FEFFF77EFF0020FFF72BFE4F
:101BD000FFF779FFFFF7B7FED120FFF724FEFFF7ED
:101BE00072FFFFF7F0FD2046FFF766FEFFF7F7FEF6
:101BF000601CFFF761FEFFF7F2FEA01CFFF75CFE22
:101C0000FFF7EDFEE01CFFF757FEFFF7E8FEE01CD4
:101C1000FFF752FEFFF7E3FE201DFFF74DFEFFF733
:101C2000DEFE601DFFF748FEFFF713FFFFF7B0FD74
:101C3000FFF7B5FE10BD03B583B05AA207CA8DE801
:101C400007009DF80C003B2818DC9DF80D003B2890
:101C500014DC9DF80E00172810DC9DF810000C28ED
:101C60000CDC9DF81000401E1DF800009DF80F10C0
:101C7000884203DB9DF81100322802DD002005B008
:101C800000BD9DF8100002282BD19DF8111001F520
:101C9000FA614FF4C87291FBF2F302FB1311B1B178
:101CA0009DF8111001F5FA604FEAE07100EB9171B7
:101CB0004FEAA101B0EB81010BD19DF8111001F5A4
:101CC000FA61642291FBF2F302FB131109B10121C5
:101CD00000E0002129B99DF80F101C2901DD00202A
:101CE000CDE70120CBE7F0B502460B464FF00000F0
:101CF000044605461946012A18D100BF13E00E5CC0
:101D00004FF00A0796FBF7F606F00F040E5C96FB01
:101D1000F7FC07FB1C6606F00F0505EB04160E54D6
:101D200000F10106F0B20628E9DB13E092B94FF0AA
:101D300000000DE00E5C06F00F060F5C4FEA27175F
:101D400007EB870706EB47060E5400F10106F0B2D9
:101D50000628EFDBF0BD13B5DDE90001FFF76BFFEF
:101D600048B169460120FFF7BEFFDDE90001FFF73A
:101D7000E7FE01201CBD0020FCE710B5044620460C
:101D8000FFF71AFF21460020FFF7ADFF10BD10B589
:101D90000748FFF7F2FF10BD05490A68026089880D
:101DA000818070471F1D1F1E1F1E1F1F1E1F1E1F0D
:101DB0009800002030B5034614464FF0000210464C
:101DC00000BF1EE09D5C4FEA25100A2803DA00F1EF
:101DD00030050D7002E000F157050D7001F10101B1
:101DE0009D5C05F00F000A2803DA00F130050D7044
:101DF00002E000F157050D7001F1010102F101054A
:101E0000AAB2A242DEDB30BD30B5034614464FF025
:101E10000000024600BF51E01D5C302D08DB1D5C58
:101E2000392D05DC1D5C4FEA05754FEA15621AE095
:101E30001D5C612D0ADB1D5C7A2D07DC1D5CA5F1A4
:101E400007054FEA05754FEA15620CE01D5C412D50
:101E500009DB1D5C5A2D06DC1D5CA5F107054FEA68
:101E600005754FEA156200F10105A8B21D5C302D21
:101E700008DB1D5C392D05DC1D5CA5F13005154422
:101E80000D7016E01D5C612D08DB1D5C7A2D05DCF4
:101E90001D5CA5F1570515440D700AE01D5C412D30
:101EA00007DB1D5C5A2D04DC1D5CA5F137051544CC
:101EB0000D7001F1010100F10105A8B2A042ABDBF8
:101EC00030BD10B54FF00100F74908604FF0000039
:101ED000087188714FF0030048714FF00000C8711D
:101EE000F24804F001F94FF00200EF4908604FF0AA
:101EF0000100C871ED4804F0F7F810BD10B50221DB
:101F0000EA4804F06AF910BD10B50121E74804F071
:101F100064F910BDE6480078704730B58BB04FF0DB
:101F200000000090019004460546FFF7F3FF08B952
:101F30000BB030BD02A8FFF72FFF9DF80D004FF04A
:101F40000A0190FBF1F000F13000C0B28DF8000002
:101F50009DF80D0090FBF1F201FB120000F1300042
:101F6000C0B28DF801009DF80C0090FBF1F000F17B
:101F70003000C0B28DF802009DF80C0090FBF1F229
:101F800001FB120000F13000C0B28DF803009DF893
:101F90000B0090FBF1F000F13000C0B28DF80400AE
:101FA0009DF80B0090FBF1F201FB120000F13000F4
:101FB000C0B28DF80500BF48C0789DF80B1088426C
:101FC00059D0694604A807F023FB0546052D2BD1FF
:101FD000684607F0F9FC00284DD1B7480099016028
:101FE000BDF804108180B34802990160BDF80C105F
:101FF00081804FF0000414E0C4EB0411AF4A02EBFF
:1020000041000622AC490DF018FFC4EB0411AC4AA4
:1020100002EB41000622A8490DF00FFF04F1010078
:10202000C4B2032CE8DB26E02DBBA3480099016075
:10203000BDF8041081809F4802990160BDF80C1022
:1020400081804FF0000414E0C4EB04119B4A02EBC2
:102050004100062298490DF0F0FEC4EB0411984AA5
:1020600002EB4100062294490DF0E7FE04F1010065
:10207000C4B2032CE8DB00BF5AE730B58BB04FF099
:102080000000009001900446054602A8FFF784FE78
:102090009DF80D004FF00A0190FBF1F000F13000C7
:1020A000C0B28DF800009DF80D0090FBF1F201FB2D
:1020B000120000F13000C0B28DF801009DF80C0054
:1020C00090FBF1F000F13000C0B28DF802009DF8F5
:1020D0000C0090FBF1F201FB120000F13000C0B2E5
:1020E0008DF803009DF80B0090FBF1F000F130003B
:1020F000C0B28DF804009DF80B0090FBF1F201FBDB
:10210000120000F13000C0B28DF805006948029954
:102110000160BDF80C108180694604A807F078FAC8
:102120000546052D24D1684607F04EFC002840D115
:10213000614800990160BDF80410818000BF14E07F
:10214000C4EB04115D4A02EB410006225A490DF02E
:1021500074FEC4EB04115A4A02EB410006225649B0
:102160000DF06BFE04F10100C4B2032CE8DB20E0AB
:10217000FDB9514800990160BDF8041081804FF00D
:10218000000414E0C4EB04114C4A02EB41000622A7
:1021900049490DF052FEC4EB0411494A02EB4100DB
:1021A000062245490DF049FE04F10100C4B2032C9A
:1021B000E8DB0BB030BD10B54FF00004FFF781FE37
:1021C0000120FFF7A9FA3FA13B480DF01DFD204675
:1021D00037490870FFF798FE00B110BD4FF48061D9
:1021E00001200DF0E4FB39494863002006F0FCFCB7
:1021F000044624B13549486B0DF0A5FAEDE7FFF729
:102200003CFF4FF001002A49087000BFE5E710B518
:102210004FF00004FFF778FE70B12548007828B32E
:102220000021084606F0E0FC2849486B0DF08BFAC7
:1022300020461F49087019E01D480078B0B94FF4D6
:10224000806101200DF0B3FB20494863002006F0B7
:10225000CBFC044624B11D49486B0DF074FA10BD47
:10226000FFF70BFF4FF001001149087000BFF6E7C0
:1022700010B58EB00446214607A807F0C9F900281A
:1022800054D14DE09DF80D0008B90EB010BD10A15D
:102290000DF10D000DF0FCFD28B10EA10DF10D00AA
:1022A0000DF0F6FDC0B93BE058010020000C0240E3
:1022B000540100206001002066010020A0000020E1
:1022C000FA0000203133303130310000403300203B
:1022D0002E0000002E2E00009DF80C0010281AD1B0
:1022E000AFF214010DF10D000DF0D2FD30B1AFF2DF
:1022F0001C010DF10D000DF0CBFD00B910E00DF14A
:102300000D0006F0BEFFAFF23800FFF7B1FFAFF2ED
:102310003C0006F0B6FF0DF10D0007F0ECFA00BF2F
:1023200001A907A807F0B0F90028ABD000BFACE7BF
:1023300030B587B004464FF0000501A9204607F0EC
:10234000D1F9054615B1002007B030BD9DF80C004D
:1023500010280FD1204606F094FF70B9AFF290001C
:10236000FFF786FFAFF2940006F08BFF204607F0E0
:10237000C2FA02E0204607F0BEFA0020E4E770B59A
:1023800090B004460D464FF000000F900646CDF881
:1023900038D04FF480714FF001000DF008FB0D9024
:1023A0000EAA0FA9F8A007F0BCF906462EB10D98A9
:1023B0000DF0C9F9002010B070BD0E9880780F990B
:1023C00048434FEA500028600E98C069A0F102000F
:1023D0000E99897800FB01F04FEA500020600D98BB
:1023E0000DF0B1F90120E6E730B58DB005464FF0AC
:1023F0000004294606A807F00BF910B100200DB023
:1024000030BD27E09DF8090000B929E0AFF2401186
:102410000DF109000DF03CFD30B1AFF248110DF1A6
:1024200009000DF035FD00B914E09DF808001028F2
:102430000DD10DF1090006F024FFAFF26C10FFF78B
:10244000D3FF0444AFF2741006F01BFF01E00098C4
:10245000044400BF694606A807F016F90028D1D049
:1024600000BF2046CBE770B5ADF5167D04460D469E
:102470004FF00000819080904FF4007168460DF09D
:10248000B5FC4FF0000615B90DF5167D70BD4FF483
:10249000806101200DF08BFA95904FF4806101204E
:1024A0000DF085FA8B90012221468CA806F0B1FB35
:1024B000064636B18B980DF046F995980DF043F924
:1024C000E2E70A22B1A182A806F0A3FB06464EB1BC
:1024D0008CA806F0C1FE8B980DF035F995980DF09B
:1024E00032F9D1E729468CA806F0B0FF06464FF036
:1024F000000182A806F0AAFF06464FF40070819002
:1025000010E081AB4FF4007269468CA806F03FFCE6
:1025100000B10BE080AB694682A8819A06F02BFDE2
:1025200000B103E08198B0F5007FEAD000BF82A837
:1025300006F092FE8CA806F08FFE8B980DF003F942
:1025400095980DF000F92046FFF7F2FE21468FA086
:1025500007F08EFB00BF97E770B594B004464FF0CC
:1025600000052E468CA10DF10D000DF04DFB86A14E
:102570000DA807F04DF808B114B070BD26E09DF825
:10258000250000B928E0AFF2B8210DF125000DF0CB
:102590007FFC30B1AFF2C4210DF125000DF078FCC5
:1025A00000B913E09DF8240010280ED10DF125018B
:1025B0000DF10D000DF06CFC002806DD182207A9B6
:1025C00001A80DF0BFFB4FF0010600BF07A90DA841
:1025D00007F05AF80028D2D000BF06B9CCE70DF1B9
:1025E0000D00FFF701FF0546B5F1487F04D20DF15C
:1025F0000D00FFF79DFE4CE00DF10D0006F041FED1
:10260000AFF234310DA807F003F84FF0000001904D
:1026100020E09DF8250000B922E0AFF24C310DF129
:1026200025000DF035FC30B1AFF258310DF1250029
:102630000DF02EFC00B90DE09DF82400102808D004
:1026400007990198884204D2182207A901A80DF021
:1026500079FB00BF07A90DA807F016F80028D8D00D
:1026600000BF4FF00101019801EB5005B4EB952F2D
:1026700006D20198C4EB902000F101004FEA8025BA
:1026800029460DF10D00FFF7EEFEAFF2B83006F06F
:10269000F8FD00BF70E730B589B004464FF0000583
:1026A00028460290019003A9204607F01BF808B1C4
:1026B00009B030BD01A902A8FFF761FE00B9F7E734
:1026C0000398B0F1487F12D90398A0F1487501989A
:1026D000B0F5484F07D201990398C1EB902000F163
:1026E00001004FEA802529462046FFF7BCFE00BFC7
:1026F000DEE71CB54FF000000190009004466946EB
:1027000001A8FFF73CFE00B91CBD09E00098FFF7E7
:1027100023FF694601A8FFF732FE04F10100C4B2AD
:102720000098B0F5484F01D2142CEFDB00BFEBE767
:102730002DE9F0418CB00746884614464FF000065C
:1027400014B11748007810B90CB0BDE8F0813846D4
:10275000FFF7A1FFFFF7CDFF4FF4806101200DF0DF
:1027600026F90B901222394602A806F052FA0546C5
:102770002DB10622394602A806F04BFA05468DB166
:102780000B980CF0E0FFDFE7303A00006261636B0A
:1027900075702E7478740000393939393939000070
:1027A0005401002002A8059906F050FE15E0A01B78
:1027B000B0F5007F0ADB01AB4FF40072414602A87E
:1027C00006F0D9FB06F5007086B206E0A21B01AB4D
:1027D000414602A806F0CFFB2646A642E7DB02A848
:1027E00006F03AFD0B980CF0AEFF00BFACE71FB54A
:1027F000FAA103C9CDE902016846FFF7CDFA0098B6
:10280000CDF80A00BDF80400ADF80E00082202A9B8
:10281000F4A0FFF78DFF1FBD0FB585B0F4A30FCB5C
:10282000CDE90323CDE901010598CDF80600BDF8F7
:102830001800ADF80A000798CDF80E00BDF820008A
:10284000ADF81200102201A9E6A0FFF771FF09B050
:1028500000BD2DE9F04104460F4615464FF0000635
:1028600015B1E748007808B9BDE8F08104EB4420D1
:10287000E44931F81000284486B2B6F5806F3EDB9B
:1028800004EB442031F81000C0F5806086B204EB00
:102890004421DC4A02EB410101F1020104EB442234
:1028A000D84B33F8122001EB0200324639460DF0C6
:1028B00004FA04EB4422D34B03EB4202911CC4EB19
:1028C0000412D14B03EB42004FF48062FFF730FF5C
:1028D000A5EB060004EB4421CA4A22F8110004EBE0
:1028E000442394463CF8132007EB060104EB4423F1
:1028F0000CEB430303F102000DF0DFF91AE004EBE7
:102900004421C04A02EB4101891C04EB4422BD4B27
:1029100033F8122088182A4639460DF0CEF904EB18
:102920004420B84931F81000284404EB4421B54A4A
:1029300022F8110000BF97E72DE9FF4104460D463C
:10294000DDE90A76AE48007808B9BDE8FF81012DBF
:1029500041D14FF0680004EB840101EBC411AB4A94
:1029600002F811009DF8080004EB840101EBC4118A
:1029700002EB410148709DF8091004EB840000EB64
:10298000C41002EB400081709DF80A1004EB840033
:1029900000EBC41002EB4000C1704FF0680004EB84
:1029A000840101EBC41102EB4101087204EB8401C4
:1029B00001EBC41102EB410101F10A003246394634
:1029C0000DF07BF904EB840101EBC4118F4A02EB9B
:1029D00041014E7242E0022D40D19DF8080004EB07
:1029E000840101EBC411894A02EB410108719DF891
:1029F000091004EB840000EBC41002EB40004171AD
:102A00009DF80A1004EB840000EBC41002EB4000B8
:102A1000817104EB840101EBC41102EB4101CE7121
:102A200004EB840000EBC41002EB40014FF00A02FB
:102A30002046FFF70EFF04EB840000EBC410734B3D
:102A400003EB4000427A04EB840000EBC41003EB7C
:102A5000400000F10A012046FFF7FBFE00BF74E7CB
:102A60002DE9F04104460F4615464FF0000615B11A
:102A70006348007808B9BDE8F08104EB442064495C
:102A800031F810002844B0F5806F3EDB04EB4420A1
:102A900031F81000C0F5806086B204EB44215C4A36
:102AA00002EB410101F1020104EB4422584B33F8DF
:102AB000122001EB0200324639460DF0FEF804EB1D
:102AC0004422534B03EB4202911CC4EB0412514BC2
:102AD00003EB42004FF48062FFF72AFEA5EB0600ED
:102AE00004EB44214A4A22F8110004EB44239446A3
:102AF0003CF8132007EB060104EB44230CEB4303E3
:102B000003F102000DF0D9F81AE004EB4421404A29
:102B100002EB4101891C04EB44223D4B33F81220A7
:102B200088182A4639460DF0C8F804EB4420384985
:102B300031F81000284404EB4421354A22F81100F2
:102B400000BF98E72DE9FF5F04468946DDE90E7A6C
:102B50004FF00005AB462E46A8462948007808B934
:102B6000BDE8FF9FB9F1000F7ED14FF0680004EB84
:102B7000840101EBC411284A02F811009DF80800F5
:102B800004EB840101EBC41102EB410148709DF894
:102B9000091004EB840000EBC41002EB40008170CC
:102BA0009DF80A1004EB840000EBC41002EB400017
:102BB000C1704FF0680004EB840101EBC41102EB1B
:102BC000410108724FF0000004EB840101EBC411D5
:102BD00002EB41014872554666E0000068010000C2
:102BE00000000000303A54696D652E74787400005E
:102BF0006802000000000000680300000000000000
:102C000054010020F8100020A0000020FE1C00202D
:102C10001C200020FA000020222C00209DF8080033
:102C200004EB840101EBC411D44A02EB41010871A9
:102C30009DF8091004EB840000EBC41002EB400087
:102C400041719DF80A1004EB840000EBC41002EB04
:102C5000400081714FF0010004EB840101EBC411CD
:102C600002EB4101C87100E036E04FF0FF0004EBD9
:102C7000840101EBC41102EB4101487204EB8400B2
:102C800000EBC41002EB40014FF00A022046FFF7B0
:102C9000E7FEB919FF222046FFF7E2FEA5F1FF008B
:102CA00085B206F1FF0086B2FF2DB7DAB91904EB41
:102CB000840202EBC412B14B03EB420202F10A00A0
:102CC0002A460CF0FAFF04EB840101EBC411AB4A75
:102CD00002EB41014D7211E1B9F1010F7ED1554670
:102CE00004EB840000EBC410A44901EB400090F811
:102CF000098004EB840000EBC41001EB4000407A33
:102D00002844FF286BDB04EB840000EBC41001EBCC
:102D10004000407A00EB0A059DF8080004EB8401AE
:102D200001EBC411954A02EB410108719DF80910AD
:102D300004EB840000EBC41002EB400041719DF8ED
:102D40000A1004EB840000EBC41002EB4000817118
:102D50004FF0010004EB840101EBC41102EB4101CF
:102D6000C8714FF0FF0004EB840101EBC41102EBCA
:102D70004101487208F10A0204EB840000EBC41020
:102D80007E4B03EB40012046FFF76AFEC8F1FF0BC4
:102D90005A4639462046FFF763FEA5F1FF0085B28B
:102DA0005E469DF8080004EB840101EBC411734AF0
:102DB00002EB410148709DF8091004EB840000EB20
:102DC000C41002EB400081709DF80A1004EB8400EF
:102DD00000EBC41002EB4000C17001E03EE024E0D3
:102DE0004FF000081FE04FF0FF0004EB840101EBFF
:102DF000C411624A02EB4101487204EB840000EB0B
:102E0000C41002EB40014FF00A022046FFF728FEF3
:102E1000B919FF222046FFF723FEA5F1FF0085B276
:102E200006F1FF0086B2FF2DDDDAB91904EB84024A
:102E300002EBC412514B03EB42020A3202EB0800D0
:102E40002A460CF03AFF08EB050004EB840101EB85
:102E5000C4114A4A02EB410148724FE0B9F1020F36
:102E60004CD14FF0010004EB840101EBC411434A43
:102E700002EB4101C8719DF8080004EB840101EBED
:102E8000C41102EB410108719DF8091004EB8400A4
:102E900000EBC41002EB400041719DF80A1004EBF6
:102EA000840000EBC41002EB4000817104EB84004D
:102EB00000EBC41002EB40014FF00A022046FFF77E
:102EC000CFFD04EB840000EBC4102C4B03EB40005F
:102ED000427A04EB840000EBC41003EB400000F1E5
:102EE0000A012046FFF7BCFD4FF0000004EB84010F
:102EF00001EBC411214A02EB4101487200BF2FE6E9
:102F000070B504460D461E48007800B970BDC5B9BD
:102F100004EB44231B4E36F8132004EB442306EB4A
:102F20004303991CC4EB0413174E06EB4300FFF751
:102F3000FFFB4FF0000004EB4421124A22F811007D
:102F400019E0012D17D104EB4423104E36F813205D
:102F500004EB442306EB4303991CC4EB04130C4E0F
:102F600006EB4300FFF7E4FB4FF0000004EB4421C5
:102F7000064A22F8110000BFC8E70000222C0020FA
:102F800054010020F8100020A00000201C20002088
:102F9000FA000020704700BFFEE700BFFEE700BF59
:102FA000FEE700BFFEE770477047704710B5FEF7B9
:102FB000C4FB01F0BAFD10BD10B52021354802F068
:102FC0003BFA012806D1334802F06FF90446E0B21B
:102FD00001F06CFA80212F4802F02EFA08B101F0BE
:102FE000A1FA10BD10B520212B4802F025FA0128C6
:102FF00006D1294802F059F90446E0B201F06AFA14
:103000008021254802F018FA08B101F0B3FA10BD8A
:1030100010B52021214802F00FFA012806D11F48DF
:1030200002F043F90446E0B201F068FA80211B483F
:1030300002F002FA08B101F0C5FA10BD10B50BF0AC
:10304000E4FD10BD10B54FF4004002F057FD30B163
:10305000134809F08BF84FF4004002F062FD10BDF8
:1030600010B50F48807A50B10E48006820F0060075
:103070000C49086000F06DF8094809F0B2F84FF407
:10308000802002F04EFD10BD10B5054808F064F830
:1030900010BD000000100140004400400048004006
:1030A000080B002010ED00E04FF000010846674AD1
:1030B000126842F48032654B1A6000BF634A12689E
:1030C00002F4003001F1010110B9B1F5A06FF5D1A2
:1030D0005E4A126812F4003F02D04FF0010001E096
:1030E0004FF00000012833D1594A1268584B1A603A
:1030F0001A46126842F400421A601A46126842F4F4
:10310000A0521A60534AA3F104031A604F4A12688E
:1031100042F080724D4B1A6000BF4C4A126812F0A8
:10312000007FFAD040F203724B4B1A60484A126893
:1031300022F00302464B1A601A46126842F002025D
:103140001A6000BF424A126802F00C02082AF9D144
:10315000704710B53D48006840F001003B490860E9
:103160004FF000003A490860384800683B4900EADF
:103170000100364908603A4801F10401086033480B
:10318000006820F48020314908604FF00000354984
:103190000860FFF789FF4FF000603349086010BDF9
:1031A00070B54FF0000002464FF0020304464FF0A6
:1031B0000201274D2D6805F00C0020B1042806D02F
:1031C000082831D107E0294D294E356030E0294DDE
:1031D000274E35602CE0284D2D68C5F38054264DD0
:1031E0002D6805F03F014CB1224DB5FBF1F5224EA3
:1031F0003668C6F3881605FB06F208E01B4DB5FBE2
:10320000F1F51D4E3668C6F3881605FB06F21A4D19
:103210002D68C5F3014505F101054FEA4503B2FBF1
:10322000F3F5134E356003E0104D114E356000BFCD
:1032300000BF074D2D68C5F30315104E705D0C4D92
:103240002D6825FA00F50A4E356070BD0038024041
:1032500008380240193C4005003C0240FFFFF6FEE2
:10326000103000240C38024008ED00E00024F40087
:103270006C01002040787D0104380240700100207C
:1032800038B50446F7A00068009004F10200C0B20F
:103290008DF80100F448009901602246F34900F1DD
:1032A00004000CF00AFDF049201D0A18E01C81B250
:1032B000ED48FDF70BF84FF07E01EB4A04F10500F5
:1032C000115404F1060081B2104601F0B5FC38BD7E
:1032D000F0B504460D464FF00101084626781670F9
:1032E00000BF31E0665C7E2E10D14FF07F0C0646A9
:1032F00000F10107B8B202F806C04FF0800C064694
:1033000000F10107B8B202F806C01AE0665C7F2E31
:103310000FD1B446064600F10107B8B202F806C064
:103320004FF0810C064600F10107B8B202F806C062
:1033300007E014F801C0064600F10107B8B202F830
:1033400006C001F10106B1B26E1E8E42CADC4FF01A
:103350007E0C064600F10107B8B202F806C01880DC
:10336000F0BD2DE9F043ADF5017D05460E4617464B
:103370009946DDF820824FF4007101A80CF036FD6B
:103380004FF00004204600904FF07E00B8490870CE
:103390000846457086702046C8704FF0AC00087132
:1033A0000846407967F3030048710846407920F0E9
:1033B000100048710846407920F0E0004871B8F1EB
:1033C000000F25D14FF07E008DF804008DF80550D8
:1033D0008DF806604FF000008DF807004FF0AC004C
:1033E0008DF808008DF809704FF000008DF80A0084
:1033F0000DF10B024FF006010DF10500FCF766FF21
:103400004FF07E008DF80C004FF00900009027E08F
:10341000B8F1FA0F04DD4FF0FA009549887102E027
:10342000934981F806809248847922464946C01D16
:103430000CF043FC8E48C01D0219A11D801FFCF733
:1034400045FF4FF07E028A4800F1070004F10101B8
:10345000425404F109016B4601AA8548FFF738FF81
:10346000BDF8002001A9012001F0F8FA0DF5017D59
:10347000BDE8F0831FB5044602A8FEF78DFC012CC1
:1034800050D17C48407801280CD14FF00000794998
:103490004870009001904FF002010846DDE90223D8
:1034A000FFF750FB7148801E0288811C72480CF0A7
:1034B0007FFB60B34FF480726C496F480CF0FDFBEA
:1034C0006C48007880B14FF000006A4908700846E7
:1034D00080784FF00001CDE900104FF0020108465E
:1034E000DDE90223FFF728FA6048801E00885F4963
:1034F000CDE9001001210220DDE90223FFF71CFACB
:103500004FF000005B4988704FF001000870594887
:10351000807880422BD05748807800F101005549CF
:10352000887024E0022C22D15248407898B94FF09C
:103530000100504948704D48A0F1020000884B49F5
:10354000CDE900104FF000014FF00200DDE9022349
:10355000FFF7F8FA0BE04548801E00884349CDE9A3
:10356000001001210220DDE90223FFF7EBFA1FBD65
:1035700038B54FF000042546204600903D4840797C
:1035800020B13A49891E0888FFF77AFE3748801E25
:1035900080783A4988704FF001052C4635E0334871
:1035A000015D3648801C41553048005D7F2826D19A
:1035B0002E48611C405C802809D14FF07E012F48C5
:1035C00000F10200415504F1010084B217E02748E0
:1035D000611C405C812809D14FF07F01274800F130
:1035E0000200415504F1010084B208E04FF00000F0
:1035F0001E49A1F1020108802049088038BD05F16B
:10360000010085B204F1010084B21848801E0088D0
:10361000401EA042C3DC194805800088801E81B28C
:103620006A461648C01CFCF751FE14480088401E2C
:103630001249891C085C9DF80010884201D10120C4
:10364000DCE74FF000000D4908800849A1F10201B4
:10365000088000BFD2E738B54FF000042546204669
:10366000009085E07E370904334600207A38002038
:103670007C40002088450020783300207A3C0020E0
:103680004FF00100C349C870FEF75EF8C149C86039
:1036900005F1010085B29DF800007E284DD1BE489D
:1036A000008807283DDB9DF80010BB480288801C7D
:1036B0008154801E008800F10100B74908804FF056
:1036C0000000B6490870FFF753FF01281DD104F12F
:1036D0000100C4B2B24800688078AC2804D0B04879
:1036E00000688078FF280BD1AD4800680079212858
:1036F00004D0AB4800680079112838D1012038BDCA
:103700004FF00000A449088032E04FF00100A249C8
:1037100008804FF07E0088704FF001009F490870CC
:1037200026E04FF001009C4908804FF07E00887031
:103730004FF001009949087019E098480078012875
:1037400015D19DF8001094480288801C8154801E79
:10375000008800F101009049088008460088B0F513
:10376000806F04DB4FF0000008808C49087000BFB8
:1037700001226946104601F05EF8012804D1042CAC
:1037800002DAFF2D7FF77CAF0020B8E708B5854847
:10379000407B10F0180F03D04FF0050082490870ED
:1037A00081480078B0B180480078A0F101007E49DE
:1037B00008707C4800887A4A009012681179784A2B
:1037C0001268D078774B03F102034FF00002FFF745
:1037D000C8FD0CE00020724A009012681179704A0E
:1037E0001268D0786F4B9B1C0822FFF7BAFD08BD0A
:1037F0001FB54FF0000402A8FEF7CEFA6548007925
:1038000010B341F2883163481030FDF722FFD8B180
:103810006048007880B120465E49087000900190B1
:103820004FF002010846DDE90223FFF785F84FF467
:1038300080715E480CF0DAFA00210220FFF760FB8D
:103840004FF00000534908715248C078F0B141F27E
:10385000883150480C30FDF7FCFEB8B14D48407837
:1038600060B14FF000004B494870009001904FF05C
:1038700002010846DDE90223FFF764F90121022075
:10388000FFF73EFB4FF000004249C87048480078FF
:10389000012809D141F288314648FDF7DAFE18B116
:1038A0004FF0000042490870FFF7D5FE012852D1C1
:1038B000FDF74AFF37490861394800688078AC282D
:1038C00004D0374800688078FF2840D100F007FD19
:1038D00030B94FF0000030490880374908801FBDDB
:1038E0002F4800684079C0F3030020B102281ED0A1
:1038F000082827D127E0FDF72AFF04464FF00100F2
:1039000000EB0410C4B226480068807B10F0020F60
:103910000CD0234800680079A04207D14FF0010085
:1039200023490870FDF710FF224908600BE020488A
:103930000078012801D1FFF729FFFDF705FF1F4996
:10394000086000E000BF00BF0120FFF793FD4FF0CB
:1039500000001149088000BFC1E70E480079704798
:103960000C48C07870470B49487170470E49087081
:10397000704770B505460C46B4F5807F00DB70BD1E
:10398000224629460748801C0CF097F90548048018
:1039900000BFF4E78845002078380020910100201E
:1039A0008401002084440020980100207833002006
:1039B00090010020940100207A3C00208C0100201E
:1039C00070B502460C464FF0000013460DE0C0F300
:1039D00007214FEA00201D7885EA0105FE4E56F8C2
:1039E000255085EA000003F101032500A4F101043C
:1039F000EDD170BD38B50446F8A00068009004F120
:103A00000200C0B28DF80100F5480099016022461D
:103A1000F44900F104000CF050F9F149201D0A1896
:103A2000E01C81B2EE48401CFCF750FC4FF07E01D8
:103A3000EB4A04F10500115404F1060081B210466E
:103A400001F0FAF838BD38B50446E7A000680090E8
:103A500004F10200C0B28DF80100E1480099016054
:103A60002246E24900F104000CF027F9DC49201D50
:103A70000A18E01C81B2DA48401CFCF727FC4FF022
:103A80007E01D74A04F10500115404F1060081B209
:103A9000104601F0D1F838BD10B5FFF7A9FE10BDF2
:103AA00010B5C821D248FDF7D4FDB8B1D14800798E
:103AB00078B1D148007888B1D0480288811C0020B4
:103AC00000F0CCFFCC480078A0F10100CA49087092
:103AD00004E03522CA49002000F0C0FF10BD7FB5C8
:103AE00005460C4602A8FEF757F9012D4BD1C548F3
:103AF000407801280DD14FF00000C2494870009075
:103B000001904FF002014FF00100DDE90223FFF7C1
:103B100019F85722B5490931BB480CF049F838B3B8
:103B20005722B2490931B8480CF0C7F8B5480078B7
:103B300070B1B44880780021CDE900100221012045
:103B4000DDE90223FEF7F8FE4FF00000AD490870F2
:103B5000A648CDE9000401210846DDE90223FEF76D
:103B6000EBFE4FF00000A74988704FF0010008708D
:103B7000A4488078FF2824D0A248807800F1010072
:103B8000A04988701DE0022D1BD19E48407878B96D
:103B90004FF001009B4948709448CDE900044FF074
:103BA00000014FF00100DDE90223FEF7CBFF08E042
:103BB0008E48CDE9000401210846DDE90223FEF725
:103BC000C1FF7FBD2DE9FF474FF000063746B046E5
:103BD000B146354602A8FEF7DFF8FFF761FF8948D6
:103BE000C07800B341F2883186480C30FDF731FDD2
:103BF000C8B18448407801280DD14FF000008149B8
:103C00004870009001904FF002014FF00100DDE993
:103C10000223FEF797FF01210846FFF771F94FF0E5
:103C200000007849C8707748007928B341F288319C
:103C300074481030FDF70DFDF0B17248007898B16E
:103C4000704880780021CDE9001002210120DDE9D3
:103C50000223FEF771FE4FF000006A4908704FF032
:103C6000570169480CF0A0F800210120FFF748F93E
:103C70004FF0000063490871002000F025FD8146E7
:103C8000B9F1000F22DD0EE05848801E008800F1D7
:103C900001005649A1F10201088008460088B0F5EC
:103CA000807F00DD0AE05148801E0288801C1118C8
:103CB0000122002000F0BFFD0028E5D100BFFDF784
:103CC00043FD5049C8604FF00100C870D6E008F1CC
:103CD000010000F0FF084548A0F1020002884FF003
:103CE000FF0142480BF0D3FF044664B93F48801EF1
:103CF00001880220FFF7F3FE4FF000003B49A1F1DD
:103D000002010880C0E03948A4EB000085B23748C2
:103D1000A0F102000088A0EB05003449A1F10201E6
:103D200008801DB129460220FFF7D9FE2F48801ECA
:103D30000288801C41190BF0C0FF2C48801E0088AF
:103D4000622800DAA0E02948801E0079572814D0A4
:103D500001210220FFF7C3FE2448801E0088A0F145
:103D600001002249A1F1020108800846028800F101
:103D700003011E480BF0A1FF80E01C48801E477A1B
:103D8000807A40EA07271948A0F1020090F86260A3
:103D900090F8630040EA06264FF007011348FFF74A
:103DA0000FFE80B2B84254D1572110480930FFF7B6
:103DB00007FE80B2B0424CD11248407910B1622067
:103DC000FFF741FE4FF001000E490871FDF7BCFC02
:103DD0000C4908611AE000009C0100207E370802AF
:103DE00033460020364700207E370803384900203C
:103DF000D40500203C4D00209C050020384B0020BD
:103E00009D050020504D0020D14500204FF062005C
:103E1000FC4908800246FC49FA4800F102000BF018
:103E20004CFF62210120FFF75AFEF748801E0088F0
:103E3000A0F16200F449A1F102010880084602885D
:103E400000F16401F0480BF038FF012004B0BDE838
:103E5000F08703210220FFF742FEEB48801E008816
:103E6000A0F10300E849A1F1020108800846028898
:103E700000F10501E4480BF020FF00BFE248801E7E
:103E800000886228BFF623AF00BF0020DEE77FB5C1
:103E900005460C464FF0000602A8FDF77DFF012DF8
:103EA0005AD1DA48407801280BD14FF00000D749A9
:103EB0004870009001904FF00201DDE90223FEF707
:103EC00041FED348C67C4FF00001C1744FF02A0276
:103ED00000F10B01CF480BF06BFE80B32A22CC49D6
:103EE0000B31CC480BF0E9FE4FF00300CA490870D3
:103EF000C648007870B1C54880780021CDE900102F
:103F000002210020DDE90223FEF716FD4FF000003C
:103F1000BE490870BE48801CCDE900040121002084
:103F2000DDE90223FEF708FD4FF00100B7490870F4
:103F30004FF0000088704FF00500FFF717FDB44800
:103F4000C674B2488078FF2826D0B048807800F147
:103F50000100AE4988701FE0022D1DD1AB484078AA
:103F600080B94FF00100A9494870A94800F102004A
:103F7000CDE900044FF000010846DDE90223FEF719
:103F8000E1FD09E0A248801CCDE9000401210020E8
:103F9000DDE90223FEF7D6FD7FBD10B54FF000042A
:103FA0004FF035014FF00100FFF771FF974840795E
:103FB00010B13520FFF71EFD9448C07830B9944801
:103FC000807B40F020019248817305E09048807B1F
:103FD00020F020018E488173FFF7C2FC30B98C4875
:103FE000807B40F040018A48817305E08848807BEF
:103FF00020F040018648817388480078012806D166
:104000008348807B20F080018148817309E08348E8
:104010000078022805D17E48807B40F080017C48F2
:1040200081734FF000017A48C1744FF02A0100F10A
:104030000B00FFF7C5FC84B24FEA1421744880F8E6
:10404000351080F836404FF0350200F10201744817
:104050000BF033FE4FF035007149A1F102010880E9
:1040600001466B4800F10200FFF783FC65480288B7
:10407000811C022000F0F2FC10BD2DE9FF414FF041
:1040800000063746B046354602A8FDF785FE5F4874
:10409000C078F0B141F288315C480C30FDF7D9FAB4
:1040A000B8B15A48407801280BD14FF00000574969
:1040B0004870009001904FF00201DDE90223FEF705
:1040C00041FD01210020FEF71BFF4FF000004F498A
:1040D000C8704E48007928B341F288314B481030FF
:1040E000FDF7B7FAF0B14948007898B147488078B1
:1040F0000021CDE9001002210020DDE90223FEF7B6
:104100001BFC4FF00000414908704FF02A01414864
:104110000BF06CFE00210846FEF7F2FE4FF00000A7
:104120003A490871022000F0CFFA8046B8F1000F3A
:104130001EDD0BE03648008800F10100344908809C
:1041400008460088B0F5807F00DD09E0304802882D
:10415000801C11180122022000F06DFB0028E9D11B
:1041600000BFFDF7F1FA2949C8604FF00100C8709F
:104170002748008835287CDBA4E025480288FF21F9
:10418000801C0BF084FD04464CB9214801880220B4
:10419000FFF77DFE4FF000001D49088097E01C48A6
:1041A000801CA4EB000085B219480088A0EB050034
:1041B000174908804DB129460220FFF768FE1448D0
:1041C0000288801C41190BF078FD114800883528C1
:1041D00000DA7CE00E4800792A2823D00121022051
:1041E000FFF755FE0A480088A0F101000849088041
:1041F0000846028800F1030100F102000BF05DFDAA
:1042000060E000003A4C0020384900203C4D00207E
:10421000344700209C4500209C0500207C000020A5
:104220003A4B00203B48467A807A40EA06263948D5
:1042300090F8357090F8360040EA07274FF00701F4
:10424000344800F10200FFF7BBFB80B2B04226D138
:104250002A2130480B30FFF7B3FB80B2B8421ED1A1
:104260004FF003002C490870FDF76EFA2B490861E6
:1042700000E02DE0FFF791FE4FF0010027490871A3
:1042800024480088A0F135002249088008460288A9
:1042900000F1370100F102000BF00FFD11E00321E6
:1042A0000220FFF7F4FD1B480088A0F10300194924
:1042B00008800846028800F1050100F102000BF0B9
:1042C000FCFC00BF134800883528BFF656AF00BF7E
:1042D000002004B0BDE8F0811148007970470F4814
:1042E000007970470D49487170470D494871704712
:1042F00070B505460C46B4F5807F00DB70BD2246E4
:10430000294608480BF0D9FC0648801E048000BFEF
:10431000F4E70000344700209C0500203C4D0020BD
:10432000504D00203C4C00204FF0000102E001F114
:10433000010291B28142FADB7047FE4931F8101058
:10434000FD4A52F82020518370471CB501211820E6
:1043500002F064F94FF001008DF804004FF0000006
:104360008DF806004FF001008DF807004FF00200B5
:104370008DF805004FF0010000906946EF4801F00C
:10438000B3FE4FF4906000906946ED4801F0ACFE3A
:104390000220FFF7D2FF0120FFF7CFFF1CBDE54948
:1043A00031F81010E44A52F82020118370477FB58D
:1043B00005460C4600954FF00000ADF80400ADF83E
:1043C0000600ADF80840ADF80C004FF00C00ADF859
:1043D0000A006946DB4800F093FE0121D94800F04D
:1043E00032FF012240F22551D64800F0F9FF7FBD8F
:1043F0007FB505460C4600954FF00000ADF804006F
:10440000ADF80600ADF80840ADF80C004FF00C0018
:10441000ADF80A006946CC4800F072FE0121CA4896
:1044200000F011FF012240F22551C74800F0D8FFEB
:104430007FBD7FB505460C4600954FF00000ADF8F6
:104440000400ADF80600ADF80840ADF80C004FF0E0
:104450000C00ADF80A006946BC4800F051FE01218D
:10446000BA4800F0F0FE012240F22551B74800F0B2
:10447000B7FF7FBD70B506460C46154626B1012E26
:1044800007D0022E0FD109E029462046FFF78FFF03
:104490000AE029462046FFF7ABFF05E02946204603
:1044A000FFF7C7FF00E000BF00BF70BDA8494A8802
:1044B000498801F10101A64B598003F10601885496
:1044C00019464988B1F5007F03DB4FF000011A4619
:1044D000518070479F494A88498801F101019D4BED
:1044E000598003F10601885419464988B1F5007FC7
:1044F00003DB4FF000011A465180704796494A8805
:10450000498801F10101944B598003F10601885457
:1045100019464988B1F5007F03DB4FF000011A46C8
:104520005180704710B58D4880888C4949888842F1
:1045300014D08A4882888088401C884B9880981DB7
:10454000815C804800F0ADFE84488088B0F5007F33
:104550000FDB4FF00000814988800AE04FF0010036
:104560007E4908704FF0000240F22771754800F054
:1045700037FF10BD10B57A4880887949498888424C
:1045800014D0774882888088401C754B9880981D8D
:10459000815C6D4800F085FE71488088B0F5007F31
:1045A0000FDB4FF000006E4988800AE04FF00100F9
:1045B0006B4908704FF0000240F22771624800F02A
:1045C0000FFF10BD10B5674880886649498888424A
:1045D00014D0644882888088401C624B9880981D63
:1045E000815C5A4800F05DFE5E488088B0F5007F2F
:1045F0000FDB4FF000005B4988800AE04FF00100BC
:10460000584908704FF0000240F227714F4800F0FF
:10461000E7FE10BD30B505460C4625B1012D06D08C
:10462000022D0CD107E02046FFF740FF08E02046AE
:10463000FFF750FF04E02046FFF760FF00E000BFF7
:1046400000BF30BD4248808841494988884206DC25
:104650003F4840883E498988401A80B270473C48AC
:10466000408800F500703A498988401A80B2F5E721
:104670003848808837494988884206DC3548408870
:1046800034498988401A80B270473248408800F522
:10469000007030498988401A80B2F5E72E4880883A
:1046A0002D494988884206DC2B4840882A49898858
:1046B000401A80B270472848408800F500702649AB
:1046C0008988401A80B2F5E700B502464FF0000332
:1046D00022B1012A06D0022A0CD107E0FFF7B2FF6F
:1046E000034608E0FFF7C4FF034604E0FFF7D6FFE8
:1046F000034600E000BF00BF184600BD30B50246CB
:104700000B464FF000010AB9002030BD33E01048DD
:104710008488808800F101000D4DA88005F1060015
:10472000055D084601F10104A1B2155408488088CE
:104730001AE00000E8050020DC050020001002401F
:10474000000C0240001001400044004000480040BE
:10475000644D00206A4F00207051002076530020E5
:104760007C55002082570020B0F5007F03DB4FF01E
:104770000000FE4CA080FD488088FC4C6488A0426C
:1047800001D09942C3DB0846BFE730B502460B466D
:104790004FF000010AB9002030BD17E0F4488488CA
:1047A000808800F10100F24DA88005F10600055D4A
:1047B000084601F10104A1B21554ED488088B0F516
:1047C000007F03DB4FF00000E94CA080E8488088C0
:1047D000E74C6488A04201D09942DFDB0846DBE762
:1047E00030B502460B464FF000010AB9002030BD3B
:1047F00017E0E0488488808800F10100DD4DA88042
:1048000005F10600055D084601F10104A1B2155449
:10481000D8488088B0F5007F03DB4FF00000D54C0E
:10482000A080D4488088D34C6488A04201D09942AB
:10483000DFDB0846DBE7F0B504460D4616464FF0D1
:10484000000724B1012C08D0022C12D10BE0314614
:104850002846FFF753FF07460CE031462846FFF78E
:1048600094FF074606E031462846FFF7B9FF0746A2
:1048700000E000BF00BF3846F0BD10B50446214639
:10488000BD4800F00EFD00BF8021BB4800F0D4FD04
:104890000028F9D010BD10B504462146B74800F0F5
:1048A00000FD00BF8021B54800F0C6FD0028F9D00A
:1048B00010BD10B504462146B14800F0F2FC00BF1F
:1048C0008021AF4800F0B8FD0028F9D010BD70B5C8
:1048D00005460C464FF0000605B10CB9002070BD2E
:1048E000B4F5007F01DD4FF400744FF00000A549DE
:1048F000087017E0304606F101018EB2295CA1482C
:104900004288408800F101009E4B588003F1060068
:10491000815418464088B0F5007F03DB4FF000005B
:1049200019464880A642E5DB012240F227719248F1
:1049300000F056FD3046D2E770B505460C464FF004
:10494000000605B10CB9002070BD0120FFF727FD5E
:10495000B4F5007F01DD4FF400740A2C08DA4FF043
:104960000400894908704FF00A00FCF7D5FE03E007
:104970004FF00600844908704FF00000834908702A
:104980008349087017E0304606F101018EB2295CB8
:104990007F484288408800F101007D4B588003F138
:1049A0000600815418464088B0F5007F03DB4FF0C5
:1049B000000019464880A642E5DB012240F227713B
:1049C0006E4800F00DFD3046BEE770B505460C465A
:1049D0004FF0000605B10CB9002070BD0220FFF7B2
:1049E000DEFCB4F5007F01DD4FF400740A2C08DA18
:1049F0004FF00400674908704FF00A00FCF78CFE86
:104A000003E04FF00600634908704FF00000624970
:104A100008706249087017E0304606F101018EB255
:104A2000295C5E484288408800F101005B4B588059
:104A300003F10600815418464088B0F5007F03DB7F
:104A40004FF0000019464880A642E5DB012240F203
:104A500027714B4800F0C4FC3046BEE72DE9F04119
:104A600005460C4616464FF0000714B90020BDE875
:104A7000F08125B1012D08D0022D12D10BE0314675
:104A80002046FFF724FF07460CE031462046FFF79B
:104A900053FF074606E031462046FFF796FF0746DC
:104AA00000E000BF00BF3846E1E710B50021324802
:104AB00000F0C9FB0021314800F0C5FB002130485F
:104AC00000F0C1FB002240F225512B4800F088FC89
:104AD000002240F22551294800F082FC002240F2D9
:104AE0002551274800F07CFC10BD10B5012122485B
:104AF00000F0A9FB0121214800F0A5FB012120487D
:104B000000F0A1FB012240F225511B4800F068FC97
:104B1000012240F22551194800F062FC012240F2C6
:104B20002551174800F05CFC10BD00B5184800780E
:104B3000012814D11548007800F1010013490870CC
:104B4000114800780978884209DA4FF000000F49CF
:104B500008700F4908704FF00100FFF7EEFB0F4897
:104B6000007801282FD10C48007819E0644D00200E
:104B70006A4F0020705100200010014000440040A6
:104B80000048004076530020DA050020D8050020B8
:104B90007C550020DB050020D9050020825700202D
:104BA00000F1010008490870084800780978884237
:104BB00009DA4FF0000004490870054908704FF009
:104BC0000200FFF7BAFB00BDD9050020DA0500207E
:104BD0008257002001463B4800883B4A1288904299
:104BE00001D1002070473948364A1288805C08702D
:104BF0003448008800F10100324A108010460088D5
:104C0000B0F5007F02D14FF0000010800120E9E7ED
:104C10003EB504464FF000000090019002904FF026
:104C200008008DF800008DF802404FF00A02694636
:104C3000274807F0C4FE3EBDFEB506460D464FF0C0
:104C4000000419E04FF000000090019002904FF036
:104C500008008DF8000006EB04000168CDF8021092
:104C60004068CDF806004FF00A026946184807F080
:104C7000A6FE04F1080084B2281B0828E2DC281BE9
:104C8000002815DD4FF000000090019002904FF0D9
:104C900008008DF80000A5EB040206EB04010DF1FD
:104CA00002000BF00AF80A226946094807F087FE5D
:104CB000FEBD70B504460D4629462046FFF7BCFFF1
:104CC00070BD0000F0050020EE050020885900208E
:104CD000080B002010B586B004464FF001010846CD
:104CE00001F09CFC4FF4D85004904FF003008DF875
:104CF00015004FF002008DF814004FF000008DF801
:104D000016008DF8170004A95A4801F0EDF90A229F
:104D10000821584801F091FA0A220921554801F06A
:104D20008CFA0A220B21534801F087FA0A220C213F
:104D3000504801F082FA4FF4806004904FF0010077
:104D40008DF816008DF817004FF003008DF8150050
:104D500004A9484801F0C8F90A221146454801F063
:104D60006CFA0121880301F095FC0121802001F0FB
:104D700064FC0121080701F0FEFC012102200AF079
:104D800022F94FF4802000F0CCFE4FF480200290F6
:104D90004FF000008DF80C004FF008008DF80D006A
:104DA0004FF001008DF80E0002A800F036FE4FF41F
:104DB000802000F0B6FE4FF02A008DF804004FF07E
:104DC00000008DF805008DF806004FF001008DF809
:104DD000070001A800F0A6FB4FF4802000F0A1FE20
:104DE0004FF4004000F09DFE06B010BD38B50446FB
:104DF0004FF043008DF800004FF003008DF80100E4
:104E00004FF000008DF802004FF001008DF8030014
:104E1000684600F087FB38BD08B54FF043008DF8B9
:104E200000004FF003008DF801004FF000008DF8F6
:104E300002008DF80300684600F074FB08BD10B551
:104E40004FF00002C0EB00134FEAC3034FF007041A
:104E5000B3FBF4F100BF531C1A468B4200D910BDBE
:104E6000F9E710B504464FF47A7104FB01F0FFF73F
:104E7000E6FF10BD0000024002464FF0120008801D
:104E80002A48704702464FF00400088028487047BF
:104E900070B505460C462DB92246264926A005F0D8
:104EA0005BFD04E02246234928A005F055FD21487A
:104EB00070BD70B505460C4622461E4928A005F077
:104EC0004BFD1C4870BD70B505460C462DB92246F9
:104ED000184928A005F040FD04E02246154929A004
:104EE00005F03AFD134870BD70B505460C462DB966
:104EF0002246104927A005F02FFD04E022460D4967
:104F000024A005F029FD0B4870BD70B505460C4680
:104F10002DB92246074922A005F01EFD04E02246D5
:104F200004491FA005F018FD024870BD14060020BA
:104F300030060020885D00204A6F79737469636BC6
:104F400020696E204853206D6F6465004A6F797345
:104F50007469636B20696E204653204D6F64650051
:104F600053544D6963726F656C656374726F6E69DB
:104F70006373000030303030303030303031314207
:104F800000000000303030303030303030313143CC
:104F90000000000048494420436F6E6669670000C6
:104FA00048494420496E746572666163650000007B
:104FB00070B5002009F0C5FF012009F0C2FF0220F2
:104FC00009F0BFFF032009F0BCFF234800684FF041
:104FD0003002B0FBF2F1B1F1807F02D34FF001005B
:104FE00028E021F07F40A0F101004FF0E022506165
:104FF0004FF0FF304FF00F0200280ADA4FEA027339
:105000004FEA1365154B00F00F04A4F104041D557D
:1050100005E04FEA02734FEA1364114B1C5400BFC2
:105020004FF000004FF0E02290614FF00700106158
:105030004FF0000008B100BFFEE770BD10B10128BD
:1050400002D100E001E000E000BF00BF7047704700
:1050500070477047704770476C01002018ED00E002
:1050600000E400E010B50446FA48844208D101216A
:10507000102001F08FFB0021102001F08BFB3EE09F
:10508000F548844209D10121480401F074FB002154
:105090004FF4003001F06FFB31E0F048844209D159
:1050A0000121880401F067FB00214FF4802001F00A
:1050B00062FB24E0EA48844209D10121C80401F0DE
:1050C0005AFB00214FF4002001F055FB17E0E548A2
:1050D000844209D10121080501F04DFB00214FF464
:1050E000801001F048FB0AE0DF48844207D101212B
:1050F000202001F04FFB0021202001F04BFB10BDD0
:105100002DE9FF4705460E464FF00004A14600BFBB
:10511000A046B08900B100BF2C8A24F44054F08826
:1051200040EA04042C82AC8941F20C6024EA0004B9
:10513000B088318940EA0100718940EA010040EA03
:105140000404AC81AC8A24F44074B08940EA0404BD
:10515000AC82684601F0CFF9BE48854202D0C24811
:10516000854202D1DDF80C9001E0DDF80890A889B5
:1051700010F4004F09D009EBC90000EB09103168A9
:105180004FEA4101B0FBF1F708E009EBC90000EB81
:10519000091031684FEA8101B0FBF1F74FF064006C
:1051A000B7FBF0F04FEA00144FEA14104FF064011F
:1051B00001FB1078A88910F4004F0AD04FF032009C
:1051C00000EBC800B0FBF1F000F0070040EA040477
:1051D0000BE04FF0320000EB08104FF06401B0FB21
:1051E000F1F000F00F0040EA04042C81BDE8FF87D5
:1051F0004FF4165101604FF000018180C1800181A0
:105200004FF00C0141814FF000018181704710B5D2
:1052100002464FF00000108A20F470600B884C8822
:1052200043EA04038C8843EA0403CC8843EA04037A
:1052300043EA0000108210BD4FF000010180418060
:105240008180C180704721B1828942F400528281FD
:1052500005E082894DF6FF7302EA030282817047FE
:10526000028B02F47F420283028B42EA0102028334
:10527000704721B1828942F40042828103E0828931
:10528000C2F30E028281704721B1828A42F4006229
:10529000828205E0828A4FF2FF7302EA0302828271
:1052A0007047C1F308028280704701468888C0F3C6
:1052B00008007047028A4FF6F07302EA0302028286
:1052C000028A42EA01020282704721B1828942F0D9
:1052D0000202828105E082894FF6FD7302EA030231
:1052E0008281704782894FF2FF7302EA0302828152
:1052F000828942EA010282817047028A4FF6DF7397
:1053000002EA03020282028A42EA01020282704732
:1053100021B1028A42F48042028205E0028A4BF601
:10532000FF7302EA030202827047818941F00101A2
:105330008181704721B1828A42F00802828205E0B1
:10534000828A4FF6F77302EA030282827047028B69
:10535000D2B20283028B42EA01220283704721B15A
:10536000828A42F02002828205E0828A4FF6DF7351
:1053700002EA03028282704721B1828A42F010025F
:10538000828205E0828A4FF6EF7302EA030282828C
:105390007047828A4FF6FB7302EA03028282828A96
:1053A00042EA01028282704721B1828A42F00202FF
:1053B000828205E0828A4FF6FD7302EA030282824E
:1053C000704710B522B1838A43EA0103838206E065
:1053D000838A6FEA0104A4B203EA0403838210BD46
:1053E000F0B503464FF00004264625462046A1F5B9
:1053F00010676A3F00D100BF1846C1F3421401F0A4
:105400001F064FF0010707FA06F5012C02D100F143
:105410000C0006E0022C02D100F1100001E000F1C6
:10542000140022B1076847EA0507076003E0076830
:1054300027EA05070760F0BD02464FF00000B1F50E
:10544000007F00D100BF13880B420FD04FF0010046
:105450000EE0000000100140004400400048004001
:10546000004C004000500040001401404FF000008C
:10547000704701F40072B2F5007F00D100BF6FEAFF
:1054800001020280704770B502464FF000042346C7
:105490001D461846A1F510666A3E00D100BFC1F353
:1054A000421501F01F034FF0010606FA03F3012D28
:1054B00003D1968906EA030308E0022D03D1168A78
:1054C00006EA030302E0968A06EA03034FEA212470
:1054D0004FF0010606FA04F4168806EA04041BB12C
:1054E00014B14FF0010001E04FF0000070BD10B5A5
:1054F0004FF000021346A1F510646A3C00D100BFD2
:105500004FEA21224FF0010404FA02F4A3B26FEA39
:105510000304048010BD00003A4940EA01013A4A00
:105520001160704770B54FF000010B464FF00F024D
:10553000C4786CB3344C246804F4E064C4F5E064CB
:10554000C4F30721C1F10404E3B242FA01F2447842
:1055500004FA03F4E1B2847804EA020444EA0101A3
:105560004FEA01744FEA1461284C057861550478BC
:1055700004F01F054FF0010404FA05F405784FEA22
:1055800065154FF0E02606EB8505C5F800410CE0F7
:10559000047804F01F054FF0010404FA05F41C4DD3
:1055A00006784FEA661645F8264070BD194A01EAAA
:1055B000020242EA0002184B1A60704731B1174AE2
:1055C000126842EA0002154B1A6005E0134A12689D
:1055D00022EA0002114B1A607047042808D14FF0EC
:1055E000E021096941F004014FF0E022116107E078
:1055F0004FF0E021096921F004014FF0E022116130
:10560000704700000000FA050CED00E000E400E047
:1056100080E100E080FFFF1F08ED00E010ED00E0FA
:10562000016821F0010101604FF00001016041605B
:105630008160C16001614FF021014161E24988420E
:1056400004D14FF03D01E14A91607EE0DE4918311E
:10565000884204D14FF47461DC4A916075E0DA4904
:105660003031884204D14FF47411D84A91606CE013
:10567000D5494831884204D14FF07461D34A9160D2
:1056800063E0D1496031884203D1D149CF4AD1602A
:105690005BE0CD497831884203D1CE49CB4AD16015
:1056A00053E0C9499031884203D1CB49C74AD16000
:1056B0004BE0C549A831884204D14FF03D51C34A5F
:1056C000D16042E0C549884204D14FF03D01C44A4F
:1056D00011603AE0C1491831884204D14FF4746135
:1056E000BF4A116031E0BD493031884204D14FF4E6
:1056F0007411BB4A116028E0B8494831884204D18E
:105700004FF07461B64A11601FE0B44960318842BD
:1057100003D1AF49B34A116017E0B04978318842EC
:1057200003D1AC49AF4A11600FE0AC4990318842D7
:1057300003D1A949AB4A116007E0A849A8318842C2
:1057400003D14FF03D51A74A1160704710B54FF09B
:1057500000020268A44B02EA0302CC680B6843EA29
:1057600004034C6943EA04038C6943EA0403CC69EB
:1057700043EA04030C6A43EA04034C6A43EA040361
:105780008C6A43EA04034C6B43EA04038C6B43EAE0
:10579000040343EA02020260426922F00702D1E9EF
:1057A0000B3443EA040343EA020242610B6943609B
:1057B0004B6883608B68C36010BD4FF000010160CF
:1057C00041608160C160016141618161C1610162CB
:1057D00041628162C162016341638163704721B1AB
:1057E000026842F00102026003E0026822F0010256
:1057F0000260704721B1026842F40042026003E097
:10580000026822F400420260704721B1026842F04F
:105810002002026003E0026822F02002026070476A
:10582000416070470146486880B2704722B1036802
:1058300043F40023036003E0036823F400230360C0
:105840000161704721B1026842F48022026003E0E6
:10585000026822F48022026070470AB1016100E010
:10586000C160704701464FF000000A6812F4002F33
:1058700002D04FF0010001E04FF0000070470146F8
:105880004FF000000A6812F0010F02D04FF0010043
:1058900001E04FF00000704701464FF000004A69F8
:1058A00002F03800704730B503460A464FF000005A
:1058B00004464A4DAB4201D2444900E04B4912F044
:1058C000005F01D04C6800E00C68494D04EA050413
:1058D000144202D04FF0010001E04FF0000030BD53
:1058E00002463E4B9A4201D2384800E03F4811F050
:1058F000005F04D03E4B01EA0303C36003E03C4B6E
:1059000001EA03038360704710B511F0800F09D0DE
:1059100022B1436943F08003436103E0436923F00C
:105920008003436180290DD032B1036801F01E0469
:1059300043EA0403036005E0036801F01E0423EA60
:105940000403036010BD70B502464FF0000004462A
:105950000546224EB24201D21C4B00E0234B254E9D
:10596000314207D04FF01E0606EAD124166806EA37
:10597000040502E0566906F0800511F0005F01D0D1
:105980005C6800E01C681A4E04EA06040C4203D06E
:1059900015B14FF0010001E04FF0000070BD02466C
:1059A0000E4B9A4201D2094800E0104811F0005F06
:1059B00004D00F4B01EA0303C36003E00C4B01EA80
:1059C00003038360704700001060024000600240E3
:1059D0003D000020400F002000003D2010640240E8
:1059E000086402400C6402403F801CF000640240E6
:1059F0007D0F7D0F3C0F3C0F4FF000004A490860BF
:105A000001F10401086001F10401086001F10401E1
:105A1000086046484649086070474FF00001424917
:105A20008279002A40D00A461268036822EA0302FB
:105A30000B461A6001F104021268036822EA0302AD
:105A400001F104031A60027911440A68036842EA0A
:105A500003020A60374A1268036822EA0302354BE0
:105A60001A6003F104021268036822EA0302324B4F
:105A70001A604279102A0ED12E4A1268036842EA4F
:105A800003022C4B1A602C4A1268036842EA030294
:105A9000294B1A600FE02449427911440A680368CF
:105AA00042EA03020A6006E0027911440A680368C8
:105AB00022EA03020A6070474FF0000101600171A1
:105AC0004FF00C0141714FF00001817170471B498B
:105AD000096841EA0001194A1160704701464FF018
