:020000040800F2
:10000000489600208D020008413100084331000865
:10001000473100084B3100084F3100080000000054
:100020000000000000000000000000005331000844
:100030005531000800000000573100085931000810
:10004000A7020008A7020008A7020008A7020008EC
:10005000A7020008A7020008A7020008A7020008DC
:10006000A7020008A7020008A7020008A7020008CC
:10007000A7020008A7020008A7020008A7020008BC
:10008000A7020008A7020008A7020008A7020008AC
:10009000A7020008A7020008A7020008A70200089C
:1000A000A7020008A7020008A7020008A70200088C
:1000B000A7020008A7020008A7020008A70200087C
:1000C000A7020008A7020008A7020008A70200086C
:1000D000A70200086531000891310008BD31000811
:1000E000F1310008A70200080D320008A70200083D
:1000F000A7020008A7020008A7020008A70200083C
:10010000A7020008E9310008A7020008A7020008BA
:10011000A7020008A7020008A7020008A70200081B
:10012000A7020008A7020008A7020008A70200080B
:10013000A7020008A7020008A7020008A7020008FB
:10014000A7020008A7020008A7020008353200082D
:10015000A7020008A7020008A7020008A7020008DB
:10016000A7020008A7020008A7020008A7020008CB
:10017000A7020008A7020008A7020008A7020008BB
:10018000A702000800F002F800F061F80AA090E869
:10019000000C82448344AAF10107DA4501D100F042
:1001A00056F8AFF2090EBAE80F0013F0010F18BFAE
:1001B000FB1A43F001031847780101009801010080
:1001C0000A444FF0000C10F8013B13F0070408BF7D
:1001D00010F8014B1D1108BF10F8015B641E05D01B
:1001E00010F8016B641E01F8016BF9D113F0080FD0
:1001F0001EBF10F8014BAD1C0C1B09D16D1E58BF62
:1002000001F801CBFAD505E014F8016B01F8016B98
:100210006D1EF9D59142D6D370470000002300240B
:1002200000250026103A28BF78C1FBD8520728BF06
:1002300030C148BF0B60704764290FF0258500204E
:1002400070471FB50FF0CBFF1FBD10B510BD0FF0ED
:100250008CFF1146FFF7F5FF01F0AAFA0FF0AAFF95
:1002600003B4FFF7F2FF03BC0FF0B2FFEFF3098016
:10027000704780F309887047EFF30880704780F378
:100280000888704740BA7047C0BA7047094880472D
:1002900009480047FEE7FEE7FEE7FEE7FEE7FEE768
:1002A000FEE7FEE7FEE7FEE704480549054A064B80
:1002B00070470000FF3200088501000848900020C8
:1002C00048960020489200204892002030B503460E
:1002D0000C464FF000010D460BB9002030BD4FF029
:1002E000000105E0585C2844C5B201F1010081B26B
:1002F000A142F7DBC5F1550010704FF00100EDE7AA
:100300007CB505460C46FEA103C9CDE90001012DCF
:100310003BD14FF00000FC490860FC49086060795F
:10032000F9490860A079096840EA0120F6490860A7
:10033000E079096840EA0120F3490860207A0968F9
:1003400040EA0120F049086000F096FFF04801F013
:100350001DF8EF48EF4908609DF8010000F1010128
:100360000DF106020DF10100FFF7B0FF082168460C
:1003700004F002FD4FF00000E7490880E7490880DB
:100380004FF00100E64908708EE0022D48D1207838
:10039000A0F10400DD4909680844DC4908602078C0
:1003A000A0F1040086B24FEAE67006EB90704FEAC7
:1003B000A00204F10501D74801F004F8E078D7491C
:1003C00008802079098840EA0120D449088008463D
:1003D0000088A0F10100D0490988884203D04FF07D
:1003E0000000CF490870CD480088CB4908804FF005
:1003F00002008DF80300E0788DF8040020798DF874
:1004000005009DF8010000F101010DF106020DF15A
:100410000100FFF75BFF0821684604F0ADFC43E0F4
:10042000032D41D1012001F015FAB848006880423F
:100430001ED1BB480078D8B128468DF803004FF094
:100440005A008DF804008DF805009DF8010000F1B8
:1004500001010DF106020DF10100FFF737FF082140
:10046000684604F089FC04F07FFD01F051F817E0C4
:100470004FF003008DF803004FF055008DF8040095
:100480008DF805009DF8010000F101010DF1060253
:100490000DF10100FFF71AFF0821684604F06CFC1B
:1004A0004FF001009F4908707CBD30B5A1B04FF0FE
:1004B000640108A80FF042FD4FF000044FF07E00E9
:1004C0008DF820004FF002008DF822004FF00F044D
:1004D000224695A10DF123000FF097FC04F10100D5
:1004E0008DF821009DF8210000F1020008AB00EB1F
:1004F000030204F102010DF12100FFF7E7FE4FF0C6
:100500007E019DF8210000F1030008AA11549DF816
:10051000210000F1040108A804F02EFC4FF02E0485
:10052000224685A10DF123000FF06FFC04F10100BC
:100530008DF821009DF8210000F1020008AB00EBCE
:10054000030204F102010DF12100FFF7BFFE4FF09D
:100550007E019DF8210000F1030008AA11549DF8C6
:10056000210000F1040108A804F006FC01F08DF957
:1005700005462B467CA21E2168460FF035FB6846D7
:100580000FF00EFCC4B2224669460DF123000FF0B5
:100590003CFC04F10100C0B28DF821009DF821005F
:1005A00000F1020008AB00EB030204F102010DF1BF
:1005B0002100FFF78BFE4FF07E019DF8210000F136
:1005C000030008AA11549DF8210000F1040108A8B5
:1005D00004F0D2FB21B030BD10B586B0044669A14D
:1005E00003C9CDE9040120788DF8080060788DF802
:1005F0000900A0788DF80A00E0788DF80B002079CA
:100600008DF80C0060798DF80D00684601F055FCFE
:10061000DDE9020101F03FFC68B94FF055008DF8AB
:1006200013004FF0F8008DF814004FF0060104A8F5
:1006300004F0A2FB0EE0012001F00CF901F047FCF0
:1006400001F04FFD9DE80F0002F0C0F9062104A85B
:1006500004F092FB06B010BD00B585B04BA207CAEE
:100660008DE8070003A801F028FC9DF80C008DF828
:1006700003009DF80D008DF804009DF80E008DF824
:1006800005009DF80F008DF806009DF810008DF80C
:1006900007009DF811008DF808000DF109020821EE
:1006A0000DF10100FFF712FE0B21684604F064FB18
:1006B00005B000BD0EB538A207CA8DE8070003F0EB
:1006C000CBFE18B14FF05A008DF8040003F0C1FEC4
:1006D00018B14FF05A008DF8050003F0BCF918B1BD
:1006E0004FF05A008DF806000DF107020621501F49
:1006F000FFF7ECFD0921684604F03EFB0EBD00004B
:100700007E0401015A5A9B7E000000200400002054
:1007100000000408180000200C0000200A0000203F
:100720000E000020080000205368656E7A68656E30
:100730002042656948616900415443205368656EF1
:100740005A68656E20506861736520312072656259
:1007500075696C642020323031332D30352D3239BB
:10076000202056312E32000061646472657373205C
:100770006F6620646576696365203D202564200DE1
:100780000A0000007E02065AF37E00007E07070082
:100790000000000000007E007E050801000000004F
:1007A0007E00000010B5FA484079042819D006DC14
:1007B00001280BD002280CD0032822D10DE01228EA
:1007C00013D0132815D014281BD116E0FFF772FFA1
:1007D00018E0012003F049FE14E0012003F048FE78
:1007E00010E0012003F03DF90CE0002003F03DFE95
:1007F00008E0002003F03CFE04E0002003F031F9A3
:1008000000E000BF00BF10BD00B58DB0E1A106A89B
:1008100008F0A6FFE8B916E0DFA10DF109000FF01E
:10082000DFFB28B1DDA10DF109000FF0D9FB00B904
:1008300009E09DF8090008B90DB000BD0DF10900EF
:1008400001F053FE00BF694606A808F0C5FF002866
:10085000E2D000BFF0E700B587B0D1A30FCBCDE960
:100860000523CDE903014FF000000290019001A99A
:1008700002A801F05FFE18B94FF00000029001904D
:1008800002984FEA10608DF8100002984FEA10406D
:100890008DF8110002984FEA10208DF8120002988E
:1008A000C0B28DF8130001984FEA10608DF8140063
:1008B00001984FEA10408DF8150001984FEA10207A
:1008C0008DF816000198C0B28DF8170006AA4FF0F7
:1008D0000B010DF10D00FFF7F9FC0E2103A804F048
:1008E0004BFA07B000BD70B5A6B005460C464FF0F8
:1008F00000064FF07E008DF800004FF009008DF8E3
:1009000002004FF004008DF803004FEA14608DF8E8
:1009100004004FEA14408DF805004FEA14208DF8CA
:100920000600E0B28DF807004FF0320119A808F078
:1009300084FD19A80FF034FA032803D09CA119A84C
:100940000FF057FA294619A80FF053FA19A80FF01B
:1009500027FAC6B2324619A902A80FF016FB06F113
:100960000600C0B28DF801009DF8010000F1020000
:100970006B4600EB03029DF8010000F101010DF14F
:100980000100FFF7A3FC4FF07E019DF8010000F18C
:1009900003000DF800109DF8010000F10401684605
:1009A00004F0EAF926B070BD70B5B4B005464FF05A
:1009B000000634464FF07E008DF804004FF0090029
:1009C0008DF8060029462DA808F0CAFE08B134B0FB
:1009D00070BD77E09DF8A50000B979E06EA10DF13A
:1009E000A5000FF0FDFA28B16CA10DF1A5000FF0E4
:1009F000F7FA00B966E09DF8A40010285CD14FF02A
:100A000003008DF807000DF1A50001F0C8FD0446B4
:100A10004FEA14608DF808004FEA14408DF8090081
:100A20004FEA14208DF80A00E0B28DF80B004FF069
:100A300032011AA808F001FD5DA11AA80FF0D9F93A
:100A40000DF1A5011AA80FF0D4F91AA80FF0A8F912
:100A5000C6B232461AA903A80FF097FA06F10600AB
:100A6000C0B28DF805009DF8050000F1020001AB51
:100A700000EB03029DF8050000F101010DF10500F6
:100A8000FFF724FC4FF07E019DF8050000F1030004
:100A900001AA11549DF8050000F1040101A804F019
:100AA0006BF90DF1A50008F094FC3BA0FFF77CFF6B
:100AB0003AA008F08EFC04E00DF1A5002799FFF79D
:100AC00012FF00BF27A92DA808F086FE002881D0BC
:100AD00000BF00BF7BE71CB536A103C9CDE900010B
:100AE00001F0F0FA18B14FF05A008DF8050001F04E
:100AF000EFFA50B10DF106020521501FFFF7E6FB9A
:100B00000821684604F038F91CBD4FF05A008DF8F2
:100B100004000DF106024FF005010DF10100FFF791
:100B2000D5FB0821684604F027F9FFF794FE19A0C9
:100B3000FFF73AFF4FF07E008DF800004FF00900FC
:100B40008DF802004FF002008DF801004FF0050013
:100B50008DF803004FF045008DF804004FF07E0043
:100B60008DF805004FF00601684604F005F900BF56
:100B7000CAE72DE9FE4304464FF0000845462E46DD
:100B80002F460EA103C9CDE90001DCB9BDE8FE8303
:100B9000AC070020303A00002E0000002E2E00008E
:100BA0007E0A09020000000000000000007E000034
:100BB0002F0000007E0409010000007E7E020A046E
:100BC000457E0000FB4890F83600002867D14FF4BE
:100BD000007101200EF093FFF7494862012221467F
:100BE000F54808F0BEF88046B8F1000F09D0F24988
:100BF000486A0EF050FE0621684604F0BDF8BDE8D4
:100C0000FE834FF00100ED4908704FF07E00EC4983
:100C100008704FF00A0088704FF00100C8704FF064
:100C20000001E74801714171E24800F104000FF052
:100C3000B7F8C6B23246DF4901F10401E04800F1DD
:100C400006000FF0E2F806F10400DD49487008469E
:100C50004078A0F1010001F1030300EB0302084614
:100C6000407800F10101A3F10200FFF72FFB4FF0E4
:100C70007E01D348427800F103008154D048407887
:100C800000F10401CE4804F077F84FF00101C948A3
:100C900080F836104FF00001018701640CE1C5486F
:100CA00090F8360001287CD14FF07E00C4490870CE
:100CB0004FF00A0088704FF00200C870BD48016C08
:100CC000BD4808F06BFC69E007F10100C7B2B94804
:100CD000006CB949C96888425AD2B748C168B5485A
:100CE000006CA1EB0005B348008F00F1010081B258
:100CF000B0480187F52D11D302ABF522B049891D0B
:100D0000AD4808F0ECF8AB48006C00F1F500A949DB
:100D100008644FF0F900AA4948700EE002AB2A4679
:100D2000A749891DA44808F0DAF8A348C168A1487A
:100D3000016405F10400A24948709E48008F4FEA03
:100D400020219F4801719B48008FC1B29C4841718E
:100D50004078A0F101009A4B03F1030300EB03027A
:100D60009748407800F10101A3F10200FFF7AEFAC5
:100D70004FF07E019248427800F103008154904880
:100D8000407800F104018E4803F0F6FF06E008E029
:100D90004FF00201874880F8361001E00A2F93DBFC
:100DA0008AE0844890F8360002284FD1824808F043
:100DB000FBFA8149486A0EF06EFD4FF000007F4952
:100DC00008704FF07E007E4908704FF00A0088706E
:100DD0004FF00300C8704FF0000179480171417174
:100DE000744800F104000EF0DBFFC6B232467149D0
:100DF00001F10401724800F106000FF006F806F157
:100E000004006F49487008464078A0F1010001F1E4
:100E1000030300EB03020846407800F10101A3F14F
:100E20000200FFF753FA4FF07E016548427800F167
:100E3000030081546248407800F10401604803F0E7
:100E40009BFF4FF000005B49087035E0594890F86F
:100E50003600032830D15948007801280AD1564875
:100E600008F0A2FA5449486A0EF015FD4FF0000050
:100E7000524908704FF000014E480187016408464E
:100E80004C4908704FF07E004D4908704FF0020049
:100E900048704FF00B0088704FF05A00C8704FF048
:100EA000EE01474801714FF07E014171407800F139
:100EB0000401434803F060FF00BFA0E610B50446FC
:100EC000204601F012FB10BD1CB53E4903C9CDE917
:100ED00000010521684603F04FFF00BFFEE73EB565
:100EE0000446384A02F1080207CA8DE807004FF0AD
:100EF00006010DF1060003F03FFF3EBD10B58AB0BC
:100F000004464FF0280168460FF018F80F2C76D2EF
:100F1000DFE804F09A080E11121314191C1F224660
:100F2000767C980028494879C91CFFF7E9F98CE0DC
:100F3000FFF7BBFA89E000BF00BF86E02248401DF2
:100F4000FFF74AFB81E0FFF787FB7EE0FFF72AFC13
:100F50007BE0FFF7C0FD78E001F0C0F8F8B1322186
:100F60001448001D0EF0EAFF1748C078421E1649CB
:100F7000491D1048001D0EF048FF0E48C01D01F02D
:100F800040F848B94FF001000A4908704FF00001DD
:100F9000084880F8361002E00120FFF7A0FF54E077
:100FA00004480078012811D14FF00301014880F86E
:100FB000361023E0B40A0020F80A00200F000020B9
:100FC000AE090020EC010108AC0700204FF07E00C4
:100FD000A24908704FF0020048704FF00B00887073
:100FE0004FF00000C8704FF048019C4801714FF06D
:100FF0007E0141714FF0060103F0BEFE25E023E0C3
:1010000001F06CF808B1FFF7FFFB1EE001F066F895
:10101000B8B1282168460EF091FF9148C078421E71
:101020008F49491D68460EF0F0FE0DF1030000F0F7
:10103000E8FF18B96846FFF741FF02E00120FFF71B
:101040004EFF02E0FFF740FF00BF00BF0AB010BD37
:1010500038B54FF000042546204600904FF00105BA
:101060004FF0010431E07E48801C015D4155005D78
:101070007F2824D17A48801C611C405C802809D1DB
:101080004FF07E01764800F10200415504F1010065
:1010900084B214E07248801C611C405C812809D134
:1010A0004FF07F016E4800F10200415504F101004C
:1010B00084B204E04FF000006949088038BD05F1B2
:1010C000010085B204F1010084B265480088401E29
:1010D000A042C8DC624805800088801E81B26A4652
:1010E0005F48C01CFFF7F2F85D480088401E5C496D
:1010F000891C085C9DF80010884206D14FF0000062
:10110000574908804FF00100D8E74FF000005449DC
:10111000088000BFD2E708B54FF0000000905AE009
:1011200050480078E8B19DF800007E2810D19DF865
:1011300000004B4988704FF000004A4908704FF09A
:1011400001004749088000F09DFB4749086042E0E4
:101150004FF00000424908804FF0010041490870FB
:1011600039E09DF800103E480288008800F1010037
:101170003B4B188003F10200815418460088B0F5FB
:10118000007F0ADB4FF00000194608804FF0010095
:10119000344908704FF0000008BD9DF800007E281B
:1011A00019D14FF47A71304800F0EBFA60B19DF834
:1011B00000002B4988704FF000002A4908704FF05A
:1011C00001002749088006E04FF00100254908701A
:1011D000FFF73EFFE0E7684603F09CFD00289FD143
:1011E00000BFD9E708B54FF000000090FFF793FF6C
:1011F000012827D11A490879FFF780FE00F042FB49
:1012000000901748007901281CD103F0FBFC4FF037
:101210000000164908700AE0FFF77DFF012803D19E
:101220000F490879FFF76AFE0A2000F013FB0F4808
:10123000007828B90E49684600F0A3FA0028EBD0E0
:1012400003F000FD0B480078012804D10948001D77
:10125000FFF78FFC00E000BF00BF08BDAE09002013
:10126000AC0700201000002014000020080000201F
:10127000E0930400B40A002010B504F047FDF32009
:1012800004F060FF10BD01464FF00000A94A9142F2
:1012900003D2B1F1006F00D35BE0A74A914205D2BF
:1012A000A44A914202D34FF0080052E0A34A91426F
:1012B00005D2A14A914202D34FF0100049E0A04A62
:1012C000914205D29D4A914202D34FF0180040E06E
:1012D0009C4A914205D29A4A914202D34FF0200093
:1012E00037E0994A914205D2964A914202D34FF093
:1012F00028002EE0954A914205D2934A914202D3AA
:101300004FF0300025E0924A914205D28F4A914237
:1013100002D34FF038001CE08E4A914205D28C4A2D
:10132000914202D34FF0400013E08B4A914205D224
:10133000884A914202D34FF048000AE0874A91421E
:1013400005D2854A914202D34FF0500001E04FF0A0
:101350005800704770B506464FF008054FF000047E
:101360003046FFF790FF05462C4609E00221204653
:1013700004F014FD082801D0012070BD04F1080418
:1013800005F108008442F1D30020F6E770B5064667
:101390004FF008054FF000043046FFF774FF054694
:1013A0002C4609E00221204604F0F8FC082801D070
:1013B000012070BD04F1080405F108008442F1D356
:1013C0000020F6E72DE9F04104460E4617464FF09F
:1013D000000500BF18E056F82510206804F086FDCF
:1013E00008280DD12068006856F82510884202D0E0
:1013F0000220BDE8F081206800F10400206001E0D7
:101400000120F6E705F10105BD4203D220685449E9
:101410008842E0D90020ECE710B54FF008044B48B3
:10142000FFF731FF044604F05CFEE1080841E208E2
:1014300040F6FF711141884201D1012010BD00200A
:10144000FCE770B54FF008044FF002053F48FFF786
:101450001AFF04464FEAD4014FF0010000FA01F0F0
:10146000A0F1010040F6FF71A1EB000504F0AEFD14
:101470000021284604F0BDFD04F020FE082801D01C
:10148000022070BD0120FCE7F8B54FF00005354E95
:101490002E4800904FF0000404E0305D2844C5B2AF
:1014A00004F10104522CF8D3C5F1550030552748FA
:1014B000FFF750FF14222B496846FFF783FFF8BD62
:1014C00070B5284D284E4FF0000403E0305D2855DC
:1014D00004F10104522CF9D3FFF7D6FF70BD70B5AB
:1014E0004FF000051F4EFFF7C7FE53221749304645
:1014F0000EF08BFC2C4604E0305D2844C5B204F1AC
:101500000104532CF8D3552D01D0FFF7D9FF70BD3E
:1015100010B50C4840681549086008460068144931
:10152000086008490868FEF7AAFE1148006880476D
:1015300010BD0000004000080080000800C0000846
:10154000000001080000020800000408000006086E
:101550000000080800000A0800000C0800000E083F
:10156000FBFF0F08200B00201C000020740000204F
:101570007000002008B54FF4A06004F075F84FF03B
:1015800025008DF800004FF000008DF801008DF867
:1015900002004FF001008DF80300684604F06AF87D
:1015A0004FF026008DF800004FF000008DF801008C
:1015B0004FF001008DF802008DF80300684604F03A
:1015C00059F84FF027008DF800004FF000008DF81B
:1015D00001004FF002008DF802004FF001008DF87D
:1015E0000300684604F046F84FF031008DF8000023
:1015F0004FF001008DF801004FF000008DF802005F
:101600004FF001008DF80300684604F033F808BD80
:1016100010B50121080705F0D6F8012006F013FBEC
:10162000012004F09FFF00BF612004F038FF002874
:10163000FAD04FF4007005F075F84FF0FF009449B0
:1016400008604FF07F00934908604FF0010005F0FB
:1016500084F805F0B1FD10BD10B50121082005F09A
:1016600085F84FF440508C4908604FF00000087135
:1016700088714FF0030048714FF00000C87187482F
:1016800004F0DAFD10BD08B500200DF002FDFFF7F3
:10169000E3FF00F04BF9FFF722FF02F018FF80484C
:1016A000804B814A01210090804808F0B2FC45F24D
:1016B000555004F0ABFE052004F0ABFE40F6AA2026
:1016C00004F0AAFE04F0B0FE04F0A9FE08BD7FB548
:1016D00002200DF089FC01200DF086FC00200DF0A9
:1016E00083FC00224FF49641022002F085FF002285
:1016F0004FF41651012002F07FFF00224FF41651E3
:10170000104602F079FFFFF735FF042004F00DF8D2
:10171000684604F098FF4FF064020198B0FBF2F1C4
:10172000B1F1807F00D327E021F07F40A0F10100DC
:101730004FF0E02250614FF0FF304FF00F020028D1
:101740000ADA4FEA02734FEA1365594B00F00F04AF
:10175000A4F104041D5505E04FEA02734FEA136437
:10176000544B1C5400BF4FF000004FF0E02290613A
:101770004FF00700106100BF0EF062F80EF0DAF9CA
:101780007FBD024691B14C4B10681B68984202D94C
:101790004FF000001060484B10681B68181A884210
:1017A00004D3454800681060012070470020FCE722
:1017B0004FF00004FFF78BFFFFF765FF00F087FB9A
:1017C00000F0DDFD01F0EDF84FF40051334804F076
:1017D000ACFD3A4908704FF48051304804F0A5FD43
:1017E0003649097840EA41003449087008460078D3
:1017F00000F0030008700846007840F0A00030496F
:10180000087026E04FF47A712E48FFF7BAFF60B1F6
:1018100000F05DFB3C2C05DD00F063FC00F0DBFD1F
:101820004FF0000404F10100C4B2C8212648FFF7BC
:10183000A8FF10B100200DF060FCFFF7D3FC04F00E
:10184000EEFD02F0D6FC02F0A1F902F07DFA04F000
:10185000E6FDD7E710B504461748006820441B4949
:10186000086001E004F0DBFD1848006812490968CF
:101870008842F7D810BD1048006800F10A000E49F0
:10188000086070470C48006870470C480078704743
:101890007C0000209800002084000020000C024002
:1018A00030060020A4060020F4050020740B002060
:1018B00018ED00E000E400E0780000208000002047
:1018C00081000020900000208C0000209400002067
:1018D0001CB50121202004F049FF4FF001000090C9
:1018E0008DF804004FF000008DF806004FF0010065
:1018F0008DF807004FF002008DF805006946FD489D
:1019000004F09AFC1CBD1CB50121202004F02EFF20
:101910004FF000008DF804008DF807004FF0010033
:1019200000906946F34804F087FC1CBD1CB50121FA
:10193000202004F01BFF4FF0030000904FF0010047
:101940008DF804004FF000008DF806004FF0010004
:101950008DF807004FF002008DF805006946E54854
:1019600004F06AFC1CBD70B505464FF0000634E07B
:101970000221E04804F0FBFC4FF0000402E004F117
:10198000010084B2A62CFADB15F0800F04D00121EF
:10199000D84804F0EAFC03E00121D64804F0E7FC53
:1019A0004FEA45604FEA10654FF0000402E004F191
:1019B000010084B2B4F5FA7FF9DB0221CD4804F0CE
:1019C000D4FC4FF0000402E004F1010084B2B4F54D
:1019D000FA7FF9DB06F10100C6B2082EC8DB02214E
:1019E000C44804F0C4FC4FF0000402E004F101001C
:1019F00084B2A62CFADB70BD2DE9F04106464FF00B
:101A00000101BC4804F0B1FC4FF0000731E00221B5
:101A1000B84804F0ACFC4FF0000402E004F101000F
:101A200084B2B4F5FA7FF9DB0221B24804F09DFCE0
:101A30004FF0000402E004F1010084B2FA2CFADB5A
:101A40004FEA45604FEA10654FF00101A94804F0E4
:101A50006CFC10B105F10100C5B24FF0000402E0CA
:101A600004F1010084B2B4F5FA7FF9DB07F101005B
:101A7000C7B2082FCBDB02219E4804F078FC3570FA
:101A80002846BDE8F08110B502219A4804F06DFCAB
:101A90000121984804F069FC4FF0000402E004F1D1
:101AA000010084B2B4F5FA7FF9DB0121914804F01A
:101AB0005EFC4FF0000402E004F1010084B2B4F5D2
:101AC000FA7FF9DB02218B4804F051FC4FF000044F
:101AD00002E004F1010084B2A62CFADB10BD10B5BF
:101AE0000121844804F043FC0221824804F03DFCBB
:101AF0004FF0000402E004F1010084B2B4F5FA7F73
:101B0000F9DB01217B4804F030FC4FF0000402E0D7
:101B100004F1010084B2B4F5FA7FF9DB10BD10B511
:101B2000FFF7D6FE0221734804F021FC4FF00004B9
:101B300002E004F1010084B2B4F5FA7FF9DB01217F
:101B40006C4804F014FC4FF0000402E004F10100C2
:101B500084B2B4F5FA7FF9DB0221664804F005FC93
:101B60004FF0000402E004F1010084B2B4F5FA7F02
:101B7000F9DB02215F4804F0FAFB4FF0000402E0B9
:101B800004F1010084B2B4F5FA7FF9DBFFF7BBFE84
:101B900010BD10B5FFF79CFE0221564804F0E7FB8C
:101BA0004FF0000402E004F1010084B2B4F5FA7FC2
:101BB000F9DB01214F4804F0D8FB4FF0000402E0AC
:101BC00004F1010084B2B4F5FA7FF9DB022149483F
:101BD00004F0CBFB4FF0000402E004F1010084B2FA
:101BE000B4F5FA7FF9DB0221424804F0C0FB4FF064
:101BF000000402E004F1010084B2B4F5FA7FF9DBDD
:101C0000FFF781FE10BD10B502213A4804F0AFFB8A
:101C10004FF0000402E004F1010084B2B4F5FA7F51
:101C2000F9DB0121334804F0A0FB4FF0000402E08F
:101C300004F1010084B2B4F5FA7FF9DBFFF763FE2B
:101C400002212C4804F091FB4FF0000402E004F163
:101C5000010084B2B4F5FA7FF9DB0121254804F0D4
:101C600064FB28B10221234804F081FB002010BD51
:101C70000221204804F07BFBFFF72AFE0120F6E753
:101C800013B5FFF700FFD020FFF76DFEFFF7BBFF96
:101C90000020FFF768FEFFF7B6FF9DF80000FFF792
:101CA00062FEFFF7B0FF9DF80100FFF75CFEFFF753
:101CB000AAFF9DF80200FFF756FEFFF7A4FF0120E0
:101CC000FFF751FEFFF79FFF9DF80300FFF74BFE64
:101CD000FFF799FF9DF80400FFF745FEFFF793FF1C
:101CE0009DF80500FFF73FFEFFF78DFFFFF7F7FEBA
:101CF0001CBD00000014024010B50446FFF7C3FEEF
:101D0000D020FFF730FEFFF77EFF0020FFF72BFE0D
:101D1000FFF779FFFFF7B7FED120FFF724FEFFF7AB
:101D200072FFFFF7F0FD2046FFF766FEFFF7F7FEB4
:101D3000601CFFF761FEFFF7F2FEA01CFFF75CFEE0
:101D4000FFF7EDFEE01CFFF757FEFFF7E8FEE01C93
:101D5000FFF752FEFFF7E3FE201DFFF74DFEFFF7F2
:101D6000DEFE601DFFF748FEFFF713FFFFF7B0FD33
:101D7000FFF7B5FE10BD03B583B05AA207CA8DE8C0
:101D800007009DF80C003B2818DC9DF80D003B284F
:101D900014DC9DF80E00172810DC9DF810000C28AC
:101DA0000CDC9DF81000401E1DF800009DF80F107F
:101DB000884203DB9DF81100322802DD002005B0C7
:101DC00000BD9DF8100002282BD19DF8111001F5DF
:101DD000FA614FF4C87291FBF2F302FB1311B1B137
:101DE0009DF8111001F5FA604FEAE07100EB917176
:101DF0004FEAA101B0EB81010BD19DF8111001F563
:101E0000FA61642291FBF2F302FB131109B1012183
:101E100000E0002129B99DF80F101C2901DD0020E8
:101E2000CDE70120CBE7F0B502460B464FF00000AE
:101E3000044605461946012A18D100BF13E00E5C7E
:101E40004FF00A0796FBF7F606F00F040E5C96FBC0
:101E5000F7FC07FB1C6606F00F0505EB04160E5495
:101E600000F10106F0B20628E9DB13E092B94FF069
:101E700000000DE00E5C06F00F060F5C4FEA27171E
:101E800007EB870706EB47060E5400F10106F0B298
:101E90000628EFDBF0BD13B5DDE90001FFF76BFFAE
:101EA00048B169460120FFF7BEFFDDE90001FFF7F9
:101EB000E7FE01201CBD0020FCE710B504462046CB
:101EC000FFF71AFF21460020FFF7ADFF10BD10B548
:101ED0000748FFF7F2FF10BD05490A6802608988CC
:101EE000818070471F1D1F1E1F1E1F1F1E1F1E1FCC
:101EF0009C00002030B5034614464FF00002104607
:101F000000BF1EE09D5C4FEA25100A2803DA00F1AD
:101F100030050D7002E000F157050D7001F101016F
:101F20009D5C05F00F000A2803DA00F130050D7002
:101F300002E000F157050D7001F1010102F1010508
:101F4000AAB2A242DEDB30BD30B5034614464FF0E4
:101F50000000024600BF51E01D5C302D08DB1D5C17
:101F6000392D05DC1D5C4FEA05754FEA15621AE054
:101F70001D5C612D0ADB1D5C7A2D07DC1D5CA5F163
:101F800007054FEA05754FEA15620CE01D5C412D0F
:101F900009DB1D5C5A2D06DC1D5CA5F107054FEA27
:101FA00005754FEA156200F10105A8B21D5C302DE0
:101FB00008DB1D5C392D05DC1D5CA5F130051544E1
:101FC0000D7016E01D5C612D08DB1D5C7A2D05DCB3
:101FD0001D5CA5F1570515440D700AE01D5C412DEF
:101FE00007DB1D5C5A2D04DC1D5CA5F1370515448B
:101FF0000D7001F1010100F10105A8B2A042ABDBB7
:1020000030BD10B504462146FD480DF0E9FF20B96A
:1020100002F028FA08B1012010BD2146F9480DF060
:10202000DFFF20B902F01EFA08B10120F4E72146D3
:10203000F3481E300DF0D4FF20B902F010FA08B1B9
:102040000120E9E72146EF481E300DF0C9FF20B915
:1020500002F005FA08B10120DEE72146E8483C30ED
:102060000DF0BEFF20B901F0F9FC08B10120D3E763
:102070002146E4483C300DF0B3FF20B901F0EEFCFE
:1020800008B10120C8E70020C6E710B54FF00100F5
:10209000DD4908604FF00000087188714FF00300BF
:1020A00048714FF00000C871D84804F0C5F84FF0EF
:1020B0000200D54908604FF00100C871D34804F010
:1020C000BBF810BD10B50221D04804F02EF910BDA8
:1020D00010B50121CD4804F028F910BDCC48007896
:1020E000704730B58BB04FF000000090019004466F
:1020F0000546FFF7F3FF08B90BB030BD02A8FFF7A4
:10210000EBFE9DF80D004FF00A0190FBF1F000F19D
:102110003000C0B28DF800009DF80D0090FBF1F288
:1021200001FB120000F13000C0B28DF801009DF8F3
:102130000C0090FBF1F000F13000C0B28DF802000D
:102140009DF80C0090FBF1F201FB120000F1300051
:10215000C0B28DF803009DF80B0090FBF1F000F188
:102160003000C0B28DF804009DF80B0090FBF1F236
:1021700001FB120000F13000C0B28DF80500A54847
:10218000C0789DF80B10884259D0694604A807F022
:10219000E7FA0546052D2BD1684607F0BDFC00285F
:1021A0004DD19D4800990160BDF804108180994887
:1021B00002990160BDF80C1081804FF0000414E01A
:1021C000C4EB04118E4A02EB4100062292490DF045
:1021D000DCFEC4EB04118B4A02EB410006228E495F
:1021E0000DF0D3FE04F10100C4B2032CE8DB26E0BD
:1021F0002DBB894800990160BDF804108180854895
:1022000002990160BDF80C1081804FF0000414E0C9
:10221000C4EB04117A4A02EB410006227E490DF01C
:10222000B4FEC4EB0411774A02EB410006227A495E
:102230000DF0ABFE04F10100C4B2032CE8DB00BFDB
:102240005AE730B58BB04FF0000000900190044683
:10225000054602A8FFF740FE9DF80D004FF00A0169
:1022600090FBF1F000F13000C0B28DF800009DF855
:102270000D0090FBF1F201FB120000F13000C0B242
:102280008DF801009DF80C0090FBF1F000F130009A
:10229000C0B28DF802009DF80C0090FBF1F201FB3A
:1022A000120000F13000C0B28DF803009DF80B0061
:1022B00090FBF1F000F13000C0B28DF804009DF801
:1022C0000B0090FBF1F201FB120000F13000C0B2F4
:1022D0008DF805004F4802990160BDF80C1081800F
:1022E000694604A807F03CFA0546052D24D1684646
:1022F00007F012FC002840D1474800990160BDF862
:102300000410818000BF14E0C4EB04113C4A02EBCE
:102310004100062240490DF038FEC4EB0411394A51
:1023200002EB410006223C490DF02FFE04F10100B2
:10233000C4B2032CE8DB20E0FDB937480099016006
:10234000BDF8041081804FF0000414E0C4EB0411C8
:102350002B4A02EB410006222F490DF016FEC4EB7A
:102360000411284A02EB410006222B490DF00DFE14
:1023700004F10100C4B2032CE8DB0BB030BD10B592
:102380004FF00004FFF781FE0120FFF763FA23A15D
:1023900021480DF0E1FC20461D490870FFF798FE2A
:1023A00000B110BD4FF4806101200DF0A8FB1D4964
:1023B0004863002006F0C0FC044624B11949486B6C
:1023C0000DF069FAEDE7FFF73CFF4FF0010010490F
:1023D000087000BFE5E710B54FF00004FFF778FE86
:1023E00010B30B48007898B30021084606F0A4FC0F
:1023F0000C49486B0DF04FFA2046054908702EE055
:10240000A4000020FE0000205C010020000C02401F
:1024100058010020640100206A010020313330316E
:1024200030310000AC330020FE48007880B94FF412
:10243000806101200DF063FBFB494863002006F03A
:102440007BFC04462CB1F849486B0DF024FA10BD12
:1024500005E0FFF7F6FE4FF00100F249087000BFFB
:10246000F5E710B58EB00446214607A807F078F9C5
:10247000002838D131E09DF80D0008B90EB010BD2C
:10248000EAA10DF10D000DF0ABFD28B1E8A10DF1B1
:102490000D000DF0A5FD00B91FE09DF80C001028FF
:1024A00016D1E2A10DF10D000DF09AFD28B1E0A1C9
:1024B0000DF10D000DF094FD00B90EE00DF10D00D1
:1024C00006F087FFD9A0FFF7CCFFD9A006F081FF67
:1024D0000DF10D0007F0B7FA00BF01A907A807F03A
:1024E0007BF90028C7D000BFC8E730B587B00446E5
:1024F0004FF0000501A9204607F09CF9054615B1EB
:10250000002007B030BD9DF80C0010280DD12046EA
:1025100006F05FFF60B9C5A0FFF7A3FFC4A006F0F7
:1025200058FF204607F08FFA02E0204607F08BFAAA
:102530000020E6E770B590B004460D464FF000006D
:102540000F900646CDF838D04FF480714FF001005F
:102550000DF0D5FA0D900EAA0FA9B6A007F089F9D3
:1025600006462EB10D980DF096F9002010B070BD02
:102570000E9880780F9948434FEA500028600E98D3
:10258000C069A0F102000E99897800FB01F04FEAC2
:10259000500020600D980DF07EF90120E6E730B57F
:1025A0008DB005464FF00004294606A807F0D8F87C
:1025B00010B100200DB030BD23E09DF8090000B936
:1025C00025E09AA10DF109000DF00AFD28B198A1AE
:1025D0000DF109000DF004FD00B912E09DF80800AE
:1025E00010280BD10DF1090006F0F3FE8FA0FFF7C4
:1025F000D6FF04448EA006F0ECFE01E000980444EF
:1026000000BF694606A807F0E7F80028D5D000BF4C
:102610002046CFE770B5ADF5167D04460D464FF068
:102620000000819080904FF4007168460DF086FCA8
:102630004FF0000615B90DF5167D70BD4FF48061A1
:1026400001200DF05CFA95904FF4806101200DF0AF
:1026500056FA8B90012221468CA806F082FB064692
:1026600036B18B980DF017F995980DF014F9E2E753
:102670000A2271A182A806F074FB06464EB18CA80E
:1026800006F092FE8B980DF006F995980DF003F97F
:10269000D1E729468CA806F081FF06464FF00001DD
:1026A00082A806F07BFF06464FF40070819010E090
:1026B00081AB4FF4007269468CA806F010FC00B1A3
:1026C0000BE080AB694682A8819A06F0FCFC00B161
:1026D00003E08198B0F5007FEAD000BF82A806F041
:1026E00063FE8CA806F060FE8B980DF0D4F89598E8
:1026F0000DF0D1F82046FFF7F8FE21464EA007F076
:102700005FFB00BF97E770B594B004464FF000053B
:102710002E464CA10DF10D000DF01EFB45A10DA89C
:1027200007F01EF808B114B070BD24E09DF8250034
:1027300000B926E03DA10DF125000DF051FC28B1B6
:102740003BA10DF125000DF04BFC00B913E09DF805
:10275000240010280ED10DF125010DF10D000DF012
:102760003FFC002806DD182207A901A80DF092FB06
:102770004FF0010600BF07A90DA807F02DF80028AB
:10278000D4D000BF06B9CEE70DF10D00FFF707FF6B
:102790000546B5F1487F04D20DF10D00FFF7A5FE07
:1027A0005FE00DF10D0006F014FE20A10DA806F06B
:1027B000D7FF4FF0000001901EE09DF8250000B902
:1027C00020E01AA10DF125000DF00AFC28B118A196
:1027D0000DF125000DF004FC00B90DE09DF824007A
:1027E000102808D007990198884204D2182207A916
:1027F00001A80DF04FFB00BF07A90DA806F0ECFFE4
:102800000028DAD000BF4FF00101019801EB50051C
:10281000B4EB952F1CD20198C4EB902000F101007D
:1028200014E0000058010020AC3300202E0000000E
:102830002E2E0000303A00006261636B75702E74BA
:102840007874000039393939393900004FEA802568
:1028500029460DF10D00FFF7DDFEAFF22C0006F06A
:10286000B8FD00BF5FE730B589B004464FF0000502
:1028700028460290019003A9204606F0DBFF08B12C
:1028800009B030BD01A902A8FFF754FE00B9F7E76F
:102890000398B0F1487F12D90398A0F148750198C8
:1028A000B0F5484F07D201990398C1EB902000F191
:1028B00001004FEA802529462046FFF7ABFE00BF06
:1028C000DEE71CB54FF00000019000900446694619
:1028D00001A8FFF72FFE00B91CBD09E00098FFF723
:1028E00012FF694601A8FFF725FE04F10100C4B2FA
:1028F0000098B0F5484F01D2142CEFDB00BFEBE796
:102900002DE9F0418CB00746884614464FF000068A
:1029100014B1F948007810B90CB0BDE8F081384620
:10292000FFF7A1FFFFF7CDFF4FF4806101200DF00D
:10293000E6F80B901222394602A806F012FA054674
:102940002DB10622394602A806F00BFA05461DB144
:102950000B980CF0A0FFDFE702A8059906F01EFE19
:1029600015E0A01BB0F5007F0ADB01AB4FF400724D
:10297000414602A806F0A7FB06F5007086B206E005
:10298000A21B01AB414602A806F09DFB2646A642CB
:10299000E7DB02A806F008FD0B980CF07CFF00BFF7
:1029A000BAE71FB5D5A103C9CDE902016846FFF713
:1029B00093FA0098CDF80A00BDF80400ADF80E00B7
:1029C000082202A9CFA0FFF79BFF1FBD0FB585B05E
:1029D000CFA30FCBCDE90323CDE901010598CDF8B5
:1029E0000600BDF81800ADF80A000798CDF80E00F3
:1029F000BDF82000ADF81200102201A9C1A0FFF718
:102A00007FFF09B000BD2DE9F04104460F46154691
:102A10004FF0000615B1B848007808B9BDE8F0815C
:102A200004EB4420BE4931F81000284486B2B6F5C4
:102A3000806F3EDB04EB442031F81000C0F580606D
:102A400086B204EB4421B64A02EB410101F10201D6
:102A500004EB4422B24B33F8122001EB0200324661
:102A600039460DF0D2F904EB4422AD4B03EB4202A0
:102A7000911CC4EB0412AB4B03EB42004FF4806299
:102A8000FFF73EFFA5EB060004EB4421A44A22F821
:102A9000110004EB442394463CF8132007EB060195
:102AA00004EB44230CEB430303F102000DF0ADF9FA
:102AB0001AE004EB44219A4A02EB4101891C04EB21
:102AC0004422974B33F8122088182A4639460DF0D5
:102AD0009CF904EB4420924931F81000284404EB9F
:102AE00044218F4A22F8110000BF97E72DE9FF41EA
:102AF00004460D46DDE90A767F48007808B9BDE84E
:102B0000FF81012D41D14FF0680004EB840101EBFE
:102B1000C411854A02F811009DF8080004EB8401F5
:102B200001EBC41102EB410148709DF8091004EB60
:102B3000840000EBC41002EB400081709DF80A1085
:102B400004EB840000EBC41002EB4000C1704FF0B6
:102B5000680004EB840101EBC41102EB410108722F
:102B600004EB840101EBC41102EB410101F10A0005
:102B7000324639460DF049F904EB840101EBC411EA
:102B8000694A02EB41014E7242E0022D40D19DF8AC
:102B9000080004EB840101EBC411634A02EB41011C
:102BA00008719DF8091004EB840000EBC41002EBDF
:102BB000400041719DF80A1004EB840000EBC41042
:102BC00002EB4000817104EB840101EBC41102EBC4
:102BD0004101CE7104EB840000EBC41002EB400114
:102BE0004FF00A022046FFF70EFF04EB840000EBD3
:102BF000C4104D4B03EB4000427A04EB840000EB21
:102C0000C41003EB400000F10A012046FFF7FBFE71
:102C100000BF74E72DE9F04104460F4615464FF01A
:102C2000000615B13448007808B9BDE8F08104EB1E
:102C300044203E4931F810002844B0F5806F3EDB57
:102C400004EB442031F81000C0F5806086B204EB3C
:102C50004421364A02EB410101F1020104EB442216
:102C6000324B33F8122001EB0200324639460DF0A8
:102C7000CCF804EB44222D4B03EB4202911CC4EB35
:102C800004122B4B03EB42004FF48062FFF738FE37
:102C9000A5EB060004EB4421244A22F8110004EBC2
:102CA000442394463CF8132007EB060104EB44232D
:102CB0000CEB430303F102000DF0A7F81AE004EB5C
:102CC00044211A4A02EB4101891C04EB4422174BB0
:102CD00033F8122088182A4639460DF096F804EB8E
:102CE0004420124931F81000284404EB44210F4AD3
:102CF00022F8110000BF98E7580100206801000089
:102D000000000000303A54696D652E74787400003C
:102D100068020000000000006803000000000000DE
:102D200064110020A40000206A1D002088200020DB
:102D3000FE0000202DE9FF5F04468946DDE90E7A9A
:102D40004FF00005AB462E46A846F748007808B974
:102D5000BDE8FF9FB9F1000F7ED14FF0680004EB92
:102D6000840101EBC411F14A02F811009DF808003A
:102D700004EB840101EBC41102EB410148709DF8A2
:102D8000091004EB840000EBC41002EB40008170DA
:102D90009DF80A1004EB840000EBC41002EB400025
:102DA000C1704FF0680004EB840101EBC41102EB29
:102DB000410108724FF0000004EB840101EBC411E3
:102DC00002EB41014872554643E09DF8080004EBD0
:102DD000840101EBC411D54A02EB410108719DF851
:102DE000091004EB840000EBC41002EB40004171B9
:102DF0009DF80A1004EB840000EBC41002EB4000C5
:102E000081714FF0010004EB840101EBC41102EB6E
:102E10004101C8714FF0FF0004EB840101EBC411C4
:102E200002EB4101487204EB840000EBC41002EB9A
:102E300040014FF00A022046FFF7ECFEB919FF22CD
:102E40002046FFF7E7FEA5F1FF0085B206F1FF007F
:102E500086B2FF2DB9DA00E015E0B91904EB84025F
:102E600002EBC412B14B03EB420202F10A002A4604
:102E70000CF0CBFF04EB840101EBC411AB4A02EB75
:102E800041014D7211E1B9F1010F7DD1554604EBBD
:102E9000840000EBC410A54901EB400090F80980C4
:102EA00004EB840000EBC41001EB4000407A28449E
:102EB000FF286ADB04EB840000EBC41001EB400048
:102EC000407A00EB0A059DF8080004EB840101EB51
:102ED000C411964A02EB410108719DF8091004EBF8
:102EE000840000EBC41002EB400041719DF80A1011
:102EF00004EB840000EBC41002EB400081714FF042
:102F0000010004EB840101EBC41102EB4101C87123
:102F10004FF0FF0004EB840101EBC41102EB41010F
:102F2000487208F10A0204EB840000EBC4107F4BE6
:102F300003EB40012046FFF76DFEC8F1FF0B5A4638
:102F400039462046FFF766FEA5F1FF0085B25E46D2
:102F50009DF8080004EB840101EBC411734A02EBF5
:102F6000410148709DF8091004EB840000EBC41087
:102F700002EB400081709DF80A1004EB840000EB26
:102F8000C41002EB400001E03FE025E0C1704FF0CB
:102F900000081FE04FF0FF0004EB840101EBC411B7
:102FA000624A02EB4101487204EB840000EBC4105A
:102FB00002EB40014FF00A022046FFF72BFEB91941
:102FC000FF222046FFF726FEA5F1FF0085B206F19D
:102FD000FF0086B2FF2DDDDAB91904EB840202EBA3
:102FE000C412524B03EB42020A3202EB08002A469B
:102FF0000CF00BFF08EB050004EB840101EBC4119E
:103000004A4A02EB410148724FE0B9F1020F4CD13C
:103010004FF0010004EB840101EBC411434A02EBC1
:103020004101C8719DF8080004EB840101EBC41153
:1030300002EB410108719DF8091004EB840000EBDC
:10304000C41002EB400041719DF80A1004EB8400AB
:1030500000EBC41002EB4000817104EB840000EB34
:10306000C41002EB40014FF00A022046FFF7D2FDE8
:1030700004EB840000EBC4102C4B03EB4000427ABD
:1030800004EB840000EBC41003EB400000F10A01E4
:103090002046FFF7BFFD4FF0000004EB840101EB79
:1030A000C411224A02EB4101487200BF50E670B5DC
:1030B00004460D461C48007800B970BDC5B904EB44
:1030C00044231B4E36F8132004EB442306EB430342
:1030D000991CC4EB0413174E06EB4300FFF710FCDA
:1030E0004FF0000004EB4421114A22F8110019E0CE
:1030F000012D17D104EB44230F4E36F8132004EBB7
:10310000442306EB4303991CC4EB04130B4E06EB5C
:103110004300FFF7F5FB4FF0000004EB4421064AA3
:1031200022F8110000BFC8E7580100208E2C0020B3
:1031300064110020A400002088200020FE00002050
:10314000704700BFFEE700BFFEE700BFFEE700BF1D
:10315000FEE770477047704710B5FEF78CFB01F033
:1031600091FD10BD10B52021354802F00DFA01285F
:1031700006D1334802F041F90446E0B201F058FAB2
:1031800080212F4802F000FA08B101F08DFA10BD3D
:1031900010B520212B4802F0F7F9012806D1294863
:1031A00002F02BF90446E0B201F056FA80212548DE
:1031B00002F0EAF908B101F09FFA10BD10B5202124
:1031C000214802F0E1F9012806D11F4802F015F963
:1031D0000446E0B201F054FA80211B4802F0D4F911
:1031E00008B101F0AFFA10BD10B50BF0B6FD10BD7F
:1031F00010B54FF4004002F029FD30B1134809F03A
:103200005DF84FF4004002F034FD10BD10B50F48DA
:10321000807A50B10E48006820F006000C49086022
:1032200000F06DF8094809F084F84FF4802002F0AE
:1032300020FD10BD10B5054808F036F810BD00009F
:10324000001001400044004000480040740B002082
:1032500010ED00E04FF000010846674A126842F4A2
:103260008032654B1A6000BF634A126802F4003076
:1032700001F1010110B9B1F5A06FF5D15E4A1268F4
:1032800012F4003F02D04FF0010001E04FF00000C7
:10329000012833D1594A1268584B1A601A461268ED
:1032A00042F400421A601A46126842F4A0521A60B0
:1032B000534AA3F104031A604F4A126842F0807225
:1032C0004D4B1A6000BF4C4A126812F0007FFAD0D2
:1032D00040F203724B4B1A60484A126822F0030214
:1032E000464B1A601A46126842F002021A6000BF8A
:1032F000424A126802F00C02082AF9D1704710B550
:103300003D48006840F001003B4908604FF0000074
:103310003A490860384800683B4900EA01003649EC
:1033200008603A4801F1040108603348006820F45D
:103330008020314908604FF0000035490860FFF7F0
:1033400089FF4FF000603349086010BD70B54FF041
:10335000000002464FF0020304464FF00201274DE1
:103360002D6805F00C0020B1042806D0082831D1C2
:1033700007E0294D294E356030E0294D274E356054
:103380002CE0284D2D68C5F38054264D2D6805F09E
:103390003F014CB1224DB5FBF1F5224E3668C6F324
:1033A000881605FB06F208E01B4DB5FBF1F51D4E36
:1033B0003668C6F3881605FB06F21A4D2D68C5F36C
:1033C000014505F101054FEA4503B2FBF3F5134E44
:1033D000356003E0104D114E356000BF00BF074D52
:1033E0002D68C5F30315104E705D0C4D2D6825FA40
:1033F00000F50A4E356070BD0038024008380240C2
:10340000193C4005003C0240FFFFF6FE103000244E
:103410000C38024008ED00E00024F40070010020A8
:1034200040787D01043802407401002038B504461C
:10343000FEA00068009004F10200C0B28DF8010007
:10344000FB48009901602246FA4900F104000CF0A3
:10345000DCFCF749201D0A18E01C81B2F448FCF797
:1034600035FF4FF07E01F24A04F10500115404F1DA
:10347000060081B2104601F07FFC38BDF0B504466D
:103480000D464FF0010108462678167000BF31E066
:10349000665C7E2E10D14FF07F0C064600F10107CE
:1034A000B8B202F806C04FF0800C064600F10107E2
:1034B000B8B202F806C01AE0665C7F2E0FD1B4469F
:1034C000064600F10107B8B202F806C04FF0810CC1
:1034D000064600F10107B8B202F806C007E014F88A
:1034E00001C0064600F10107B8B202F806C001F1BA
:1034F0000106B1B26E1E8E42CADC4FF07E0C06464B
:1035000000F10107B8B202F806C01880F0BD2DE93D
:10351000F043ADF5017D05460E4617469846DDF8A9
:1035200020924FF4007101A80CF008FD4FF0000448
:10353000204600904FF07E00BF4908700846457055
:1035400086702046C870BD480078087108464079EA
:1035500067F3030048710846407920F01000487175
:103560000846407920F0E0004871B9F1FA0F03DD18
:103570004FF0FA00887102E0AF4981F80690AE483A
:10358000847922464146C01D0CF03FFCAA48C01D6C
:103590000219A11D801FFCF799FE4FF07E02A6487C
:1035A00000F1070004F10101425404F109016B46E6
:1035B00001AAA148FFF762FFBDF8002001A9012080
:1035C00001F0F9FA0DF5017DBDE8F0831FB5044661
:1035D00002A8FEF781FC012C50D1994840780128BF
:1035E0000CD14FF0000096494870009001904FF0C8
:1035F00002010846DDE90223FFF79CFB8D48801E8F
:103600000288811C8F480CF07BFB60B34FF4807202
:1036100088498C480CF0F9FB8948007880B14FF05C
:10362000000087490870084680784FF00001CDE916
:1036300000104FF002010846DDE90223FFF756FAB9
:103640007C48801E00887B49CDE9001001210220C2
:10365000DDE90223FFF74AFA4FF00000784988704D
:103660004FF0010008707648807880422BD0744873
:10367000807800F101007249887024E0022C22D188
:103680006F48407898B94FF001006D49487069481B
:10369000A0F1020000886749CDE900104FF0000159
:1036A0004FF00200DDE90223FFF744FB0BE0614825
:1036B000801E00885F49CDE9001001210220DDE96C
:1036C0000223FFF737FB1FBD38B54FF00004254636
:1036D000204600905A48407920B15649891E0888F2
:1036E000FFF7A4FE5348801E8078574988704FF03A
:1036F00001052C4635E04F48015D5348801C41557B
:103700004C48005D7F2826D14A48611C405C8028D7
:1037100009D14FF07E014C4800F10200415504F1FF
:10372000010084B217E04348611C405C812809D144
:103730004FF07F01444800F10200415504F10100BF
:1037400084B208E04FF000003A49A1F1020108807C
:103750003D49088038BD05F1010085B204F1010042
:1037600084B23448801E0088401EA042C3DC364824
:1037700005800088801E81B26A463348C01CFCF771
:10378000A5FD31480088401E2F49891C085C9DF822
:103790000010884201D10120DCE74FF000002A49E7
:1037A00008802449A1F10201088000BFD2E738B5A2
:1037B0004FF00004204600908FE04FF001002049B8
:1037C000C870FEF75FF81E49C86004F1010084B2BA
:1037D0009DF800007E2865D11648801E00880728C5
:1037E00054DB9DF800101348801E0288801C815411
:1037F000801E008800F101000E49A1F1020108803D
:103800004FF0000011490870FFF75EFF012831D129
:103810000F480068807809490978884225D10C480A
:1038200000680079212819D0094813E07E3709047F
:103830009F3E0020E6360020E83A0020810000206C
:10384000F43D0020E4330020E638002094010020FD
:103850008801002000680079112801D1012038BDBD
:103860004FF000008A49088037E04FF00000884997
:10387000088032E04FF00100854908804FF07E005B
:1038800088704FF001008349087026E04FF0010076
:103890007F4908804FF07E0088704FF001007D491D
:1038A000087019E07B480078012815D19DF80010B8
:1038B00077480288801C8154801E008800F1010036
:1038C0007349088008460088B0F5007F04DB4FF09C
:1038D000000008806F49087000BF01226946104649
:1038E00001F066F8012803D1B4F5007FFFF665AF5B
:1038F0000020B4E708B56848407B10F0180F03D0EB
:103900004FF005006549087064480078B0B163481D
:103910000078A0F10100614908705F480088604AA2
:103920000090126811795E4A1268D0785A4B03F100
:1039300002034FF00002FFF7EAFD0CE00020584AB6
:10394000009012681179564A1268D078524B9B1C2D
:103950000822FFF7DCFD08BD1FB502A8FEF7BCFA80
:103960005048007918B341F288314E481030FDF7C5
:1039700008FFE0B14B48007888B14FF0000049499A
:103980000870009001904FF002010846DDE9022323
:10399000FFF7ACF84FF4807143480CF0CFFA0021E8
:1039A0000220FFF784FB4FF000003E4908713D48BC
:1039B000C078F0B141F288313A480C30FDF7E1FEB1
:1039C000B8B13848407860B14FF0000035494870D0
:1039D000009001904FF002010846DDE90223FFF755
:1039E000A9F901210220FFF762FB4FF000002D49E9
:1039F000C870FFF7DCFE01282BD1FDF743FF2949F2
:103A000008614FF001000871FFF7E0FD00F024FDB0
:103A100030B94FF000001E490880244908801FBDBE
:103A20001F4800684079C0F3030020B1022803D08A
:103A3000082808D108E007E0FFF75CFFFDF722FF48
:103A40001B49086000E000BF00BF4FF000001049B4
:103A5000088000BFE3E71348007970471148C07839
:103A600070471049487170470C490870704770B52D
:103A700005460C46B4F5807F00DB70BD2246294622
:103A80000548801C0CF0C1F90348048000BFF4E72E
:103A9000E436002094010020F03C00209501002035
:103AA00088010020F43D0020E4330020E6380020A7
:103AB0009001002070B502460C464FF000001346FE
:103AC0000DE0C0F307214FEA00201D7885EA0105CB
:103AD000FE4E56F8255085EA000003F1010325004B
:103AE000A4F10104EDD170BD38B50446F8A000681A
:103AF000009004F10200C0B28DF80100F548009971
:103B000001602246F44900F104000CF07EF9F1490D
:103B1000201D0A18E01C81B2EE48401CFCF7D6FBC1
:103B20004FF07E01EB4A04F10500115404F1060048
:103B300081B2104601F020F938BD38B50446E7A03F
:103B40000068009004F10200C0B28DF80100E14865
:103B5000009901602246E24900F104000CF055F999
:103B6000DC49201D0A18E01C81B2DA48401CFCF731
:103B7000ADFB4FF07E01D74A04F10500115404F16A
:103B8000060081B2104601F0F7F838BD10B5FFF716
:103B9000E3FE10BD10B54FF000044FF0C801D1484E
:103BA000FDF7EFFD00285BD0CF48007980B1CF480A
:103BB0000078002854D0CE480288811C002000F0F4
:103BC000FAFFCA480078A0F10100C849087047E030
:103BD000C548C07830B9C748007B40F02000C549CF
:103BE000087305E0C348007B20F02000C14908733A
:103BF000FFF734FF30B9BF48007B40F04000BD49BB
:103C0000087305E0BB48007B20F04000B949087309
:103C1000B9480078012806D1B648007B20F0800022
:103C2000B449087309E0B4480078022805D1B148C6
:103C3000007B40F08000AF4908732A21AD4809306D
:103C4000FFF738FF84B24FEA1420AA4981F8330005
:103C500081F834404FF035024FF0000000F0ABFF28
:103C600010BD7FB505460C4602A8FEF735F9012DBB
:103C70004BD1A248407801280DD14FF000009F4958
:103C80004870009001904FF002014FF00100DDE913
:103C90000223FFF74FF857229149093198480CF059
:103CA0002FF838B357228E49093195480CF0ADF8FA
:103CB0009248007870B1914880780021CDE90010D9
:103CC00002210120DDE90223FEF710FF4FF0000082
:103CD0008A4908708248CDE9000401210846DDE9DF
:103CE0000223FEF703FF4FF00000844988704FF075
:103CF0000100087081488078FF2824D07F488078B0
:103D000000F101007D4988701DE0022D1BD17B4828
:103D1000407878B94FF00100784948707048CDE993
:103D200000044FF000014FF00100DDE90223FFF72E
:103D300001F808E06A48CDE9000401210846DDE900
:103D40000223FEF7F7FF7FBD2DE9FF474FF0000686
:103D50003746B046B146354602A8FEF7BDF8FFF734
:103D600019FF6648C07800B341F2883163480C30CF
:103D7000FDF707FDC8B16148407801280DD14FF02B
:103D800000005E494870009001904FF002014FF032
:103D90000100DDE90223FEF7CDFF01210846FFF710
:103DA00086F94FF000005549C8705448007928B38F
:103DB00041F2883151481030FDF7E3FCF0B14F4833
:103DC000007898B14D4880780021CDE9001002219B
:103DD0000120DDE90223FEF789FE4FF0000047498C
:103DE00008704FF0570146480CF086F8002101207A
:103DF000FFF75DF94FF0000040490871002000F026
:103E000021FD8146B9F1000F22DD0EE03448801E0D
:103E1000008800F101003249A1F102010880084642
:103E20000088B0F5807F00DD0AE02D48801E028802
:103E3000801C11180122002000F0BAFD0028E5D1F5
:103E400000BFFDF71FFD2D49C8604FF00100C8708D
:103E5000D1E008F1010000F0FF082148A0F10200C4
:103E600002884FF0FF011E480BF0B9FF044664B909
:103E70001B48801E01880220FFF7F3FE4FF0000070
:103E80001749A1F102010880BAE01548A4EB00002F
:103E900085B21348A0F102000088A0EB050010498C
:103EA000A1F1020108801DB129460220FFF7D9FEC9
:103EB0000B48801E0288801C41190BF0A6FF0848A1
:103EC000801E008862281DDA9AE000009801002018
:103ED0007E3708029F3E0020A23F00207E37080365
:103EE000A4410020D0050020A8450020980500200E
:103EF000A44300209905002080000020BC4500203C
:103F00003D3E0020FB480079572812D001210220B5
:103F1000FFF7A7FEF7480088A0F10100F5490880E7
:103F20000846028800F1030100F102000BF06DFF6A
:103F300061E0F048477A807A40EA0727ED4890F838
:103F4000626090F8630040EA06264FF00701E948F6
:103F500000F10200FFF7AEFD80B2B84238D1572120
:103F6000E4480B30FFF7A6FD80B2B04230D1E24802
:103F7000407910B16220FFF7E0FD4FF00100DE490B
:103F80000871FDF77FFCDC4908614FF06200DB49F6
:103F900008800246D74901F10201D84800F1020029
:103FA0000BF033FF62210120FFF75BFED148008850
:103FB000A0F16200CF4908800846028800F1640140
:103FC00000F102000BF021FF012004B0BDE8F087F2
:103FD00003210220FFF745FEC6480088A0F1030038
:103FE000C44908800846028800F1050100F102007A
:103FF0000BF00BFF00BFBF4800886228BFF629AF57
:1040000000BF0020E1E77FB505460C464FF00006F3
:1040100002A8FDF761FF012D5AD1B9484078012867
:104020000BD14FF00000B6494870009001904FF05E
:104030000201DDE90223FEF77DFEB248C67C4FF0A7
:104040000001C1744FF02A0200F10B01AE480BF0E1
:1040500057FE80B32A22AB490B31AB480BF0D5FE9B
:104060004FF00300A9490870A548007870B1A44832
:1040700080780021CDE9001002210020DDE9022333
:10408000FEF734FD4FF000009D4908709D48801CEC
:10409000CDE9000401210020DDE90223FEF726FD21
:1040A0004FF00100964908704FF0000088704FF003
:1040B0000500FFF7D9FC9348C67491488078FF2823
:1040C00026D08F48807800F101008D4988701FE06C
:1040D000022D1DD18A48407880B94FF001008849EF
:1040E0004870884800F10200CDE900044FF000015B
:1040F0000846DDE90223FEF71DFE09E08148801C29
:10410000CDE9000401210020DDE90223FEF712FEC3
:104110007FBD10B54FF000047848028800F102011D
:104120004FF0020000F047FD35210120FFF76BFF43
:104130007348407910B13520FFF7D6FC7048C0783D
:1041400030B97048807B40F020016E48817305E0F3
:104150006C48807B20F020016A488173FFF77EFC69
:1041600030B96848807B40F040016648817305E0C3
:104170006448807B20F04001624881736448007885
:10418000012806D15F48807B20F080015D48817363
:1041900009E05F480078022805D15A48807B40F04A
:1041A0008001584881734FF000015648C1744FF0A8
:1041B0002A0100F10B00FFF77DFC84B24FEA1421C5
:1041C000504880F8351080F836404FF0350200F145
:1041D000020150480BF019FE4FF035004D49A1F196
:1041E000020108800146474800F10200FFF73FFC4A
:1041F00010BD2DE9FF414FF000063746B046354669
:1042000002A8FDF769FE3E48C078F0B141F288315E
:104210003B480C30FDF7B5FAB8B139484078012871
:104220000BD14FF0000036494870009001904FF0DC
:104230000201DDE90223FEF77DFD01210020FEF7EA
:1042400036FF4FF000002E49C8702D48007928B382
:1042500041F288312A481030FDF793FAF0B128482E
:10426000007898B1264880780021CDE9001002211D
:104270000020DDE90223FEF739FC4FF00000204961
:1042800008704FF02A0120480BF058FE0021084624
:10429000FEF70DFF4FF0000019490871022000F0F1
:1042A000D1FA8046B8F1000F1EDD0BE015480088FA
:1042B00000F101001349088008460088B0F5807FAE
:1042C00000DB09E00F480288801C1118012202203F
:1042D00000F06EFB0028E9D100BFFDF7D3FA0849D2
:1042E000C8604FF00100C8700648008835287CDBA4
:1042F000A5E00000A2410020BC450020A64400200B
:10430000A8450020A03F0020083E0020980500207E
:1043100080000020A64300205F480288FF21801C07
:104320000BF05DFD04464CB95B4801880220FFF7A5
:104330006AFE4FF000005849088085E05648801C0E
:10434000A4EB000085B254480088A0EB0500524958
:1043500008804DB129460220FFF755FE4E480288DD
:10436000801C41190BF051FD4B480088352800DABC
:104370006AE0494800792A2812D001210220FFF77B
:1043800042FE45480088A0F10100434908800846E4
:10439000028800F1030100F102000BF036FD4EE04F
:1043A0003D48467A807A40EA06263B4890F83570C8
:1043B00090F8360040EA07274FF00701364800F131
:1043C0000200FFF777FB80B2B04225D12A213248A4
:1043D0000B30FFF76FFB80B2B8421DD1FFF799FE9B
:1043E0004FF003002D49087000E02EE0FDF74AFA77
:1043F0002B4908614FF00100087127480088A0F19F
:104400003500254908800846028800F1370100F18F
:1044100002000BF0FAFC11E003210220FFF7F3FD8C
:104420001D480088A0F103001B4908800846028847
:1044300000F1050100F102000BF0E7FC00BF164897
:1044400000883528BFF668AF00BF002004B0BDE883
:10445000F08114480079704711480079704711487D
:10446000C07870470E48C07870470D494871704752
:104470000C494871704770B505460C46B4F5807F0D
:1044800000DB70BD2246294607480BF0BEFC0648FB
:10449000801E048000BFF4E7A03F002098050020A4
:1044A000A8450020BC450020A84400204FF0000192
:1044B00002E001F1010291B28142FADB7047FE494C
:1044C00031F81010FD4A52F82020518370471CB576
:1044D0000121182002F04AF94FF001008DF8040084
:1044E0004FF000008DF806004FF001008DF8070036
:1044F0004FF002008DF805004FF001000090694672
:10450000EF4801F099FE4FF4906000906946ED4845
:1045100001F092FE0220FFF7D2FF0120FFF7CFFF4C
:104520001CBDE54931F81010E44A52F820201183EF
:1045300070477FB505460C4600954FF00000ADF87A
:104540000400ADF80600ADF80840ADF80C004FF0DF
:104550000C00ADF80A006946DB4800F079FE012145
:10456000D94800F018FF012240F22551D64800F04A
:10457000DFFF7FBD7FB505460C4600954FF000007C
:10458000ADF80400ADF80600ADF80840ADF80C0039
:104590004FF00C00ADF80A006946CC4800F058FE18
:1045A0000121CA4800F0F7FE012240F22551C74818
:1045B00000F0BEFF7FBD7FB505460C4600954FF06D
:1045C0000000ADF80400ADF80600ADF80840ADF805
:1045D0000C004FF00C00ADF80A006946BC4800F032
:1045E00037FE0121BA4800F0D6FE012240F22551E3
:1045F000B74800F09DFF7FBD70B506460C461546D6
:1046000026B1012E07D0022E0FD109E029462046FF
:10461000FFF78FFF0AE029462046FFF7ABFF05E0D2
:1046200029462046FFF7C7FF00E000BF00BF70BD6E
:10463000A8494A88498801F10101A64B598003F134
:104640000601885419464988B1F5007F03DB4FF015
:1046500000011A46518070479F494A88498801F1F4
:1046600001019D4B598003F1060188541946498880
:10467000B1F5007F03DB4FF000011A46518070470F
:1046800096494A88498801F10101944B598003F108
:104690000601885419464988B1F5007F03DB4FF0C5
:1046A00000011A465180704710B58D4880888C49AA
:1046B0004988884214D08A4882888088401C884B68
:1046C0009880981D815C804800F093FE8448808823
:1046D000B0F5007F0FDB4FF00000814988800AE0D1
:1046E0004FF001007E4908704FF0000240F2277140
:1046F000754800F01DFF10BD10B57A4880887949D3
:104700004988884214D0774882888088401C754B3D
:104710009880981D815C6D4800F06BFE7148808820
:10472000B0F5007F0DDB4FF000006E49888008E097
:10473000002240F22771654800F0FAFE0120FFF7E1
:10474000BEFE10BD10B56848808867494988884218
:1047500014D0654882888088401C634B9880981DDF
:10476000815C5B4800F045FE5F488088B0F5007FC3
:104770000DDB4FF000005C49888008E0002240F229
:104780002771534800F0D4FE0220FFF798FE10BDB9
:1047900030B505460C4625B1012D06D0022D0CD1B1
:1047A00007E02046FFF744FF08E02046FFF754FFEC
:1047B00004E02046FFF764FF00E000BF00BF30BD0B
:1047C0004448808843494988884206DC41484088FB
:1047D00040498988401A80B270473E48408800F5B9
:1047E00000703C498988401A80B2F5E73A488088D1
:1047F00039494988884206DC3748408836498988E3
:10480000401A80B270473448408800F50070324941
:104810008988401A80B2F5E7304880882F49498856
:10482000884206DC2D4840882C498988401A80B28D
:1048300070472A48408800F5007028498988401A46
:1048400080B2F5E700B502464FF0000322B1012A1D
:1048500006D0022A0CD107E0FFF7B2FF034608E0BA
:10486000FFF7C4FF034604E0FFF7D6FF034600E06E
:1048700000BF00BF184600BD30B502460B464FF0E2
:1048800000010AB9002030BD32E0124884888088D7
:1048900000F101000F4DA88005F10600055D0846F6
:1048A00001F10104A1B215540A488088B0F5007FD7
:1048B0001EDB4FF0000019E0E4050020D8050020C1
:1048C00000100240000C0240001001400044004073
:1048D00000480040D0450020D6470020DC49002099
:1048E000E24B0020E84D0020EE4F0020FE4CA0805F
:1048F000FD488088FC4C6488A04201D09942C4DB0A
:104900000846C0E730B502460B464FF000010AB931
:10491000002030BD17E0F5488488808800F1010050
:10492000F24DA88005F10600055D084601F101047D
:10493000A1B21554ED488088B0F5007F03DB4FF03D
:104940000000EA4CA080E9488088E84C6488A042D6
:1049500001D09942DFDB0846DBE730B502460B4663
:104960004FF000010AB9002030BD17E0E04884880C
:10497000808800F10100DE4DA88005F10600055D8C
:10498000084601F10104A1B21554D9488088B0F558
:10499000007F03DB4FF00000D54CA080D448808816
:1049A000D34C6488A04201D09942DFDB0846DBE7A4
:1049B000F0B504460D4616464FF0000724B1012C11
:1049C00008D0022C12D10BE031462846FFF754FFE5
:1049D00007460CE031462846FFF794FF074606E0FD
:1049E00031462846FFF7B9FF074600E000BF00BF89
:1049F0003846F0BD10B504462146BE4800F0F9FC2B
:104A000000BF8021BB4800F0BFFD0028F9D010BDD9
:104A100010B504462146B84800F0EBFC00BF8021E9
:104A2000B54800F0B1FD0028F9D010BD10B504461E
:104A30002146B24800F0DDFC00BF8021AF4800F005
:104A4000A3FD0028F9D010BD70B505460C464FF007
:104A5000000605B10CB9002070BDB4F5007F01DD82
:104A60004FF400744FF00000A549087017E030467D
:104A700006F101018EB2295CA1484288408800F10C
:104A800001009F4B588003F106008154184640886E
:104A9000B0F5007F03DB4FF0000019464880A642C6
:104AA000E5DB012240F22771924800F041FD3046DB
:104AB000D2E770B505460C464FF0000605B10CB9BB
:104AC000002070BD0120FFF72CFD4FF001008D4943
:104AD00008704FF000008C4908704FF00A00FFF793
:104AE000E5FC04F1010084B2B4F5007F01DB4FF472
:104AF000007417E0304606F101018EB2295C81484E
:104B00004288408800F101007E4B588003F1060086
:104B1000815418464088B0F5007F03DB4FF0000059
:104B200019464880A642E5DB012240F2277172480F
:104B300000F0FEFC3046C4E770B505460C464FF069
:104B4000000605B10CB9002070BD0220FFF7E9FC9A
:104B50004FF000006D4908704FF001006C4908707B
:104B600004F1010084B2B4F5007F01DB4FF400745E
:104B700017E0304606F101018EB2295C6448428894
:104B8000408800F10100624B588003F10600815417
:104B900018464088B0F5007F03DB4FF0000019464F
:104BA0004880A642E5DB012240F22771534800F01D
:104BB000BFFC3046C8E72DE9F04105460C461646D5
:104BC0004FF0000714B90020BDE8F08125B1012D98
:104BD00008D0022D12D10BE031462046FFF734FFFA
:104BE00007460CE031462046FFF763FF074606E024
:104BF00031462046FFF7A0FF074600E000BF00BF98
:104C00003846E1E710B500213A4800F0C4FB002126
:104C1000394800F0C0FB0021384800F0BCFB0022FE
:104C200040F22551334800F083FC002240F2255128
:104C3000314800F07DFC002240F225512F4800F061
:104C400077FC10BD10B501212A4800F0A4FB01211A
:104C5000294800F0A0FB0121284800F09CFB01221C
:104C600040F22551234800F063FC012240F2255117
:104C7000214800F05DFC012240F225511F4800F060
:104C800057FC10BD00B51F480078012813D11E48FD
:104C9000007800F101001C49087008460078B0F562
:104CA000C87F08DD4FF000000870164908704FF00B
:104CB0000100FFF704FC16480078012813D11348BF
:104CC000007800F101001149087008460078B0F53D
:104CD000C87F08DD4FF0000008700D4908704FF0E4
:104CE0000200FFF7ECFB00BDD0450020D6470020B6
:104CF000DC49002000100140004400400048004012
:104D0000E24B0020E84D0020D4050020D50500200E
:104D1000EE4F002001463E4800883E4A12889042ED
:104D200001D1002070473C48394A1288805C0870E5
:104D30003748008800F10100354A1080104600888D
:104D4000B0F5007F02D14FF0000010800120E9E7AC
:104D50003EB504464FF000000090019002904FF0E5
:104D600008008DF800008DF802404FF00A026946F5
:104D70002A4807F0CCFE3EBDFEB506460D464FF074
:104D8000000419E04FF000000090019002904FF0F5
:104D900008008DF8000006EB04000168CDF8021051
:104DA0004068CDF806004FF00A0269461B4807F03C
:104DB000AEFE04F1080084B2281B0828E2DC281BA0
:104DC000002815DD4FF000000090019002904FF098
:104DD00008008DF80000A5EB040206EB04010DF1BC
:104DE00002000BF012F80A2269460C4807F08FFE09
:104DF000FEBD0B490870704770B504460D46084863
:104E0000007818B129462046FFF7B6FF70BD0000B4
:104E1000EC050020EA050020F4510020740B00206E
:104E2000F205002010B586B004464FF00101084697
:104E300001F09CFC4FF4D85004904FF003008DF823
:104E400015004FF002008DF814004FF000008DF8AF
:104E500016008DF8170004A95A4801F0EDF90A224E
:104E60000821584801F091FA0A220921554801F019
:104E70008CFA0A220B21534801F087FA0A220C21EE
:104E8000504801F082FA4FF4806004904FF0010026
:104E90008DF816008DF817004FF003008DF81500FF
:104EA00004A9484801F0C8F90A221146454801F012
:104EB0006CFA0121880301F095FC0121802001F0AA
:104EC00064FC0121080701F0FEFC012102200AF028
:104ED00022F94FF4802000F0CCFE4FF480200290A5
:104EE0004FF000008DF80C004FF008008DF80D0019
:104EF0004FF001008DF80E0002A800F036FE4FF4CE
:104F0000802000F0B6FE4FF02A008DF804004FF02C
:104F100000008DF805008DF806004FF001008DF8B7
:104F2000070001A800F0A6FB4FF4802000F0A1FECE
:104F30004FF4004000F09DFE06B010BD38B50446A9
:104F40004FF043008DF800004FF003008DF8010092
:104F50004FF000008DF802004FF001008DF80300C3
:104F6000684600F087FB38BD08B54FF043008DF868
:104F700000004FF003008DF801004FF000008DF8A5
:104F800002008DF80300684600F074FB08BD10B500
:104F90004FF00002C0EB00134FEAC3034FF00704C9
:104FA000B3FBF4F100BF531C1A468B4200D910BD6D
:104FB000F9E710B504464FF47A7104FB01F0FFF7EE
:104FC000E6FF10BD0000024002464FF012000880CC
:104FD0002A48704702464FF004000880284870476E
:104FE00070B505460C462DB92246264926A005F087
:104FF0005BFD04E02246234928A005F055FD214829
:1050000070BD70B505460C4622461E4928A005F025
:105010004BFD1C4870BD70B505460C462DB92246A7
:10502000184928A005F040FD04E02246154929A0B2
:1050300005F03AFD134870BD70B505460C462DB914
:105040002246104927A005F02FFD04E022460D4915
:1050500024A005F029FD0B4870BD70B505460C462F
:105060002DB92246074922A005F01EFD04E0224684
:1050700004491FA005F018FD024870BD100600206D
:105080002C060020F45500204A6F79737469636B15
:1050900020696E204853206D6F6465004A6F7973F4
:1050A0007469636B20696E204653204D6F64650000
:1050B00053544D6963726F656C656374726F6E698A
:1050C00063730000303030303030303030313142B6
:1050D000000000003030303030303030303131437B
:1050E0000000000048494420436F6E666967000075
:1050F00048494420496E746572666163650000002A
:1051000070B5002009F0C5FF012009F0C2FF0220A0
:1051100009F0BFFF032009F0BCFF234800684FF0EF
:105120003002B0FBF2F1B1F1807F02D34FF0010009
:1051300028E021F07F40A0F101004FF0E022506113
:105140004FF0FF304FF00F0200280ADA4FEA0273E7
:105150004FEA1365154B00F00F04A4F104041D552C
:1051600005E04FEA02734FEA1364114B1C5400BF71
:105170004FF000004FF0E02290614FF00700106107
:105180004FF0000008B100BFFEE770BD10B101286C
:1051900002D100E001E000E000BF00BF70477047AF
:1051A00070477047704770477001002018ED00E0AD
:1051B00000E400E010B50446FA48844208D1012119
:1051C000102001F08FFB0021102001F08BFB3EE04E
:1051D000F548844209D10121480401F074FB002103
:1051E0004FF4003001F06FFB31E0F048844209D108
:1051F0000121880401F067FB00214FF4802001F0B9
:1052000062FB24E0EA48844209D10121C80401F08C
:105210005AFB00214FF4002001F055FB17E0E54850
:10522000844209D10121080501F04DFB00214FF412
:10523000801001F048FB0AE0DF48844207D10121D9
:10524000202001F04FFB0021202001F04BFB10BD7E
:105250002DE9FF4705460E464FF00004A14600BF6A
:10526000A046B08900B100BF2C8A24F44054F088D5
:1052700040EA04042C82AC8941F20C6024EA000468
:10528000B088318940EA0100718940EA010040EAB2
:105290000404AC81AC8A24F44074B08940EA04046C
:1052A000AC82684601F0CFF9BE48854202D0C248C0
:1052B000854202D1DDF80C9001E0DDF80890A88964
:1052C00010F4004F09D009EBC90000EB0910316858
:1052D0004FEA4101B0FBF1F708E009EBC90000EB30
:1052E000091031684FEA8101B0FBF1F74FF064001B
:1052F000B7FBF0F04FEA00144FEA14104FF06401CE
:1053000001FB1078A88910F4004F0AD04FF032004A
:1053100000EBC800B0FBF1F000F0070040EA040425
:105320000BE04FF0320000EB08104FF06401B0FBCF
:10533000F1F000F00F0040EA04042C81BDE8FF8783
:105340004FF4165101604FF000018180C18001814E
:105350004FF00C0141814FF000018181704710B581
:1053600002464FF00000108A20F470600B884C88D1
:1053700043EA04038C8843EA0403CC8843EA040329
:1053800043EA0000108210BD4FF00001018041800F
:105390008180C180704721B1828942F400528281AC
:1053A00005E082894DF6FF7302EA030282817047AD
:1053B000028B02F47F420283028B42EA01020283E3
:1053C000704721B1828942F40042828103E08289E0
:1053D000C2F30E028281704721B1828A42F40062D8
:1053E000828205E0828A4FF2FF7302EA0302828220
:1053F0007047C1F308028280704701468888C0F375
:1054000008007047028A4FF6F07302EA0302028234
:10541000028A42EA01020282704721B1828942F087
:105420000202828105E082894FF6FD7302EA0302DF
:105430008281704782894FF2FF7302EA0302828100
:10544000828942EA010282817047028A4FF6DF7345
:1054500002EA03020282028A42EA010202827047E1
:1054600021B1028A42F48042028205E0028A4BF6B0
:10547000FF7302EA030202827047818941F0010151
:105480008181704721B1828A42F00802828205E060
:10549000828A4FF6F77302EA030282827047028B18
:1054A000D2B20283028B42EA01220283704721B109
:1054B000828A42F02002828205E0828A4FF6DF7300
:1054C00002EA03028282704721B1828A42F010020E
:1054D000828205E0828A4FF6EF7302EA030282823B
:1054E0007047828A4FF6FB7302EA03028282828A45
:1054F00042EA01028282704721B1828A42F00202AE
:10550000828205E0828A4FF6FD7302EA03028282FC
:10551000704710B522B1838A43EA0103838206E013
:10552000838A6FEA0104A4B203EA0403838210BDF4
:10553000F0B503464FF00004264625462046A1F567
:1055400010676A3F00D100BF1846C1F3421401F052
:105550001F064FF0010707FA06F5012C02D100F1F2
:105560000C0006E0022C02D100F1100001E000F175
:10557000140022B1076847EA0507076003E00768DF
:1055800027EA05070760F0BD02464FF00000B1F5BD
:10559000007F00D100BF13880B420FD04FF00100F5
:1055A0000EE00000001001400044004000480040B0
:1055B000004C004000500040001401404FF000003B
:1055C000704701F40072B2F5007F00D100BF6FEAAE
:1055D00001020280704770B502464FF00004234676
:1055E0001D461846A1F510666A3E00D100BFC1F302
:1055F000421501F01F034FF0010606FA03F3012DD7
:1056000003D1968906EA030308E0022D03D1168A26
:1056100006EA030302E0968A06EA03034FEA21241E
:105620004FF0010606FA04F4168806EA04041BB1DA
:1056300014B14FF0010001E04FF0000070BD10B553
:105640004FF000021346A1F510646A3C00D100BF80
:105650004FEA21224FF0010404FA02F4A3B26FEAE8
:105660000304048010BD00003A4940EA01013A4AAF
:105670001160704770B54FF000010B464FF00F02FC
:10568000C4786CB3344C246804F4E064C4F5E0647A
:10569000C4F30721C1F10404E3B242FA01F24478F1
:1056A00004FA03F4E1B2847804EA020444EA010152
:1056B0004FEA01744FEA1461284C0578615504786B
:1056C00004F01F054FF0010404FA05F405784FEAD1
:1056D00065154FF0E02606EB8505C5F800410CE0A6
:1056E000047804F01F054FF0010404FA05F41C4D82
:1056F00006784FEA661645F8264070BD194A01EA59
:10570000020242EA0002184B1A60704731B1174A90
:10571000126842EA0002154B1A6005E0134A12684B
:1057200022EA0002114B1A607047042808D14FF09A
:10573000E021096941F004014FF0E022116107E026
:105740004FF0E021096921F004014FF0E0221161DE
:10575000704700000000FA050CED00E000E400E0F6
:1057600080E100E080FFFF1F08ED00E010ED00E0A9
:10577000016821F0010101604FF00001016041600A
:105780008160C16001614FF021014161E2498842BD
:1057900004D14FF03D01E14A91607EE0DE491831CD
:1057A000884204D14FF47461DC4A916075E0DA49B3
:1057B0003031884204D14FF47411D84A91606CE0C2
:1057C000D5494831884204D14FF07461D34A916081
:1057D00063E0D1496031884203D1D149CF4AD160D9
:1057E0005BE0CD497831884203D1CE49CB4AD160C4
:1057F00053E0C9499031884203D1CB49C74AD160AF
:105800004BE0C549A831884204D14FF03D51C34A0D
:10581000D16042E0C549884204D14FF03D01C44AFD
:1058200011603AE0C1491831884204D14FF47461E3
:10583000BF4A116031E0BD493031884204D14FF494
:105840007411BB4A116028E0B8494831884204D13C
:105850004FF07461B64A11601FE0B449603188426C
:1058600003D1AF49B34A116017E0B049783188429B
:1058700003D1AC49AF4A11600FE0AC499031884286
:1058800003D1A949AB4A116007E0A849A831884271
:1058900003D14FF03D51A74A1160704710B54FF04A
:1058A00000020268A44B02EA0302CC680B6843EAD8
:1058B00004034C6943EA04038C6943EA0403CC699A
:1058C00043EA04030C6A43EA04034C6A43EA040310
:1058D0008C6A43EA04034C6B43EA04038C6B43EA8F
:1058E000040343EA02020260426922F00702D1E99E
:1058F0000B3443EA040343EA020242610B6943604A
:105900004B6883608B68C36010BD4FF0000101607D
:1059100041608160C160016141618161C161016279
:1059200041628162C162016341638163704721B159
:10593000026842F00102026003E0026822F0010204
:105940000260704721B1026842F40042026003E045
:10595000026822F400420260704721B1026842F0FE
:105960002002026003E0026822F020020260704719
:10597000416070470146486880B2704722B10368B1
:1059800043F40023036003E0036823F4002303606F
:105990000161704721B1026842F48022026003E095
:1059A000026822F48022026070470AB1016100E0BF
:1059B000C160704701464FF000000A6812F4002FE2
:1059C00002D04FF0010001E04FF0000070470146A7
:1059D0004FF000000A6812F0010F02D04FF00100F2
:1059E00001E04FF00000704701464FF000004A69A7
:1059F00002F03800704730B503460A464FF0000009
:105A000004464A4DAB4201D2444900E04B4912F0F2
:105A1000005F01D04C6800E00C68494D04EA0504C1
:105A2000144202D04FF0010001E04FF0000030BD01
:105A300002463E4B9A4201D2384800E03F4811F0FE
:105A4000005F04D03E4B01EA0303C36003E03C4B1C
:105A500001EA03038360704710B511F0800F09D08D
:105A600022B1436943F08003436103E0436923F0BB
:105A70008003436180290DD032B1036801F01E0418
:105A800043EA0403036005E0036801F01E0423EA0F
:105A90000403036010BD70B502464FF000000446D9
:105AA0000546224EB24201D21C4B00E0234B254E4C
:105AB000314207D04FF01E0606EAD124166806EAE6
:105AC000040502E0566906F0800511F0005F01D080
:105AD0005C6800E01C681A4E04EA06040C4203D01D
