:10002600D2F4C6B5D7DCCFDFB5E7C6BDCEAA35312B
:10003600560D0A00D2F4C6B5D7DCCFDFB5E7C6BD8C
:10004600CEAA3339560D0A00D2F4C6B5D7DCCFDFB7
:10005600B5E7C6BDCEAA3230560D0A00D2F4C6B5F3
:10006600D7DCCFDFB5E7C6BDCEAA30560D0A00D223
:10007600F4C6B5D7DCCFDFB5E7C6BDCEAACEB4D6BB
:10008600AA0D0A000D0A0D0A09C9E8B1B8C3FBB3E7
:10009600C63A2020D2F4C1BFB5F7BDDAC4A3BFE982
:1000A60020205442412D32343734535A312D3236C2
:1000B6000D0A0009CFEEC4BFC3FBB3C63A2020C960
:1000C600EEDBDAB5D8CCFA31BAC5CFDF3236C1D0DD
:1000D600B3B5B8C4D4EC0D0A0009B0E6B1BED0C5BC
:1000E600CFA23A202056657220312E3120203230A0
:1000F60031342D30342D30340D0A0009D6C6D4ECF7
:10010600C9CC3A20202020C9EEDBDACAD0B1B1BA78
:10011600A3B9ECB5C0BDBBCDA8BCBCCAF5D3D0CF86
:08012600DEB9ABCBBE0D0A00EF
:10068000011F01010E01010D0001130301140101FD
:100690000C00010F01011001011D010117010118DA
:0506A00001020800004A
:100706001205321206541203D91206C812012EE53A
:0B07160014B401F27F3212074A80EB9E
:1006C800E519601414600A147014C283C2A7D2A674
:0F06D80022D283D2A7C2A622C283D2A7D2A62241
:1003D900E5A05407F5327FC87E00120721E5A05435
:1003E90007FF6532704CEF602E24FC601D24FE600F
:1003F9000E147030E4F5197BFF7A007926801475A4
:1004090019017BFF7A00793A80097519027BFF7A15
:1004190000794E7D1380187519037BFF7A00796284
:100429007D12800B7519FF7BFF7A0079757D141297
:0204390005F4C8
:01043B00229E
:0C074A00E50DC39F4005B2B7E4F50D2299
:100654007BFF7A00798A7D2E1205F47BFF7A00797C
:10066400B97D251205F47BFF7A0079DF7D2112051F
:0C067400F47BFF7A0179017D2C0205F473
:060625008B388A39893A86
:10062B00E4783FF618F6783EE6FFC39D5016AB38DC
:10063B00AA39A93A8F8275830012043C783F26F6BB
:08064B00180680E2783FE6FF8B
:010653002284
:10012E007B007A007932120577EF7003020206E542
:10013E001F24FE601B14606B240270E4E532B47E53
:10014E000C751F02E4F508F509F50A80D3020200CA
:10015E00E532B47E20D3E5099400E5089400403DD5
:10016E00751F01E50A950BF50AAF091205B6E4F500
:10017E0008F50980ABE532B47F05751F0380A10534
:10018E0009E509AE0870020508142490F582740082
:10019E003EF583E532F0250AF50A85320B751F020E
:1001AE0002012E751F02E532B480210509E509AE64
:1001BE000870020508142490F58274003EF58374CD
:1001CE007EF0250AF50A750B7E02012EE532B4810A
:1001DE00210509E509AE0870020508142490F58280
:1001EE0074003EF583747FF0250AF50A750B7F02C5
:0801FE00012E751F0102012E04
:0102060022D5
:1005B6007B017A007990EFC39407403190000412D2
:1005C600043C540F24FE702590000512043CB4012F
:1005D6001C900096E0F51EE51E54F024E0600B2406
:0D05E60010700AE51E5401F50C2212065497
:0105F30022E5
:1006E700AD07AC068CE3EDF5E453E5F843E50112FD
:0F06F700001775E64675E6B900120756AFE22206
:0E04EA008E208F218C228D238B248A2589263B
:1004F800E4F527F528C3E5289523E5279522502913
:100508000521E521AE207002052014FF1206E7AB95
:1005180024AA25A926852882852783EF12047B052E
:0905280028E52870D0052780CCDD
:0105310022A7
:0E0207008E298F2A8C2B8D2C8B2D8A2E892FE1
:10021500E4F530F531FFD3E52C9400E52B9401404E
:100225000122E5295401FEAF2AE52C2FFFE52B3EDF
:10023500FED3EF9480EE940040037F0022E529541D
:10024500FEFC7D00F5E312000E75E64675E6B90085
:10025500E4F530F531C3E531952CE530952B505457
:10026500E529F5E3E52AF5E4AB2DAA2EA92F85317D
:100275008285308312043CFFF5E253E5F843E5023D
:1002850075E64675E6B900E4F5E253E5F843E501A0
:1002950075E64675E6B900E5E26F60061207567F1A
:1002A5000022052AE52A700205290531E53170A5E8
:0902B500053080A11207567F01FB
:0102BE00221D
:0F073B008EE312000E75E64675E6B9000207560A
:09000E00E4F5E453E5F843E503D1
:0C001700C2AF53E71843E70143E7802223
:0907560053E77FE4F5E6D2AF227F
:03000B000206A644
:1006A600C0E0C0D0C2A9C28C758A00758CDC050D6D
:1006B600E514D3940140021514D28CD2A9D0D0D01F
:0206C600E03220
:0300230002049D37
:10049D00C0E0C083C082C0D075D000C00630983295
:1004AD00C2980516E516AE1570020515142400F553
:1004BD008274003EF583E599F0C3E5169480E51549
:1004CD0094004006751500751600051BE51B70029E
:0D04DD00051AD006D0D0D082D083D0E032F6
:10057700E51B451A7002FF220512E512AE11700243
:100587000511142400F58274003EF583E012046916
:10059700C3E5129480E51194004005E4F511F512C6
:0F05A700C2ACE51B151B7002151AD2AC7F0122E6
:0805F4008B338A3489358D3602
:1005FC007514C8C2B7E4F537E537C395365017AB59
:10060C0033AA34A93585378275830012043CFF1256
:08061C000003053780E2D2B7AC
:0106240022B3
:080003008F993099FDC299228A
:0602BF008B3B8A3C893DE7
:1002C500ED75F06484FFED75F06484AEF0EFD394C2
:1002D500004011EF2430FD053DE53D7002053C145D
:1002E500F9ED8010AB3B053DE53DAA3C7002053CB0
:1002F50014F97420120469EE75F00A84FDEE75F0A8
:100305000A84AEF0EF7015ED7012AB3B053DE53D8F
:10031500AA3C7002053C14F974208013ED2430FFCB
:10032500AB3B053DE53DAA3C7002053C14F9EF12D7
:100335000469EE2430FFAB3B053DE53DAA3C700268
:08034500053C14F9EF02046904
:10072100E4FDFCC3ED9FEC9E500F7B32AA031BEA54
:0907310070FA0DBD00010C80EA14
:01073A00229C
:10053200C2AF758921758CDCE4F58AD2A9D28C759B
:100542009850F587758DFD758BFDD28ED2ACC2B7F2
:10055200F593759408D280D281D282C283D2A0D27E
:10056200A1D2A2D2A3D2A4D2A5D2A6D2A7750E019D
:05057200F519D2AF22D3
:0300000002034DAB
:0C034D00787FE4F6D8FD75813F02039430
:10043C00BB010CE58229F582E5833AF583E0225075
:10044C0006E92582F8E622BBFE06E92582F8E222BF
:0D045C00E58229F582E5833AF583E49322D9
:10046900BB010689828A83F0225002F722BBFE0172
:02047900F3226C
:10047B00F8BB010DE58229F582E5833AF583E8F0B7
:10048B00225006E92582C8F622BBFE05E92582C863
:02049B00F2224B
:10035900020706E493A3F8E493A34003F68001F2AD
:1003690008DFF48029E493A3F85407240CC8C333A5
:10037900C4540F4420C8834004F456800146F6DF74
:10038900E4800B0102040810204080900680E47E7E
:10039900019360BCA3FF543F30E509541FFEE49369
:1003A900A360010ECF54C025E060A840B8E493A330
:1003B900FAE493A3F8E493A3C8C582C8CAC583CA5B
:1003C900F0A3C8C582C8CAC583CADFE9DEE780BE13
:0106A5000054
:00000001FF
