:1000260050415F4F4ECEAAB8DFB5E7C6BD0D0A00F8
:1000360050415F4F4ECEAAB5CDB5E7C6BD0D0A00FD
:1000460050435F4F4ECEAAB8DFB5E7C6BD0D0A00D6
:1000560050435F4F4ECEAAB5CDB5E7C6BD0D0A00DB
:10006600524144494F5F4F4ECEAAB8DFB5E7C6BDF1
:100076000D0A00524144494F5F4F4ECEAAB5CDB549
:10008600E7C6BD0D0A00D2F4C6B5D7DCCFDFB5E7AB
:10009600C6BDCEAA3531560D0A00D2F4C6B5D7DC98
:1000A600CFDFB5E7C6BDCEAA3339560D0A00D2F466
:1000B600C6B5D7DCCFDFB5E7C6BDCEAA3230560D02
:1000C6000A00D2F4C6B5D7DCCFDFB5E7C6BDCEAAE7
:1000D60030560D0A00D2F4C6B5D7DCCFDFB5E7C679
:1000E600BDCEAACEB4D6AA0D0A000D0A0D0A09C9BC
:1000F600E8B1B8C3FBB3C63A2020D2F4C1BFB5F706
:10010600BDDAC4A3BFE920205442412D323437342E
:10011600535A312D32360D0A0009CFEEC4BFC3FB48
:10012600B3C63A2020C9EEDBDAB5D8CCFA31BAC567
:10013600CFDF3236C1D0B3B5B8C4D4EC0D0A00094E
:10014600B0E6B1BED0C5CFA23A20205665722031A6
:100156002E312020323031342D30342D30340D0AFA
:100166000009D6C6D4ECC9CC3A20202020C9EEDB43
:10017600DACAD0B1B1BAA3B9ECB5C0BDBBCDA8BC83
:0E018600BCCAF5D3D0CFDEB9ABCBBE0D0A009C
:10087000011F01010E01010D00011303011401010B
:100880000C00010F01011001011D010117010118E8
:05089000010208000058
:100849001206FB12081D1205A21204C7120539125D
:10085900043F1208D71208F2120194E514B401E614
:070869007F3212093680DF27
:1004C700E5A05438F5337FC87E0012090DE5A05426
:1004D70038F5326533705AE53230E30B750F017B1F
:1004E700FF7A0079268009E4F50F7BFF7A007936D9
:1004F7007D0F1207BDE53230E40B7510017BFF7AE3
:100507000079468009E4F5107BFF7A0079567D0F64
:100517001207BDE53230E50B751D017BFF7A0079C7
:10052700668009E4F51D7BFF7A0079797D12120751
:01053700BD06
:0105380022A0
:1005A200E5A05407F5327FC87E0012090DE5A0547C
:1005B20007FF6532704CEF602E24FC601D24FE6044
:1005C2000E147030E4F5197BFF7A00798C80147573
:1005D20019017BFF7A0079A080097519027BFF7AE5
:1005E2000079B47D1380187519037BFF7A0079C8EE
:1005F2007D12800B7519FF7BFF7A0079DB7D141267
:0206020007BD32
:0106040022D3
:1008D700E51964036014E51964016005E519B402BC
:0B08E70003C2A622E5197002D2A6226F
:1008F200E51964036014E519B40203C2A722E519DD
:0B09020064016004E5197002D2A72216
:10053900E5107026E51864017020E5196403605818
:10054900E519B40203C28322E51964016004E519BF
:100559007046C283C281E4F51822E5107019E518C6
:100569007015E51964036030E5196402602AE5191C
:1005790064016024E51922E510B4010AE518700642
:10058900D28175180122E510B4010DE519640360E3
:0905990007E519B40202C2832235
:10043F00E50F702BE51764017025E5106079E5195C
:10044F0064036073E519B40203C28322E519B40192
:10045F0003D28322E519705FC280F517D28322E59C
:10046F000F7020E517701CE5107002801FE51964EE
:10047F00036044E519B402028012E5196401603784
:10048F00E51922E50FB4010CE5177008D280751736
:10049F0001C28322E50FB4011EE510601AE519644D
:1004AF00036014E5196402600EE519B40103D283E9
:0804BF0022E5197002C283223C
:0C093600E50DC39F4005B2B7E4F50D22AB
:10081D007BFF7A0079F07D2E1207BD7BFF7A01797F
:10082D001F7D251207BD7BFF7A0179457D211207BA
:0C083D00BD7BFF7A0179677D2C0207BDAE
:0607EE008B398A3A893BB9
:1007F400E47840F618F6783FE6FFC39D5016AB390F
:10080400AA3AA93B8F82758300120605784026F622
:08081400180680E27840E6FFBF
:01081C0022B9
:100194007B007A007932120740EF700302026CE5AB
:1001A4001F24FE601B14606B240270E4E532B47EED
:1001B4000C751F02E4F508F509F50A80D3020266FE
:1001C400E532B47E20D3E5099400E5089400403D6F
:1001D400751F01E50A950BF50AAF0912077FE4F5CF
:1001E40008F50980ABE532B47F05751F0380A105CE
:1001F40009E509AE0870020508142490F58274001C
:100204003EF583E532F0250AF50A85320B751F02A7
:10021400020194751F02E532B480210509E509AE97
:100224000870020508142490F58274003EF5837466
:100234007EF0250AF50A750B7E020194E532B4813D
:10024400210509E509AE0870020508142490F58219
:1002540074003EF583747FF0250AF50A750B7F025E
:080264000194751F01020194D1
:01026C00226F
:10077F007B017A007990EFC3940740319000041207
:10078F000605540F24FE7025900005120605B401CE
:10079F001C900096E0F51EE51E54F024E0600B243B
:0D07AF0010700AE51E5401F50C2212081D01
:0107BC00221A
:1008B800AD07AC068CE3EDF5E453E5F843E501122A
:0F08C800001775E64675E6B900120942AFE22245
:0E06B3008E208F218C228D238B248A25892670
:1006C100E4F527F528C3E5289523E5279522502948
:1006D1000521E521AE207002052014FF1208B8ABF8
:1006E10024AA25A926852882852783EF1206440599
:0906F10028E52870D0052780CC13
:0106FA0022DD
:0E026D008E298F2A8C2B8D2C8B2D8A2E892F7B
:10027B00E4F530F531FFD3E52C9400E52B940140E8
:10028B000122E5295401FEAF2AE52C2FFFE52B3E79
:10029B00FED3EF9480EE940040037F0022E52954B7
:1002AB00FEFC7D00F5E312000E75E64675E6B9001F
:1002BB00E4F530F531C3E531952CE530952B5054F1
:1002CB00E529F5E3E52AF5E4AB2DAA2EA92F853117
:1002DB0082853083120605FFF5E253E5F843E5020C
:1002EB0075E64675E6B900E4F5E253E5F843E5013A
:1002FB0075E64675E6B900E5E26F60061209427FC6
:10030B000022052AE52A700205290531E53170A581
:09031B00053080A11209427F01A6
:0103240022B6
:0F0927008EE312000E75E64675E6B9000209422E
:09000E00E4F5E453E5F843E503D1
:0C001700C2AF53E71843E70143E7802223
:0909420053E77FE4F5E6D2AF2291
:03000B0002089652
:10089600C0E0C0D0C2A9C28C758A00758CDC050D7B
:1008A600E514D3940140021514D28CD2A9D0D0D02D
:0208B600E0322E
:030023000206666C
:10066600C0E0C083C082C0D075D000C006309832CA
:10067600C2980516E516AE1570020515142400F588
:100686008274003EF583E599F0C3E5169480E5157E
:1006960094004006751500751600051BE51B7002D3
:0D06A600051AD006D0D0D082D083D0E0322B
:10074000E51B451A7002FF220512E512AE11700278
:100750000511142400F58274003EF583E012063280
:10076000C3E5129480E51194004005E4F511F512FB
:0F077000C2ACE51B151B7002151AD2AC7F01221B
:0807BD008B348A3589368D3733
:1007C5007514C8C2B7E4F538E538C395375017AB8B
:1007D50034AA35A936853882758300120605FF12BD
:0807E5000003053880E2D2B7E1
:0107ED0022E9
:080003008F993099FDC299228A
:060325008B3C8A3D893E7D
:10032B00ED75F06484FFED75F06484AEF0EFD3945B
:10033B00004011EF2430FD053EE53E7002053D14F3
:10034B00F9ED8010AB3C053EE53EAA3D7002053D44
:10035B0014F97420120632EE75F00A84FDEE75F076
:10036B000A84AEF0EF7015ED7012AB3C053EE53E26
:10037B00AA3D7002053D14F974208013ED2430FF63
:10038B00AB3C053EE53EAA3D7002053D14F9EF126C
:10039B000632EE2430FFAB3C053EE53EAA3D700233
:0803AB00053D14F9EF020632D2
:10090D00E4FDFCC3ED9FEC9E500F7B32AA031BEA66
:09091D0070FA0DBD00010C80EA26
:0109260022AE
:1006FB00C2AF758921758CDCE4F58AD2A9D28C75D1
:10070B009850F587758DFD758BFDD28ED2ACC2B727
:10071B00F593759408D280D281D282C283D2A0D2B3
:10072B00A1D2A2D2A3D2A4D2A5D2A6D2A7750E01D2
:05073B00F519D2AF2208
:030000000203B345
:0C03B300787FE4F6D8FD7581400203FA63
:10060500BB010CE58229F582E5833AF583E02250AA
:1006150006E92582F8E622BBFE06E92582F8E222F4
:0D062500E58229F582E5833AF583E493220E
:10063200BB010689828A83F0225002F722BBFE01A7
:02064200F322A1
:10064400F8BB010DE58229F582E5833AF583E8F0EC
:10065400225006E92582C8F622BBFE05E92582C898
:02066400F22280
:1003BF00020849E493A3F8E493A34003F68001F203
:1003CF0008DFF48029E493A3F85407240CC8C3333F
:1003DF00C4540F4420C8834004F456800146F6DF0E
:1003EF00E4800B0102040810204080900870E47E26
:1003FF00019360BCA3FF543F30E509541FFEE49303
:10040F00A360010ECF54C025E060A840B8E493A3C9
:10041F00FAE493A3F8E493A3C8C582C8CAC583CAF4
:10042F00F0A3C8C582C8CAC583CADFE9DEE780BEAC
:010895000062
:00000001FF
