:020000040000FA
:10000000D00C002069010000930100009501000060
:1000100000000000000000000000000000000000E0
:100020000000000000000000000000009701000038
:100030000000000000000000990100009B0100008A
:100040009D0100001D200000E516000005170000BE
:1000500025170000000000009D01000000000000C6
:10006000291E0000BD1E00009D0100009D01000032
:10007000511F00009D0100009D0100009D01000036
:100080009D0100009D0100009D0100009D010000F8
:100090009D0100009D0100009D0100009D010000E8
:1000A0009D0100009D010000551A00009D01000007
:1000B0009D0100009D0100009D0100009D010000C8
:1000C00000F002F800F040F80CA030C808382418FE
:1000D0002D18A246671EAB4654465D46AC4201D180
:1000E00000F032F87E460F3E0FCCB6460126334272
:1000F00000D0FB1AA246AB46334318474811020012
:1001000068110200103A02D378C878C1FAD85207B1
:1001100001D330C830C101D504680C6070470000BD
:100120000023002400250026103A01D378C1FBD813
:10013000520700D330C100D50B6070471FB5C046D1
:10014000C0461FBD10B510BD00F0FCF81146FFF70A
:10015000F5FF02F0E7F800F014F903B4FFF7F2FF3F
:1001600003BC00F019F900001048114A1148124967
:100170000160124901601249016001693F2901D102
:1001800010490161104A11491160002101601048B5
:100190000047FEE7FEE7FEE7FEE7FEE7FEE70000BA
:1001A0000C480D490D4A0E4B7047000000400050AE
:1001B00000800000000100505900000016000000FF
:1001C000880000002000000024000050A55A000014
:1001D000C1000000D0070020D00C0020D008002073
:1001E000D0080020002203098B422CD3030A8B4243
:1001F00011D300239C464EE003460B433CD400221F
:1002000043088B4231D303098B421CD3030A8B4230
:1002100001D394463FE0C3098B4201D3CB01C01AFE
:10022000524183098B4201D38B01C01A52414309C9
:100230008B4201D34B01C01A524103098B4201D3B7
:100240000B01C01A5241C3088B4201D3CB00C01A24
:10025000524183088B4201D38B00C01A524143089C
:100260008B4201D34B00C01A5241411A00D20146C1
:100270005241104670475DE0CA0F00D0494203105A
:1002800000D34042534000229C4603098B422DD3A9
:10029000030A8B4212D3FC22890112BA030A8B4251
:1002A0000CD3890192118B4208D3890192118B42A0
:1002B00004D389013AD0921100E08909C3098B4225
:1002C00001D3CB01C01A524183098B4201D38B0168
:1002D000C01A524143098B4201D34B01C01A52410B
:1002E00003098B4201D30B01C01A5241C3088B4250
:1002F00001D3CB00C01A524183088B4201D38B003B
:10030000C01A5241D9D243088B4201D34B00C01AC4
:100310005241411A00D20146634652415B101046D9
:1003200001D34042002B00D54942704763465B1021
:1003300000D3404201B50020C046C04602BD704710
:1003400070477047754600F023F8AE4605006946D1
:100350005346C008C000854618B020B5FFF720FFFF
:1003600060BC00274908B6460026C0C5C0C5C0C548
:10037000C0C5C0C5C0C5C0C5C0C5403D49008D464B
:1003800070470446C046C0462046FFF7E6FE000020
:10039000004870476C07002001491820ABBEFEE7FB
:1003A000260002007047F8B507460E46022F01D31B
:1003B000002E02D10020C043F8BD012411E03046D8
:1003C000604301463846FFF70DFF0546012D07D96A
:1003D00001200006854203D2601E00062843EBE799
:1003E000641CFF2CEBD90020C043E5E710B500F0FA
:1003F00099FB134880684000C00F14D110488068F2
:1004000001218907884340180D4988600D48C0685C
:100410000D49884340180B49C8600846C0680A491E
:1004200088430849C86000F02FF8012000F048F820
:100430007D20C00100F052F800F012F810BD00005D
:100440000002005000000050000000400348806897
:1004500040084000014988607047000000000740E4
:1004600003480068402188434030014908607047D4
:10047000000007400348806840084000401C0149D4
:1004800088607047000007400A48806801214903DE
:1004900088434018074988600748C068074988436F
:1004A00040180549C8600846C068044988430249A5
:1004B000C86070470002005000000050002000009B
:1004C0000549496910229143020110231A40114342
:1004D000014A5161704700000002005070B50446A7
:1004E00000F0E0FC7D21C90048430546A8092146EB
:1004F000FFF778FEC0B2044908610846006981012F
:100500002846FFF76FFE70BD0000074010B5024699
:10051000012A01DD084810BD002901DB102901DD99
:100520000548F8E7054894010319186801248C4030
:10053000A04318600020EEE70189FFFF084000504B
:1005400010B50246012A01DD074810BD002901DB74
:10055000102901DD0020F8E7044894010319186808
:10056000C840C007C00FF0E70189FFFF10400050EE
:1005700000B501460B0001F067FD160C1125384C43
:100580005B6A8FB5D2FCFAF9F8F7F6F5F4F3F2F1FD
:10059000F0EF0020ED4A9063D063D4E1EB48806B2C
:1005A000032212069043012212068018E74A906344
:1005B0001046806BE64A9043012292068018E34A77
:1005C0009063C0E1E148C06B032212029043FF3008
:1005D0000130DE4AD0631046C06BDE4A90430122F0
:1005E00092028018D94AD063ADE1D848806B0322CB
:1005F00012059043012212058018D44A90631046D8
:10060000806BD54A9043012292058018CF4A9063AF
:1006100099E1CE48806B0C2290430830CB4A90631E
:100620001046806BC02290438030C84A90638AE1B4
:10063000C648C06B302290431030C44AD063104685
:10064000C06BC02290434030C04AD0637BE1BF48BA
:10065000806B032212029043FF300130BB4A90634B
:100660001046806BBB4A9043012292028018B74A21
:1006700090631046806BB94A9043012212038018A0
:10068000B24A90631046806BB54A904301229203B0
:100690008018AE4A906356E1AC48806B0322120486
:1006A0009043012252048018A84A90631046806B40
:1006B000AC4A90430122D2048018A44A90631046A9
:1006C000806BA94A90430122520580189F4A90638B
:1006D0001046806BA04A90430122D20580189B4AA5
:1006E000906330E19948806B80088000401C974AF5
:1006F00090631046806B0C229043001D934A9063D8
:100700001046806B302290431030904A9063104620
:10071000806BC022904340308C4A906313E18B4839
:10072000C06B80088000C01C884AD0631046C06B34
:10073000302290433030854AD0631046C06BC022CF
:100740009043C030814AD0631046C06B874A9043C3
:1007500080187E4AD063F6E0F3E0F1E0DCE0CAE026
:10076000B6E0ADE0A4E099E08DE06AE055E041E05C
:10077000FFE77648C06B80088000801C734AD06316
:100780001046C06B0C2290430830704AD06310466C
:10079000C06B3022904320306C4AD0631046C06B4F
:1007A000C02290438030694AD0631046C06B6F4AC4
:1007B0009043FF30FF300230644AD0631046C06B74
:1007C000644A90430122D2028018604AD0631046E6
:1007D000C06B624A90430122520380185B4AD06387
:1007E0001046C06B5E4A90430122D2038018574ADC
:1007F000D063A8E05548C06B584A90430122520389
:100800008018524AD0631046C06B554A904301226B
:10081000D20380184D4AD06395E04C48806B032288
:1008200012049043012212048018484A9063104633
:10083000806B4C4A9043012292048018434A906393
:1008400081E04248806B032212049043012212048B
:1008500080183E4A90631046806B424A90430122C2
:1008600092048018394A90631046806B3E4A904348
:100870008018364A90631046806B374A9043801840
:10088000324A90635FE03148806B03221207904345
:100890000122120780182D4A906354E02B48806B88
:1008A00080008008012292078018284A90634AE05D
:1008B0002648806B80088000801C244A906342E0B8
:1008C0002248C06B0C229043001D204AD0633AE0BE
:1008D0001E48806B032212079043012252078018A2
:1008E0001A4A90631046806B80008008D2008018FE
:1008F000164A906327E01548806B03221207904345
:100900008018124A90631046806B80008008D200E5
:1009100080180E4A906316E00C48806B0322120682
:100920009043012252068018084A90631046806B5B
:10093000074A90430122D2068018044A906302E0DD
:1009400001E00B4800BD00BF0020FBE700000050A5
:100950000000000C000C00000000C000003000008F
:1009600000C0000000000C00000030000003000088
:100970000189FFFF30B50346012B01DD354830BD4D
:10098000002901DB102901DD3248F8E7002A0CD1EB
:100990009801314C001900684D000324AC40A0437D
:1009A0009C012D4D6419206052E0012A18D1980154
:1009B000294C001900684D000324AC40A0439C0161
:1009C000254D6419206098012C46001900684D00DF
:1009D0000124AC4020439C011F4D6419206037E086
:1009E000022A18D198011C4C001900684D000324FC
:1009F000AC40A0439C01184D6419206098012C461E
:100A0000001900684D000224AC4020439C01124DA7
:100A1000641920601CE0032A18D198010E4C0019BB
:100A200004684D000320A840844398010A4D4019F2
:100A3000046098012C46001900684D000324AC4066
:100A400020439C01044D6419206001E0014896E7B1
:100A5000002094E70189FFFF004000500246012A70
:100A600001DD10487047002901DB102901DD0D4828
:100A7000F8E7002A07D10C48806801238B4018430F
:100A8000094B98600CE0012A08D107484030806883
:100A900001238B401843054B986001E00148E1E7D2
:100AA0000020DFE70189FFFF004000504040005078
:100AB0000146032901DD0C48704708020B4A8018E3
:100AC000006840084000401C0A02084BD218106021
:100AD00008021A46801800681202904380180A0221
:100AE000D21810600020E7E78190FFFF00800050DF
:100AF00070B504460D46032C01DD084870BD200288
:100B000007494018006A28432102054A89180862EB
:100B10001A2000F0BBFE0020F0E700008190FFFFEC
:100B2000008000505920084908601620086088207D
:100B300008600648406802218843801C03494860D9
:100B40000020014908607047000100500002005079
:100B500070B504460D461646032C01DD064870BDEF
:100B60000C206043054940186910890046501A203E
:100B700000F08CFE0020F2E78190FFFF3C07002090
:100B800030B502460A23032A01DD464830BD464CF3
:100B900024682405240F012595402C4324020F25A9
:100BA0002D022C402046404C2468AC4304433E4D6B
:100BB0002C6010023D4C0019006840084000401CA9
:100BC00014023A4D6419206010022C460019006886
:100BD0000224A043801C14026419206000BF184640
:100BE0005B1E0028FBD11402304D64190868606058
:100BF000140264198868A06010022C46001900686D
:100C00003024A0430C79240130252C4020431402C9
:100C1000264D6419206010022C4600190068C0247B
:100C2000A0430C7BA401C0252C40204314021F4D7F
:100C30006419206010022C46001900680324E404A3
:100C4000A0430C7CE4040325ED042C402043140253
:100C5000164D6419206010022C46001900680C24FF
:100C6000A0434C7CA4000C252C40204314020F4DC3
:100C70006419206010022C46001900680F24240318
:100C8000A0438C7C24030F252D032C402043140209
:100C9000064D64192060140264194869E060002060
:100CA00074E700008290FFFF008F0050008000502A
:100CB00030B50446032C01DD754830BD75484068E9
:100CC0000006000FA04206D172484068F023984306
:100CD000F030704B58606F4840680002000FA0422F
:100CE00007D16C4840680F231B059843C018694B17
:100CF0005860684840680004000FA04207D165486A
:100D000040680F231B039843C018624B586061482A
:100D10004068000FA04208D15E4840680001000909
:100D20000F231B07C0185B4B58605A4840680007E8
:100D3000000FA04206D157484068000900010F305B
:100D4000544B5860534840680003000FA04207D13D
:100D5000504840680F231B049843C0184D4B5860FF
:100D60004C4840680005000FA04207D14948406840
:100D70000F231B029843C018464B586045484068F3
:100D80000001000FA04207D1424840680F231B0614
:100D90009843C0183F4B58600B0001F055F905040B
:100DA000371B49637400002A0AD03A484068F02390
:100DB00098432301F0252B401843364B586008E038
:100DC000344840680009000123071B0F1843314BCA
:100DD00058605AE0002A0CD02E4840680F231B05AB
:100DE000984323050F252D052B401843294B5860A8
:100DF0000BE0284840680F231B04984323040F2569
:100E00002D042B401843234B58603EE0002A0CD0A1
:100E1000204840680F231B03984323030F252D030D
:100E20002B4018431B4B586001E0194845E72CE064
:100E3000002A0AD0174840680001000923071B0F49
:100E40001B071843134B58600BE0124840680F23F0
:100E50001B06984323060F252D062B4018430D4BE8
:100E6000586012E0002A01D0094826E70948406886
:100E70000F231B02984323020F252D022B401843FA
:100E8000044B586001E0024817E700BF002014E758
:100E90008190FFFF008F00500148006870470000FC
:100EA0004C00002070B50025104800694007400F35
:100EB000012801D120250FE00C4800694007400FB0
:100EC000022801D10A2507E0084800694006C00F42
:100ED00001D0074D00E0074D044880690007000F6E
:100EE000441C21462846FFF77DF970BD00020050E2
:100EF0000080000000C0000010B50246130001F0A1
:100F0000A3F808050F4B1C294B41364B2548C069F7
:100F1000800880008B079B0F1843224BD8613DE06F
:100F20002048406903231B0798430B070324240729
:100F3000234018431B4B586130E01A48406907238F
:100F40001B0398430B030724240323401843154B2A
:100F5000586123E01348406907231B0298430B02A2
:100F600007242402234018430E4B586116E00D4815
:100F70004069102398430B01102423401843094B68
:100F800058610BE007484069800880008B079B0F81
:100F90001843044B586101E0034810BD00BF002016
:100FA000FBE70000000200500496FFFF10B5044666
:100FB000002C02D0012C18D10BE00E480068012152
:100FC0004907884340180B490860082000F054FC8A
:100FD0000DE00848006A0121490788434018054987
:100FE0000862092000F048FC01E0034810BD00BF82
:100FF0000020FBE7000001400297FFFF01200249AB
:101000000860024908607047540000205800002022
:10101000F7B582B00F465F480068002801D1012073
:1010200000E000205C490968002901D1012100E0AD
:101030000021084302D0594805B0F0BD0498C60607
:1010400057490E430298002802D0012874D14CE081
:1010500050480068012801D0012000E000205149DB
:101060000968002901D0012100E00021084301D0D6
:101070004A48E1E701204B4908604B48806840211D
:101080008843403048498860002048490860084645
:10109000806840084000401C8860002505E0002171
:1010A00014206843424A11506D1C0A2DF7D30020CA
:1010B0004049086040480760002000F061FB394665
:1010C0000190FFF770F90446601C02D13348C01E3E
:1010D000B2E72002000A35494860200E0643084660
:1010E0000660082000F0C8FB50E02B48006801288B
:1010F00001D0012000E0002030490968002901D01A
:10110000012100E00021084301D0244894E7012098
:101110002A49086024488068802188438030224919
:1011200088600020214908620846806A4008400023
:10113000401C8862002506E025E000211420684359
:101140001F4A11506D1C0A2DF7D300201D4908605D
:101150001D480760012000F013FB39460190FFF79E
:1011600022F90446601C02D10C48C01E64E720022C
:10117000000A0E494862200E06430846066209200E
:1011800000F07AFB02E00548C01E55E700BF0020D2
:1011900052E7000054000020580000200497FFFF91
:1011A000000001605C0000200002005000000140CF
:1011B000AC0500206C0000208400002060000020AE
:1011C000740600207000002088000020FFB50C4647
:1011D0000020009D002D02D0012D5AD12CE00125C8
:1011E0002E4E35602E4D2D686D1C2D4E3560002124
:1011F0001EE014254D432B4E7559002D17D10126A5
:1012000014254D43274F7E5114254D433E46AD19BD
:101210006C6014254D43AD19AC6014254D43AD19D8
:10122000EA6014254D43AD192B61084602E0491CC4
:101230000A29DEDB00BF2DE001251B4E35601B4D6A
:101240002D686D1C194E356000211EE014254D439C
:10125000174E7559002D17D1012614254D43144FF3
:101260007E5114254D433E46AD196C6014254D4307
:10127000AD19AC6014254D43AD19EA6014254D43FA
:10128000AD192B61084602E0491C0A29DEDB00BFCC
:1012900000E000BF00BF04B0F0BD0000640000200B
:1012A00074000020AC0500206800002078000020B9
:1012B00074060020F7B582B00746144638460399F5
:1012C000FEF790FF0007000F03280FD220680121CE
:1012D00049078843206020684910884320603846C9
:1012E0000399FEF77FFF0009861E3BE0206801217D
:1012F00049078843401820602068491088434018F7
:10130000206038460399FEF76DFF861E1948864215
:1013100028DD2068012109078843206008251EE098
:1013200038460399FEF75EFF691C0190FEF75AFFED
:10133000032913D220680F210906884329060F22AA
:10134000120611400843206038460399FEF74AFF11
:10135000691C0190FEF746FF861E02E06D1C102DF1
:10136000DEDB00BF2068000C0004B1B2084320603F
:1013700005B0F0BDFFFF000030B50346002B01D0E3
:10138000374830BD002B5ED13648406840084000E9
:10139000CC07E40F2043334C6060204640680224B1
:1013A000A0430C406408640002252C4020432D4CCF
:1013B0006060204640680424A0430C40A408A400B8
:1013C00004252C402043274C6060204640680824B8
:1013D000A0430C40E408E40008252C402043214CA5
:1013E000606020464068204CA04310240C40240933
:1013F000E4022D022C4020431A4C606020464068D5
:101400001024A0430C402409240110252C40204323
:10141000144C6060204640682024A0430C406409BE
:10142000640120252C4020430E4C6060204640681B
:101430000E4CA04380240C40E4092402ED002C4013
:101440002043084C6060002B08D1094802600C2042
:1014500001248440074D2C6000BF00BF002090E7AE
:101460000798FFFF00000540000800000001000091
:101470005000002000E100E070B500BFFFF712FD52
:101480007D21C90048430546054880690005000FD5
:10149000411C2846FEF7A6FE0446204670BD00000B
:1014A0000002005070B505460C46002D01D066487C
:1014B00070BDA07900280ED0A07903280BD0A079A8
:1014C000012808D0A079052805D0A079072802D0E6
:1014D0005D48401CECE7207900280BD020790128DA
:1014E00008D02079022805D02079032802D0564858
:1014F000801CDDE76079002808D06079012805D0DC
:101500006079012802D05048C01CD1E7E07900285A
:1015100014D0E079012811D0E07902280ED0E079CA
:1015200003280BD0E079042808D0E079052805D0FD
:10153000E079062802D04448001DB9E7002D15D1F6
:1015400005200007C06801210904884340183F496D
:10155000C8600846C0683E4988433C49C8603D4869
:1015600080683B49884340183A498860002D0DD176
:101570003948806804218843001D3749886008463F
:10158000806802218843801C33498860002D58D12F
:1015900031488068F0218843E1790901F022114047
:1015A00008432D4988600846C06820218843A179F6
:1015B000042211408908490120221140084326498C
:1015C000C8600846C06810218843A17902221140F2
:1015D000490809011022114008431F49C860084604
:1015E000C06808218843A179C90008221140084336
:1015F0001949C8600846C0688008800021798907B9
:10160000890F08431449C8600846C068042188430C
:10161000617989000422114008430F49C8600846D7
:10162000006AC009C001217A4906490E08430A49E7
:101630000862FFF721FF0646074A24322168FFF7B8
:1016400039FE002034E700000298FFFF0000005040
:1016500000000100000200500000054030B50346C4
:101660000C46002B16D1002112E0002506E06D1C6F
:1016700001208007854201D3074830BD07488069B3
:101680004004C00F0128F2D0044800786054491C7F
:101690009142EAD30020F0E70198FFFF00000540E7
:1016A00070B503460C46002B16D1002112E0605C99
:1016B0000A4E3070002506E06D1C0120800785422F
:1016C00001D3074870BD054880694002C00F01285A
:1016D000F2D1491C9142EAD30020F3E70000054013
:1016E0000198FFFF10B50120044908620448006812
:1016F000002802D002480068804710BD40400050DA
:101700004400002010B50220044908620448006823
:10171000002802D002480068804710BD40400050B9
:101720004800002070B50948046A0948056A07485E
:1017300004620748056207480068002804D029466B
:101740002046044A1268904770BD000000400050D7
:10175000404000504000002010B50122062100202A
:10176000FFF708F906210020FEF7D0FE0122022132
:101770000020FFF7FFF802210020FEF7C7FE10BD92
:1017800070B505460024002D2BD12F484069400537
:10179000400F01D12D4C54E02B4840694005400FCB
:1017A000012806D1FFF778FB7D21C9004843044694
:1017B00047E0254840694005400F022806D1FFF761
:1017C00071FB7D21C900484304463AE01E48406948
:1017D0004005400F032802D11D48046831E01D4C2C
:1017E0002FE0012D2BD1184840694004400F01D152
:1017F000164C26E0144840694004400F012806D1E9
:10180000FFF74AFB7D21C9004843044619E00E4812
:1018100040694004400F022806D1FFF743FB7D21B9
:10182000C900484304460CE0074840694004400FA3
:10183000032802D10648046803E0064C01E006488C
:1018400070BD2046FCE70000000200501027000099
:101850007C000020006CDC020297FFFF10B50446FC
:10186000012C04D105210020FFF7F8F803E0052141
:101870000020FEF74BFE10BDC206D20E01219140A2
:10188000014A11607047000000E100E0C206D20E7C
:1018900001219140014A11607047000000E100E021
:1018A00010B547480068401C454908600846006874
:1018B000C007C00F42D043484349086000243AE0C3
:1018C000424801680068401C404A10604048405C43
:1018D000000200B261003B4A603A5052600011467B
:1018E000085E3A490A680968491C384B196038494A
:1018F000895C08436100334A603A505218460068D8
:101900003449884215D30020194608602C490860E4
:1019100031480068400840002F49086008460068C8
:101920002E4988432C490860FEF790FD01202C4980
:101930000870601CC4B2302CC2DB3FE02148603824
:1019400021490860002437E0204801680068401CF5
:101950001E4A10601E48405C000201B26200194835
:1019600081526100405E19490A680968491C174B99
:1019700019601749895C0843620012498852184669
:1019800000681449884215D30020194608600C49A4
:10199000086011480068400840000F490860084688
:1019A00000680E4988430C490860FEF74FFD01208E
:1019B0000B490870601CC4B2302CC5DB10BD0000A0
:1019C00018000020EC030020140000201C00002060
:1019D000CA29000079E80100008100500000800061
:1019E0003200002000B587B0164800680190164804
:1019F000039002216846417501750321017202219D
:101A000001A80173052168468175104800688000AF
:101A1000069001A90120FFF7B3F8012211461046F4
:101A2000FFF746F904210120FFF762F8084A042174
:101A30000120FFF78DF8FEF71DFD0120FFF738F8B4
:101A400007B000BD140000200C000740100000206B
:101A5000A118000070B5002400BF80E04248C068B3
:101A60000121A140084279D0200240494018406A33
:101A7000C007C00F16D021023C4A891808462430FE
:101A8000496A49084900491C01600C2060433849F3
:101A90000858002862D00C2060430A4611580120E3
:101AA00088475BE0200231494018406A8007C00F38
:101AB00018D021022D4A891808462430496A02228A
:101AC0009143891C01600C206043294940184068FB
:101AD000002843D00C2060430A4680184168022049
:101AE00088473BE0200221494018406A0005000F6A
:101AF00034D020024018406A0005050F200240182B
:101B0000406A0005000F042108420DD02102174A47
:101B1000891808462430496A0F2212029143012293
:101B20009202891801600BE02102104A89180846C8
:101B30002430496A0F2212029143FF3101310160C2
:101B40000C2060430A4940188068002806D00C2009
:101B500060430A468018816828468847641C042C24
:101B600000DA7BE770BD0000008F0050008000505D
:101B70003C07002010B5002211461046FEF7FAFE81
:101B800000210846FEF76AFF002201211046FEF7F9
:101B9000F1FE01210020FEF761FF01220721002054
:101BA000FEF7E8FE07210020FEF758FF012203217F
:101BB0000020FEF7DFFE03210020FEF74FFF012289
:101BC00004210020FEF7D6FE04210020FEF746FF88
:101BD000012205210020FEF7CDFE05210020FEF7A1
:101BE0003DFF012206210020FEF7C4FE0621002051
:101BF000FEF78CFC002204210120FEF7BBFE04212D
:101C00000120FEF72BFF002205210120FEF7B2FE86
:101C100005210120FEF722FF002206210120FEF708
:101C2000A9FE06210120FEF719FF0022072101204D
:101C3000FEF7A0FE07210120FEF710FF0122002180
:101C40001046FEF797FE00210120FEF707FF012254
:101C500011461046FEF78EFE01210846FEF7FEFEF5
:101C6000012202211046FEF785FE02210120FEF727
:101C7000F5FE012203211046FEF77CFE0321012020
:101C8000FEF7ECFE002000F05FFB002000F08FFE6E
:101C90000120FFF7E3FD10BD10B507480088FF21C4
:101CA000F531884202DB642000F0A6FA00F01AFD4C
:101CB00000F066FB10BD00002C00002059201B49DD
:101CC0000860162008608820086019480068042110
:101CD0008843001D164908600846006808218843AB
:101CE0000830134908600846006802218843801CB8
:101CF0000F490860084600693821884318300C49AC
:101D0000086108460069C008C0000861084680698B
:101D100000090001886108460069402188430449A0
:101D20000861002001490860704700000001005070
:101D30000002005025480088401C2449088024489F
:101D40000088401C2249088022480088401C214904
:101D5000088021480078002804DD1F480078401ED4
:101D60001D4908701D480088FF21F531884204DABA
:101D70001A480088401C19490880194800881949E8
:101D8000884204DA16480088401C15490880164825
:101D900000881449884204DA13480088401C12491C
:101DA000088012480078002804DD10480078401EA2
:101DB0000E4908700E480088401C0D4908800D48E7
:101DC0000088401C0B49088070470000200000205C
:101DD00022000020240000200C0000202C00002005
:101DE0002E00002050460000300000202600002079
:101DF000340000200000002010B5FFF7FFF802219A
:101E00000420FFF779F80122C8210020FFF700F92C
:101E10000023044A02211846FFF7D8F90020FFF7F3
:101E2000C5F810BD351D000010B520480068401CE5
:101E30001E4908601E48806840084000401C1C493C
:101E400088601C48006800282FD000242BE0142054
:101E5000604319490858002824D0142060434018D2
:101E60008068401E14216143134A89188860142039
:101E70006043114640188068002813D11422624341
:101E80000B46D218106914226243D218D1688847D1
:101E90001420604308494018416814206043064AF2
:101EA00080188160641C0A2CD1DB10BD6C000020FE
:101EB0000000014064000020AC05002010B520485F
:101EC0000068401C1E4908601E48806A40084000A7
:101ED000401C1C4988621C48006800282FD0002440
:101EE0002BE01420604319490858002824D01420FE
:101EF000604340188068401E14216143134A8918CA
:101F0000886014206043114640188068002813D16F
:101F1000142262430B46D218106914226243D2186D
:101F2000D16888471420604308494018416814204C
:101F30006043064A80188160641C0A2CD1DB10BD06
:101F4000700000200000014068000020740600209E
:101F500010B50548C46905480068002803D020462C
:101F600002490968884710BD000005405000002064
:101F70000EB50948009003216846017100214171A6
:101F80008171C17169460020FFF78CFA034A012173
:101F90000020FFF7F1F90EBD80250000A11F000011
:101FA00038B50446E007C00F2CD025E00122694671
:101FB0000020FFF753FB69460A7813490888411C43
:101FC000114B198011490A5418460088032109024F
:101FD000884202DB00201946088059200C4908601D
:101FE00016200860882008600A480088401C0949BB
:101FF00008800020064908600748C069C007C00F74
:102000000128D3D038BD0000060000208C0000203D
:10201000000100500A0000200000054010B50848EB
:1020200000680821884308300549086005480068B1
:10203000002803D0002003490968884710BD00002C
:10204000004000408000002030B47446641E2578B3
:10205000641CAB4204D3635D5B00E31830BC1847DB
:102060001D46F8E710B50446012C03D10021FEF708
:102070004DFA03E000210120FEF7F0FC10BD000046
:1020800010B504460F480088A04204DA0021012060
:10209000FEF7E4FC15E00B480088A04209DB600075
:1020A00008490988884204DD00210120FEF72EFA44
:1020B00007E0600003490988884202DC00200149EA
:1020C000088010BD2000002010B5FFF7F7FD0C20A0
:1020D000FEF74EFAFFF74CFFFFF78EFEFFF73CFBD3
:1020E00010BD10B50446012C03D10321FEF70EFAF2
:1020F00003E003210120FEF7B1FC10BD10B504463A
:102100000F480088A04204DA03210120FEF7A6FC54
:1021100015E00B480088A04209DB600008490988E7
:10212000884204DD03210120FEF7F0F907E060009A
:1021300003490988884202DC00200149088010BD5B
:102140002200002070B500210846FEF7F9F9C6B25A
:10215000002501E0681C85B27D2000018542F9DB85
:1021600000210846FEF7ECF9C4B2A64201D00020D7
:1021700070BD07480078012805D1002C03D1044820
:1021800004700120F4E7024804700020F0E700002A
:102190003600002070B501210020FEF7D1F9C6B24B
:1021A000002501E0681C85B27D2000018542F9DB35
:1021B00001210020FEF7C4F9C4B2A64201D0FF20DD
:1021C00070BD002C01D10120FAE7012C01D10020C3
:1021D000F6E7FF20F4E710B502460B460024002185
:1021E00004E0505C0019C4B2481C81B29942F8DB8B
:1021F0005520001BC0B210BD10B504460F48008822
:10220000A04204DA06210020FEF780F915E00B4811
:102210000088A04209DB600008490988884204DD83
:1022200006210020FEF71AFC07E060000349098838
:10223000884202DC00200149088010BD24000020F3
:10224000F8B500240727002507E0002601E0701CF0
:1022500086B2FF2EFBDB681C85B212488542F4DB98
:1022600004210120FEF76CF94007400F04430521CB
:102270000120FEF765F98007400F04430621012085
:10228000FEF75EF9C007400F0443062C01D1012779
:1022900006E0052C01D1022702E0032C00D1032720
:1022A0003846F8BDFFFF00000146134800880028AB
:1022B00000D17047114A1088421C104B1A80104AF6
:1022C000125C0A701846008803221202904202DB58
:1022D00000201A46108059200A4A1060162010600B
:1022E0008820106004480088401E034A10800020A7
:1022F000044A10600120DCE70A00002008000020EA
:102300008C0000200001005010B50446012C04D1BF
:1023100001210846FEF7FAF803E001210846FEF71E
:102320009DFB10BDFFF7D0FEFEF760F800F038F916
:10233000FFF720FCFFF784FF0249087001E0FFF778
:10234000ABFCFCE73C00002010B50446012C04D196
:1023500003210020FEF7DAF803E003210020FEF756
:102360007DFB10BD10B50446012C04D107210020CF
:10237000FEF774FB03E007210020FEF7C7F810BD4D
:1023800010B57F480078002806D001282DD00228FB
:102390006AD0032828D1B8E00020FFF7D5FF00203D
:1023A00000F005FB0120FFF759FA0120FFF7DAFFE3
:1023B0000020FFF757FE0020FFF793FE0020FFF7F5
:1023C000A3FF002000F0E6FAFFF7BCFE002808D0CB
:1023D0000020FFF7C7FF0120694908700020694904
:1023E0000880002068490870C7E03220FFF748FEE7
:1023F0003220FFF783FE6548007801280DD10020C8
:10240000FFF72CFA00F0E0F80020614908706149FC
:10241000088002205A4908701AE05C4800780228B7
:102420000FD10120FFF71EFE0120FFF75AFE012009
:1024300000F0B0FA00205849088003205049087085
:1024400006E052480078032802D100204C49087069
:102450004C4800885149884202DB002048490870F6
:1024600001204949087088E03220FFF709FE322038
:10247000FFF744FE4648007801280CD14548008803
:102480007D21C900884206DB00204149087041498E
:10249000088000F099F83D480078022811D1012009
:1024A000FFF7E0FD0120FFF71CFE012000F072FAAB
:1024B00000F09AF80020384908800320304908705D
:1024C00015E032480078032805D100F08DF800208F
:1024D0002B4908700BE02D480078002807D100F048
:1024E00083F80120FFF7BAF9012025490870254833
:1024F00000882A49884204DB00F076F80020204951
:10250000087001202049087037E00120FFF71CFF08
:10251000FFF740FE01280ED1FFF7F6FE002000F085
:1025200039FA0020FFF79AF9012000F040FA002064
:10253000194908800EE0FFF72DFE00280AD1FFF7A9
:10254000E3FE012000F026FA0120FFF787F90020C2
:1025500000F02DFA0D480078032802D10020084928
:1025600008700D4800880D49884202DB00200449AC
:10257000087002200449087000BF00BF10BD0000B1
:10258000290000202E000020280000202A00002022
:1025900032000020340000203000002050460000AF
:1025A00010B5012207210020FEF7E4F907210020E1
:1025B000FEF754FA002211460120FEF7DBF9002154
:1025C0000120FEF74BFA10BD10B53020034908601A
:1025D000034804490860FFF705FA10BD1000002009
:1025E0008C0300201400002010B50A480068400841
:1025F00040000849086008460068074988430549C3
:102600000860FDF723FF00200449086004490860C2
:1026100010BD000000810050000080001800002064
:102620001C00002070B50546284C072D01DA00205B
:1026300070BD20790007000F06D0012805D00228C0
:1026400004D004283ED13CE03CE03BE02078002868
:1026500001D00020ECE760780007000F052801D0CA
:102660000020E5E76078000919490978884201D01F
:102670000020DDE7A078002801D00020D8E7E0782E
:102680000007000F032801D00020D1E7607901285E
:1026900001D00020CCE7E07800090E490870002046
:1026A0000D490880094880790C49087002200C49BE
:1026B000087000BF0A4800780028FBD100F016F926
:1026C00000E000BF00BFFF20B2E700004C04002084
:1026D0003C0000203D0000202C0000202A000020AB
:1026E0002600002008B58CE049480078012804D075
:1026F000022813D0032810D14FE0684600787E28C6
:1027000008D102204249087000204249088042490D
:10271000087002E001203E49087071E068460078C8
:102720007E2819D13B480088002811DD0120384956
:1027300008703948007839490978401A36490870D4
:1027400034480088FFF76EFF00203249088023E0FC
:1027500002202F4908701FE0684600787F2803D1C7
:1027600003202B49087017E0684601782948028841
:102770000088401C274B188029488154264801783E
:10278000684600780818244908706846007823498C
:10279000087002201E49087032E002201C490870AF
:1027A00068460078802811D17E211A480288008866
:1027B000401C184B18801A488154174800787E3006
:1027C000154908707E201549087018E068460078A1
:1027D000812811D17F220F4801880088401C0D4BB1
:1027E00018800F4842540C4800787F300A4908701E
:1027F0007F200A49087002E001200549087000BFE7
:1028000000BF6846FFF750FD002800D06CE708BD08
:1028100027000020380000203A0000203B00002064
:102820004C04002070B504460D4602210020FEF73E
:1028300015F906210020FDF769FE2A4621460020F1
:10284000FEF72EFF02200749087000BF05480078F8
:102850000028FBD10221FDF759FE06210020FEF7DA
:10286000FDF870BD0C000020F8B506460F460024A8
:102870007E222146641C1C484254002527E0705DDE
:102880007E280CD17F222046611CCCB216490A5406
:1028900080222046611CCCB213490A5415E0705DB9
:1028A0007F280CD17F222046611CCCB20E490A54ED
:1028B00081222046611CCCB20B490A5405E0725DAE
:1028C0002046611CCCB208490A54681CC5B2BD42FE
:1028D000D5DB7E222046611CCCB203490A54214636
:1028E0000148FFF79FFFF8BD5A05002010B5254CA1
:1028F00000202070607800090001C01C60706078C2
:10290000F0218843204909780901F0221140084349
:1029100060700020A070E07800090001401DE070A8
:10292000E078F021884319490978090111400843EA
:10293000E0702079802188432071207940218843EC
:10294000207120792021884320712079102188432B
:102950001030207120790009000120710120607180
:102960000B480078214688716079811D2046FFF769
:1029700032FC2146C8716079C01DC1B22046FFF704
:1029800073FF10BD9A0500203D0000203C00002090
:102990002800002010B50446012C03D10221FDF7C8
:1029A000B5FD03E002210120FEF758F810BD10B577
:1029B0000446012C04D104210020FDF7A7FD03E00B
:1029C00004210020FEF74AF810BD0004002D000588
:1029D000FFB1FF6AFF4FFF52FF6EFF85FF8CFFAD17
:1029E000FFE10024004B0069007F008A004E000BCD
:1029F000FFF1FFF9FFEEFFD9FFE9FFE7FFE6FF98E0
:102A0000FF95FFC8FFB9FFDB003C006E0077006E4A
:102A10000085006D007300590031FFE4FFBAFFA983
:102A2000FF92FFC3FFB7FFB3FFD6001F004600555C
:102A3000004E0076005D003B0043002C0020FFDFCD
:102A4000FFA3FFA6FFADFFC0FFDEFFE9FFD9FFCD6B
:102A5000FFD9FFFBFFFCFFF0001000240024003D25
:102A60000015FFEFFFBCFF90FF6BFF95FF9CFF8AF7
:102A7000FF97FFD60010002B005F006F0049002772
:102A8000001C0021FFEDFFB3FFA5FFD6FFC3FFA889
:102A9000FFB7FFD1FFD1FFE6FFF6002A00170025A0
:102AA00000390065008000720063002B002B001CC1
:102AB000002FFFE4FFF4FFD6FFB5FF98FFEC0014F2
:102AC0000061006E00AF00AA008900720024001FA0
:102AD00000120014000BFFFBFFFC0025FFDEFFD4FB
:102AE000FFB2FFADFF99FFAEFFDA000B0025003FFC
:102AF00000570058004D003300270006FFDEFFB6E8
:102B0000FF96FF79FF77FFC2FFFCFFF2000900226A
:102B10000043001200090000FFDFFFE2FFDCFFA11D
:102B2000FF89FFB6FFA3FFA1FFC7FFC6FFB6FFD413
:102B3000FFEAFFB6FFEA0047007800720042003B60
:102B4000002BFFFFFFEAFFC7FFABFF68FF89FFB461
:102B5000FFD5001100210040003B006200880067A3
:102B600000270032002200350038003A004C0036C1
:102B7000001D0001FFCCFFF0000600160008004D0C
:102B8000005B002A005A00680075006200440001E2
:102B9000FFD8FF5FFF56FF3FFF5AFF95FFAFFFD8FB
:102BA00000280019FFE7FFE8FFF9FFD4FFF7002E28
:102BB000000FFFFBFFF9FFF9FFC4FF7EFF88FFBC9A
:102BC000FFBDFFD4FFBDFFF900220045006700668E
:102BD000005F00600034FFFAFFC8FFBCFFDBFFE2CC
:102BE000FFB5FFB0FFC2FFEEFFE5FFFB0004001ED4
:102BF000005B004B0046002C004E0028001BFFF934
:102C0000FFD2FFCAFFC0FFA0FFA1FFC5FFE5002064
:102C1000004C0047003A008F00AB009100530027A2
:102C2000001D000EFFECFFD7FF94FF6AFF6CFF6AE8
:102C3000FFA0FFDDFFF800180042003C00600063C9
:102C4000006D004400330011FFFAFFEAFFCAFFBE27
:102C5000FF82FF9BFF96FFEAFFFEFFFDFFF70029C3
:102C6000003F004B0068004C004400370031001C5E
:102C7000FFF6FFC7FFA7FF6BFF82FF9BFFB8FFBEFA
:102C800000000047009E006C0072006700240015E1
:102C9000FFF1FFCFFFB0FFC6FFD2FFB7FF7FFFB648
:102CA000FFDF00100005003B0065006C007E009215
:102CB00000B400C0008F006C0023FFCEFFC8FFC32C
:102CC000FF9EFF98FF6DFF7DFFC9001C005F006B3A
:102CD0000077003C0021FFE9FFE2FFD5FFA9FFA933
:102CE000FF95FF60FF88FF97FF91FF97FFA4FFE329
:102CF00000270043004300360041005A00480037D7
:102D00000007FFC4FF7EFF63FF6DFF65FF7EFFA628
:102D1000FFDF001D004C007C0089008E005E001368
:102D2000FFE8FFD7FFE1FFC3FFC6FFC1FF9BFFB670
:102D3000FFDBFFD9FFF20019000D0016001200534F
:102D400000A7008E0071007200770040FFF3FFD1F2
:102D5000FFA9FF65FF73FF90FFB6FFDF0013004F71
:102D6000004F00760079007E0063005A0043FFFCAC
:102D7000FFCAFFAAFFB8FFCDFFF5FFDEFFD9FFF5C1
:102D8000FFEC00130015003A0065006B0060005F67
:102D90000056002E000CFFC0FF97FF8DFF82FF83BF
:102DA000FF9CFFBEFFB6FFFA002500310033002371
:102DB0000026FFE1FFF7FFE8FFC8FFC1FFD2FF9A3F
:102DC000FFD2FFCBFFAEFFAFFF9CFFAAFFC4000204
:102DD000002F00700087009C0092005E003F005FA3
:102DE000003E0007FFC1FFA4FF97FFA4FFA3FFC59C
:102DF000FFD200080039004E0057003B002B0009AD
:102E0000FFF9FFE5FFCBFFB0FFA4FFA9FFB9FFE883
:102E1000FFE90009001B00490039003A005B00602F
:102E200000840060004300260017FFE8FFC8FFD1C0
:102E3000FFD1FFD0FFE2FFDE000C0013001B001BE0
:102E4000001E00380034003E0031001C0022FFF656
:102E5000FFD4FFD2FFB4FFA2FF8FFF90FFBCFFDEC5
:102E6000FFE0000D003100670090007F0079005006
:102E700000510032FFFEFFC6FFBCFFACFFB9FFDB15
:102E8000FFDEFFE1FFC6FFC8FFD000010036004EA5
:102E9000005D007D00580004FFE9FFC3FFA6FF9717
:102EA000FFA6FFACFFC0FFECFFFF002C002A002EA6
:102EB00000200025000400290046000D0002000645
:102EC000FFFAFFC6FFD5FFFBFFBAFFB2FFBDFFBE93
:102ED000FFC1FFE0FFF20026005F007D007A0040A6
:102EE000FFF4FFC8FFD6FF89FF90FF7BFF74FF96BA
:102EF000FFE5003400210027003B0023002F005491
:102F00000055002300380020001D00150018FFF8B0
:102F1000000CFFFFFFCFFFCDFFF8000400120023DD
:102F2000002C0061006200810043FFFEFFE6FFD736
:102F3000FFD1FFBAFFB7FFDEFFDAFFF30019004C45
:102F4000004B005300360032FFFA0014000D00075A
:102F5000FFE2FFF70025000AFFF8FFFEFFECFFC2CB
:102F6000FFBDFFB1FFCAFFD4FFC8FFE3000900287F
:102F70000029002D000DFFE2FFD4FF9FFFB5FFA445
:102F8000FFC9FFB0FFD4FFDFFFFDFFEFFFFBFFFD39
:102F9000FFF2FFF9FFD0FFF80030003B00410018BE
:102FA000002A000DFFE7FFEFFFFDFFE4FFD0FFF574
:102FB0000007FFDBFFDB001A000D006B0059005714
:102FC000005200500034FFEDFFD2FFB1FF90FF88A8
:102FD000FF93FFDE0016003100080013000A000E08
:102FE000001D002F005F008B0086006000790069E3
:102FF0000007FFC7FFCBFFA8FF7AFF6FFFA3FFBD4E
:10300000FFD9FFF4FFE7FFF7000FFFFBFFD6FFB389
:10301000FFB5FF95FFA7FFBCFF8EFF90FFB0FFCD70
:103020000010001C001D003B004E00690066007788
:10303000006C00500037001C000B0018FFE8FFD1A7
:10304000FFCBFFCCFFDDFFE5000700140053007B42
:10305000007D00610065004B002CFFFDFFCDFFB936
:10306000FFA0FF88FFD5FFCFFFD000040030002A6B
:10307000002A002A0016000F0008FFFC000A001BAF
:10308000001F000CFFE50000FFF5FFD2FF90FF8757
:10309000FF9FFFB3FFD8001D001D003A005A0078C3
:1030A000005B0055002AFFE8FFBEFFA8FF9CFFB0B1
:1030B000FFA1FFC7FFF1000F000A001BFFFCFFF19B
:1030C000001F001B0026001E0049003C000F0005E9
:1030D000FFFCFFC7FFA2FFA8FFA6FF76FFA1FFAC82
:1030E000FFF4000C00350035004F00360039FFFCBE
:1030F000FFE9FFA2FF99FFA6FFA4FF9DFFA3FFC367
:10310000FFB600000030004F006100650064006DF4
:1031100000540056004B002D00300046001F000AEE
:10312000FFEBFFE1FFE5FFFBFFF4000F0031003490
:1031300000390058009A0085004F0039FFF2FFFE69
:10314000FFC7FFBDFFE0FFF8FFF60014002CFFFCF7
:10315000FFE9000B0038004600650041001BFFF648
:10316000FFC3FF9BFFA4FF9DFF98FF86FF99FFA76A
:10317000FFB6FFABFFCEFFCDFFCBFFE4FFFE00327B
:10318000002F00470023000A0016FFF6FFEAFFFAAF
:10319000FFEFFFE1FFF70023002B00450056006D15
:1031A000007B0075005D005D0066003D000AFFE9E0
:1031B000000FFFE7FFC5FFC4FFC4FF9CFFA8FFBED1
:1031C000FFBAFFA7FFED003F00390058005500355A
:1031D000000CFFFAFFC9FFC2FFC6FFB8FFE50006FB
:1031E0000001000C0002FFF9FFF2FFFD002C003887
:1031F00000520041002E00120005FFF6FFE3FFF829
:10320000FFD1FFBEFF8EFF74FF69FF85FF89FFB905
:10321000FFD8001A0026002C0005000AFFF0FFE08E
:10322000FFD8FFA6FF98FFA3FFCDFFDFFFEB000451
:1032300000390036003F0022000DFFF6FFFC002998
:103240000011003B0040002400150004002AFFFE8E
:10325000FFE0FFE5FFCBFFCDFFF700550068008AD8
:103260000087006C008400530035FFCFFFB7FFB824
:10327000FFAEFFDE00100012002B00620067005A54
:1032800000440012FFFCFFEAFFE9FFEBFFF3FFDF62
:10329000FFEDFFF7FFE0FFDDFFB9FFACFF7CFF8C28
:1032A000FF83FFAFFFDA000C00120012003D001692
:1032B000000CFFD4FFA2FFBEFF92FF82FFABFFF71F
:1032C000000BFFE40014002D0032003A001F00261E
:1032D000000000090039006C00640045004C004FFC
:1032E000FFFAFFF5FFF50013FFEBFFD60000FFDD4F
:1032F000001D001E0031002E005400770024FFCF77
:10330000FFCDFFA7FFC9FFF60010FFF2FFF1000F8E
:10331000001E0043002A00040004FFECFFD3FFBCA2
:10332000FFB3FFCEFFFBFFEFFFEAFFF2FFF7FF9ACD
:10333000FF79FFA0FFCAFFF2002F003600380068B7
:103340000073006100650054003FFFF9FFFB0017A8
:10335000001F00340033003F002CFFFCFFEBFFE7B1
:10336000FFCFFFC6FFF100040018003B0042005FE2
:10337000004D00530010FFDAFFA2FF8AFF91FFA368
:10338000FFC8FFEC0025FFFBFFEBFFE5000100138A
:103390000000FFEFFFABFFBCFFE0FFF80015001DD2
:1033A0000016FFEB00070009FFB1FFB2FFCCFFC61C
:1033B000FFEDFFFF000E00280037002A0004000088
:1033C000FFE0FFD3FFDDFFAEFFA1FFA3FFD500109D
:1033D0000033002B002C0059006200460030FFFC37
:1033E000FFF8FFE4FFB9FFB2FFA3FFB6FFBCFFC4C5
:1033F000FFCDFFB2FFB8FFC7FFBFFFFD003C004D90
:10340000002E004B004C002C00230004FFDFFFD4F3
:10341000FFCEFFC9FFB9FFC6FFBDFFE6000C005994
:103420000055007A00A200AA00A9006300520053D0
:10343000005000210009001A0023001300050013AA
:1034400000300048004500740038000DFFFD001DED
:10345000000D0010001DFFF0FFD5FFB4FFA4FF9684
:10346000FF9DFFAFFFD2FFE1003D004A003F003A61
:103470000023FFF8FFE2FFBEFF7CFF5BFF5DFF5014
:10348000FF62FF72FF8BFFB6FFC4FFB2FFC7FFC52D
:10349000FFF7001400280022001C002800420054FE
:1034A0000025000DFFE9FFD9FFBEFFC2FFD6FFF2E6
:1034B000003700430061005200550030004E005AB2
:1034C00000280022FFE8FFA1FFA7FFB3FFC3FFDD35
:1034D000FFF80002FFFDFFFE001600430011000B85
:1034E00000240043003C002D001D001800170004BC
:1034F00000190000FFF7000D0007000FFFF00004A7
:10350000001B003E0047004200480008000BFFE19E
:10351000FFAFFF98FF9BFFA2FFA5FFA7FFA6FFD36A
:10352000FFE1FFF3FFEC0017001F000E0005FFF0A6
:10353000FFF9FFFFFFE5FFE8FFE5FFEFFFBCFFBC82
:10354000FFE700260064006A00800079005A002D21
:103550000035005000410050002FFFFE0003FFED3A
:10356000FFEC00050007001F0005FFFA0020002205
:103570000000000A0010001A0021001BFFE6FFC631
:10358000FFB7FFC7FFCBFFCBFFD1FFD4FFCEFFFBC1
:1035900000180013FFFEFFFF0005FFE4FFFBFFE93B
:1035A000FFF0FFEBFFCFFFD8FFE9FFF7FFEBFFFBDB
:1035B000000C000F00190005FFF00017002E002975
:1035C000001DFFE7FFC2FFDFFFCBFFB9FFADFFBB71
:1035D000FFC6FFCFFFEDFFF1FFE8FFD4FFF3FFE2EF
:1035E0000014002800240041002DFFF0FFEDFFE54E
:1035F000FFD3FFC7FFE6FFD9FFF2FFCFFFDCFFD706
:10360000FFF100020041007A006C0084005C00437E
:103610000029FFFEFFD9FFDEFFF6FFF9001C0007BF
:10362000001C00450028001A00290016002500286B
:10363000002A0017001800310018000C0035000E99
:10364000002D0000FFE5FFEFFFC5FFF2FFFD0025A5
:10365000003000580051002B0002FFF6FFBFFFC2F0
:10366000FFDBFFADFFB8FFBDFFB9FFF8FFE3FFF4DD
:10367000FFCAFFCDFFBDFFEAFFDAFFDCFFAEFF9020
:10368000FFBCFF97FFCBFFC2FFDAFFEBFFF0FFFDB0
:10369000FFF7FFDA0011003C004C0074006D006978
:1036A000002A0040FFFAFFFC0004000EFFFB0009A7
:1036B000FFFDFFEF0001003700760044004F0015CA
:1036C0000014FFF3FFEBFFD5FFB100070005001A60
:1036D00000270011FFFCFFEFFFEFFFF50001000FD7
:1036E000005100460072004100340004FFE7001260
:1036F000FFCEFFE8FFB0FFB8FFE2FFDAFFCBFF9F8E
:10370000FFC5FFBDFFACFFDCFFA8FFC2FFADFFBAE6
:103710000014FFF00013FFADFFBAFFA5FF85FFEC1B
:10372000FFD6FFFB0018001900290008003E001713
:103730000056004F002000180013004700410032DF
:10374000000DFFF0FFF7000F001200110019001824
:103750000022FFE6FFF9FFF80026004A0020005093
:10376000003C0018FFFAFFCEFFEA00090032004AD1
:10377000003000590047006400740061005F004C95
:10378000006700670056002B0010FFCEFFF3FFFA22
:103790000000000CFFBEFFC5FF81FFBDFF7EFF9054
:1037A000FF95FFA1FF7EFF81FF85FF74FF97FF71EB
:1037B000FF71FF71FF98FFC6FFC300260008FFE1FD
:1037C000000FFFF00006FFF1000800210004FFE8F1
:1037D000001DFFD4000B000FFFED0005FFABFFE65F
:1037E000FFE60011007F0021002D0012003C005870
:1037F000002AFFFB0008FFEEFFFCFFFA0015002483
:103800000020008B009C008E0069005F0034001CCB
:103810000046003C00880027006E002B002D002F82
:10382000FFE4FFF1FFC500240006FFDDFFD7FFF432
:1038300000130006FFECFFF0FFA3FFC0FFBEFFEA8E
:10384000FFB6FF97FF8EFF6AFF70FF82FFAAFFEEB1
:10385000FFF700210028002C0010FFF8FFE30017FD
:10386000FFE80030FFD4FFFA001200120024FFD658
:10387000005B002C001EFFFCFFC6FFAEFF9CFFF2AA
:10388000FFEEFFDFFFB5FFE3FFF2FFDB0005FFDF29
:10389000002CFFF1004E007200C900C800820064D5
:1038A00000040029004B0066004500700007FFD7A8
:1038B000FF7DFFA0FFD1FF740013FFF80005FFCFCD
:1038C000FFB8FFCFFFC9FFE40035FFD4001A002086
:1038D000000E00030011FFCA0021FFF4006E002655
:1038E000FFA50041FF70FFF0FF520000FFCDFFC5B4
:1038F000FFC3FFAAFFF7FF83FFE4FF88002DFFE06F
:10390000FFE0FFC8FFA6FF36FFE2FFB9008300C853
:1039100000990123FFF2FFA6FF93FF45009200707C
:1039200000C500AA001CFFC8FF35FF5E007C010136
:10393000016D014B002CFFFFFF8D000800130047B5
:10394000009400E00070FFEBFFBAFE5CFEEAFF5956
:10395000FFE20031FF6F004B00AD000300050000E7
:10396000FFCBFF89FF7D00CA00CF0187FFB600B003
:10397000FEDFFF05FFCCFFD500E20068003D005BE5
:10398000FF7DFF4B0032FF630075FFEBFE7F008B76
:10399000FECC014DFF4800A7FF5FFEB8FF4FFF6B55
:1039A00000B9009B01D1FF9AFFF1FE01FFBDFF921C
:1039B00000D0018EFFCD000AFF0EFE40FFD9FF6D43
:1039C00000D500BC00AA0087FFE400200036FFF904
:1039D000FEB5FFE9FF59008F008D00D4007DFFCCBC
:1039E000FFABFF7EFFC9007300B500F000BE00080A
:1039F000FFA1FE39FF12FF6F012900C700D3FDD2DE
:103A0000FE9AFD9EFEC001A4012303060203007579
:103A1000FFF3FE6100010159019801F7006EFEA35A
:103A2000FE6FFDD3FE3F016B0112012200DCFE960A
:103A3000FE3EFD15FFB4004100A4021F00C5FF4A71
:103A4000FF68FE9B0065FFD602670179FE74FFD711
:103A5000FEF9FFD50117015101F200ABFF59001823
:103A6000FF53008C01B700CB00B7FE54FF34FE8E2D
:103A7000FF420022FE6D0143FD6F0021FD720076C2
:103A8000FF3B018B001AFFB4003300070154001AFA
:103A9000013500AFFF3FFFFB00BAFF9AFF5101095C
:103AA000FFA7010CFE860190008400450065FFDD44
:103AB0000017FF6E0028010AFFCDFF04FEABFF9C3C
:103AC000FFF4FDA501F6FE3AFFA7FF1CFF5001C55C
:103AD000FFFD011B00F9FE9700A4FFA700C300270C
:103AE0000058FFE8FF68FF3BFF73FFDC0062FFBB8D
:103AF00000D1FFC9004D002E003A0153FF91FE2C6A
:103B0000FE70FC6E0184FF490137003EFD7FFE9987
:103B1000FD21FEBD02840064039A01C800910212D7
:103B2000FF2F01EA000800F501160286014C006E25
:103B3000FBFDFE75FE83FF5002E900D0029DFE678B
:103B4000FEE4FE02FD6F01B401200158FDA2FF2931
:103B5000FF1DFFBB018B01060188FEF5FEFD001A6B
:103B600000AB03920152010AFE42FEC3FE4501EC86
:103B7000FFBD00FBFF12FE060146FC6D0173FF4610
:103B800000CF00CAFE3BFF2CFFF0FF6FFF63FF85F5
:103B9000018E00BFFFBBFF87FE990285FF42022E08
:103BA000FEEE001A023FFD0A013FFEDA00D8019046
:103BB000010D0235FE51FEEBFE3BFEA000B5FE9D61
:103BC00003A0FF5FFF7AFE84FDC501C3FDEA017615
:103BD0000030001FFF910104FF26FE85001500AD97
:103BE00001D1FFC100E60130FFD3001D006D00BF11
:103BF0000208FD46027AFE3201400024FEB600BEF5
:103C0000FB4C0014FD8A002CFF4AFF9B0038001873
:103C1000FE3201C8FD8F030600A0013E033BFC36C7
:103C200003A8FD5A0112FFA900190139FDDBFF01AC
:103C3000FF8EFF2CFF3B0013FF4400C6FD4BFEED43
:103C400001D9FD9603580045FF89025E000BFFD89D
:103C500000D4FC17057DFC86046E009DFF620208FF
:103C6000FB4B0225FC9104A8021FFFF30476FC6ABB
:103C70000148FEFAFEA801F4FBED0750FE15FFE532
:103C8000003BFA8E01F9FC98016C00120082014D94
:103C9000FD5D0102FBC6072DFBEA065DFE96FDE712
:103CA00000EFFBC70290FDCA0400FEAF015BFEB24D
:103CB000FFC70017FC560043FECCFFB501B3009CC4
:103CC000FDEF01C0FC90024EFDD60310026FFFAD68
:103CD00002A3FDD3FE20FFBDFCB0027D008104DD08
:103CE000FF3F01C2FA03000DFB2C0287017500FDA6
:103CF00003D7F8A9015CF71B07BBF8800913FE5432
:103D000001120097FBE3012BFD1905D6029701185C
:103D1000009D006800FBFE9F028D00BAFEC2027685
:103D2000FB2A0317FD950197002BFC46FE2AFE3760
:103D3000FED103EAFC2405A4FB6B08FFF706041878
:103D4000FE4BFD3006F8F87E0CFFF63207DBF6C7B7
:103D50000545F8B306F9FBB801EFFF7FFC3700CE4D
:103D6000F9A004EDF9A504CFFD9A034901B4FF3988
:103D70000310FE7A02100232FB4104DAFA2405FE37
:103D8000FA4E03A8FA2604BAFE72FE9E045DF88479
:103D90000A93FA0605730319FA9C0C06F5FD09CC83
:103DA000F6030654F965FF6600DBF7380807F717D6
:103DB000082AFA670307FF5500CB026F028901E763
:103DC000FF4A012501A9F88F064BF93B0410FDEBD2
:103DD000006701C4FC4EFDF505D2FBF1067103F24C
:103DE000FC26040CF55C01B40058FCBD0701FB4443
:103DF000FBEA029FF43F0848FAF703FE049AFD35F8
:103E0000FF68FD49FFF701A901EA03DD069FFCE019
:103E1000FDD0FC3E0051FE470729FCF805CCFBCF46
:103E200001B5F4ED0155FCD7028D07A7FA7D0BDB38
:103E3000F0200995FBD702FBFD920741FBA1073952
:103E4000F893025AFE3A013CFFB500C0FE12FCE9AD
:103E5000087EF2BE10FCF06E0787FEAB0147049BA4
:103E6000012EFC5804EBF33D05FBFC35FE6B04789A
:103E7000F69F074CF72B023D0429FACB0754FCE0D0
:103E800002CB0169FF1BFF5B0558F911066E037039
:103E9000F3250EB4F0DB0770FC5CF7B10F42F3368C
:103EA00007C60257FC0E0591FCDB068BF8A105BA8C
:103EB000F84D030FFB3C029F053CFA6207CEFBBBAB
:103EC000FC310596F9780A01F3B00DC3FADB016FF6
:103ED000FAD50558F9E5023C005EFD8B0688FAFB31
:103EE00003DC066DEC7C150BF015065806DEEDAE16
:103EF0001234ED8508EFFA430605F96C0FA8ECC7FC
:103F00000DE0F757FFCE0476FA1605A600C5F60CAD
:103F10000895FC3201DE0360039BFE460110F7FCAE
:103F200004AD0114FE2D0915F8F903D3FC54FB6C04
:103F300005B5FFEF00BA07F7F2370E8DF0D3049204
:103F4000FE61FB970479FE850163FE22FF40FBAD15
:103F5000076DF7C90E9BF4870760FD38FAF8062451
:103F6000F56B10B8F3520914FE7D0325FC8A048812
:103F7000FDBB020304CBF4840E78F0660C4CF7E929
:103F800005EAF0CE113FE67A1CD7E53610AEF521F2
:103F90000167007CFBA0050BFFBA0372FB3B08FC2A
:103FA000F1180F76F4310F03F5891106EED91237A7
:103FB000EDE3166CE8B71575EACB0C2BF6C005CF10
:103FC000FEABFFD1FCB303F3F98EFE2105CEF2491F
:103FD0001175EE3C1686EE1E1009F17C1047F36A4F
:103FE0000EB1F3AF091DF8630452FCAB061CFE8250
:103FF000FF26FFFCFDFAFFFCFC3A05F2FC2E041143
:10400000FE9EFE6DFADF034EF85007C2F9B6059D1D
:10401000FA8DFFEC0334F96205F3F831074103A888
:10402000FA970823FAD2FACB0C1EF3080F2CF47B74
:104030000928FE4AFF4C04DCF921073DFB110B5512
:10404000F5FC0534FB6400CBFD17FEDAFE50040ED0
:10405000FA1E06C2F9A80116FE8AFB850B2CF0F5A4
:104060001424F2330988F858FBBB0763F78D0F104F
:10407000F05213C6EC0D1319E9BD0FA5F6F6038E29
:10408000036DFD83FFFE0773F4360F6DF1190DB854
:10409000F2000DAEF1E00ABFF65E087BF847055965
:1040A000F80F071AFC9F0122FFBC007104F5F758B6
:1040B0000E00E9DC16EDE8201669EBC40EA9F868DD
:1040C0000470024CF96A0401FF68000F0443FB3BD3
:1040D00005DAFCB5FFF001B9F92F07C7FA920C67B2
:1040E000F3E60777FCEAFD49070FF34B0A20F96D69
:1040F000004F059CF7C20B80F4070A71F81202907A
:1041000005A4F5FB0A42F68B033CFF6C053AFF372A
:10411000FE33FF88013CFB7405D0FB15063FFA8B8C
:104120000335FC960267013FF8D7080BF5EB0B50FF
:10413000FB1FFE6E0A26ECFD11B8E93A19A3E85EF2
:10414000131FF3390A00F8F7FF950A14EB9916BD0F
:10415000E30F1A5BECB61074F9C500EE03CAFB73EB
:1041600004EAFF290549FB9901F1FDB50070FEAD98
:10417000032EFA070779EF531091ECA61062F0AF07
:104180000916028DF6C716C3EC011290F0B7078529
:10419000F70E0A64F95A0A00FE6F00A2FF29FBC15C
:1041A00000D5F9A4063BFDDA0622FC4001AFF97800
:1041B000055FF75E0898FAB30622F87B0932F5E648
:1041C0000BC8F39A06C00394F4EC12A6E6D31722A8
:1041D000EB33090A039FF4DF124CE2C71E33E0E21F
:1041E0001BD1EC520FF6F81CFD7404FEF438144D8C
:1041F000EE8D0FEFF4F70ABBF5100A89F4150EC720
:10420000F2320D65F9F0FB070D29EB781CF5E2049D
:104210001459EF0E0936004BFAA70D7BED551A58CD
:10422000E1B01992EB38159DF1FE0BF0FC1DFC95E9
:104230000134FD4FFF1401CEFFF5046902C6F8C535
:104240000089FAC9FFDF031600A3000205F5F49AFE
:1042500008BAF07A0D00F6760BA8FA8E0554F685AA
:104260000A55F49812C3EC0816D7E9C20E10F29D55
:10427000093FF9F002D50362F3DD096AF4AB044BA0
:1042800004B2F3DF156AEAA017E0ECC80AF7FC5A9B
:10429000F8C50E47F14F122DF1C2067AF6C705D2C6
:1042A000FFDC021F045200B4FACC0387F0FA127E3E
:1042B000E64F22EEE0A823DDDC63195FE9F214B0DB
:1042C000F144091FFE9CFC460BF2EFD212D7F1E13C
:1042D000098BFDEEF50311ACE7C119CBE6D91394B8
:1042E000F44701D404CEF5DC120EEF731475EF170A
:1042F0000E65F4D802DD0339F4C308BFF2A20786C5
:10430000FD0406BDFA9003C8F86904BB0176007D80
:1043100004C6F2E21260E81B1975E61415BBF0073B
:104320000F71F4310800F7C803FDFF86FF85067D95
:10433000FD4F0122F75B0515F70E0AB0F66410ACCD
:10434000F2A0093BF79F017BFE9CFD4D062B010E61
:1043500003220158F782FF78FE14016406B3FC02C1
:1043600007B7F86E06D8F4890BDBF28211F0EBAFD9
:10437000176DE8B11DB0DF4E1F0CDC41233DE0FBA3
:104380001F10ED4A0BF8FB9EF9E9091FED9617B3D4
:10439000E4801F5CDCFE2479D7E4265AD9B41F08D8
:1043A000E87014ABF39A0863F7A50931F6F80876BC
:1043B000F1960E7CF0661651F0F60BDAF7A1F9A72C
:1043C00008ECE7EA264DDA803280CC313285CD899F
:1043D0002ADAD49924BEE0A81FF2EBC91156F0AF37
:1043E00004A0FAA900810077FCB50BD4F1F00EE02F
:1043F000E67F1D43E224250FD8DA26AED9072A5DD1
:10440000DD232325DD241E03E48E1461EDB2158126
:10441000F2120DAEF122096EF86304E400E7FB70BE
:1044200003C4F8830AD9F8AF0591F7770950F9A8C2
:104430000862F3600CF2F155122DEC9F10FAE9308E
:1044400012B9F6450B44FA7DFE6E06BAF46D083ECD
:10445000F53A0A2FFD14FFF405A3F6DD0D13EC80E9
:104460000F1DF1E513C5F85B0537FBFAF92704D0FA
:10447000F7AC0949F947045F00E0F9B10B5FF601B9
:104480000E84EB680ADCFA44079E00D8F7E00BFACA
:10449000EFED0E3FEE58109DF4B2086FFE0502C01E
:1044A00003B2F6780708F85002E6FC47FFE509A0DA
:1044B000F3F50AD4F2060C36F76A076500A9FDF891
:1044C0000838F7C60A0DF1DA0ECCF2A40C2CF5115F
:1044D0000A6BF8E2FFE8FDFEFFDD0173000EFE91BE
:1044E000036CFB7502E5FC370320FF07022DFDA7D7
:1044F00005C0F63007A7F2FF0B8BF66F092BF9B555
:104500000442FDE7054FFD2F018301FCFE4F06F03D
:10451000F4350F7EEEA40FFAF0A20E3EF4A207BF10
:10452000F8D806A0F6D708C3F56B0D75EF3F0CA7BA
:10453000F16F126BF5040543F7A100EE027AFD97C7
:1045400004830365FB4C093AEE870F4EEF6112E2DC
:10455000FA550625FFB8F9DD0401F80F0404FFB48D
:10456000004005E3F8180D37EF480D66E7B1156E0A
:10457000EF6E1080F6D004170264F0881372E98899
:1045800020CFDA512683D917299CDA7E1DB9E51C84
:104590001308F38C0C53F61B0A6DF0261175EF60AF
:1045A00010F4F48C062CFBB0FE0A06D4FD49FE96EE
:1045B000FF3FFFFF0507FBF80158FD6E0159FE396B
:1045C000FF220206FB371182EB361D23DF7222E940
:1045D000DE7A196EEEB10A94FA990813FD1704C930
:1045E000F5890577F747FD6302B3FE5C05E800CB6C
:1045F000F7700894F0D0100FF58D039A0577F62523
:104600001002ED3114F3ED58136DEB871500ECD16A
:10461000162CF19606F4FB66FC68099EF69907C015
:10462000F68601EEF9590AA9F5A5112EEB3B100704
:10463000F14D01400728F67813CDEB260796FB399C
:10464000FFED0951F4B20D71F97406C5F68B06023F
:10465000F74D0CD3F59310ADF61F0978F53F06E240
:10466000EEB50B74F0281743F30D0A2BFD08F8760E
:104670000B7EED811281EF931303F3580B2DEF9016
:1046800010F8EFD20D7BF43208440050F8C30C450B
:10469000F5240C1FF63F0587FBFC02730360FFD572
:1046A000FB2604B8FBFF07B9E9EC0FF9EE5C19151E
:1046B000EE820AEEFB84F7DE125BE85B1CB7E1DEFC
:1046C0001EEDE52C185EE0D620B7DFBA24B0D9BACB
:1046D000204FEA8D0B2AFD41F76310ABEE9711D402
:1046E000F23009ABF7E50364FC0602A1FEFC08BC4E
:1046F000F96E0670F0E50D44F3B00E19F97B038CEA
:1047000004F3F7360762F77C030D059AF3400CF3C8
:10471000F50E09C003F8F7E20C8DEED60422FFF483
:10472000F40E1627E8921AABEB750B9AF4240302E9
:10473000FE160924FE6606DFFA9EF81106FAF0F16D
:104740001260F0AD0DB4FF40FDCD062AF42105DC6A
:10475000F8680172042A054500E2009DF5EF003477
:10476000FC65031E046500CCFCF70566F5220E8A85
:10477000F1640CF0FAAB02FC0076FC480148FF5EE5
:10478000F8950611FCCC00D102CCF9F40ADEF96FE1
:10479000FFE004B6F2311192EE2B0ED9F05B0C273C
:1047A000F8A70985EEFC1301F0800FE3F672FDB463
:1047B0000CD3ECB81C6CE7060FFAF788FFEC098FF6
:1047C000F26C0E87F7F1FFF208D0F57A0F98EC1C27
:1047D0000C7EF52304D306ACFC620728EFA70C9BE4
:1047E000F6840511F92F04A301CD0205FCAD05FEE9
:1047F000F97A064EF8AFFF9F0540F30611D8EAB6E6
:104800001AA2EAEB1377F45105EEF865F8EB0318FA
:10481000FADF0B92FD82094CF4C7025EFA3B0431C9
:1048200000C30322049DFC66FF48F9CFFFC5027B4D
:10483000002202F9F709082BFDBD0295FFC9F6B465
:104840001280EA8E1D9AE3C718DCE6A30FACF6CD02
:104850000534FE49036CF9C00101F9E105CF01926D
:10486000FDE30AE8F4130C01F57B0A94FAF201C0A7
:104870000397FF2700A8FC880037FE23FF5B00D6C4
:1048800002510296FCC50066F987FF1E0187FAB83F
:104890001128F1CF14CDE38814F0E9B210B8EE80FE
:1048A0000C23F9D80615FF1BFFCE0310F5F803DF24
:1048B000FC2B02590539F99E0D9EEF3D0483F73913
:1048C000025D09D1F69011DAF5F50A2EF39702BBD5
:1048D000FF8B08F3FF740D73F4C50962F0D60883EB
:1048E000FAF1FEB502C4FE7D06F2F9C4FAB9015828
:1048F000FD100730F88B07A2F7660185F3D6057D1A
:10490000FC7F052103F8FBF40783ED9210F3F469B3
:10491000115DF892029B04FAFAED0AE9F62F049E63
:10492000FE82FDD9079AF88F0C6EF5CE0261F8244D
:1049300004FB030EFD110306FA5D0934EFF30A656B
:10494000F1781416EF590EC6EDA80D94F1980E4BA0
:10495000F4CD0C13F8470902F5DE01D1FA430A1928
:10496000FF4508BEF87EFECCFAE9034206A6FA1817
:1049700005BDF88808E8EE6F0E93EF3917C6E34BD4
:104980002012EA4617E4ED970B9EFF57FB8503665E
:10499000FD5E026E02E3F8310554F449019EFCAB62
:1049A000F6DF091CF26C113FE9D518E9E93F1CFE5E
:1049B000E2332136E33B1C53EA9D1090F20406DB00
:1049C000FFC407B0FCD20532F8850476004CFDCE5A
:1049D00008D3EE47157CE9B31589EA080D87F03D49
:1049E000078CF78A0C06EF3C165FEA872104DF8606
:1049F00014FAEA980993FF9FF4731469EE0012BE4B
:104A0000EC8D09560045FEDA0830F9B5070CFE6753
:104A1000FE0A08ACFA710AE9F48B0754FB7B031910
:104A2000FC16011A022BFB2F0064FCD407B5FC48CE
:104A3000069DFB72FDD7F9AC038B01940459FCADC4
:104A40000474F96E00C2007AF89707DCF42216F1BC
:104A5000EFBD0C3AF20D025F000EF8C50946F7AA49
:104A600001B70241F56216E7E78F1B0EE7E519ED86
:104A7000F2440261FFC5FBE90ABCF77106A1FB5EC7
:104A800000D6FE76FD43FA2905DBFC680972F68D37
:104A90000824F9120095FA62036EFCF502D9F97543
:104AA00009F7F9690CEBF9DD0E12F30B04D6F509E1
:104AB0000CA1FC13FD78FF10F9A50B14F5B40A9CAA
:104AC000F94B003C059BF8740D19F3F31088F5D0F1
:104AD00003D7012BFFC30C07F8BB098CF13B04B6CD
:104AE000F7F00642F339085AF34609FAED2A11B5F0
:104AF000F52B0F02F70C06ECF7690C02F77716BDE1
:104B0000E3FA18FFDD701EFDE8011A09F1D005D4A3
:104B1000FD61F62003C0F876078DF7A50A6CFBA4AB
:104B2000081EF2800B49F31E139DEC2C14D7ED8068
:104B30001970E55F1624E5111989E50F20C9E81CF5
:104B400017B1E21112A1F1E00DC8F62E0A62FD8D37
:104B5000F7D101C9F65F0FD5EF8D1669EF7A0C5AC0
:104B6000F1630688FFE6020BFB0B0F11EE191762CB
:104B7000DE3123A8E29A1A3BE92B10EBF8B804B314
:104B8000FAE206BAFF430023FB79FDE4FFFAFAFEDE
:104B9000007E032804C503A20117FD2AFC99F486B0
:104BA000056F003603C600CE00EB04D400ADF4362A
:104BB0000975F4F30C80F5810EE4FD4B004100AF64
:104BC000FCD6FCB6FB2100570408FA7F0696FBE5ED
:104BD00004A1EB2C1300EB4514F2EE610C2AF95FF3
:104BE0000AC301A0016AFFA80747FF4005A7F96CA7
:104BF000FDFB0235FFD106630584F7D00523F64996
:104C0000FD44FE4CF35713BCEBEB149DECDC0B3F67
:104C1000FC110479FAE2FF52F4A00BDCF470105D91
:104C2000F6B408390089F6BDFE02FA2307A4FF6A2C
:104C3000062D03A2FE470A46F51403DFF59504FD91
:104C400001C3FD580DF7EF74116CEFA006FEFDB621
:104C5000F4790A6DFCF10899FE9800FB04A1FA842E
:104C6000008A0031FB91FA24033CF6610EDAEBC0B6
:104C700014B4EEFC068DFEC8002F04610BA1F9648C
:104C80000DCDE9B21164EEE40CC8FE64014D03568B
:104C900001D3F9ED0697F6C60731F5C802760A1377
:104CA000FC230E88EEBD0BA5E57012BBEEE116B13C
:104CB000EDEE12C3EDF504DAF9F902FCF4F30E019E
:104CC000F5F614E5EDDD0F23F89F04FAF8C8FABDF8
:104CD00005C3FC2804BFFD2106ABF6E10A6EF00116
:104CE0001CA2E8470DD2F0DC0F4EF3250A59F98ECD
:104CF0000466EFF10CFAF02207A0F8CC0B5BF87217
:104D00000694FE72FFB00436FC8703A5FCA60514CA
:104D1000FAA20A6AF5750362FACA0C3FF44110035D
:104D2000F7730E12F2070169FC710A6FF60606A20C
:104D3000FD41011CFCFBFE5CFFE60533F5D40828B1
:104D4000F48A0C62FB23034C002FF7031059F1CBBC
:104D5000070C003AF7350FD8F4A90281FDABF6C273
:104D600009FFF14A0E7FF8DA0B5A0025014AFC1CB4
:104D7000046BF6DB09C9F4DF0839F75F082FF75732
:104D800007C8F34D110EF23D0874FEAF00D906D7E7
:104D9000F60103C7023BF8A105A0FBBC018308A3F1
:104DA000F1A3162EE85F0BBEEFBF0943FA7F032481
:104DB000F91D0FAEE8E11ADEEB2C1552F6A802A29F
:104DC0000348FF1600470893F39B0BCAF234FF1009
:104DD0000345F7610EB6F31611F2EED505CBF76A6F
:104DE0000004FB0411B6F02E172FEE780AC9F24327
:104DF00007EDF78910BAF953099DF5CB0186F77EC7
:104E00000626034EFF5806A4FE76FEAEFF07006599
:104E1000FE240798F7CA0AEFF7810B36F91F0050F6
:104E2000FEE705FDF8FD08BFF3B1084FFA4607306D
:104E3000F7C5F8110308F9E2FE79FF74FA0B0A01CD
:104E4000F4F50566F85F00B607A2F4FF0A19FF1132
:104E500004220377FB920BB4F60B087BF9A90197A8
:104E60000993FAE40BECF8D202350164F9DD01266E
:104E7000FB7701D1FE40FEBE0679F4CE09B6F6AA54
:104E8000054DF6DC0865F9D002F3FA5E036500AB68
:104E900002D8FC090691FD64041BF5970A04FC4541
:104EA000022900FFFBCF075DF7820C0BFF5501D7EE
:104EB000F8C007BEFC21002700BD0A18FA1803BA83
:104EC000F22E00CEF7BA0C09F87F0A35F564FC1F04
:104ED000006BF40A0013F56B09F1FF5FFFA10ACC28
:104EE000FED508D60123FD2E09B0F74E16B8F51DE4
:104EF00009EBF832FFAA0425F8EC067EFC7804578B
:104F0000FE46FC8A06EBF5E5026EFF30FEEF015926
:104F1000F531058FF12B072BF21E0179FE13FC975B
:104F200003A0F83E01BFFD8A005203E1FEF406FB38
:104F3000FD4307110659FEE50A84F4430CE8FA82A2
:104F40000981FD89054D0434020300AAFDCCFF82CE
:104F50000750FA8B06CEFA5703DCFFDCFA92026F99
:104F6000F6E4FBC9EFBEFE17F7B6FDFDFF0F0282A8
:104F7000FC6501B5F7E703A8F7020ADD050C0DC4CF
:104F800002A7022A01DDFE6603420663048408FDCF
:104F9000FDBC02D5FC43FA6D0094FC9B0CDFF6646B
:104FA000FE87FA85FC8400B8FBFA036AFAFEF8581B
:104FB0000205F7D2042EF5A8032BFC6EFCF4036C5B
:104FC000FB8404440028059D046A01350AD1FCF5E0
:104FD0000C340341062D04EB008705DCFCF803C408
:104FE000FF85FDB50650F7C501CEF7A9FCF5FBB767
:104FF000F483FD40F219F70CF96FF86CF9FCFBB281
:1050000000D3003AFB8C0645FB2705910472072C60
:1050100002EA09EC0BBA09A901AA0AD8FE6D072D0C
:1050200008F20C67080F07A5064B00C70385FF872A
:1050300000B7FD8D001CFF2DF7B6F361F44EF3A40D
:10504000F777EDE6F3DDEBC9F780E9B4F423FA81F5
:10505000F85DFD61F9E6FB64FCD201AA0DFC06E8EF
:1050600015B2123D11A80BFE0A1312EF0E5F19457F
:10507000140A12CD1416105211540A48055DFEBCD4
:10508000006FFD43F38CF1ABEB26EB03E1DCE1F9C0
:10509000DDEBE085E543DE21E5A6E3C8ECC6EEF6F0
:1050A000F053F95CF96C06A106C70DC515E116DAD7
:1050B0001F5C1D0921E51EFF1DED20051F14215A4F
:1050C00020B121B01A7418080E2706D40358FD7DAC
:1050D000FE7CF1A0F078E827DF9ADE8AD7E6DBCA0B
:1050E000D05ED56FD6FED59EDFAFD99CE42CE839D3
:1050F000EE81F927FDC809840B61129E151B1A70F9
:105100001F3721722A5D2A742A5929632B5F2A20AE
:10511000262A25971E5619B70E6A0B49054BF99F8B
:10512000F867EFDAF013E2D9D7BFDA25D288CFF0EB
:10513000CEE4D32ED160CFE0D5FCD69DDBECE338B6
:10514000EBFFF75FFEEA055611BE15DF1EDC22F508
:1051500025DF2C9A2A5B311933EF3556343D2E4525
:105160002E6926D320D917740EB00845FC3DF5E30F
:10517000EE20E746E13EDD33DA63D3EECF1DCA64AD
:10518000CC80CB16CCA4D0E2D14FDB80DB9CE5A653
:10519000EB1EF81508D50D8A1B971E8A27E12C7483
:1051A00029AC3109322B38443383319132162980AE
:1051B000262E202A1A4611C9048400BFF804EE5195
:1051C000E670E300E0B4D9EAD9D9D50DD1FACCB173
:1051D000D0B2CF4DD05ED4A9D2AFDBA5DEF4E58549
:1051E000F074FEBD0E3015062582247A266A2871D9
:1051F0002A8330BA32E83421373B347B32AE291867
:1052000021721AA3133F09A5057601B1F829EFAC65
:10521000EB32E399DABFD54BD1D2CE10CEC4C8E879
:10522000CCAECCCBCED6CB25CB65D7D7D9A7E5E7AF
:10523000FA240E431B4A23812C6E2CB029BC2C78F7
:10524000300735D5374F3B783D1D3773311F22AFBF
:1052500017E30F970798049F016F0017F4B3F0DF6F
:10526000E477DDC3D057CB9CCDA2CA4ECE39CB94C8
:10527000CF1FCB86C75AC6C1C5D7D5D6E0A0F78801
:105280000F9A1F1629EC2DD82FA52C972D2B3305FF
:1052900036DB42544717450C418835F824A70FAE3A
:1052A00007D400EBFD55FBFCFFC5FB29ED3EE48870
:1052B000D7F2CA2CC115C56BCA40CCA0D221D28569
:1052C000D1A2C86CBEABBDCECB8CDCFDF4350E6973
:1052D000287E32A032D9307F2CF02FBB2E3138B04F
:1052E00046204F674DEA494D3FB929B512C1031B0E
:1052F000FC77F5C0F4CDFA53FC05F089E586DC8532
:10530000CA91C100BDE4C5E5CAA1D20ED592D7713C
:10531000D108C409C182C906DB16ECDB070A224D9D
:1053200033BB3567327A33EE30732E1832EF3F14C9
:105330004ACE4ACF46F63E9D2E7413FD00C4F90EA8
:10534000F21EECD7F419F6E6F183E42DDEE6D05236
:10535000C4E3BDBCC5F0CD23D17ED76BDBA0D801A3
:10536000CBADC73BCF04DDE9F0E40571257135E332
:105370003934326F350630D32DC230823CFF4A5D5E
:105380004B16464E3E152E9C10A1FC1EF48FEE5A75
:10539000EA07F037F8F1F22CE5D5DC3BD203C0BFC9
:1053A000B997C3B8CA8DCEEAD4D6DE04D772CD86FB
:1053B000C500CC00DA94ED6E0332222B37D13CBF0E
:1053C000374F370133ED2F362EEB3DFD4BAA4D6A9B
:1053D000488043FD30C012CEFAC6F2D3EA1CE7E1A2
:1053E000EE47F9CCF2BBE6C3DF2BD4E8C162BA606A
:1053F000C5BBCC54D160D965E0DBDA66CEA0C6DB94
:10540000C9FFD800E90D02891EDE36683B7C3617DD
:1054100034C832552DE52CD73E754AEA4F234BBC94
:10542000467F30B712FAFD94F30AEBB9E86EF12E1D
:10543000F93FF19FE3FBDB50CF38BCEBBAFAC483F2
:10544000CD95D384DC4FE00DD78DC9DBC1E0C6FD1F
:10545000D4B6EB46066E233838E53DE236C732EC6B
:105460002F842C6E3002420E4F0352FE4FCF47273F
:105470002E7B0F0CFA3AF13CEAEDE94AF370F9F7AA
:10548000EEF8E1D4D8BCCABBBB1DBD0FC8B0D37FFA
:10549000DA6FE25CE4C0D805CA9AC42AC9B1D58BD8
:1054A000F0840CC92780377A3AC134A92DE528E762
:1054B000283E2ED83FA24C2251FD4C40415826C7D1
:1054C0000B34F727F0E3EADEECFBF6A2F927EC0851
:1054D000DF07D257C3A9BA10BE0CC8F1D4C3DC9BF6
:1054E000E3A4DFAED2E4C874C596CC87E087FED3D0
:1054F00019AE3320409F3FD735FF2FCE2CDC2C1424
:1055000034AF46C550964F46462837B71843FB6F11
:10551000ED00EB02E5DBEB55F52EF33CE450D79FB5
:10552000CAF0BFD6BAE1C3ACD20FDB85E052E512B8
:10553000DD1ACF5BC6E9C9A2D5A1ED4409D2249FEB
:1055400038893DF639AE325A2DDB2B1D2DC83C82F1
:105550004AC04E6E49673EBE28EF0A5AF6D0EEBEEC
:10556000EAAAEB35F526F664EBD4E091D323C5B572
:10557000BFB8C39CCD09D728DC79DFF0DB6ECE70D5
:10558000C49CC364CC6BDFF5FC3817C02DDD3A3EFC
:105590003A1F33782C452D5830743A6B49FE559498
:1055A000545547C0351B1A10FF94F1D2EE36EE2643
:1055B000F4D2F91EF12DE438D5C2C3ADBBABBE5455
:1055C000C65FD1D6DCFDE034DBAED074C604BE715C
:1055D000C352D75CF4E510682A893BB43DD6347BCE
:1055E0002D3129D62C9934A045F553CE57214DC0E5
:1055F0003A23207A0431F338EED1EF13F4D8FD903A
:10560000F9F7EA72DBE4CB8DBE03BE85C785D3A86C
:10561000DDA4E3E0E05AD40FC470BD1EBE0ECE651B
:10562000E90507B020CE32E636AC2F7F273E246B4B
:1056300027C7333C453C552B59DA54E141C22688F3
:105640000C52FA9DF4C5F512FA2B0166FE79ECE9CD
:10565000DB96CBCBBC1AB85AC4E6D29FDDBBE306BF
:10566000E400D814C5FBBA80BD77CB28E49103A62B
:1056700020DF3187366B2FB526C021BF258A3056F3
:10568000415D515956FD5120400724A30B5EFAADF0
:10569000F42BF655FB0E0132FF47F0EFDDB9CFCC0E
:1056A000C36DBF86C8B4D7DCE194E5CCE184D8D41F
:1056B000C7BEB9FFB854C807DFA6FB1416332A5E6D
:1056C0002E1C28D321071EED2355306A42A353BA5E
:1056D00059C0538944222A53101A014AFC26FE015C
:1056E000026106A50496F358DF13D001C540BE8FB2
:1056F000C891D80EE055E200E06BD498C575B78923
:10570000B67BC0BDDA5FF5C2108025562D8A2958B8
:1057100022A21ED023D12FB541C8523C598454B87F
:1057200044C82D6A12390350FD59FF0E035C06165A
:10573000032CF579DE78CFD3C744C415C9A3DBD0D9
:10574000E653E56FE23ED8E8C99BBD5ABB3BC42D8A
:10575000D962F52D0AC61DDE278B25761D821ADD3E
:1057600020032C483B584C35554B511940CF2CC386
:1057700015FB04A90023033D098809480515F9AF65
:10578000E41BCEE3C80BC878CDA2D8C7E9CEEA7631
:10579000E290D7A4CD0EC0FDBC24C389D877F07D9C
:1057A0000403141921F6211D1ACF1AB121162B1446
:1057B00038C7498152264EE742CA319B1D600CC052
:1057C0000835095F0B200B01047FF8A2E492D1E7B2
:1057D000C8A7CA2ACEA2D830E439E806DEDFD5C28F
:1057E000CBB8C581C143C911D94AEF71FE630B958E
:1057F00018261A69180D1ACE22462AD03746447C3C
:10580000496346083DCE2F0B1E8B10BA0EA10F78B0
:105810000D540C2E0812F972E7B7D95AD2BFCFBA7D
:10582000D5F8DF0EE5AAE6C3E02ED8B8CD67C64CA2
:10583000C841CC88D688E813F906FFB8098A130B4B
:10584000153517DA22912C4A361D3FE54483412550
:105850003C773184234D19771490136D0F0009980C
:10586000023DF6E3E5A2D974D467D3B4D66EDD4D1C
:10587000E283E186DB8AD6D9D0A2CB94CEA4D5D759
:10588000DCB7E8C1F775FDAB03EC0F2115AC19EBE4
:105890002416313C36663CD7428F3E14373532AD44
:1058A00028CB1DB217F318CA13B4099001CEF8D44F
:1058B000E996DBBCD7A9D7F2DA89DC21DFB1DECDEE
:1058C000D8ACCF61CEB2CADBCCB7D18FDA92E29935
:1058D000ED57F512FAED07B20F8C1812218C304DEE
:1058E00036A73B64421C40C1398D37BD316428F274
:1058F0001F671F091C200F5904A8FDF4F1DFE062A7
:10590000DDA0DDECDD46DF78E2DFDF3ED9EBD2362D
:10591000CFB6CC25CDC9D1EAD70ADE5FE4D9ECA653
:10592000F151FC9206580FF718AC268A2E6B342CD6
:1059300039003C7D34CB344331AF28B020A31D96D1
:105940001DCE14210832029DFC4AEB28E2FEE5DF61
:10595000E62DE305E788E8F0E1A6D953D7EFD50DAA
:10596000D1CBD544D8D3DDC9E3C0EA10EE31F8B8C5
:105970000435098212E21E4C271929B02FB6374D83
:10598000313E2DE32EE528E31E3917901A1D1578B8
:105990000A09026C00F0F52FE6A8E5C9E88CE726B5
:1059A000E69DE941E823DFB4D971D871D567D417F2
:1059B000D6FCDA6CE0C3E6A8ED37F21500E0094F3B
:1059C0000E29184626072A342B7B366837CE3150ED
:1059D0003247311D271D1EF11B751A3A0F1C062F69
:1059E000FFF2F8CEEB06E42DE3BAE20BE214E12776
:1059F000E023DB1DD66DD3DED0D9D195D39DD5EB79
:105A0000DB66DFFAE9DDEF12FA6E0735106E1884F7
:105A100022C62DAF3075355D3C8E3B1038EC3AFD1B
:105A2000344A2B7624C7239519B50E0A098800CC71
:105A3000F3A7EA1AE693E178DC99DBE7DA7DD2FB9B
:105A4000CF9ECEB1CAE6C93CCA02CC05CF3BD3D665
:105A5000DBA5E51AEF3AFCA3064512951BE6249F49
:105A60002C3732DE3D0A3E813D57425A3EDC360F2E
:105A70002D722EFC271C1B7C14A00DA8048AF32970
:105A8000EF21EA7CE599DDDDDD3BD905D36DCD7AEB
:105A9000CCC3CCC9C97AC99CCB1BCFD9D42AD8FED8
:105AA000E412F121FA6804B90E6E1A371E0F255B55
:105AB0002DFA360C35B9395F3B9E37E82E992C709C
:105AC0002BA7240A1B8A15290E7501FEF966F31609
:105AD000EE8DE9AFE4FEE162DC56D8E0D2F1D166AA
